{"fileName":"BondingCurve.sol","contractName":"BondingCurve","source":"pragma solidity ^0.5.7;\n\nimport \"@openzeppelin/contracts-ethereum-package/contracts/token/ERC20/IERC20.sol\";\nimport \"@openzeppelin/contracts-ethereum-package/contracts/math/SafeMath.sol\";\nimport \"@openzeppelin/contracts-ethereum-package/contracts/ownership/Ownable.sol\";\nimport \"@openzeppelin/contracts-ethereum-package/contracts/lifecycle/Pausable.sol\";\nimport \"@openzeppelin/upgrades/contracts/Initializable.sol\";\nimport \"contracts/BondingCurve/BondingCurveBase.sol\";\nimport \"contracts/BondingCurve/interface/IBondingCurveERC20.sol\";\n\n/// @title A bonding curve implementation for buying a selling bonding curve tokens.\n/// @author dOrg\n/// @notice Uses a defined ERC20 token as reserve currency\ncontract BondingCurve is Initializable, BondingCurveBase, IBondingCurveERC20 {\n    using SafeMath for uint256;\n\n    IERC20 internal _collateralToken;\n\n    /// @dev Initialize contract\n    /// @param owner Contract owner, can conduct administrative functions.\n    /// @param beneficiary Recieves a proportion of incoming tokens on buy() and pay() operations.\n    /// @param collateralToken Token accepted as collateral by the curve. (e.g. WETH or DAI)\n    /// @param bondedToken Token native to the curve. The bondingCurve contract has exclusive rights to mint and burn tokens.\n    /// @param buyCurve Curve logic for buy curve.\n    /// @param reservePercentage Percentage of incoming collateralTokens distributed to beneficiary on buys. (The remainder is sent to reserve for sells)\n    /// @param dividendPercentage Percentage of incoming collateralTokens distributed to beneficiary on payments. The remainder being distributed among current bondedToken holders. Divided by precision value.\n    function initialize(\n        address owner,\n        address beneficiary,\n        IERC20 collateralToken,\n        IBondedToken bondedToken,\n        ICurveLogic buyCurve,\n        uint256 reservePercentage,\n        uint256 dividendPercentage,\n        uint256 preMintAmount\n    ) public initializer {\n        BondingCurveBase.initialize(\n            owner,\n            beneficiary,\n            bondedToken,\n            buyCurve,\n            reservePercentage,\n            dividendPercentage,\n            preMintAmount\n        );\n        _collateralToken = collateralToken;\n    }\n\n    function buy(uint256 amount, uint256 maxPrice, address recipient)\n        public\n        whenNotPaused\n        returns (uint256 collateralSent)\n    {\n        (uint256 buyPrice, uint256 toReserve, uint256 toBeneficiary) = _preBuy(amount, maxPrice);\n\n        require(\n            _collateralToken.transferFrom(msg.sender, address(this), buyPrice),\n            TRANSFER_FROM_FAILED\n        );\n        _collateralToken.transfer(_beneficiary, toBeneficiary);\n\n        _postBuy(msg.sender, recipient, amount, buyPrice, toReserve, toBeneficiary);\n        return buyPrice;\n    }\n\n    /// @dev                Sell a given number of bondedTokens for a number of collateralTokens determined by the current rate from the sell curve.\n    /// @param amount       The number of bondedTokens to sell\n    /// @param minReturn    Minimum total price allowable to receive in collateralTokens\n    /// @param recipient    Address to send the new bondedTokens to\n    function sell(uint256 amount, uint256 minReturn, address recipient)\n        public\n        whenNotPaused\n        returns (uint256 collateralReceived)\n    {\n        uint256 burnReward = _preSell(msg.sender, amount, minReturn);\n\n        _collateralToken.transfer(recipient, burnReward);\n\n        _postSell(msg.sender, amount, minReturn, recipient);\n        return burnReward;\n    }\n\n    /// @notice             Pay the DAO in the specified payment token. They will be distributed between the DAO beneficiary and bonded token holders\n    /// @dev                Does not currently support arbitrary token payments\n    /// @param amount       The number of tokens to pay the DAO\n    function pay(uint256 amount) public {\n        require(amount > MICRO_PAYMENT_THRESHOLD, NO_MICRO_PAYMENTS);\n\n        IERC20 paymentToken = _collateralToken;\n\n        uint256 tokensToDividendHolders = (amount.mul(_dividendPercentage)).div(MAX_PERCENTAGE);\n        uint256 tokensToBeneficiary = amount.sub(tokensToDividendHolders);\n\n        // incoming funds\n        require(paymentToken.transferFrom(msg.sender, address(this), amount), TRANSFER_FROM_FAILED);\n\n        // outgoing funds to Beneficiary\n        paymentToken.transfer(_beneficiary, tokensToBeneficiary);\n\n        // outgoing funds to token holders as dividends (stored by BondedToken)\n        paymentToken.approve(address(_bondedToken), tokensToDividendHolders);\n        _bondedToken.distribute(address(this), tokensToDividendHolders);\n\n        emit Pay(\n            msg.sender,\n            address(paymentToken),\n            amount,\n            tokensToBeneficiary,\n            tokensToDividendHolders\n        );\n    }\n\n    /*\n        Getter Functions\n    */\n\n    /// @notice Get reserve token contract\n    function collateralToken() public view returns (IERC20) {\n        return _collateralToken;\n    }\n}\n","sourcePath":"contracts/BondingCurve/BondingCurve.sol","abi":[{"constant":false,"inputs":[{"name":"reservePercentage","type":"uint256"}],"name":"setReservePercentage","outputs":[],"payable":false,"stateMutability":"nonpayable","type":"function"},{"constant":true,"inputs":[],"name":"preMintAmount","outputs":[{"name":"","type":"uint256"}],"payable":false,"stateMutability":"view","type":"function"},{"constant":false,"inputs":[{"name":"beneficiary","type":"address"}],"name":"setBeneficiary","outputs":[],"payable":false,"stateMutability":"nonpayable","type":"function"},{"constant":true,"inputs":[],"name":"beneficiary","outputs":[{"name":"","type":"address"}],"payable":false,"stateMutability":"view","type":"function"},{"constant":false,"inputs":[],"name":"unpause","outputs":[],"payable":false,"stateMutability":"nonpayable","type":"function"},{"constant":true,"inputs":[],"name":"getPaymentThreshold","outputs":[{"name":"","type":"uint256"}],"payable":false,"stateMutability":"view","type":"function"},{"constant":true,"inputs":[{"name":"account","type":"address"}],"name":"isPauser","outputs":[{"name":"","type":"bool"}],"payable":false,"stateMutability":"view","type":"function"},{"constant":false,"inputs":[{"name":"amount","type":"uint256"},{"name":"maxPrice","type":"uint256"},{"name":"recipient","type":"address"}],"name":"buy","outputs":[{"name":"collateralSent","type":"uint256"}],"payable":false,"stateMutability":"nonpayable","type":"function"},{"constant":true,"inputs":[],"name":"paused","outputs":[{"name":"","type":"bool"}],"payable":false,"stateMutability":"view","type":"function"},{"constant":false,"inputs":[{"name":"buyCurve","type":"address"}],"name":"setBuyCurve","outputs":[],"payable":false,"stateMutability":"nonpayable","type":"function"},{"constant":true,"inputs":[],"name":"dividendPercentage","outputs":[{"name":"","type":"uint256"}],"payable":false,"stateMutability":"view","type":"function"},{"constant":true,"inputs":[],"name":"buyCurve","outputs":[{"name":"","type":"address"}],"payable":false,"stateMutability":"view","type":"function"},{"constant":false,"inputs":[],"name":"renouncePauser","outputs":[],"payable":false,"stateMutability":"nonpayable","type":"function"},{"constant":false,"inputs":[],"name":"renounceOwnership","outputs":[],"payable":false,"stateMutability":"nonpayable","type":"function"},{"constant":false,"inputs":[{"name":"owner","type":"address"},{"name":"beneficiary","type":"address"},{"name":"collateralToken","type":"address"},{"name":"bondedToken","type":"address"},{"name":"buyCurve","type":"address"},{"name":"reservePercentage","type":"uint256"},{"name":"dividendPercentage","type":"uint256"},{"name":"preMintAmount","type":"uint256"}],"name":"initialize","outputs":[],"payable":false,"stateMutability":"nonpayable","type":"function"},{"constant":false,"inputs":[{"name":"dividendPercentage","type":"uint256"}],"name":"setDividendPercentage","outputs":[],"payable":false,"stateMutability":"nonpayable","type":"function"},{"constant":false,"inputs":[{"name":"milestoneCap","type":"uint256"}],"name":"setMilestoneCap","outputs":[],"payable":false,"stateMutability":"nonpayable","type":"function"},{"constant":false,"inputs":[{"name":"account","type":"address"}],"name":"addPauser","outputs":[],"payable":false,"stateMutability":"nonpayable","type":"function"},{"constant":false,"inputs":[],"name":"pause","outputs":[],"payable":false,"stateMutability":"nonpayable","type":"function"},{"constant":true,"inputs":[],"name":"owner","outputs":[{"name":"","type":"address"}],"payable":false,"stateMutability":"view","type":"function"},{"constant":true,"inputs":[],"name":"isOwner","outputs":[{"name":"","type":"bool"}],"payable":false,"stateMutability":"view","type":"function"},{"constant":true,"inputs":[],"name":"reserveBalance","outputs":[{"name":"","type":"uint256"}],"payable":false,"stateMutability":"view","type":"function"},{"constant":true,"inputs":[{"name":"numTokens","type":"uint256"}],"name":"priceToBuy","outputs":[{"name":"","type":"uint256"}],"payable":false,"stateMutability":"view","type":"function"},{"constant":true,"inputs":[{"name":"numTokens","type":"uint256"}],"name":"rewardForSell","outputs":[{"name":"","type":"uint256"}],"payable":false,"stateMutability":"view","type":"function"},{"constant":true,"inputs":[],"name":"collateralToken","outputs":[{"name":"","type":"address"}],"payable":false,"stateMutability":"view","type":"function"},{"constant":false,"inputs":[{"name":"amount","type":"uint256"}],"name":"pay","outputs":[],"payable":false,"stateMutability":"nonpayable","type":"function"},{"constant":false,"inputs":[{"name":"sender","type":"address"}],"name":"initialize","outputs":[],"payable":false,"stateMutability":"nonpayable","type":"function"},{"constant":true,"inputs":[],"name":"totalRaised","outputs":[{"name":"","type":"uint256"}],"payable":false,"stateMutability":"view","type":"function"},{"constant":false,"inputs":[{"name":"amount","type":"uint256"},{"name":"minReturn","type":"uint256"},{"name":"recipient","type":"address"}],"name":"sell","outputs":[{"name":"collateralReceived","type":"uint256"}],"payable":false,"stateMutability":"nonpayable","type":"function"},{"constant":true,"inputs":[],"name":"milestoneCap","outputs":[{"name":"","type":"uint256"}],"payable":false,"stateMutability":"view","type":"function"},{"constant":true,"inputs":[],"name":"bondedToken","outputs":[{"name":"","type":"address"}],"payable":false,"stateMutability":"view","type":"function"},{"constant":false,"inputs":[{"name":"owner","type":"address"},{"name":"beneficiary","type":"address"},{"name":"bondedToken","type":"address"},{"name":"buyCurve","type":"address"},{"name":"reservePercentage","type":"uint256"},{"name":"dividendPercentage","type":"uint256"},{"name":"preMintAmount","type":"uint256"}],"name":"initialize","outputs":[],"payable":false,"stateMutability":"nonpayable","type":"function"},{"constant":false,"inputs":[{"name":"newOwner","type":"address"}],"name":"transferOwnership","outputs":[],"payable":false,"stateMutability":"nonpayable","type":"function"},{"constant":true,"inputs":[],"name":"reservePercentage","outputs":[{"name":"","type":"uint256"}],"payable":false,"stateMutability":"view","type":"function"},{"anonymous":false,"inputs":[{"indexed":false,"name":"beneficiary","type":"address"}],"name":"BeneficiarySet","type":"event"},{"anonymous":false,"inputs":[{"indexed":false,"name":"buyCurve","type":"address"}],"name":"BuyCurveSet","type":"event"},{"anonymous":false,"inputs":[{"indexed":false,"name":"sellCurve","type":"address"}],"name":"SellCurveSet","type":"event"},{"anonymous":false,"inputs":[{"indexed":false,"name":"dividendPercentage","type":"uint256"}],"name":"DividendPercentageSet","type":"event"},{"anonymous":false,"inputs":[{"indexed":false,"name":"reservePercentage","type":"uint256"}],"name":"ReservePercentageSet","type":"event"},{"anonymous":false,"inputs":[{"indexed":false,"name":"milestoneCap","type":"uint256"}],"name":"MilestoneCapSet","type":"event"},{"anonymous":false,"inputs":[{"indexed":true,"name":"buyer","type":"address"},{"indexed":true,"name":"recipient","type":"address"},{"indexed":false,"name":"amount","type":"uint256"},{"indexed":false,"name":"price","type":"uint256"},{"indexed":false,"name":"reserveAmount","type":"uint256"},{"indexed":false,"name":"beneficiaryAmount","type":"uint256"}],"name":"Buy","type":"event"},{"anonymous":false,"inputs":[{"indexed":true,"name":"seller","type":"address"},{"indexed":true,"name":"recipient","type":"address"},{"indexed":false,"name":"amount","type":"uint256"},{"indexed":false,"name":"reward","type":"uint256"}],"name":"Sell","type":"event"},{"anonymous":false,"inputs":[{"indexed":true,"name":"from","type":"address"},{"indexed":true,"name":"token","type":"address"},{"indexed":false,"name":"amount","type":"uint256"},{"indexed":false,"name":"beneficiaryAmount","type":"uint256"},{"indexed":false,"name":"dividendAmount","type":"uint256"}],"name":"Pay","type":"event"},{"anonymous":false,"inputs":[{"indexed":false,"name":"account","type":"address"}],"name":"Paused","type":"event"},{"anonymous":false,"inputs":[{"indexed":false,"name":"account","type":"address"}],"name":"Unpaused","type":"event"},{"anonymous":false,"inputs":[{"indexed":true,"name":"account","type":"address"}],"name":"PauserAdded","type":"event"},{"anonymous":false,"inputs":[{"indexed":true,"name":"account","type":"address"}],"name":"PauserRemoved","type":"event"},{"anonymous":false,"inputs":[{"indexed":true,"name":"previousOwner","type":"address"},{"indexed":true,"name":"newOwner","type":"address"}],"name":"OwnershipTransferred","type":"event"}],"bytecode":"0x60806040526139a6806100136000396000f3fe608060405234801561001057600080fd5b50600436106102065760003560e01c806382dc1ec41161011a578063c290d691116100ad578063e06f7e541161007c578063e06f7e5414610898578063e36a4ec7146108b6578063e77fc7a414610900578063f2fde38b146109c2578063f700c82914610a0657610206565b8063c290d6911461079c578063c4d66de8146107ca578063c5c4744c1461080e578063d04c69831461082c57610206565b8063a10954fe116100e9578063a10954fe146106b0578063a194c59c146106ce578063a965f88314610710578063b2016bd41461075257610206565b806382dc1ec4146105f65780638456cb591461063a5780638da5cb5b146106445780638f32d59b1461068e57610206565b80635c975abb1161019d5780636ef8d66d1161016c5780636ef8d66d146104a3578063715018a6146104ad5780637403c6cd146104b75780637e3ad8811461059a578063800a600c146105c857610206565b80635c975abb146103d55780635f112ede146103f75780636bb80d511461043b5780636e0c08bf1461045957610206565b80633f4ba83a116101d95780633f4ba83a146102e5578063468fb75d146102ef57806346fbf68e1461030d57806359a87bc11461036957610206565b80631132454d1461020b578063148829f5146102395780631c31f7101461025757806338af3eed1461029b575b600080fd5b6102376004803603602081101561022157600080fd5b8101908080359060200190929190505050610a24565b005b610241610a81565b6040518082815260200191505060405180910390f35b6102996004803603602081101561026d57600080fd5b81019080803573ffffffffffffffffffffffffffffffffffffffff169060200190929190505050610a8b565b005b6102a3610b65565b604051808273ffffffffffffffffffffffffffffffffffffffff1673ffffffffffffffffffffffffffffffffffffffff16815260200191505060405180910390f35b6102ed610b8f565b005b6102f7610c94565b6040518082815260200191505060405180910390f35b61034f6004803603602081101561032357600080fd5b81019080803573ffffffffffffffffffffffffffffffffffffffff169060200190929190505050610c9d565b604051808215151515815260200191505060405180910390f35b6103bf6004803603606081101561037f57600080fd5b810190808035906020019092919080359060200190929190803573ffffffffffffffffffffffffffffffffffffffff169060200190929190505050610cba565b6040518082815260200191505060405180910390f35b6103dd610fe5565b604051808215151515815260200191505060405180910390f35b6104396004803603602081101561040d57600080fd5b81019080803573ffffffffffffffffffffffffffffffffffffffff169060200190929190505050610ffc565b005b6104436110d6565b6040518082815260200191505060405180910390f35b6104616110e0565b604051808273ffffffffffffffffffffffffffffffffffffffff1673ffffffffffffffffffffffffffffffffffffffff16815260200191505060405180910390f35b6104ab61110a565b005b6104b561111c565b005b61059860048036036101008110156104ce57600080fd5b81019080803573ffffffffffffffffffffffffffffffffffffffff169060200190929190803573ffffffffffffffffffffffffffffffffffffffff169060200190929190803573ffffffffffffffffffffffffffffffffffffffff169060200190929190803573ffffffffffffffffffffffffffffffffffffffff169060200190929190803573ffffffffffffffffffffffffffffffffffffffff1690602001909291908035906020019092919080359060200190929190803590602001909291905050506111ee565b005b6105c6600480360360208110156105b057600080fd5b8101908080359060200190929190505050611345565b005b6105f4600480360360208110156105de57600080fd5b81019080803590602001909291905050506113a2565b005b6106386004803603602081101561060c57600080fd5b81019080803573ffffffffffffffffffffffffffffffffffffffff1690602001909291905050506113ff565b005b610642611470565b005b61064c611576565b604051808273ffffffffffffffffffffffffffffffffffffffff1673ffffffffffffffffffffffffffffffffffffffff16815260200191505060405180910390f35b6106966115a0565b604051808215151515815260200191505060405180910390f35b6106b86115ff565b6040518082815260200191505060405180910390f35b6106fa600480360360208110156106e457600080fd5b8101908080359060200190929190505050611609565b6040518082815260200191505060405180910390f35b61073c6004803603602081101561072657600080fd5b81019080803590602001909291905050506116d9565b6040518082815260200191505060405180910390f35b61075a611717565b604051808273ffffffffffffffffffffffffffffffffffffffff1673ffffffffffffffffffffffffffffffffffffffff16815260200191505060405180910390f35b6107c8600480360360208110156107b257600080fd5b8101908080359060200190929190505050611741565b005b61080c600480360360208110156107e057600080fd5b81019080803573ffffffffffffffffffffffffffffffffffffffff169060200190929190505050611d4f565b005b610816611e73565b6040518082815260200191505060405180910390f35b6108826004803603606081101561084257600080fd5b810190808035906020019092919080359060200190929190803573ffffffffffffffffffffffffffffffffffffffff169060200190929190505050611e7d565b6040518082815260200191505060405180910390f35b6108a0611fa4565b6040518082815260200191505060405180910390f35b6108be611fae565b604051808273ffffffffffffffffffffffffffffffffffffffff1673ffffffffffffffffffffffffffffffffffffffff16815260200191505060405180910390f35b6109c0600480360360e081101561091657600080fd5b81019080803573ffffffffffffffffffffffffffffffffffffffff169060200190929190803573ffffffffffffffffffffffffffffffffffffffff169060200190929190803573ffffffffffffffffffffffffffffffffffffffff169060200190929190803573ffffffffffffffffffffffffffffffffffffffff169060200190929190803590602001909291908035906020019092919080359060200190929190505050611fd8565b005b610a04600480360360208110156109d857600080fd5b81019080803573ffffffffffffffffffffffffffffffffffffffff169060200190929190505050612356565b005b610a0e612373565b6040518082815260200191505060405180910390f35b610a2c6115a0565b610a3557600080fd5b610a3e8161237d565b8060d0819055507f1c9624cab905d59a0466bc9814df531d8d661e92d7e389bdda562843d362125260d0546040518082815260200191505060405180910390a150565b600060d254905090565b610a936115a0565b610a9c57600080fd5b8060ce60006101000a81548173ffffffffffffffffffffffffffffffffffffffff021916908373ffffffffffffffffffffffffffffffffffffffff1602179055507f04d55a8be181fb8d75b76f2d48aa0b2ee40f47e53d6e61763eeeec46feea8a2460ce60009054906101000a900473ffffffffffffffffffffffffffffffffffffffff16604051808273ffffffffffffffffffffffffffffffffffffffff1673ffffffffffffffffffffffffffffffffffffffff16815260200191505060405180910390a150565b600060ce60009054906101000a900473ffffffffffffffffffffffffffffffffffffffff16905090565b610b9f610b9a612445565b610c9d565b610bf4576040517f08c379a00000000000000000000000000000000000000000000000000000000081526004018080602001828103825260308152602001806137bc6030913960400191505060405180910390fd5b609960009054906101000a900460ff16610c0d57600080fd5b6000609960006101000a81548160ff0219169083151502179055507f5db9ee0a495bf2e6ff9c91a7834c1ba4fdd244a5e8aa4e537bd38aeae4b073aa610c51612445565b604051808273ffffffffffffffffffffffffffffffffffffffff1673ffffffffffffffffffffffffffffffffffffffff16815260200191505060405180910390a1565b60006064905090565b6000610cb382606661244d90919063ffffffff16565b9050919050565b6000609960009054906101000a900460ff1615610cd657600080fd5b6000806000610ce587876124df565b92509250925060d560009054906101000a900473ffffffffffffffffffffffffffffffffffffffff1673ffffffffffffffffffffffffffffffffffffffff166323b872dd3330866040518463ffffffff1660e01b8152600401808473ffffffffffffffffffffffffffffffffffffffff1673ffffffffffffffffffffffffffffffffffffffff1681526020018373ffffffffffffffffffffffffffffffffffffffff1673ffffffffffffffffffffffffffffffffffffffff1681526020018281526020019350505050602060405180830381600087803b158015610dc857600080fd5b505af1158015610ddc573d6000803e3d6000fd5b505050506040513d6020811015610df257600080fd5b81019080805190602001909291905050506040518060600160405280602f8152602001613893602f913990610ec2576040517f08c379a00000000000000000000000000000000000000000000000000000000081526004018080602001828103825283818151815260200191508051906020019080838360005b83811015610e87578082015181840152602081019050610e6c565b50505050905090810190601f168015610eb45780820380516001836020036101000a031916815260200191505b509250505060405180910390fd5b5060d560009054906101000a900473ffffffffffffffffffffffffffffffffffffffff1673ffffffffffffffffffffffffffffffffffffffff1663a9059cbb60ce60009054906101000a900473ffffffffffffffffffffffffffffffffffffffff16836040518363ffffffff1660e01b8152600401808373ffffffffffffffffffffffffffffffffffffffff1673ffffffffffffffffffffffffffffffffffffffff16815260200182815260200192505050602060405180830381600087803b158015610f8e57600080fd5b505af1158015610fa2573d6000803e3d6000fd5b505050506040513d6020811015610fb857600080fd5b810190808051906020019092919050505050610fd83386898686866126da565b8293505050509392505050565b6000609960009054906101000a900460ff16905090565b6110046115a0565b61100d57600080fd5b8060cd60006101000a81548173ffffffffffffffffffffffffffffffffffffffff021916908373ffffffffffffffffffffffffffffffffffffffff1602179055507f0e02a9592d79145f9fedb4a3e33b34afe1aa6cbcf0144264d775660872133dcb60cd60009054906101000a900473ffffffffffffffffffffffffffffffffffffffff16604051808273ffffffffffffffffffffffffffffffffffffffff1673ffffffffffffffffffffffffffffffffffffffff16815260200191505060405180910390a150565b600060d154905090565b600060cd60009054906101000a900473ffffffffffffffffffffffffffffffffffffffff16905090565b61111a611115612445565b61285f565b565b6111246115a0565b61112d57600080fd5b600073ffffffffffffffffffffffffffffffffffffffff16603360009054906101000a900473ffffffffffffffffffffffffffffffffffffffff1673ffffffffffffffffffffffffffffffffffffffff167f8be0079c531659141344cd1fd0a4f28419497f9722a3daafe3b4186f6b6457e060405160405180910390a36000603360006101000a81548173ffffffffffffffffffffffffffffffffffffffff021916908373ffffffffffffffffffffffffffffffffffffffff160217905550565b600060019054906101000a900460ff168061120d575061120c6128b9565b5b8061122457506000809054906101000a900460ff16155b611279576040517f08c379a000000000000000000000000000000000000000000000000000000000815260040180806020018281038252602e8152602001806138ee602e913960400191505060405180910390fd5b60008060019054906101000a900460ff1615905080156112c9576001600060016101000a81548160ff02191690831515021790555060016000806101000a81548160ff0219169083151502179055505b6112d889898888888888611fd8565b8660d560006101000a81548173ffffffffffffffffffffffffffffffffffffffff021916908373ffffffffffffffffffffffffffffffffffffffff160217905550801561133a5760008060016101000a81548160ff0219169083151502179055505b505050505050505050565b61134d6115a0565b61135657600080fd5b61135f816128ca565b8060d1819055507f166d8e25d41b160842e42025bfcb3d39140637edb9c61d8355a244ec04e2438660d1546040518082815260200191505060405180910390a150565b6113aa6115a0565b6113b357600080fd5b6113bc81612992565b8060d3819055507fdd599b47a3fea783b9b5273863b763aade829261418b403d061b367a219db48a60d3546040518082815260200191505060405180910390a150565b61140f61140a612445565b610c9d565b611464576040517f08c379a00000000000000000000000000000000000000000000000000000000081526004018080602001828103825260308152602001806137bc6030913960400191505060405180910390fd5b61146d81612a5b565b50565b61148061147b612445565b610c9d565b6114d5576040517f08c379a00000000000000000000000000000000000000000000000000000000081526004018080602001828103825260308152602001806137bc6030913960400191505060405180910390fd5b609960009054906101000a900460ff16156114ef57600080fd5b6001609960006101000a81548160ff0219169083151502179055507f62e78cea01bee320cd4e420270b5ea74000d11b0c9f74754ebdbfc544b05a258611533612445565b604051808273ffffffffffffffffffffffffffffffffffffffff1673ffffffffffffffffffffffffffffffffffffffff16815260200191505060405180910390a1565b6000603360009054906101000a900473ffffffffffffffffffffffffffffffffffffffff16905090565b6000603360009054906101000a900473ffffffffffffffffffffffffffffffffffffffff1673ffffffffffffffffffffffffffffffffffffffff166115e3612445565b73ffffffffffffffffffffffffffffffffffffffff1614905090565b600060cf54905090565b600060cd60009054906101000a900473ffffffffffffffffffffffffffffffffffffffff1673ffffffffffffffffffffffffffffffffffffffff1663bc62d5f0611651612ab5565b60cf54856040518463ffffffff1660e01b815260040180848152602001838152602001828152602001935050505060206040518083038186803b15801561169757600080fd5b505afa1580156116ab573d6000803e3d6000fd5b505050506040513d60208110156116c157600080fd5b81019080805190602001909291905050509050919050565b6000806116e583611609565b905061170f606461170160d05484612c2b90919063ffffffff16565b612c6590919063ffffffff16565b915050919050565b600060d560009054906101000a900473ffffffffffffffffffffffffffffffffffffffff16905090565b606481116040518060800160405280605281526020016138196052913990611804576040517f08c379a00000000000000000000000000000000000000000000000000000000081526004018080602001828103825283818151815260200191508051906020019080838360005b838110156117c95780820151818401526020810190506117ae565b50505050905090810190601f1680156117f65780820380516001836020036101000a031916815260200191505b509250505060405180910390fd5b50600060d560009054906101000a900473ffffffffffffffffffffffffffffffffffffffff1690506000611856606461184860d15486612c2b90919063ffffffff16565b612c6590919063ffffffff16565b9050600061186d8285612c8b90919063ffffffff16565b90508273ffffffffffffffffffffffffffffffffffffffff166323b872dd3330876040518463ffffffff1660e01b8152600401808473ffffffffffffffffffffffffffffffffffffffff1673ffffffffffffffffffffffffffffffffffffffff1681526020018373ffffffffffffffffffffffffffffffffffffffff1673ffffffffffffffffffffffffffffffffffffffff1681526020018281526020019350505050602060405180830381600087803b15801561192a57600080fd5b505af115801561193e573d6000803e3d6000fd5b505050506040513d602081101561195457600080fd5b81019080805190602001909291905050506040518060600160405280602f8152602001613893602f913990611a24576040517f08c379a00000000000000000000000000000000000000000000000000000000081526004018080602001828103825283818151815260200191508051906020019080838360005b838110156119e95780820151818401526020810190506119ce565b50505050905090810190601f168015611a165780820380516001836020036101000a031916815260200191505b509250505060405180910390fd5b508273ffffffffffffffffffffffffffffffffffffffff1663a9059cbb60ce60009054906101000a900473ffffffffffffffffffffffffffffffffffffffff16836040518363ffffffff1660e01b8152600401808373ffffffffffffffffffffffffffffffffffffffff1673ffffffffffffffffffffffffffffffffffffffff16815260200182815260200192505050602060405180830381600087803b158015611ace57600080fd5b505af1158015611ae2573d6000803e3d6000fd5b505050506040513d6020811015611af857600080fd5b8101908080519060200190929190505050508273ffffffffffffffffffffffffffffffffffffffff1663095ea7b360cc60009054906101000a900473ffffffffffffffffffffffffffffffffffffffff16846040518363ffffffff1660e01b8152600401808373ffffffffffffffffffffffffffffffffffffffff1673ffffffffffffffffffffffffffffffffffffffff16815260200182815260200192505050602060405180830381600087803b158015611bb357600080fd5b505af1158015611bc7573d6000803e3d6000fd5b505050506040513d6020811015611bdd57600080fd5b81019080805190602001909291905050505060cc60009054906101000a900473ffffffffffffffffffffffffffffffffffffffff1673ffffffffffffffffffffffffffffffffffffffff1663fb93210830846040518363ffffffff1660e01b8152600401808373ffffffffffffffffffffffffffffffffffffffff1673ffffffffffffffffffffffffffffffffffffffff16815260200182815260200192505050602060405180830381600087803b158015611c9857600080fd5b505af1158015611cac573d6000803e3d6000fd5b505050506040513d6020811015611cc257600080fd5b8101908080519060200190929190505050508273ffffffffffffffffffffffffffffffffffffffff163373ffffffffffffffffffffffffffffffffffffffff167f1e4131bac8779daab09f166c157a948dba244c5c40d44558d77fb487abc31b3686848660405180848152602001838152602001828152602001935050505060405180910390a350505050565b600060019054906101000a900460ff1680611d6e5750611d6d6128b9565b5b80611d8557506000809054906101000a900460ff16155b611dda576040517f08c379a000000000000000000000000000000000000000000000000000000000815260040180806020018281038252602e8152602001806138ee602e913960400191505060405180910390fd5b60008060019054906101000a900460ff161590508015611e2a576001600060016101000a81548160ff02191690831515021790555060016000806101000a81548160ff0219169083151502179055505b611e3382612cab565b6000609960006101000a81548160ff0219169083151502179055508015611e6f5760008060016101000a81548160ff0219169083151502179055505b5050565b600060d454905090565b6000609960009054906101000a900460ff1615611e9957600080fd5b6000611ea6338686612dc2565b905060d560009054906101000a900473ffffffffffffffffffffffffffffffffffffffff1673ffffffffffffffffffffffffffffffffffffffff1663a9059cbb84836040518363ffffffff1660e01b8152600401808373ffffffffffffffffffffffffffffffffffffffff1673ffffffffffffffffffffffffffffffffffffffff16815260200182815260200192505050602060405180830381600087803b158015611f5157600080fd5b505af1158015611f65573d6000803e3d6000fd5b505050506040513d6020811015611f7b57600080fd5b810190808051906020019092919050505050611f9933868686613117565b809150509392505050565b600060d354905090565b600060cc60009054906101000a900473ffffffffffffffffffffffffffffffffffffffff16905090565b600060019054906101000a900460ff1680611ff75750611ff66128b9565b5b8061200e57506000809054906101000a900460ff16155b612063576040517f08c379a000000000000000000000000000000000000000000000000000000000815260040180806020018281038252602e8152602001806138ee602e913960400191505060405180910390fd5b60008060019054906101000a900460ff1615905080156120b3576001600060016101000a81548160ff02191690831515021790555060016000806101000a81548160ff0219169083151502179055505b6120bc846128ca565b6120c58361237d565b6120ce88613266565b6120d788611d4f565b8660ce60006101000a81548173ffffffffffffffffffffffffffffffffffffffff021916908373ffffffffffffffffffffffffffffffffffffffff1602179055508460cd60006101000a81548173ffffffffffffffffffffffffffffffffffffffff021916908373ffffffffffffffffffffffffffffffffffffffff1602179055508560cc60006101000a81548173ffffffffffffffffffffffffffffffffffffffff021916908373ffffffffffffffffffffffffffffffffffffffff1602179055508160d2819055508360d0819055508260d1819055507f0e02a9592d79145f9fedb4a3e33b34afe1aa6cbcf0144264d775660872133dcb60cd60009054906101000a900473ffffffffffffffffffffffffffffffffffffffff16604051808273ffffffffffffffffffffffffffffffffffffffff1673ffffffffffffffffffffffffffffffffffffffff16815260200191505060405180910390a17f04d55a8be181fb8d75b76f2d48aa0b2ee40f47e53d6e61763eeeec46feea8a2460ce60009054906101000a900473ffffffffffffffffffffffffffffffffffffffff16604051808273ffffffffffffffffffffffffffffffffffffffff1673ffffffffffffffffffffffffffffffffffffffff16815260200191505060405180910390a17f1c9624cab905d59a0466bc9814df531d8d661e92d7e389bdda562843d362125260d0546040518082815260200191505060405180910390a17f166d8e25d41b160842e42025bfcb3d39140637edb9c61d8355a244ec04e2438660d1546040518082815260200191505060405180910390a1801561234c5760008060016101000a81548160ff0219169083151502179055505b5050505050505050565b61235e6115a0565b61236757600080fd5b61237081613424565b50565b600060d054905090565b60648111156040518060600160405280602c81526020016138c2602c913990612441576040517f08c379a00000000000000000000000000000000000000000000000000000000081526004018080602001828103825283818151815260200191508051906020019080838360005b838110156124065780820151818401526020810190506123eb565b50505050905090810190601f1680156124335780820380516001836020036101000a031916815260200191505b509250505060405180910390fd5b5050565b600033905090565b60008073ffffffffffffffffffffffffffffffffffffffff168273ffffffffffffffffffffffffffffffffffffffff16141561248857600080fd5b8260000160008373ffffffffffffffffffffffffffffffffffffffff1673ffffffffffffffffffffffffffffffffffffffff16815260200190815260200160002060009054906101000a900460ff16905092915050565b60008060008085116040518060600160405280602e8152602001613944602e9139906125a6576040517f08c379a00000000000000000000000000000000000000000000000000000000081526004018080602001828103825283818151815260200191508051906020019080838360005b8381101561256b578082015181840152602081019050612550565b50505050905090810190601f1680156125985780820380516001836020036101000a031916815260200191505b509250505060405180910390fd5b506125b085611609565b92506000841461267f578383111560405180606001604052806028815260200161391c602891399061267d576040517f08c379a00000000000000000000000000000000000000000000000000000000081526004018080602001828103825283818151815260200191508051906020019080838360005b83811015612642578082015181840152602081019050612627565b50505050905090810190601f16801561266f5780820380516001836020036101000a031916815260200191505b509250505060405180910390fd5b505b612688856116d9565b915061269d8284612c8b90919063ffffffff16565b90506126b48160d45461351e90919063ffffffff16565b60d4819055506126c261353d565b156126d3576126d260d454613549565b5b9250925092565b6126ef8260cf5461351e90919063ffffffff16565b60cf8190555060cc60009054906101000a900473ffffffffffffffffffffffffffffffffffffffff1673ffffffffffffffffffffffffffffffffffffffff166340c10f1986866040518363ffffffff1660e01b8152600401808373ffffffffffffffffffffffffffffffffffffffff1673ffffffffffffffffffffffffffffffffffffffff16815260200182815260200192505050602060405180830381600087803b15801561279e57600080fd5b505af11580156127b2573d6000803e3d6000fd5b505050506040513d60208110156127c857600080fd5b8101908080519060200190929190505050508473ffffffffffffffffffffffffffffffffffffffff168673ffffffffffffffffffffffffffffffffffffffff167f75a85e7be0265abefef113ee168a0d751385a985c3a37920ae97ae192d2eadb4868686866040518085815260200184815260200183815260200182815260200194505050505060405180910390a3505050505050565b61287381606661362f90919063ffffffff16565b8073ffffffffffffffffffffffffffffffffffffffff167fcd265ebaf09df2871cc7bd4133404a235ba12eff2041bb89d9c714a2621c7c7e60405160405180910390a250565b600080303b90506000811491505090565b60648111156040518060600160405280602d81526020016137ec602d91399061298e576040517f08c379a00000000000000000000000000000000000000000000000000000000081526004018080602001828103825283818151815260200191508051906020019080838360005b83811015612953578082015181840152602081019050612938565b50505050905090810190601f1680156129805780820380516001836020036101000a031916815260200191505b509250505060405180910390fd5b5050565b60d4548110156040518060600160405280602981526020016137936029913990612a57576040517f08c379a00000000000000000000000000000000000000000000000000000000081526004018080602001828103825283818151815260200191508051906020019080838360005b83811015612a1c578082015181840152602081019050612a01565b50505050905090810190601f168015612a495780820380516001836020036101000a031916815260200191505b509250505060405180910390fd5b5050565b612a6f8160666136da90919063ffffffff16565b8073ffffffffffffffffffffffffffffffffffffffff167f6719d08c1888103bea251a4ed56406bd0c3e69723c8a1686e017e7bbe159b6f860405160405180910390a250565b6000612abf613786565b15612b8257612b7b60d25460cc60009054906101000a900473ffffffffffffffffffffffffffffffffffffffff1673ffffffffffffffffffffffffffffffffffffffff166318160ddd6040518163ffffffff1660e01b815260040160206040518083038186803b158015612b3257600080fd5b505afa158015612b46573d6000803e3d6000fd5b505050506040513d6020811015612b5c57600080fd5b8101908080519060200190929190505050612c8b90919063ffffffff16565b9050612c28565b60cc60009054906101000a900473ffffffffffffffffffffffffffffffffffffffff1673ffffffffffffffffffffffffffffffffffffffff166318160ddd6040518163ffffffff1660e01b815260040160206040518083038186803b158015612bea57600080fd5b505afa158015612bfe573d6000803e3d6000fd5b505050506040513d6020811015612c1457600080fd5b810190808051906020019092919050505090505b90565b600080831415612c3e5760009050612c5f565b6000828402905082848281612c4f57fe5b0414612c5a57600080fd5b809150505b92915050565b6000808211612c7357600080fd5b6000828481612c7e57fe5b0490508091505092915050565b600082821115612c9a57600080fd5b600082840390508091505092915050565b600060019054906101000a900460ff1680612cca5750612cc96128b9565b5b80612ce157506000809054906101000a900460ff16155b612d36576040517f08c379a000000000000000000000000000000000000000000000000000000000815260040180806020018281038252602e8152602001806138ee602e913960400191505060405180910390fd5b60008060019054906101000a900460ff161590508015612d86576001600060016101000a81548160ff02191690831515021790555060016000806101000a81548160ff0219169083151502179055505b612d8f82610c9d565b612d9d57612d9c82612a5b565b5b8015612dbe5760008060016101000a81548160ff0219169083151502179055505b5050565b60008083116040518060600160405280602e8152602001613944602e913990612e86576040517f08c379a00000000000000000000000000000000000000000000000000000000081526004018080602001828103825283818151815260200191508051906020019080838360005b83811015612e4b578082015181840152602081019050612e30565b50505050905090810190601f168015612e785780820380516001836020036101000a031916815260200191505b509250505060405180910390fd5b508260cc60009054906101000a900473ffffffffffffffffffffffffffffffffffffffff1673ffffffffffffffffffffffffffffffffffffffff166370a08231866040518263ffffffff1660e01b8152600401808273ffffffffffffffffffffffffffffffffffffffff1673ffffffffffffffffffffffffffffffffffffffff16815260200191505060206040518083038186803b158015612f2757600080fd5b505afa158015612f3b573d6000803e3d6000fd5b505050506040513d6020811015612f5157600080fd5b810190808051906020019092919050505010156040518060400160405280601281526020017f496e737566666963656e7420746f6b656e73000000000000000000000000000081525090613040576040517f08c379a00000000000000000000000000000000000000000000000000000000081526004018080602001828103825283818151815260200191508051906020019080838360005b83811015613005578082015181840152602081019050612fea565b50505050905090810190601f1680156130325780820380516001836020036101000a031916815260200191505b509250505060405180910390fd5b5061304a836116d9565b90508181101560405180606001604052806028815260200161386b602891399061310f576040517f08c379a00000000000000000000000000000000000000000000000000000000081526004018080602001828103825283818151815260200191508051906020019080838360005b838110156130d45780820151818401526020810190506130b9565b50505050905090810190601f1680156131015780820380516001836020036101000a031916815260200191505b509250505060405180910390fd5b509392505050565b61312c8260cf54612c8b90919063ffffffff16565b60cf8190555060cc60009054906101000a900473ffffffffffffffffffffffffffffffffffffffff1673ffffffffffffffffffffffffffffffffffffffff16639dc29fac85856040518363ffffffff1660e01b8152600401808373ffffffffffffffffffffffffffffffffffffffff1673ffffffffffffffffffffffffffffffffffffffff16815260200182815260200192505050600060405180830381600087803b1580156131db57600080fd5b505af11580156131ef573d6000803e3d6000fd5b505050508073ffffffffffffffffffffffffffffffffffffffff168473ffffffffffffffffffffffffffffffffffffffff167fa082022e93cfcd9f1da5f9236718053910f7e840da080c789c7845698dc032ff8585604051808381526020018281526020019250505060405180910390a350505050565b600060019054906101000a900460ff168061328557506132846128b9565b5b8061329c57506000809054906101000a900460ff16155b6132f1576040517f08c379a000000000000000000000000000000000000000000000000000000000815260040180806020018281038252602e8152602001806138ee602e913960400191505060405180910390fd5b60008060019054906101000a900460ff161590508015613341576001600060016101000a81548160ff02191690831515021790555060016000806101000a81548160ff0219169083151502179055505b81603360006101000a81548173ffffffffffffffffffffffffffffffffffffffff021916908373ffffffffffffffffffffffffffffffffffffffff160217905550603360009054906101000a900473ffffffffffffffffffffffffffffffffffffffff1673ffffffffffffffffffffffffffffffffffffffff16600073ffffffffffffffffffffffffffffffffffffffff167f8be0079c531659141344cd1fd0a4f28419497f9722a3daafe3b4186f6b6457e060405160405180910390a380156134205760008060016101000a81548160ff0219169083151502179055505b5050565b600073ffffffffffffffffffffffffffffffffffffffff168173ffffffffffffffffffffffffffffffffffffffff16141561345e57600080fd5b8073ffffffffffffffffffffffffffffffffffffffff16603360009054906101000a900473ffffffffffffffffffffffffffffffffffffffff1673ffffffffffffffffffffffffffffffffffffffff167f8be0079c531659141344cd1fd0a4f28419497f9722a3daafe3b4186f6b6457e060405160405180910390a380603360006101000a81548173ffffffffffffffffffffffffffffffffffffffff021916908373ffffffffffffffffffffffffffffffffffffffff16021790555050565b60008082840190508381101561353357600080fd5b8091505092915050565b60008060d35411905090565b60d3548111156040518060400160405280601581526020017f6d696c6573746f6e6543617020657863656564656400000000000000000000008152509061362b576040517f08c379a00000000000000000000000000000000000000000000000000000000081526004018080602001828103825283818151815260200191508051906020019080838360005b838110156135f05780820151818401526020810190506135d5565b50505050905090810190601f16801561361d5780820380516001836020036101000a031916815260200191505b509250505060405180910390fd5b5050565b600073ffffffffffffffffffffffffffffffffffffffff168173ffffffffffffffffffffffffffffffffffffffff16141561366957600080fd5b613673828261244d565b61367c57600080fd5b60008260000160008373ffffffffffffffffffffffffffffffffffffffff1673ffffffffffffffffffffffffffffffffffffffff16815260200190815260200160002060006101000a81548160ff0219169083151502179055505050565b600073ffffffffffffffffffffffffffffffffffffffff168173ffffffffffffffffffffffffffffffffffffffff16141561371457600080fd5b61371e828261244d565b1561372857600080fd5b60018260000160008373ffffffffffffffffffffffffffffffffffffffff1673ffffffffffffffffffffffffffffffffffffffff16815260200190815260200160002060006101000a81548160ff0219169083151502179055505050565b60008060d2541190509056fe6d696c6573746f6e65436170206d7573742062652073657420746f20612076616c69642076616c7565506175736572526f6c653a2063616c6c657220646f6573206e6f742068617665207468652050617573657220726f6c656469766964656e6450657263656e74616765206d75737420626520612076616c69642070657263656e746167655061796d656e7420616d6f756e74206d7573742062652067726561746572207468616e203130302027756e6974732720666f722063616c63756c6174696f6e7320746f20776f726b20636f72726563746c7943757272656e742070726963652069732062656c6f77206d696e696d756d207370656369666965645472616e73666572206f6620636f6c6c61746572616c546f6b656e732066726f6d2073656e646572206661696c65647265736572766550657263656e74616765206d75737420626520612076616c69642070657263656e74616765436f6e747261637420696e7374616e63652068617320616c7265616479206265656e20696e697469616c697a656443757272656e74207072696365206578636565646573206d6178696d756d207370656369666965644d75737420737065636966792061206e6f6e2d7a65726f20616d6f756e74206f6620626f6e646564546f6b656e73a265627a7a72305820cb6500b36ecd98adb7ee6cb8835e114a9ca7d84bbec735e0598d187096a9568664736f6c634300050a0032","compiler":{"name":"solc","version":"0.5.10+commit.5a6ea5b1.Emscripten.clang","optimizer":{"enabled":false,"runs":200},"evmVersion":"constantinople"}}