{
    "fileName": "BondingCurveEther.sol",
    "contractName": "BondingCurveEther",
    "source": "pragma solidity ^0.5.7;\n\nimport \"@openzeppelin/contracts-ethereum-package/contracts/token/ERC20/IERC20.sol\";\nimport \"@openzeppelin/contracts-ethereum-package/contracts/math/SafeMath.sol\";\nimport \"@openzeppelin/contracts-ethereum-package/contracts/ownership/Ownable.sol\";\nimport \"@openzeppelin/contracts-ethereum-package/contracts/lifecycle/Pausable.sol\";\nimport \"@openzeppelin/upgrades/contracts/Initializable.sol\";\nimport \"contracts/BondingCurve/BondingCurveBase.sol\";\nimport \"contracts/BondingCurve/interface/IBondingCurveEther.sol\";\n\n/// @title A bonding curve implementation for buying a selling bonding curve tokens.\n/// @author dOrg\n/// @notice Uses Ether as reserve currency\ncontract BondingCurveEther is Initializable, BondingCurveBase, IBondingCurveEther {\n    using SafeMath for uint256;\n\n    string internal constant INSUFFICENT_ETHER = \"Insufficent Ether\";\n    string internal constant INCORRECT_ETHER_SENT = \"Incorrect Ether value sent\";\n    string internal constant MATH_ERROR_SPLITTING_COLLATERAL = \"Calculated Split Invalid\";\n\n    /// @dev Initialize contract\n    /// @param owner Contract owner, can conduct administrative functions.\n    /// @param beneficiary Recieves a proportion of incoming tokens on buy() and pay() operations.\n    /// @param bondedToken Token native to the curve. The bondingCurve contract has exclusive rights to mint and burn tokens.\n    /// @param buyCurve Curve logic for buy curve.\n    /// @param reservePercentage Percentage of incoming collateralTokens distributed to beneficiary on buys. (The remainder is sent to reserve for sells)\n    /// @param dividendPercentage Percentage of incoming collateralTokens distributed to beneficiary on payments. The remainder being distributed among current bondedToken holders. Divided by precision value.\n    function initialize(\n        address owner,\n        address beneficiary,\n        IBondedToken bondedToken,\n        ICurveLogic buyCurve,\n        uint256 reservePercentage,\n        uint256 dividendPercentage,\n        uint256 preMintAmount\n    ) public initializer {\n        BondingCurveBase.initialize(\n            owner,\n            beneficiary,\n            bondedToken,\n            buyCurve,\n            reservePercentage,\n            dividendPercentage,\n            preMintAmount\n        );\n    }\n\n    function buy(uint256 amount, uint256 maxPrice, address recipient)\n        public\n        payable\n        whenNotPaused\n        returns (uint256 collateralSent)\n    {\n        require(maxPrice != 0 && msg.value == maxPrice, INCORRECT_ETHER_SENT);\n\n        (uint256 buyPrice, uint256 toReserve, uint256 toBeneficiary) = _preBuy(amount, maxPrice);\n\n        address(uint160(_beneficiary)).transfer(toBeneficiary);\n\n        uint256 refund = maxPrice.sub(toReserve).sub(toBeneficiary);\n\n        if (refund > 0) {\n            msg.sender.transfer(refund);\n        }\n\n        _postBuy(msg.sender, recipient, amount, buyPrice, toReserve, toBeneficiary);\n        return buyPrice;\n    }\n\n    function sell(uint256 amount, uint256 minReturn, address recipient)\n        public\n        whenNotPaused\n        returns (uint256 collateralReceived)\n    {\n        uint256 burnReward = _preSell(msg.sender, amount, minReturn);\n\n        address(uint160(recipient)).transfer(burnReward);\n\n        _postSell(msg.sender, amount, minReturn, recipient);\n        return burnReward;\n    }\n\n    function pay(uint256 amount) public payable {\n        require(amount > MICRO_PAYMENT_THRESHOLD, NO_MICRO_PAYMENTS);\n        require(msg.value == amount, INCORRECT_ETHER_SENT);\n\n        uint256 amountToDividendHolders = (amount.mul(_dividendPercentage)).div(MAX_PERCENTAGE);\n        uint256 amountToBeneficiary = amount.sub(amountToDividendHolders);\n\n        // outgoing funds to Beneficiary\n\n        address(uint160(_beneficiary)).transfer(amountToBeneficiary);\n\n        // outgoing funds to token holders as dividends (stored by BondedToken)\n        _bondedToken.distribute(address(this), amountToDividendHolders);\n\n        emit Pay(msg.sender, address(0), amount, amountToBeneficiary, amountToDividendHolders);\n    }\n\n    // // Interpret fallback as payment\n    // function () public payable {\n    //     pay(msg.value);\n    // }\n\n}\n",
    "sourcePath": "contracts/BondingCurve/BondingCurveEther.sol",
    "abi": [
        {
            "constant": false,
            "inputs": [
                {
                    "name": "reservePercentage",
                    "type": "uint256"
                }
            ],
            "name": "setReservePercentage",
            "outputs": [],
            "payable": false,
            "stateMutability": "nonpayable",
            "type": "function"
        },
        {
            "constant": true,
            "inputs": [],
            "name": "preMintAmount",
            "outputs": [
                {
                    "name": "",
                    "type": "uint256"
                }
            ],
            "payable": false,
            "stateMutability": "view",
            "type": "function"
        },
        {
            "constant": false,
            "inputs": [
                {
                    "name": "beneficiary",
                    "type": "address"
                }
            ],
            "name": "setBeneficiary",
            "outputs": [],
            "payable": false,
            "stateMutability": "nonpayable",
            "type": "function"
        },
        {
            "constant": true,
            "inputs": [],
            "name": "beneficiary",
            "outputs": [
                {
                    "name": "",
                    "type": "address"
                }
            ],
            "payable": false,
            "stateMutability": "view",
            "type": "function"
        },
        {
            "constant": false,
            "inputs": [],
            "name": "unpause",
            "outputs": [],
            "payable": false,
            "stateMutability": "nonpayable",
            "type": "function"
        },
        {
            "constant": true,
            "inputs": [],
            "name": "getPaymentThreshold",
            "outputs": [
                {
                    "name": "",
                    "type": "uint256"
                }
            ],
            "payable": false,
            "stateMutability": "view",
            "type": "function"
        },
        {
            "constant": true,
            "inputs": [
                {
                    "name": "account",
                    "type": "address"
                }
            ],
            "name": "isPauser",
            "outputs": [
                {
                    "name": "",
                    "type": "bool"
                }
            ],
            "payable": false,
            "stateMutability": "view",
            "type": "function"
        },
        {
            "constant": false,
            "inputs": [
                {
                    "name": "amount",
                    "type": "uint256"
                },
                {
                    "name": "maxPrice",
                    "type": "uint256"
                },
                {
                    "name": "recipient",
                    "type": "address"
                }
            ],
            "name": "buy",
            "outputs": [
                {
                    "name": "collateralSent",
                    "type": "uint256"
                }
            ],
            "payable": true,
            "stateMutability": "payable",
            "type": "function"
        },
        {
            "constant": true,
            "inputs": [],
            "name": "paused",
            "outputs": [
                {
                    "name": "",
                    "type": "bool"
                }
            ],
            "payable": false,
            "stateMutability": "view",
            "type": "function"
        },
        {
            "constant": false,
            "inputs": [
                {
                    "name": "buyCurve",
                    "type": "address"
                }
            ],
            "name": "setBuyCurve",
            "outputs": [],
            "payable": false,
            "stateMutability": "nonpayable",
            "type": "function"
        },
        {
            "constant": true,
            "inputs": [],
            "name": "dividendPercentage",
            "outputs": [
                {
                    "name": "",
                    "type": "uint256"
                }
            ],
            "payable": false,
            "stateMutability": "view",
            "type": "function"
        },
        {
            "constant": true,
            "inputs": [],
            "name": "buyCurve",
            "outputs": [
                {
                    "name": "",
                    "type": "address"
                }
            ],
            "payable": false,
            "stateMutability": "view",
            "type": "function"
        },
        {
            "constant": false,
            "inputs": [],
            "name": "renouncePauser",
            "outputs": [],
            "payable": false,
            "stateMutability": "nonpayable",
            "type": "function"
        },
        {
            "constant": false,
            "inputs": [],
            "name": "renounceOwnership",
            "outputs": [],
            "payable": false,
            "stateMutability": "nonpayable",
            "type": "function"
        },
        {
            "constant": false,
            "inputs": [
                {
                    "name": "dividendPercentage",
                    "type": "uint256"
                }
            ],
            "name": "setDividendPercentage",
            "outputs": [],
            "payable": false,
            "stateMutability": "nonpayable",
            "type": "function"
        },
        {
            "constant": false,
            "inputs": [
                {
                    "name": "milestoneCap",
                    "type": "uint256"
                }
            ],
            "name": "setMilestoneCap",
            "outputs": [],
            "payable": false,
            "stateMutability": "nonpayable",
            "type": "function"
        },
        {
            "constant": false,
            "inputs": [
                {
                    "name": "account",
                    "type": "address"
                }
            ],
            "name": "addPauser",
            "outputs": [],
            "payable": false,
            "stateMutability": "nonpayable",
            "type": "function"
        },
        {
            "constant": false,
            "inputs": [],
            "name": "pause",
            "outputs": [],
            "payable": false,
            "stateMutability": "nonpayable",
            "type": "function"
        },
        {
            "constant": true,
            "inputs": [],
            "name": "owner",
            "outputs": [
                {
                    "name": "",
                    "type": "address"
                }
            ],
            "payable": false,
            "stateMutability": "view",
            "type": "function"
        },
        {
            "constant": true,
            "inputs": [],
            "name": "isOwner",
            "outputs": [
                {
                    "name": "",
                    "type": "bool"
                }
            ],
            "payable": false,
            "stateMutability": "view",
            "type": "function"
        },
        {
            "constant": true,
            "inputs": [],
            "name": "reserveBalance",
            "outputs": [
                {
                    "name": "",
                    "type": "uint256"
                }
            ],
            "payable": false,
            "stateMutability": "view",
            "type": "function"
        },
        {
            "constant": true,
            "inputs": [
                {
                    "name": "numTokens",
                    "type": "uint256"
                }
            ],
            "name": "priceToBuy",
            "outputs": [
                {
                    "name": "",
                    "type": "uint256"
                }
            ],
            "payable": false,
            "stateMutability": "view",
            "type": "function"
        },
        {
            "constant": true,
            "inputs": [
                {
                    "name": "numTokens",
                    "type": "uint256"
                }
            ],
            "name": "rewardForSell",
            "outputs": [
                {
                    "name": "",
                    "type": "uint256"
                }
            ],
            "payable": false,
            "stateMutability": "view",
            "type": "function"
        },
        {
            "constant": false,
            "inputs": [
                {
                    "name": "amount",
                    "type": "uint256"
                }
            ],
            "name": "pay",
            "outputs": [],
            "payable": true,
            "stateMutability": "payable",
            "type": "function"
        },
        {
            "constant": false,
            "inputs": [
                {
                    "name": "sender",
                    "type": "address"
                }
            ],
            "name": "initialize",
            "outputs": [],
            "payable": false,
            "stateMutability": "nonpayable",
            "type": "function"
        },
        {
            "constant": true,
            "inputs": [],
            "name": "totalRaised",
            "outputs": [
                {
                    "name": "",
                    "type": "uint256"
                }
            ],
            "payable": false,
            "stateMutability": "view",
            "type": "function"
        },
        {
            "constant": false,
            "inputs": [
                {
                    "name": "amount",
                    "type": "uint256"
                },
                {
                    "name": "minReturn",
                    "type": "uint256"
                },
                {
                    "name": "recipient",
                    "type": "address"
                }
            ],
            "name": "sell",
            "outputs": [
                {
                    "name": "collateralReceived",
                    "type": "uint256"
                }
            ],
            "payable": false,
            "stateMutability": "nonpayable",
            "type": "function"
        },
        {
            "constant": true,
            "inputs": [],
            "name": "milestoneCap",
            "outputs": [
                {
                    "name": "",
                    "type": "uint256"
                }
            ],
            "payable": false,
            "stateMutability": "view",
            "type": "function"
        },
        {
            "constant": true,
            "inputs": [],
            "name": "bondedToken",
            "outputs": [
                {
                    "name": "",
                    "type": "address"
                }
            ],
            "payable": false,
            "stateMutability": "view",
            "type": "function"
        },
        {
            "constant": false,
            "inputs": [
                {
                    "name": "owner",
                    "type": "address"
                },
                {
                    "name": "beneficiary",
                    "type": "address"
                },
                {
                    "name": "bondedToken",
                    "type": "address"
                },
                {
                    "name": "buyCurve",
                    "type": "address"
                },
                {
                    "name": "reservePercentage",
                    "type": "uint256"
                },
                {
                    "name": "dividendPercentage",
                    "type": "uint256"
                },
                {
                    "name": "preMintAmount",
                    "type": "uint256"
                }
            ],
            "name": "initialize",
            "outputs": [],
            "payable": false,
            "stateMutability": "nonpayable",
            "type": "function"
        },
        {
            "constant": false,
            "inputs": [
                {
                    "name": "newOwner",
                    "type": "address"
                }
            ],
            "name": "transferOwnership",
            "outputs": [],
            "payable": false,
            "stateMutability": "nonpayable",
            "type": "function"
        },
        {
            "constant": true,
            "inputs": [],
            "name": "reservePercentage",
            "outputs": [
                {
                    "name": "",
                    "type": "uint256"
                }
            ],
            "payable": false,
            "stateMutability": "view",
            "type": "function"
        },
        {
            "anonymous": false,
            "inputs": [
                {
                    "indexed": false,
                    "name": "beneficiary",
                    "type": "address"
                }
            ],
            "name": "BeneficiarySet",
            "type": "event"
        },
        {
            "anonymous": false,
            "inputs": [
                {
                    "indexed": false,
                    "name": "buyCurve",
                    "type": "address"
                }
            ],
            "name": "BuyCurveSet",
            "type": "event"
        },
        {
            "anonymous": false,
            "inputs": [
                {
                    "indexed": false,
                    "name": "sellCurve",
                    "type": "address"
                }
            ],
            "name": "SellCurveSet",
            "type": "event"
        },
        {
            "anonymous": false,
            "inputs": [
                {
                    "indexed": false,
                    "name": "dividendPercentage",
                    "type": "uint256"
                }
            ],
            "name": "DividendPercentageSet",
            "type": "event"
        },
        {
            "anonymous": false,
            "inputs": [
                {
                    "indexed": false,
                    "name": "reservePercentage",
                    "type": "uint256"
                }
            ],
            "name": "ReservePercentageSet",
            "type": "event"
        },
        {
            "anonymous": false,
            "inputs": [
                {
                    "indexed": false,
                    "name": "milestoneCap",
                    "type": "uint256"
                }
            ],
            "name": "MilestoneCapSet",
            "type": "event"
        },
        {
            "anonymous": false,
            "inputs": [
                {
                    "indexed": true,
                    "name": "buyer",
                    "type": "address"
                },
                {
                    "indexed": true,
                    "name": "recipient",
                    "type": "address"
                },
                {
                    "indexed": false,
                    "name": "amount",
                    "type": "uint256"
                },
                {
                    "indexed": false,
                    "name": "price",
                    "type": "uint256"
                },
                {
                    "indexed": false,
                    "name": "reserveAmount",
                    "type": "uint256"
                },
                {
                    "indexed": false,
                    "name": "beneficiaryAmount",
                    "type": "uint256"
                }
            ],
            "name": "Buy",
            "type": "event"
        },
        {
            "anonymous": false,
            "inputs": [
                {
                    "indexed": true,
                    "name": "seller",
                    "type": "address"
                },
                {
                    "indexed": true,
                    "name": "recipient",
                    "type": "address"
                },
                {
                    "indexed": false,
                    "name": "amount",
                    "type": "uint256"
                },
                {
                    "indexed": false,
                    "name": "reward",
                    "type": "uint256"
                }
            ],
            "name": "Sell",
            "type": "event"
        },
        {
            "anonymous": false,
            "inputs": [
                {
                    "indexed": true,
                    "name": "from",
                    "type": "address"
                },
                {
                    "indexed": true,
                    "name": "token",
                    "type": "address"
                },
                {
                    "indexed": false,
                    "name": "amount",
                    "type": "uint256"
                },
                {
                    "indexed": false,
                    "name": "beneficiaryAmount",
                    "type": "uint256"
                },
                {
                    "indexed": false,
                    "name": "dividendAmount",
                    "type": "uint256"
                }
            ],
            "name": "Pay",
            "type": "event"
        },
        {
            "anonymous": false,
            "inputs": [
                {
                    "indexed": false,
                    "name": "account",
                    "type": "address"
                }
            ],
            "name": "Paused",
            "type": "event"
        },
        {
            "anonymous": false,
            "inputs": [
                {
                    "indexed": false,
                    "name": "account",
                    "type": "address"
                }
            ],
            "name": "Unpaused",
            "type": "event"
        },
        {
            "anonymous": false,
            "inputs": [
                {
                    "indexed": true,
                    "name": "account",
                    "type": "address"
                }
            ],
            "name": "PauserAdded",
            "type": "event"
        },
        {
            "anonymous": false,
            "inputs": [
                {
                    "indexed": true,
                    "name": "account",
                    "type": "address"
                }
            ],
            "name": "PauserRemoved",
            "type": "event"
        },
        {
            "anonymous": false,
            "inputs": [
                {
                    "indexed": true,
                    "name": "previousOwner",
                    "type": "address"
                },
                {
                    "indexed": true,
                    "name": "newOwner",
                    "type": "address"
                }
            ],
            "name": "OwnershipTransferred",
            "type": "event"
        }
    ],
    "bytecode": "0x6080604052613537806100136000396000f3fe6080604052600436106101e35760003560e01c806382dc1ec411610102578063c4d66de811610095578063e36a4ec711610064578063e36a4ec7146108b8578063e77fc7a41461090f578063f2fde38b146109de578063f700c82914610a2f576101e3565b8063c4d66de814610798578063c5c4744c146107e9578063d04c698314610814578063e06f7e541461088d576101e3565b8063a10954fe116100d1578063a10954fe146106a1578063a194c59c146106cc578063a965f8831461071b578063c290d6911461076a576101e3565b806382dc1ec4146105b35780638456cb59146106045780638da5cb5b1461061b5780638f32d59b14610672576101e3565b80635c975abb1161017a5780636ef8d66d116101495780636ef8d66d1461050f578063715018a6146105265780637e3ad8811461053d578063800a600c14610578576101e3565b80635c975abb1461040d5780635f112ede1461043c5780636bb80d511461048d5780636e0c08bf146104b8576101e3565b80633f4ba83a116101b65780633f4ba83a146102f6578063468fb75d1461030d57806346fbf68e1461033857806359a87bc1146103a1576101e3565b80631132454d146101e8578063148829f5146102235780631c31f7101461024e57806338af3eed1461029f575b600080fd5b3480156101f457600080fd5b506102216004803603602081101561020b57600080fd5b8101908080359060200190929190505050610a5a565b005b34801561022f57600080fd5b50610238610ab7565b6040518082815260200191505060405180910390f35b34801561025a57600080fd5b5061029d6004803603602081101561027157600080fd5b81019080803573ffffffffffffffffffffffffffffffffffffffff169060200190929190505050610ac1565b005b3480156102ab57600080fd5b506102b4610b9b565b604051808273ffffffffffffffffffffffffffffffffffffffff1673ffffffffffffffffffffffffffffffffffffffff16815260200191505060405180910390f35b34801561030257600080fd5b5061030b610bc5565b005b34801561031957600080fd5b50610322610cca565b6040518082815260200191505060405180910390f35b34801561034457600080fd5b506103876004803603602081101561035b57600080fd5b81019080803573ffffffffffffffffffffffffffffffffffffffff169060200190929190505050610cd3565b604051808215151515815260200191505060405180910390f35b6103f7600480360360608110156103b757600080fd5b810190808035906020019092919080359060200190929190803573ffffffffffffffffffffffffffffffffffffffff169060200190929190505050610cf0565b6040518082815260200191505060405180910390f35b34801561041957600080fd5b50610422610f0d565b604051808215151515815260200191505060405180910390f35b34801561044857600080fd5b5061048b6004803603602081101561045f57600080fd5b81019080803573ffffffffffffffffffffffffffffffffffffffff169060200190929190505050610f24565b005b34801561049957600080fd5b506104a2610ffe565b6040518082815260200191505060405180910390f35b3480156104c457600080fd5b506104cd611008565b604051808273ffffffffffffffffffffffffffffffffffffffff1673ffffffffffffffffffffffffffffffffffffffff16815260200191505060405180910390f35b34801561051b57600080fd5b50610524611032565b005b34801561053257600080fd5b5061053b611044565b005b34801561054957600080fd5b506105766004803603602081101561056057600080fd5b8101908080359060200190929190505050611116565b005b34801561058457600080fd5b506105b16004803603602081101561059b57600080fd5b8101908080359060200190929190505050611173565b005b3480156105bf57600080fd5b50610602600480360360208110156105d657600080fd5b81019080803573ffffffffffffffffffffffffffffffffffffffff1690602001909291905050506111d0565b005b34801561061057600080fd5b50610619611241565b005b34801561062757600080fd5b50610630611347565b604051808273ffffffffffffffffffffffffffffffffffffffff1673ffffffffffffffffffffffffffffffffffffffff16815260200191505060405180910390f35b34801561067e57600080fd5b50610687611371565b604051808215151515815260200191505060405180910390f35b3480156106ad57600080fd5b506106b66113d0565b6040518082815260200191505060405180910390f35b3480156106d857600080fd5b50610705600480360360208110156106ef57600080fd5b81019080803590602001909291905050506113da565b6040518082815260200191505060405180910390f35b34801561072757600080fd5b506107546004803603602081101561073e57600080fd5b81019080803590602001909291905050506114aa565b6040518082815260200191505060405180910390f35b6107966004803603602081101561078057600080fd5b81019080803590602001909291905050506114e8565b005b3480156107a457600080fd5b506107e7600480360360208110156107bb57600080fd5b81019080803573ffffffffffffffffffffffffffffffffffffffff169060200190929190505050611898565b005b3480156107f557600080fd5b506107fe6119bc565b6040518082815260200191505060405180910390f35b34801561082057600080fd5b506108776004803603606081101561083757600080fd5b810190808035906020019092919080359060200190929190803573ffffffffffffffffffffffffffffffffffffffff1690602001909291905050506119c6565b6040518082815260200191505060405180910390f35b34801561089957600080fd5b506108a2611a4f565b6040518082815260200191505060405180910390f35b3480156108c457600080fd5b506108cd611a59565b604051808273ffffffffffffffffffffffffffffffffffffffff1673ffffffffffffffffffffffffffffffffffffffff16815260200191505060405180910390f35b34801561091b57600080fd5b506109dc600480360360e081101561093257600080fd5b81019080803573ffffffffffffffffffffffffffffffffffffffff169060200190929190803573ffffffffffffffffffffffffffffffffffffffff169060200190929190803573ffffffffffffffffffffffffffffffffffffffff169060200190929190803573ffffffffffffffffffffffffffffffffffffffff169060200190929190803590602001909291908035906020019092919080359060200190929190505050611a83565b005b3480156109ea57600080fd5b50610a2d60048036036020811015610a0157600080fd5b81019080803573ffffffffffffffffffffffffffffffffffffffff169060200190929190505050611b98565b005b348015610a3b57600080fd5b50610a44611bb5565b6040518082815260200191505060405180910390f35b610a62611371565b610a6b57600080fd5b610a7481611bbf565b8060d0819055507f1c9624cab905d59a0466bc9814df531d8d661e92d7e389bdda562843d362125260d0546040518082815260200191505060405180910390a150565b600060d254905090565b610ac9611371565b610ad257600080fd5b8060ce60006101000a81548173ffffffffffffffffffffffffffffffffffffffff021916908373ffffffffffffffffffffffffffffffffffffffff1602179055507f04d55a8be181fb8d75b76f2d48aa0b2ee40f47e53d6e61763eeeec46feea8a2460ce60009054906101000a900473ffffffffffffffffffffffffffffffffffffffff16604051808273ffffffffffffffffffffffffffffffffffffffff1673ffffffffffffffffffffffffffffffffffffffff16815260200191505060405180910390a150565b600060ce60009054906101000a900473ffffffffffffffffffffffffffffffffffffffff16905090565b610bd5610bd0611c87565b610cd3565b610c2a576040517f08c379a000000000000000000000000000000000000000000000000000000000815260040180806020018281038252603081526020018061337c6030913960400191505060405180910390fd5b609960009054906101000a900460ff16610c4357600080fd5b6000609960006101000a81548160ff0219169083151502179055507f5db9ee0a495bf2e6ff9c91a7834c1ba4fdd244a5e8aa4e537bd38aeae4b073aa610c87611c87565b604051808273ffffffffffffffffffffffffffffffffffffffff1673ffffffffffffffffffffffffffffffffffffffff16815260200191505060405180910390a1565b60006064905090565b6000610ce9826066611c8f90919063ffffffff16565b9050919050565b6000609960009054906101000a900460ff1615610d0c57600080fd5b60008314158015610d1c57508234145b6040518060400160405280601a81526020017f496e636f72726563742045746865722076616c75652073656e7400000000000081525090610df8576040517f08c379a00000000000000000000000000000000000000000000000000000000081526004018080602001828103825283818151815260200191508051906020019080838360005b83811015610dbd578082015181840152602081019050610da2565b50505050905090810190601f168015610dea5780820380516001836020036101000a031916815260200191505b509250505060405180910390fd5b506000806000610e088787611d21565b92509250925060ce60009054906101000a900473ffffffffffffffffffffffffffffffffffffffff1673ffffffffffffffffffffffffffffffffffffffff166108fc829081150290604051600060405180830381858888f19350505050158015610e76573d6000803e3d6000fd5b506000610e9e82610e90858a611f1c90919063ffffffff16565b611f1c90919063ffffffff16565b90506000811115610ef1573373ffffffffffffffffffffffffffffffffffffffff166108fc829081150290604051600060405180830381858888f19350505050158015610eef573d6000803e3d6000fd5b505b610eff33878a878787611f3c565b839450505050509392505050565b6000609960009054906101000a900460ff16905090565b610f2c611371565b610f3557600080fd5b8060cd60006101000a81548173ffffffffffffffffffffffffffffffffffffffff021916908373ffffffffffffffffffffffffffffffffffffffff1602179055507f0e02a9592d79145f9fedb4a3e33b34afe1aa6cbcf0144264d775660872133dcb60cd60009054906101000a900473ffffffffffffffffffffffffffffffffffffffff16604051808273ffffffffffffffffffffffffffffffffffffffff1673ffffffffffffffffffffffffffffffffffffffff16815260200191505060405180910390a150565b600060d154905090565b600060cd60009054906101000a900473ffffffffffffffffffffffffffffffffffffffff16905090565b61104261103d611c87565b6120c1565b565b61104c611371565b61105557600080fd5b600073ffffffffffffffffffffffffffffffffffffffff16603360009054906101000a900473ffffffffffffffffffffffffffffffffffffffff1673ffffffffffffffffffffffffffffffffffffffff167f8be0079c531659141344cd1fd0a4f28419497f9722a3daafe3b4186f6b6457e060405160405180910390a36000603360006101000a81548173ffffffffffffffffffffffffffffffffffffffff021916908373ffffffffffffffffffffffffffffffffffffffff160217905550565b61111e611371565b61112757600080fd5b6111308161211b565b8060d1819055507f166d8e25d41b160842e42025bfcb3d39140637edb9c61d8355a244ec04e2438660d1546040518082815260200191505060405180910390a150565b61117b611371565b61118457600080fd5b61118d816121e3565b8060d3819055507fdd599b47a3fea783b9b5273863b763aade829261418b403d061b367a219db48a60d3546040518082815260200191505060405180910390a150565b6111e06111db611c87565b610cd3565b611235576040517f08c379a000000000000000000000000000000000000000000000000000000000815260040180806020018281038252603081526020018061337c6030913960400191505060405180910390fd5b61123e816122ac565b50565b61125161124c611c87565b610cd3565b6112a6576040517f08c379a000000000000000000000000000000000000000000000000000000000815260040180806020018281038252603081526020018061337c6030913960400191505060405180910390fd5b609960009054906101000a900460ff16156112c057600080fd5b6001609960006101000a81548160ff0219169083151502179055507f62e78cea01bee320cd4e420270b5ea74000d11b0c9f74754ebdbfc544b05a258611304611c87565b604051808273ffffffffffffffffffffffffffffffffffffffff1673ffffffffffffffffffffffffffffffffffffffff16815260200191505060405180910390a1565b6000603360009054906101000a900473ffffffffffffffffffffffffffffffffffffffff16905090565b6000603360009054906101000a900473ffffffffffffffffffffffffffffffffffffffff1673ffffffffffffffffffffffffffffffffffffffff166113b4611c87565b73ffffffffffffffffffffffffffffffffffffffff1614905090565b600060cf54905090565b600060cd60009054906101000a900473ffffffffffffffffffffffffffffffffffffffff1673ffffffffffffffffffffffffffffffffffffffff1663bc62d5f0611422612306565b60cf54856040518463ffffffff1660e01b815260040180848152602001838152602001828152602001935050505060206040518083038186803b15801561146857600080fd5b505afa15801561147c573d6000803e3d6000fd5b505050506040513d602081101561149257600080fd5b81019080805190602001909291905050509050919050565b6000806114b6836113da565b90506114e060646114d260d0548461247c90919063ffffffff16565b6124b690919063ffffffff16565b915050919050565b606481116040518060800160405280605281526020016133d960529139906115ab576040517f08c379a00000000000000000000000000000000000000000000000000000000081526004018080602001828103825283818151815260200191508051906020019080838360005b83811015611570578082015181840152602081019050611555565b50505050905090810190601f16801561159d5780820380516001836020036101000a031916815260200191505b509250505060405180910390fd5b508034146040518060400160405280601a81526020017f496e636f72726563742045746865722076616c75652073656e740000000000008152509061168b576040517f08c379a00000000000000000000000000000000000000000000000000000000081526004018080602001828103825283818151815260200191508051906020019080838360005b83811015611650578082015181840152602081019050611635565b50505050905090810190601f16801561167d5780820380516001836020036101000a031916815260200191505b509250505060405180910390fd5b5060006116b660646116a860d1548561247c90919063ffffffff16565b6124b690919063ffffffff16565b905060006116cd8284611f1c90919063ffffffff16565b905060ce60009054906101000a900473ffffffffffffffffffffffffffffffffffffffff1673ffffffffffffffffffffffffffffffffffffffff166108fc829081150290604051600060405180830381858888f19350505050158015611737573d6000803e3d6000fd5b5060cc60009054906101000a900473ffffffffffffffffffffffffffffffffffffffff1673ffffffffffffffffffffffffffffffffffffffff1663fb93210830846040518363ffffffff1660e01b8152600401808373ffffffffffffffffffffffffffffffffffffffff1673ffffffffffffffffffffffffffffffffffffffff16815260200182815260200192505050602060405180830381600087803b1580156117e157600080fd5b505af11580156117f5573d6000803e3d6000fd5b505050506040513d602081101561180b57600080fd5b810190808051906020019092919050505050600073ffffffffffffffffffffffffffffffffffffffff163373ffffffffffffffffffffffffffffffffffffffff167f1e4131bac8779daab09f166c157a948dba244c5c40d44558d77fb487abc31b3685848660405180848152602001838152602001828152602001935050505060405180910390a3505050565b600060019054906101000a900460ff16806118b757506118b66124dc565b5b806118ce57506000809054906101000a900460ff16155b611923576040517f08c379a000000000000000000000000000000000000000000000000000000000815260040180806020018281038252602e81526020018061347f602e913960400191505060405180910390fd5b60008060019054906101000a900460ff161590508015611973576001600060016101000a81548160ff02191690831515021790555060016000806101000a81548160ff0219169083151502179055505b61197c826124ed565b6000609960006101000a81548160ff02191690831515021790555080156119b85760008060016101000a81548160ff0219169083151502179055505b5050565b600060d454905090565b6000609960009054906101000a900460ff16156119e257600080fd5b60006119ef338686612604565b90508273ffffffffffffffffffffffffffffffffffffffff166108fc829081150290604051600060405180830381858888f19350505050158015611a37573d6000803e3d6000fd5b50611a4433868686612959565b809150509392505050565b600060d354905090565b600060cc60009054906101000a900473ffffffffffffffffffffffffffffffffffffffff16905090565b600060019054906101000a900460ff1680611aa25750611aa16124dc565b5b80611ab957506000809054906101000a900460ff16155b611b0e576040517f08c379a000000000000000000000000000000000000000000000000000000000815260040180806020018281038252602e81526020018061347f602e913960400191505060405180910390fd5b60008060019054906101000a900460ff161590508015611b5e576001600060016101000a81548160ff02191690831515021790555060016000806101000a81548160ff0219169083151502179055505b611b6d88888888888888612aa8565b8015611b8e5760008060016101000a81548160ff0219169083151502179055505b5050505050505050565b611ba0611371565b611ba957600080fd5b611bb281612e26565b50565b600060d054905090565b60648111156040518060600160405280602c8152602001613453602c913990611c83576040517f08c379a00000000000000000000000000000000000000000000000000000000081526004018080602001828103825283818151815260200191508051906020019080838360005b83811015611c48578082015181840152602081019050611c2d565b50505050905090810190601f168015611c755780820380516001836020036101000a031916815260200191505b509250505060405180910390fd5b5050565b600033905090565b60008073ffffffffffffffffffffffffffffffffffffffff168273ffffffffffffffffffffffffffffffffffffffff161415611cca57600080fd5b8260000160008373ffffffffffffffffffffffffffffffffffffffff1673ffffffffffffffffffffffffffffffffffffffff16815260200190815260200160002060009054906101000a900460ff16905092915050565b60008060008085116040518060600160405280602e81526020016134d5602e913990611de8576040517f08c379a00000000000000000000000000000000000000000000000000000000081526004018080602001828103825283818151815260200191508051906020019080838360005b83811015611dad578082015181840152602081019050611d92565b50505050905090810190601f168015611dda5780820380516001836020036101000a031916815260200191505b509250505060405180910390fd5b50611df2856113da565b925060008414611ec157838311156040518060600160405280602881526020016134ad6028913990611ebf576040517f08c379a00000000000000000000000000000000000000000000000000000000081526004018080602001828103825283818151815260200191508051906020019080838360005b83811015611e84578082015181840152602081019050611e69565b50505050905090810190601f168015611eb15780820380516001836020036101000a031916815260200191505b509250505060405180910390fd5b505b611eca856114aa565b9150611edf8284611f1c90919063ffffffff16565b9050611ef68160d454612f2090919063ffffffff16565b60d481905550611f04612f3f565b15611f1557611f1460d454612f4b565b5b9250925092565b600082821115611f2b57600080fd5b600082840390508091505092915050565b611f518260cf54612f2090919063ffffffff16565b60cf8190555060cc60009054906101000a900473ffffffffffffffffffffffffffffffffffffffff1673ffffffffffffffffffffffffffffffffffffffff166340c10f1986866040518363ffffffff1660e01b8152600401808373ffffffffffffffffffffffffffffffffffffffff1673ffffffffffffffffffffffffffffffffffffffff16815260200182815260200192505050602060405180830381600087803b15801561200057600080fd5b505af1158015612014573d6000803e3d6000fd5b505050506040513d602081101561202a57600080fd5b8101908080519060200190929190505050508473ffffffffffffffffffffffffffffffffffffffff168673ffffffffffffffffffffffffffffffffffffffff167f75a85e7be0265abefef113ee168a0d751385a985c3a37920ae97ae192d2eadb4868686866040518085815260200184815260200183815260200182815260200194505050505060405180910390a3505050505050565b6120d581606661303190919063ffffffff16565b8073ffffffffffffffffffffffffffffffffffffffff167fcd265ebaf09df2871cc7bd4133404a235ba12eff2041bb89d9c714a2621c7c7e60405160405180910390a250565b60648111156040518060600160405280602d81526020016133ac602d9139906121df576040517f08c379a00000000000000000000000000000000000000000000000000000000081526004018080602001828103825283818151815260200191508051906020019080838360005b838110156121a4578082015181840152602081019050612189565b50505050905090810190601f1680156121d15780820380516001836020036101000a031916815260200191505b509250505060405180910390fd5b5050565b60d45481101560405180606001604052806029815260200161335360299139906122a8576040517f08c379a00000000000000000000000000000000000000000000000000000000081526004018080602001828103825283818151815260200191508051906020019080838360005b8381101561226d578082015181840152602081019050612252565b50505050905090810190601f16801561229a5780820380516001836020036101000a031916815260200191505b509250505060405180910390fd5b5050565b6122c08160666130dc90919063ffffffff16565b8073ffffffffffffffffffffffffffffffffffffffff167f6719d08c1888103bea251a4ed56406bd0c3e69723c8a1686e017e7bbe159b6f860405160405180910390a250565b6000612310613188565b156123d3576123cc60d25460cc60009054906101000a900473ffffffffffffffffffffffffffffffffffffffff1673ffffffffffffffffffffffffffffffffffffffff166318160ddd6040518163ffffffff1660e01b815260040160206040518083038186803b15801561238357600080fd5b505afa158015612397573d6000803e3d6000fd5b505050506040513d60208110156123ad57600080fd5b8101908080519060200190929190505050611f1c90919063ffffffff16565b9050612479565b60cc60009054906101000a900473ffffffffffffffffffffffffffffffffffffffff1673ffffffffffffffffffffffffffffffffffffffff166318160ddd6040518163ffffffff1660e01b815260040160206040518083038186803b15801561243b57600080fd5b505afa15801561244f573d6000803e3d6000fd5b505050506040513d602081101561246557600080fd5b810190808051906020019092919050505090505b90565b60008083141561248f57600090506124b0565b60008284029050828482816124a057fe5b04146124ab57600080fd5b809150505b92915050565b60008082116124c457600080fd5b60008284816124cf57fe5b0490508091505092915050565b600080303b90506000811491505090565b600060019054906101000a900460ff168061250c575061250b6124dc565b5b8061252357506000809054906101000a900460ff16155b612578576040517f08c379a000000000000000000000000000000000000000000000000000000000815260040180806020018281038252602e81526020018061347f602e913960400191505060405180910390fd5b60008060019054906101000a900460ff1615905080156125c8576001600060016101000a81548160ff02191690831515021790555060016000806101000a81548160ff0219169083151502179055505b6125d182610cd3565b6125df576125de826122ac565b5b80156126005760008060016101000a81548160ff0219169083151502179055505b5050565b60008083116040518060600160405280602e81526020016134d5602e9139906126c8576040517f08c379a00000000000000000000000000000000000000000000000000000000081526004018080602001828103825283818151815260200191508051906020019080838360005b8381101561268d578082015181840152602081019050612672565b50505050905090810190601f1680156126ba5780820380516001836020036101000a031916815260200191505b509250505060405180910390fd5b508260cc60009054906101000a900473ffffffffffffffffffffffffffffffffffffffff1673ffffffffffffffffffffffffffffffffffffffff166370a08231866040518263ffffffff1660e01b8152600401808273ffffffffffffffffffffffffffffffffffffffff1673ffffffffffffffffffffffffffffffffffffffff16815260200191505060206040518083038186803b15801561276957600080fd5b505afa15801561277d573d6000803e3d6000fd5b505050506040513d602081101561279357600080fd5b810190808051906020019092919050505010156040518060400160405280601281526020017f496e737566666963656e7420746f6b656e73000000000000000000000000000081525090612882576040517f08c379a00000000000000000000000000000000000000000000000000000000081526004018080602001828103825283818151815260200191508051906020019080838360005b8381101561284757808201518184015260208101905061282c565b50505050905090810190601f1680156128745780820380516001836020036101000a031916815260200191505b509250505060405180910390fd5b5061288c836114aa565b90508181101560405180606001604052806028815260200161342b6028913990612951576040517f08c379a00000000000000000000000000000000000000000000000000000000081526004018080602001828103825283818151815260200191508051906020019080838360005b838110156129165780820151818401526020810190506128fb565b50505050905090810190601f1680156129435780820380516001836020036101000a031916815260200191505b509250505060405180910390fd5b509392505050565b61296e8260cf54611f1c90919063ffffffff16565b60cf8190555060cc60009054906101000a900473ffffffffffffffffffffffffffffffffffffffff1673ffffffffffffffffffffffffffffffffffffffff16639dc29fac85856040518363ffffffff1660e01b8152600401808373ffffffffffffffffffffffffffffffffffffffff1673ffffffffffffffffffffffffffffffffffffffff16815260200182815260200192505050600060405180830381600087803b158015612a1d57600080fd5b505af1158015612a31573d6000803e3d6000fd5b505050508073ffffffffffffffffffffffffffffffffffffffff168473ffffffffffffffffffffffffffffffffffffffff167fa082022e93cfcd9f1da5f9236718053910f7e840da080c789c7845698dc032ff8585604051808381526020018281526020019250505060405180910390a350505050565b600060019054906101000a900460ff1680612ac75750612ac66124dc565b5b80612ade57506000809054906101000a900460ff16155b612b33576040517f08c379a000000000000000000000000000000000000000000000000000000000815260040180806020018281038252602e81526020018061347f602e913960400191505060405180910390fd5b60008060019054906101000a900460ff161590508015612b83576001600060016101000a81548160ff02191690831515021790555060016000806101000a81548160ff0219169083151502179055505b612b8c8461211b565b612b9583611bbf565b612b9e88613194565b612ba788611898565b8660ce60006101000a81548173ffffffffffffffffffffffffffffffffffffffff021916908373ffffffffffffffffffffffffffffffffffffffff1602179055508460cd60006101000a81548173ffffffffffffffffffffffffffffffffffffffff021916908373ffffffffffffffffffffffffffffffffffffffff1602179055508560cc60006101000a81548173ffffffffffffffffffffffffffffffffffffffff021916908373ffffffffffffffffffffffffffffffffffffffff1602179055508160d2819055508360d0819055508260d1819055507f0e02a9592d79145f9fedb4a3e33b34afe1aa6cbcf0144264d775660872133dcb60cd60009054906101000a900473ffffffffffffffffffffffffffffffffffffffff16604051808273ffffffffffffffffffffffffffffffffffffffff1673ffffffffffffffffffffffffffffffffffffffff16815260200191505060405180910390a17f04d55a8be181fb8d75b76f2d48aa0b2ee40f47e53d6e61763eeeec46feea8a2460ce60009054906101000a900473ffffffffffffffffffffffffffffffffffffffff16604051808273ffffffffffffffffffffffffffffffffffffffff1673ffffffffffffffffffffffffffffffffffffffff16815260200191505060405180910390a17f1c9624cab905d59a0466bc9814df531d8d661e92d7e389bdda562843d362125260d0546040518082815260200191505060405180910390a17f166d8e25d41b160842e42025bfcb3d39140637edb9c61d8355a244ec04e2438660d1546040518082815260200191505060405180910390a18015612e1c5760008060016101000a81548160ff0219169083151502179055505b5050505050505050565b600073ffffffffffffffffffffffffffffffffffffffff168173ffffffffffffffffffffffffffffffffffffffff161415612e6057600080fd5b8073ffffffffffffffffffffffffffffffffffffffff16603360009054906101000a900473ffffffffffffffffffffffffffffffffffffffff1673ffffffffffffffffffffffffffffffffffffffff167f8be0079c531659141344cd1fd0a4f28419497f9722a3daafe3b4186f6b6457e060405160405180910390a380603360006101000a81548173ffffffffffffffffffffffffffffffffffffffff021916908373ffffffffffffffffffffffffffffffffffffffff16021790555050565b600080828401905083811015612f3557600080fd5b8091505092915050565b60008060d35411905090565b60d3548111156040518060400160405280601581526020017f6d696c6573746f6e6543617020657863656564656400000000000000000000008152509061302d576040517f08c379a00000000000000000000000000000000000000000000000000000000081526004018080602001828103825283818151815260200191508051906020019080838360005b83811015612ff2578082015181840152602081019050612fd7565b50505050905090810190601f16801561301f5780820380516001836020036101000a031916815260200191505b509250505060405180910390fd5b5050565b600073ffffffffffffffffffffffffffffffffffffffff168173ffffffffffffffffffffffffffffffffffffffff16141561306b57600080fd5b6130758282611c8f565b61307e57600080fd5b60008260000160008373ffffffffffffffffffffffffffffffffffffffff1673ffffffffffffffffffffffffffffffffffffffff16815260200190815260200160002060006101000a81548160ff0219169083151502179055505050565b600073ffffffffffffffffffffffffffffffffffffffff168173ffffffffffffffffffffffffffffffffffffffff16141561311657600080fd5b6131208282611c8f565b1561312a57600080fd5b60018260000160008373ffffffffffffffffffffffffffffffffffffffff1673ffffffffffffffffffffffffffffffffffffffff16815260200190815260200160002060006101000a81548160ff0219169083151502179055505050565b60008060d25411905090565b600060019054906101000a900460ff16806131b357506131b26124dc565b5b806131ca57506000809054906101000a900460ff16155b61321f576040517f08c379a000000000000000000000000000000000000000000000000000000000815260040180806020018281038252602e81526020018061347f602e913960400191505060405180910390fd5b60008060019054906101000a900460ff16159050801561326f576001600060016101000a81548160ff02191690831515021790555060016000806101000a81548160ff0219169083151502179055505b81603360006101000a81548173ffffffffffffffffffffffffffffffffffffffff021916908373ffffffffffffffffffffffffffffffffffffffff160217905550603360009054906101000a900473ffffffffffffffffffffffffffffffffffffffff1673ffffffffffffffffffffffffffffffffffffffff16600073ffffffffffffffffffffffffffffffffffffffff167f8be0079c531659141344cd1fd0a4f28419497f9722a3daafe3b4186f6b6457e060405160405180910390a3801561334e5760008060016101000a81548160ff0219169083151502179055505b505056fe6d696c6573746f6e65436170206d7573742062652073657420746f20612076616c69642076616c7565506175736572526f6c653a2063616c6c657220646f6573206e6f742068617665207468652050617573657220726f6c656469766964656e6450657263656e74616765206d75737420626520612076616c69642070657263656e746167655061796d656e7420616d6f756e74206d7573742062652067726561746572207468616e203130302027756e6974732720666f722063616c63756c6174696f6e7320746f20776f726b20636f72726563746c7943757272656e742070726963652069732062656c6f77206d696e696d756d207370656369666965647265736572766550657263656e74616765206d75737420626520612076616c69642070657263656e74616765436f6e747261637420696e7374616e63652068617320616c7265616479206265656e20696e697469616c697a656443757272656e74207072696365206578636565646573206d6178696d756d207370656369666965644d75737420737065636966792061206e6f6e2d7a65726f20616d6f756e74206f6620626f6e646564546f6b656e73a265627a7a72305820af07f053be1a19911d116ff4a1d26927b838b8c9e178c760d8f143ead47542fb64736f6c634300050a0032",
    "compiler": {
        "name": "solc",
        "version": "0.5.10+commit.5a6ea5b1.Emscripten.clang",
        "optimizer": {
            "enabled": false,
            "runs": 200
        },
        "evmVersion": "constantinople"
    }
}