{"fileName":"BondedToken.sol","contractName":"BondedToken","source":"pragma solidity ^0.5.7;\n\nimport \"@openzeppelin/upgrades/contracts/Initializable.sol\";\nimport \"@openzeppelin/contracts-ethereum-package/contracts/token/ERC20/ERC20.sol\";\nimport \"@openzeppelin/contracts-ethereum-package/contracts/token/ERC20/ERC20Detailed.sol\";\nimport \"@openzeppelin/contracts-ethereum-package/contracts/token/ERC20/ERC20Mintable.sol\";\n\nimport \"../dividend/RewardsDistributor.sol\";\n\n/**\n * @title Dividend Token\n * @dev A standard ERC20, using Detailed & Mintable featurs. Accepts a single minter, which should be the BondingCurve. The minter also has exclusive burning rights.\n */\ncontract BondedToken is Initializable, ERC20Detailed, ERC20Mintable {\n    RewardsDistributor _rewardsDistributor;\n\n    IERC20 _dividendToken;\n\n    /// @dev Initialize contract\n    /// @param name ERC20 token name\n    /// @param symbol ERC20 token symbol\n    /// @param decimals ERC20 token decimals\n    /// @param minter Address to give exclusive minting and burning rights for token\n    /// @param rewardsDistributor Instance for managing dividend accounting.\n    /// @param dividendToken Instance of ERC20 in which dividends are paid.\n    function initialize(\n        string memory name,\n        string memory symbol,\n        uint8 decimals,\n        address minter,\n        RewardsDistributor rewardsDistributor,\n        IERC20 dividendToken\n    ) public initializer {\n        ERC20Detailed.initialize(name, symbol, decimals);\n        ERC20Mintable.initialize(minter);\n\n        _rewardsDistributor = rewardsDistributor;\n\n        // TODO: uncomment below line once this contract is no longer used as PaymentToken in tests.\n        // require(address(dividendToken) != address(0), \"No dividend ERC20 contract provided.\");\n\n        _dividendToken = dividendToken;\n    }\n\n    /**\n     * @dev Burns a specific amount of tokens.\n     * @param value The amount of token to be burned.\n     */\n    function burn(address from, uint256 value) public onlyMinter {\n        _burn(from, value);\n\n        if (address(_rewardsDistributor) != address(0)) {\n            _rewardsDistributor.withdrawStake(from, value);\n        }\n    }\n\n    /**\n     * @dev Function to mint tokens\n     * @param to The address that will receive the minted tokens.\n     * @param value The amount of tokens to mint.\n     * @return A boolean that indicates if the operation was successful.\n     */\n    function mint(address to, uint256 value) public onlyMinter returns (bool) {\n        ERC20Mintable.mint(to, value);\n\n        if (address(_rewardsDistributor) != address(0)) {\n            _rewardsDistributor.deposit(to, value);\n        }\n        return true;\n    }\n\n    /**\n     * @dev Transfer token for a specified addresses\n     * @param from The address to transfer from.\n     * @param to The address to transfer to.\n     * @param value The amount to be transferred.\n     */\n    function _transfer(address from, address to, uint256 value) internal {\n        ERC20._transfer(from, to, value);\n\n        if (address(_rewardsDistributor) != address(0)) {\n            _rewardsDistributor.withdrawStake(from, value);\n            _rewardsDistributor.deposit(to, value);\n        }\n    }\n\n    /**\n     * @dev Withdraw accumulated reward for the sender address.\n     */\n    function withdrawReward() public returns (uint256) {\n        if (address(_rewardsDistributor) == address(0)) {\n            return 0;\n        }\n        if (address(_dividendToken) == address(0)) {\n            return 0;\n        }\n\n        address payable _staker = msg.sender;\n        uint256 _amount = _rewardsDistributor.withdrawReward(_staker);\n        _dividendToken.transfer(_staker, _amount);\n        return _amount;\n    }\n\n    /**\n     * @dev Reads current accumulated reward for address.\n     * @param staker The address to query the reward balance for.\n     */\n    function getReward(address staker) public view returns (uint256 tokens) {\n        if (address(_rewardsDistributor) == address(0)) {\n            return 0;\n        }\n        return _rewardsDistributor.getReward(staker);\n    }\n\n    /**\n     * Claim and allocate provided dividend tokens to all balances greater than ELIGIBLE_UNIT.\n     */\n    function distribute(address from, uint256 value) public returns (bool) {\n        if (address(_rewardsDistributor) == address(0)) {\n            return false;\n        }\n\n        if (address(_dividendToken) == address(0)) {\n            return false;\n        }\n\n        if (value == 0) {\n            return false;\n        }\n\n        require(\n            _dividendToken.transferFrom(from, address(this), value),\n            \"Dividend TransferFrom Failed.\"\n        );\n\n        _rewardsDistributor.distribute(from, value);\n\n        return true;\n    }\n\n}\n","sourcePath":"contracts/BondingCurve/token/BondedToken.sol","abi":[{"constant":true,"inputs":[],"name":"name","outputs":[{"name":"","type":"string"}],"payable":false,"stateMutability":"view","type":"function"},{"constant":false,"inputs":[{"name":"spender","type":"address"},{"name":"value","type":"uint256"}],"name":"approve","outputs":[{"name":"","type":"bool"}],"payable":false,"stateMutability":"nonpayable","type":"function"},{"constant":false,"inputs":[{"name":"name","type":"string"},{"name":"symbol","type":"string"},{"name":"decimals","type":"uint8"},{"name":"minter","type":"address"},{"name":"rewardsDistributor","type":"address"},{"name":"dividendToken","type":"address"}],"name":"initialize","outputs":[],"payable":false,"stateMutability":"nonpayable","type":"function"},{"constant":false,"inputs":[{"name":"name","type":"string"},{"name":"symbol","type":"string"},{"name":"decimals","type":"uint8"}],"name":"initialize","outputs":[],"payable":false,"stateMutability":"nonpayable","type":"function"},{"constant":true,"inputs":[],"name":"totalSupply","outputs":[{"name":"","type":"uint256"}],"payable":false,"stateMutability":"view","type":"function"},{"constant":false,"inputs":[{"name":"from","type":"address"},{"name":"to","type":"address"},{"name":"value","type":"uint256"}],"name":"transferFrom","outputs":[{"name":"","type":"bool"}],"payable":false,"stateMutability":"nonpayable","type":"function"},{"constant":true,"inputs":[],"name":"decimals","outputs":[{"name":"","type":"uint8"}],"payable":false,"stateMutability":"view","type":"function"},{"constant":false,"inputs":[{"name":"spender","type":"address"},{"name":"addedValue","type":"uint256"}],"name":"increaseAllowance","outputs":[{"name":"","type":"bool"}],"payable":false,"stateMutability":"nonpayable","type":"function"},{"constant":false,"inputs":[{"name":"to","type":"address"},{"name":"value","type":"uint256"}],"name":"mint","outputs":[{"name":"","type":"bool"}],"payable":false,"stateMutability":"nonpayable","type":"function"},{"constant":true,"inputs":[{"name":"owner","type":"address"}],"name":"balanceOf","outputs":[{"name":"","type":"uint256"}],"payable":false,"stateMutability":"view","type":"function"},{"constant":true,"inputs":[],"name":"symbol","outputs":[{"name":"","type":"string"}],"payable":false,"stateMutability":"view","type":"function"},{"constant":false,"inputs":[{"name":"account","type":"address"}],"name":"addMinter","outputs":[],"payable":false,"stateMutability":"nonpayable","type":"function"},{"constant":false,"inputs":[],"name":"renounceMinter","outputs":[],"payable":false,"stateMutability":"nonpayable","type":"function"},{"constant":false,"inputs":[{"name":"from","type":"address"},{"name":"value","type":"uint256"}],"name":"burn","outputs":[],"payable":false,"stateMutability":"nonpayable","type":"function"},{"constant":false,"inputs":[{"name":"spender","type":"address"},{"name":"subtractedValue","type":"uint256"}],"name":"decreaseAllowance","outputs":[{"name":"","type":"bool"}],"payable":false,"stateMutability":"nonpayable","type":"function"},{"constant":false,"inputs":[{"name":"to","type":"address"},{"name":"value","type":"uint256"}],"name":"transfer","outputs":[{"name":"","type":"bool"}],"payable":false,"stateMutability":"nonpayable","type":"function"},{"constant":true,"inputs":[{"name":"account","type":"address"}],"name":"isMinter","outputs":[{"name":"","type":"bool"}],"payable":false,"stateMutability":"view","type":"function"},{"constant":true,"inputs":[{"name":"staker","type":"address"}],"name":"getReward","outputs":[{"name":"tokens","type":"uint256"}],"payable":false,"stateMutability":"view","type":"function"},{"constant":false,"inputs":[{"name":"sender","type":"address"}],"name":"initialize","outputs":[],"payable":false,"stateMutability":"nonpayable","type":"function"},{"constant":false,"inputs":[],"name":"withdrawReward","outputs":[{"name":"","type":"uint256"}],"payable":false,"stateMutability":"nonpayable","type":"function"},{"constant":true,"inputs":[{"name":"owner","type":"address"},{"name":"spender","type":"address"}],"name":"allowance","outputs":[{"name":"","type":"uint256"}],"payable":false,"stateMutability":"view","type":"function"},{"constant":false,"inputs":[{"name":"from","type":"address"},{"name":"value","type":"uint256"}],"name":"distribute","outputs":[{"name":"","type":"bool"}],"payable":false,"stateMutability":"nonpayable","type":"function"},{"anonymous":false,"inputs":[{"indexed":true,"name":"account","type":"address"}],"name":"MinterAdded","type":"event"},{"anonymous":false,"inputs":[{"indexed":true,"name":"account","type":"address"}],"name":"MinterRemoved","type":"event"},{"anonymous":false,"inputs":[{"indexed":true,"name":"from","type":"address"},{"indexed":true,"name":"to","type":"address"},{"indexed":false,"name":"value","type":"uint256"}],"name":"Transfer","type":"event"},{"anonymous":false,"inputs":[{"indexed":true,"name":"owner","type":"address"},{"indexed":true,"name":"spender","type":"address"},{"indexed":false,"name":"value","type":"uint256"}],"name":"Approval","type":"event"}],"bytecode":"0x60806040525b5b61000b565b612f688061001a6000396000f3fe60806040523480156100115760006000fd5b50600436106101475760003560e01c8063983b2d56116100b9578063aa271e1a1161007d578063aa271e1a14610954578063c00007b0146109b1578063c4d66de814610a0a578063c885bc5814610a4f578063dd62ed3e14610a6d578063fb93210814610ae657610147565b8063983b2d56146107e8578063986502751461082d5780639dc29fac14610837578063a457c2d714610886578063a9059cbb146108ed57610147565b806323b872dd1161010b57806323b872dd14610592578063313ce56714610619578063395093511461063d57806340c10f19146106a457806370a082311461070b57806395d89b411461076457610147565b806306fdde031461014d578063095ea7b3146101d1578063117d6286146102385780631624f6c61461040657806318160ddd1461057457610147565b60006000fd5b610155610b4d565b6040518080602001828103825283818151815260200191508051906020019080838360005b838110156101965780820151818401525b60208101905061017a565b50505050905090810190601f1680156101c35780820380516001836020036101000a031916815260200191505b509250505060405180910390f35b61021e600480360360408110156101e85760006000fd5b81019080803573ffffffffffffffffffffffffffffffffffffffff16906020019092919080359060200190929190505050610bf7565b604051808215151515815260200191505060405180910390f35b610404600480360360c081101561024f5760006000fd5b810190808035906020019064010000000081111561026d5760006000fd5b8201836020820111156102805760006000fd5b803590602001918460018302840111640100000000831117156102a35760006000fd5b91908080601f016020809104026020016040519081016040528093929190818152602001838380828437600081840152601f19601f820116905080830192505050505050509090919290909192908035906020019064010000000081111561030b5760006000fd5b82018360208201111561031e5760006000fd5b803590602001918460018302840111640100000000831117156103415760006000fd5b91908080601f016020809104026020016040519081016040528093929190818152602001838380828437600081840152601f19601f82011690508083019250505050505050909091929090919290803560ff169060200190929190803573ffffffffffffffffffffffffffffffffffffffff169060200190929190803573ffffffffffffffffffffffffffffffffffffffff169060200190929190803573ffffffffffffffffffffffffffffffffffffffff169060200190929190505050610c26565b005b6105726004803603606081101561041d5760006000fd5b810190808035906020019064010000000081111561043b5760006000fd5b82018360208201111561044e5760006000fd5b803590602001918460018302840111640100000000831117156104715760006000fd5b91908080601f016020809104026020016040519081016040528093929190818152602001838380828437600081840152601f19601f82011690508083019250505050505050909091929090919290803590602001906401000000008111156104d95760006000fd5b8201836020820111156104ec5760006000fd5b8035906020019184600183028401116401000000008311171561050f5760006000fd5b91908080601f016020809104026020016040519081016040528093929190818152602001838380828437600081840152601f19601f82011690508083019250505050505050909091929090919290803560ff169060200190929190505050610ddd565b005b61057c610f3c565b6040518082815260200191505060405180910390f35b6105ff600480360360608110156105a95760006000fd5b81019080803573ffffffffffffffffffffffffffffffffffffffff169060200190929190803573ffffffffffffffffffffffffffffffffffffffff16906020019092919080359060200190929190505050610f4e565b604051808215151515815260200191505060405180910390f35b610621611033565b604051808260ff1660ff16815260200191505060405180910390f35b61068a600480360360408110156106545760006000fd5b81019080803573ffffffffffffffffffffffffffffffffffffffff1690602001909291908035906020019092919050505061104f565b604051808215151515815260200191505060405180910390f35b6106f1600480360360408110156106bb5760006000fd5b81019080803573ffffffffffffffffffffffffffffffffffffffff16906020019092919080359060200190929190505050611122565b604051808215151515815260200191505060405180910390f35b61074e600480360360208110156107225760006000fd5b81019080803573ffffffffffffffffffffffffffffffffffffffff1690602001909291905050506112fb565b6040518082815260200191505060405180910390f35b61076c61134f565b6040518080602001828103825283818151815260200191508051906020019080838360005b838110156107ad5780820151818401525b602081019050610791565b50505050905090810190601f1680156107da5780820380516001836020036101000a031916815260200191505b509250505060405180910390f35b61082b600480360360208110156107ff5760006000fd5b81019080803573ffffffffffffffffffffffffffffffffffffffff1690602001909291905050506113f9565b005b610835611480565b005b6108846004803603604081101561084e5760006000fd5b81019080803573ffffffffffffffffffffffffffffffffffffffff1690602001909291908035906020019092919050505061149f565b005b6108d36004803603604081101561089d5760006000fd5b81019080803573ffffffffffffffffffffffffffffffffffffffff1690602001909291908035906020019092919050505061166b565b604051808215151515815260200191505060405180910390f35b61093a600480360360408110156109045760006000fd5b81019080803573ffffffffffffffffffffffffffffffffffffffff1690602001909291908035906020019092919050505061173e565b604051808215151515815260200191505060405180910390f35b6109976004803603602081101561096b5760006000fd5b81019080803573ffffffffffffffffffffffffffffffffffffffff16906020019092919050505061176d565b604051808215151515815260200191505060405180910390f35b6109f4600480360360208110156109c85760006000fd5b81019080803573ffffffffffffffffffffffffffffffffffffffff169060200190929190505050611792565b6040518082815260200191505060405180910390f35b610a4d60048036036020811015610a215760006000fd5b81019080803573ffffffffffffffffffffffffffffffffffffffff1690602001909291905050506118df565b005b610a576119fc565b6040518082815260200191505060405180910390f35b610ad060048036036040811015610a845760006000fd5b81019080803573ffffffffffffffffffffffffffffffffffffffff169060200190929190803573ffffffffffffffffffffffffffffffffffffffff169060200190929190505050611ca1565b6040518082815260200191505060405180910390f35b610b3360048036036040811015610afd5760006000fd5b81019080803573ffffffffffffffffffffffffffffffffffffffff16906020019092919080359060200190929190505050611d36565b604051808215151515815260200191505060405180910390f35b606060336000508054600181600116156101000203166002900480601f016020809104026020016040519081016040528092919081815260200182805460018160011615610100020316600290048015610be85780601f10610bbd57610100808354040283529160200191610be8565b820191906000526020600020905b815481529060010190602001808311610bcb57829003601f168201915b50505050509050610bf4565b90565b6000610c17610c0a61209763ffffffff16565b84846120a463ffffffff16565b60019050610c20565b92915050565b600060019054906101000a900460ff1680610c4b5750610c4a61221563ffffffff16565b5b80610c635750600060009054906101000a900460ff16155b1515610cba576040517f08c379a000000000000000000000000000000000000000000000000000000000815260040180806020018281038252602e815260200180612f06602e913960400191505060405180910390fd5b6000600060019054906101000a900460ff161590508015610d0c576001600060016101000a81548160ff0219169083151502179055506001600060006101000a81548160ff0219169083151502179055505b610d1d878787610ddd63ffffffff16565b610d2c846118df63ffffffff16565b8261010260006101000a81548173ffffffffffffffffffffffffffffffffffffffff021916908373ffffffffffffffffffffffffffffffffffffffff1602179055508161010360006101000a81548173ffffffffffffffffffffffffffffffffffffffff021916908373ffffffffffffffffffffffffffffffffffffffff1602179055505b8015610dd3576000600060016101000a81548160ff0219169083151502179055505b505b505050505050565b600060019054906101000a900460ff1680610e025750610e0161221563ffffffff16565b5b80610e1a5750600060009054906101000a900460ff16155b1515610e71576040517f08c379a000000000000000000000000000000000000000000000000000000000815260040180806020018281038252602e815260200180612f06602e913960400191505060405180910390fd5b6000600060019054906101000a900460ff161590508015610ec3576001600060016101000a81548160ff0219169083151502179055506001600060006101000a81548160ff0219169083151502179055505b8360336000509080519060200190610edc929190612e25565b508260346000509080519060200190610ef6929190612e25565b5081603560006101000a81548160ff021916908360ff1602179055505b8015610f35576000600060016101000a81548160ff0219169083151502179055505b505b505050565b6000606a600050549050610f4b565b90565b6000610f6184848461222d63ffffffff16565b61102384610f7361209763ffffffff16565b61101885606960005060008a73ffffffffffffffffffffffffffffffffffffffff1673ffffffffffffffffffffffffffffffffffffffff1681526020019081526020016000206000506000610fcc61209763ffffffff16565b73ffffffffffffffffffffffffffffffffffffffff1673ffffffffffffffffffffffffffffffffffffffff1681526020019081526020016000206000505461247090919063ffffffff16565b6120a463ffffffff16565b6001905061102c565b9392505050565b6000603560009054906101000a900460ff16905061104c565b90565b600061111361106261209763ffffffff16565b84611108856069600050600061107c61209763ffffffff16565b73ffffffffffffffffffffffffffffffffffffffff1673ffffffffffffffffffffffffffffffffffffffff16815260200190815260200160002060005060008973ffffffffffffffffffffffffffffffffffffffff1673ffffffffffffffffffffffffffffffffffffffff1681526020019081526020016000206000505461249990919063ffffffff16565b6120a463ffffffff16565b6001905061111c565b92915050565b600061114061113561209763ffffffff16565b61176d63ffffffff16565b1515611197576040517f08c379a0000000000000000000000000000000000000000000000000000000008152600401808060200182810382526030815260200180612ed66030913960400191505060405180910390fd5b6111a783836124c263ffffffff16565b50600073ffffffffffffffffffffffffffffffffffffffff1661010260009054906101000a900473ffffffffffffffffffffffffffffffffffffffff1673ffffffffffffffffffffffffffffffffffffffff161415156112eb5761010260009054906101000a900473ffffffffffffffffffffffffffffffffffffffff1673ffffffffffffffffffffffffffffffffffffffff166347e7ef2484846040518363ffffffff1660e01b8152600401808373ffffffffffffffffffffffffffffffffffffffff1673ffffffffffffffffffffffffffffffffffffffff16815260200182815260200192505050602060405180830381600087803b1580156112ac5760006000fd5b505af11580156112c1573d600060003e3d6000fd5b505050506040513d60208110156112d85760006000fd5b8101908080519060200190929190505050505b600190506112f4565b5b92915050565b6000606860005060008373ffffffffffffffffffffffffffffffffffffffff1673ffffffffffffffffffffffffffffffffffffffff16815260200190815260200160002060005054905061134a565b919050565b606060346000508054600181600116156101000203166002900480601f0160208091040260200160405190810160405280929190818152602001828054600181600116156101000203166002900480156113ea5780601f106113bf576101008083540402835291602001916113ea565b820191906000526020600020905b8154815290600101906020018083116113cd57829003601f168201915b505050505090506113f6565b90565b61141561140a61209763ffffffff16565b61176d63ffffffff16565b151561146c576040517f08c379a0000000000000000000000000000000000000000000000000000000008152600401808060200182810382526030815260200180612ed66030913960400191505060405180910390fd5b61147b8161255763ffffffff16565b5b5b50565b61149c61149161209763ffffffff16565b6125b563ffffffff16565b5b565b6114bb6114b061209763ffffffff16565b61176d63ffffffff16565b1515611512576040517f08c379a0000000000000000000000000000000000000000000000000000000008152600401808060200182810382526030815260200180612ed66030913960400191505060405180910390fd5b611522828261261363ffffffff16565b600073ffffffffffffffffffffffffffffffffffffffff1661010260009054906101000a900473ffffffffffffffffffffffffffffffffffffffff1673ffffffffffffffffffffffffffffffffffffffff161415156116655761010260009054906101000a900473ffffffffffffffffffffffffffffffffffffffff1673ffffffffffffffffffffffffffffffffffffffff1663c606627283836040518363ffffffff1660e01b8152600401808373ffffffffffffffffffffffffffffffffffffffff1673ffffffffffffffffffffffffffffffffffffffff16815260200182815260200192505050602060405180830381600087803b1580156116265760006000fd5b505af115801561163b573d600060003e3d6000fd5b505050506040513d60208110156116525760006000fd5b8101908080519060200190929190505050505b5b5b5050565b600061172f61167e61209763ffffffff16565b84611724856069600050600061169861209763ffffffff16565b73ffffffffffffffffffffffffffffffffffffffff1673ffffffffffffffffffffffffffffffffffffffff16815260200190815260200160002060005060008973ffffffffffffffffffffffffffffffffffffffff1673ffffffffffffffffffffffffffffffffffffffff1681526020019081526020016000206000505461247090919063ffffffff16565b6120a463ffffffff16565b60019050611738565b92915050565b600061175e61175161209763ffffffff16565b848461222d63ffffffff16565b60019050611767565b92915050565b600061178682609d60005061278190919063ffffffff16565b905061178d565b919050565b6000600073ffffffffffffffffffffffffffffffffffffffff1661010260009054906101000a900473ffffffffffffffffffffffffffffffffffffffff1673ffffffffffffffffffffffffffffffffffffffff1614156117f557600090506118da565b61010260009054906101000a900473ffffffffffffffffffffffffffffffffffffffff1673ffffffffffffffffffffffffffffffffffffffff1663c00007b0836040518263ffffffff1660e01b8152600401808273ffffffffffffffffffffffffffffffffffffffff1673ffffffffffffffffffffffffffffffffffffffff16815260200191505060206040518083038186803b1580156118965760006000fd5b505afa1580156118ab573d600060003e3d6000fd5b505050506040513d60208110156118c25760006000fd5b810190808051906020019092919050505090506118da565b919050565b600060019054906101000a900460ff1680611904575061190361221563ffffffff16565b5b8061191c5750600060009054906101000a900460ff16155b1515611973576040517f08c379a000000000000000000000000000000000000000000000000000000000815260040180806020018281038252602e815260200180612f06602e913960400191505060405180910390fd5b6000600060019054906101000a900460ff1615905080156119c5576001600060016101000a81548160ff0219169083151502179055506001600060006101000a81548160ff0219169083151502179055505b6119d48261281f63ffffffff16565b5b80156119f7576000600060016101000a81548160ff0219169083151502179055505b505b50565b6000600073ffffffffffffffffffffffffffffffffffffffff1661010260009054906101000a900473ffffffffffffffffffffffffffffffffffffffff1673ffffffffffffffffffffffffffffffffffffffff161415611a5f5760009050611c9e565b600073ffffffffffffffffffffffffffffffffffffffff1661010360009054906101000a900473ffffffffffffffffffffffffffffffffffffffff1673ffffffffffffffffffffffffffffffffffffffff161415611ac05760009050611c9e565b6000339050600061010260009054906101000a900473ffffffffffffffffffffffffffffffffffffffff1673ffffffffffffffffffffffffffffffffffffffff1663b86e321c836040518263ffffffff1660e01b8152600401808273ffffffffffffffffffffffffffffffffffffffff1673ffffffffffffffffffffffffffffffffffffffff168152602001915050602060405180830381600087803b158015611b6a5760006000fd5b505af1158015611b7f573d600060003e3d6000fd5b505050506040513d6020811015611b965760006000fd5b8101908080519060200190929190505050905061010360009054906101000a900473ffffffffffffffffffffffffffffffffffffffff1673ffffffffffffffffffffffffffffffffffffffff1663a9059cbb83836040518363ffffffff1660e01b8152600401808373ffffffffffffffffffffffffffffffffffffffff1673ffffffffffffffffffffffffffffffffffffffff16815260200182815260200192505050602060405180830381600087803b158015611c545760006000fd5b505af1158015611c69573d600060003e3d6000fd5b505050506040513d6020811015611c805760006000fd5b8101908080519060200190929190505050508092505050611c9e5650505b90565b6000606960005060008473ffffffffffffffffffffffffffffffffffffffff1673ffffffffffffffffffffffffffffffffffffffff16815260200190815260200160002060005060008373ffffffffffffffffffffffffffffffffffffffff1673ffffffffffffffffffffffffffffffffffffffff168152602001908152602001600020600050549050611d30565b92915050565b6000600073ffffffffffffffffffffffffffffffffffffffff1661010260009054906101000a900473ffffffffffffffffffffffffffffffffffffffff1673ffffffffffffffffffffffffffffffffffffffff161415611d995760009050612091565b600073ffffffffffffffffffffffffffffffffffffffff1661010360009054906101000a900473ffffffffffffffffffffffffffffffffffffffff1673ffffffffffffffffffffffffffffffffffffffff161415611dfa5760009050612091565b6000821415611e0c5760009050612091565b61010360009054906101000a900473ffffffffffffffffffffffffffffffffffffffff1673ffffffffffffffffffffffffffffffffffffffff166323b872dd8430856040518463ffffffff1660e01b8152600401808473ffffffffffffffffffffffffffffffffffffffff1673ffffffffffffffffffffffffffffffffffffffff1681526020018373ffffffffffffffffffffffffffffffffffffffff1673ffffffffffffffffffffffffffffffffffffffff1681526020018281526020019350505050602060405180830381600087803b158015611eeb5760006000fd5b505af1158015611f00573d600060003e3d6000fd5b505050506040513d6020811015611f175760006000fd5b81019080805190602001909291905050501515611f9f576040517f08c379a000000000000000000000000000000000000000000000000000000000815260040180806020018281038252601d8152602001807f4469766964656e64205472616e7366657246726f6d204661696c65642e00000081526020015060200191505060405180910390fd5b61010260009054906101000a900473ffffffffffffffffffffffffffffffffffffffff1673ffffffffffffffffffffffffffffffffffffffff1663fb93210884846040518363ffffffff1660e01b8152600401808373ffffffffffffffffffffffffffffffffffffffff1673ffffffffffffffffffffffffffffffffffffffff16815260200182815260200192505050602060405180830381600087803b15801561204a5760006000fd5b505af115801561205f573d600060003e3d6000fd5b505050506040513d60208110156120765760006000fd5b81019080805190602001909291905050505060019050612091565b92915050565b60003390506120a1565b90565b600073ffffffffffffffffffffffffffffffffffffffff168273ffffffffffffffffffffffffffffffffffffffff16141515156120e15760006000fd5b600073ffffffffffffffffffffffffffffffffffffffff168373ffffffffffffffffffffffffffffffffffffffff161415151561211e5760006000fd5b80606960005060008573ffffffffffffffffffffffffffffffffffffffff1673ffffffffffffffffffffffffffffffffffffffff16815260200190815260200160002060005060008473ffffffffffffffffffffffffffffffffffffffff1673ffffffffffffffffffffffffffffffffffffffff1681526020019081526020016000206000508190909055508173ffffffffffffffffffffffffffffffffffffffff168373ffffffffffffffffffffffffffffffffffffffff167f8c5be1e5ebec7d5bd14f71427d1e84f3dd0314c0f7b2291e5b200ac8c7c3b925836040518082815260200191505060405180910390a35b505050565b60006000303b90506000811491505061222a56505b90565b61223e83838361295263ffffffff16565b600073ffffffffffffffffffffffffffffffffffffffff1661010260009054906101000a900473ffffffffffffffffffffffffffffffffffffffff1673ffffffffffffffffffffffffffffffffffffffff1614151561246a5761010260009054906101000a900473ffffffffffffffffffffffffffffffffffffffff1673ffffffffffffffffffffffffffffffffffffffff1663c606627284836040518363ffffffff1660e01b8152600401808373ffffffffffffffffffffffffffffffffffffffff1673ffffffffffffffffffffffffffffffffffffffff16815260200182815260200192505050602060405180830381600087803b1580156123425760006000fd5b505af1158015612357573d600060003e3d6000fd5b505050506040513d602081101561236e5760006000fd5b81019080805190602001909291905050505061010260009054906101000a900473ffffffffffffffffffffffffffffffffffffffff1673ffffffffffffffffffffffffffffffffffffffff166347e7ef2483836040518363ffffffff1660e01b8152600401808373ffffffffffffffffffffffffffffffffffffffff1673ffffffffffffffffffffffffffffffffffffffff16815260200182815260200192505050602060405180830381600087803b15801561242b5760006000fd5b505af1158015612440573d600060003e3d6000fd5b505050506040513d60208110156124575760006000fd5b8101908080519060200190929190505050505b5b505050565b60008282111515156124825760006000fd5b600082840390508091505061249356505b92915050565b6000600082840190508381101515156124b25760006000fd5b809150506124bc56505b92915050565b60006124e06124d561209763ffffffff16565b61176d63ffffffff16565b1515612537576040517f08c379a0000000000000000000000000000000000000000000000000000000008152600401808060200182810382526030815260200180612ed66030913960400191505060405180910390fd5b6125478383612b4063ffffffff16565b60019050612550565b5b92915050565b61256e81609d600050612cae90919063ffffffff16565b8073ffffffffffffffffffffffffffffffffffffffff167f6ae172837ea30b801fbfcdd4108aa1d5bf8ff775444fd70256b44e6bf3dfc3f660405160405180910390a25b50565b6125cc81609d600050612d6a90919063ffffffff16565b8073ffffffffffffffffffffffffffffffffffffffff167fe94479a9f7e1952cc78f2d6baab678adc1b772d936c6583def489e524cb6669260405160405180910390a25b50565b600073ffffffffffffffffffffffffffffffffffffffff168273ffffffffffffffffffffffffffffffffffffffff16141515156126505760006000fd5b61266881606a6000505461247090919063ffffffff16565b606a6000508190909055506126cb81606860005060008573ffffffffffffffffffffffffffffffffffffffff1673ffffffffffffffffffffffffffffffffffffffff1681526020019081526020016000206000505461247090919063ffffffff16565b606860005060008473ffffffffffffffffffffffffffffffffffffffff1673ffffffffffffffffffffffffffffffffffffffff168152602001908152602001600020600050819090905550600073ffffffffffffffffffffffffffffffffffffffff168273ffffffffffffffffffffffffffffffffffffffff167fddf252ad1be2c89b69c2b068fc378daa952ba7f163c4a11628f55a4df523b3ef836040518082815260200191505060405180910390a35b5050565b6000600073ffffffffffffffffffffffffffffffffffffffff168273ffffffffffffffffffffffffffffffffffffffff16141515156127c05760006000fd5b8260000160005060008373ffffffffffffffffffffffffffffffffffffffff1673ffffffffffffffffffffffffffffffffffffffff16815260200190815260200160002060009054906101000a900460ff169050612819565b92915050565b600060019054906101000a900460ff1680612844575061284361221563ffffffff16565b5b8061285c5750600060009054906101000a900460ff16155b15156128b3576040517f08c379a000000000000000000000000000000000000000000000000000000000815260040180806020018281038252602e815260200180612f06602e913960400191505060405180910390fd5b6000600060019054906101000a900460ff161590508015612905576001600060016101000a81548160ff0219169083151502179055506001600060006101000a81548160ff0219169083151502179055505b6129148261176d63ffffffff16565b151561292a576129298261255763ffffffff16565b5b5b801561294d576000600060016101000a81548160ff0219169083151502179055505b505b50565b600073ffffffffffffffffffffffffffffffffffffffff168273ffffffffffffffffffffffffffffffffffffffff161415151561298f5760006000fd5b6129e781606860005060008673ffffffffffffffffffffffffffffffffffffffff1673ffffffffffffffffffffffffffffffffffffffff1681526020019081526020016000206000505461247090919063ffffffff16565b606860005060008573ffffffffffffffffffffffffffffffffffffffff1673ffffffffffffffffffffffffffffffffffffffff168152602001908152602001600020600050819090905550612a8a81606860005060008573ffffffffffffffffffffffffffffffffffffffff1673ffffffffffffffffffffffffffffffffffffffff1681526020019081526020016000206000505461249990919063ffffffff16565b606860005060008473ffffffffffffffffffffffffffffffffffffffff1673ffffffffffffffffffffffffffffffffffffffff1681526020019081526020016000206000508190909055508173ffffffffffffffffffffffffffffffffffffffff168373ffffffffffffffffffffffffffffffffffffffff167fddf252ad1be2c89b69c2b068fc378daa952ba7f163c4a11628f55a4df523b3ef836040518082815260200191505060405180910390a35b505050565b600073ffffffffffffffffffffffffffffffffffffffff168273ffffffffffffffffffffffffffffffffffffffff1614151515612b7d5760006000fd5b612b9581606a6000505461249990919063ffffffff16565b606a600050819090905550612bf881606860005060008573ffffffffffffffffffffffffffffffffffffffff1673ffffffffffffffffffffffffffffffffffffffff1681526020019081526020016000206000505461249990919063ffffffff16565b606860005060008473ffffffffffffffffffffffffffffffffffffffff1673ffffffffffffffffffffffffffffffffffffffff1681526020019081526020016000206000508190909055508173ffffffffffffffffffffffffffffffffffffffff16600073ffffffffffffffffffffffffffffffffffffffff167fddf252ad1be2c89b69c2b068fc378daa952ba7f163c4a11628f55a4df523b3ef836040518082815260200191505060405180910390a35b5050565b600073ffffffffffffffffffffffffffffffffffffffff168173ffffffffffffffffffffffffffffffffffffffff1614151515612ceb5760006000fd5b612cfb828261278163ffffffff16565b151515612d085760006000fd5b60018260000160005060008373ffffffffffffffffffffffffffffffffffffffff1673ffffffffffffffffffffffffffffffffffffffff16815260200190815260200160002060006101000a81548160ff0219169083151502179055505b5050565b600073ffffffffffffffffffffffffffffffffffffffff168173ffffffffffffffffffffffffffffffffffffffff1614151515612da75760006000fd5b612db7828261278163ffffffff16565b1515612dc35760006000fd5b60008260000160005060008373ffffffffffffffffffffffffffffffffffffffff1673ffffffffffffffffffffffffffffffffffffffff16815260200190815260200160002060006101000a81548160ff0219169083151502179055505b5050565b828054600181600116156101000203166002900490600052602060002090601f016020900481019282601f10612e6657805160ff1916838001178555612e99565b82800160010185558215612e99579182015b82811115612e985782518260005090905591602001919060010190612e78565b5b509050612ea69190612eaa565b5090565b612ed29190612eb4565b80821115612ece5760008181506000905550600101612eb4565b5090565b9056fe4d696e746572526f6c653a2063616c6c657220646f6573206e6f74206861766520746865204d696e74657220726f6c65436f6e747261637420696e7374616e63652068617320616c7265616479206265656e20696e697469616c697a6564a265627a7a72305820f822b286be90c56f4715bd2b1ecf293d4e43b905eb888b6d9fd5f6e88916524564736f6c634300050a0032","compiler":{"name":"solc","version":"0.5.10+commit.5a6ea5b1.Emscripten.clang","optimizer":{},"evmVersion":"constantinople"}}