{"fileName":"BondingCurve.sol","contractName":"BondingCurve","source":"pragma solidity ^0.5.7;\n\nimport \"@openzeppelin/contracts-ethereum-package/contracts/token/ERC20/IERC20.sol\";\nimport \"@openzeppelin/contracts-ethereum-package/contracts/math/SafeMath.sol\";\nimport \"@openzeppelin/contracts-ethereum-package/contracts/ownership/Ownable.sol\";\nimport \"@openzeppelin/contracts-ethereum-package/contracts/lifecycle/Pausable.sol\";\nimport \"@openzeppelin/upgrades/contracts/Initializable.sol\";\nimport \"./interface/ICurveLogic.sol\";\nimport \"./token/BondedToken.sol\";\n\n/// @title A bonding curve implementation for buying a selling bonding curve tokens.\n/// @author dOrg\n/// @notice Uses a defined ERC20 token as reserve currency\ncontract BondingCurve is Initializable, Ownable, Pausable {\n    using SafeMath for uint256;\n\n    IERC20 internal _collateralToken;\n    BondedToken internal _bondedToken;\n\n    ICurveLogic internal _buyCurve;\n    address internal _beneficiary;\n\n    uint256 internal _reserveBalance;\n    uint256 internal _reservePercentage;\n    uint256 internal _dividendPercentage;\n\n    uint256 private constant MAX_PERCENTAGE = 100;\n    uint256 private constant MICRO_PAYMENT_THRESHOLD = 100;\n\n    string internal constant TRANSFER_FROM_FAILED = \"Transfer of collateralTokens from sender failed\";\n    string internal constant TOKEN_MINTING_FAILED = \"bondedToken minting failed\";\n    string internal constant TRANSFER_TO_BENEFICIARY_FAILED = \"Tranfer of collateralTokens to beneficiary failed\";\n    string internal constant INSUFFICENT_TOKENS = \"Insufficent tokens\";\n    string internal constant MAX_PRICE_EXCEEDED = \"Current price exceedes maximum specified\";\n    string internal constant PRICE_BELOW_MIN = \"Current price is below minimum specified\";\n    string internal constant REQUIRE_NON_ZERO_NUM_TOKENS = \"Must specify a non-zero amount of bondedTokens\";\n    string internal constant SELL_CURVE_LARGER = \"Buy curve value must be greater than Sell curve value\";\n    string internal constant SPLIT_ON_PAY_INVALID = \"dividendPercentage must be a valid percentage\";\n    string internal constant SPLIT_ON_BUY_INVALID = \"reservePercentage must be a valid percentage\";\n    string internal constant SPLIT_ON_PAY_MATH_ERROR = \"dividendPercentage splits returned a greater token value than input value\";\n    string internal constant NO_MICRO_PAYMENTS = \"Payment amount must be greater than 100 'units' for calculations to work correctly\";\n    string internal constant TOKEN_BURN_FAILED = \"bondedToken burn failed\";\n    string internal constant TRANSFER_TO_RECIPIENT_FAILED = \"Transfer to recipient failed\";\n\n    event BeneficiarySet(address beneficiary);\n    event BuyCurveSet(address buyCurve);\n    event SellCurveSet(address sellCurve);\n    event DividendPercentageSet(uint256 dividendPercentage);\n    event ReservePercentageSet(uint256 reservePercentage);\n\n    event Buy(\n        address indexed buyer,\n        address indexed recipient,\n        uint256 amount,\n        uint256 price,\n        uint256 reserveAmount,\n        uint256 beneficiaryAmount\n    );\n    event Sell(address indexed seller, address indexed recipient, uint256 amount, uint256 reward);\n    event Pay(\n        address indexed from,\n        address indexed token,\n        uint256 amount,\n        uint256 beneficiaryAmount,\n        uint256 dividendAmount\n    );\n\n    /// @dev Initialize contract\n    /// @param owner Contract owner, can conduct administrative functions.\n    /// @param beneficiary Recieves a proportion of incoming tokens on buy() and pay() operations.\n    /// @param collateralToken Token accepted as collateral by the curve. (e.g. WETH or DAI)\n    /// @param bondedToken Token native to the curve. The bondingCurve contract has exclusive rights to mint and burn tokens.\n    /// @param buyCurve Curve logic for buy curve.\n    /// @param reservePercentage Percentage of incoming collateralTokens distributed to beneficiary on buys. (The remainder is sent to reserve for sells)\n    /// @param dividendPercentage Percentage of incoming collateralTokens distributed to beneficiary on payments. The remainder being distributed among current bondedToken holders. Divided by precision value.\n    function initialize(\n        address owner,\n        address beneficiary,\n        IERC20 collateralToken,\n        BondedToken bondedToken,\n        ICurveLogic buyCurve,\n        uint256 reservePercentage,\n        uint256 dividendPercentage\n    ) public initializer {\n        _isValiddividendPercentage(reservePercentage);\n        _isValidreservePercentage(dividendPercentage);\n\n        Ownable.initialize(owner);\n        Pausable.initialize(owner);\n\n        _beneficiary = beneficiary;\n\n        _buyCurve = buyCurve;\n        _bondedToken = bondedToken;\n        _collateralToken = collateralToken;\n\n        _reservePercentage = reservePercentage;\n        _dividendPercentage = dividendPercentage;\n\n        emit BuyCurveSet(address(_buyCurve));\n        emit BeneficiarySet(_beneficiary);\n        emit ReservePercentageSet(_reservePercentage);\n        emit DividendPercentageSet(_dividendPercentage);\n    }\n\n    function _isValidreservePercentage(uint256 reservePercentage) internal view {\n        require(reservePercentage <= MAX_PERCENTAGE, SPLIT_ON_BUY_INVALID);\n    }\n\n    function _isValiddividendPercentage(uint256 dividendPercentage) internal view {\n        require(dividendPercentage <= MAX_PERCENTAGE, SPLIT_ON_PAY_INVALID);\n    }\n\n    /// @notice             Get the price in ether to mint tokens\n    /// @param numTokens    The number of tokens to calculate price for\n    function priceToBuy(uint256 numTokens) public view returns (uint256) {\n        return _buyCurve.calcMintPrice(_bondedToken.totalSupply(), _reserveBalance, numTokens);\n    }\n\n    /// @notice             Get the reward in ether to burn tokens\n    /// @param numTokens    The number of tokens to calculate reward for\n    function rewardForSell(uint256 numTokens) public view returns (uint256) {\n        uint256 buyPrice = priceToBuy(numTokens);\n        return (buyPrice.mul(_reservePercentage)).div(MAX_PERCENTAGE);\n    }\n\n    /// @dev                Buy a given number of bondedTokens with a number of collateralTokens determined by the current rate from the buy curve.\n    /// @param numTokens    The number of bondedTokens to buy\n    /// @param maxPrice     Maximum total price allowable to pay in collateralTokens. If zero, any price is allowed.\n    /// @param recipient    Address to send the new bondedTokens to\n    function buy(uint256 numTokens, uint256 maxPrice, address recipient) public whenNotPaused {\n        require(numTokens > 0, REQUIRE_NON_ZERO_NUM_TOKENS);\n\n        uint256 buyPrice = priceToBuy(numTokens);\n\n        if (maxPrice != 0) {\n            require(buyPrice <= maxPrice, MAX_PRICE_EXCEEDED);\n        }\n\n        uint256 tokensToReserve = rewardForSell(numTokens);\n        uint256 tokensToBeneficiary = buyPrice.sub(tokensToReserve);\n\n        _reserveBalance = _reserveBalance.add(tokensToReserve);\n        _bondedToken.mint(recipient, numTokens);\n\n        require(\n            _collateralToken.transferFrom(msg.sender, address(this), buyPrice),\n            TRANSFER_FROM_FAILED\n        );\n        _collateralToken.transfer(_beneficiary, tokensToBeneficiary);\n\n        emit Buy(msg.sender, recipient, numTokens, buyPrice, tokensToReserve, tokensToBeneficiary);\n    }\n\n    /// @dev                Sell a given number of bondedTokens for a number of collateralTokens determined by the current rate from the sell curve.\n    /// @param numTokens    The number of bondedTokens to sell\n    /// @param minPrice     Minimum total price allowable to receive in collateralTokens\n    /// @param recipient    Address to send collateralTokens to\n    function sell(uint256 numTokens, uint256 minPrice, address recipient) public whenNotPaused {\n        require(numTokens > 0, REQUIRE_NON_ZERO_NUM_TOKENS);\n        require(_bondedToken.balanceOf(msg.sender) >= numTokens, INSUFFICENT_TOKENS);\n\n        uint256 burnReward = rewardForSell(numTokens);\n        require(burnReward >= minPrice, PRICE_BELOW_MIN);\n\n        _reserveBalance = _reserveBalance.sub(burnReward);\n\n        _bondedToken.burn(msg.sender, numTokens);\n        _collateralToken.transfer(recipient, burnReward);\n\n        emit Sell(msg.sender, recipient, numTokens, burnReward);\n    }\n\n    /// @notice             Pay the DAO in the specified payment token. They will be distributed between the DAO beneficiary and bonded token holders\n    /// @dev                Does not currently support arbitrary token payments\n    /// @param amount       The number of tokens to pay the DAO\n    function pay(uint256 amount) public {\n        require(amount > MICRO_PAYMENT_THRESHOLD, NO_MICRO_PAYMENTS);\n\n        IERC20 paymentToken = _collateralToken;\n\n        uint256 tokensToBeneficiary;\n        uint256 tokensToDividendHolders;\n        uint256 remainderTokens;\n\n        tokensToDividendHolders = (amount.mul(_dividendPercentage)).div(MAX_PERCENTAGE);\n        tokensToBeneficiary = amount.sub(tokensToDividendHolders);\n\n        // incoming funds\n        require(paymentToken.transferFrom(msg.sender, address(this), amount), TRANSFER_FROM_FAILED);\n\n        // outgoing funds to Beneficiary\n        paymentToken.transfer(_beneficiary, tokensToBeneficiary);\n\n        // outgoing funds to token holders as dividends (stored by BondedToken)\n        paymentToken.approve(address(_bondedToken), tokensToDividendHolders);\n        _bondedToken.distribute(address(this), tokensToDividendHolders);\n\n        emit Pay(\n            msg.sender,\n            address(paymentToken),\n            amount,\n            tokensToBeneficiary,\n            tokensToDividendHolders\n        );\n    }\n\n    /*\n        Admin Functions\n    */\n\n    /// @notice Set beneficiary to a new address\n    /// @param beneficiary       New beneficiary\n    function setBeneficiary(address beneficiary) public onlyOwner {\n        _beneficiary = beneficiary;\n        emit BeneficiarySet(_beneficiary);\n    }\n\n    /// @notice Set buy curve to a new address\n    /// @param buyCurve       New buy curve\n    function setBuyCurve(ICurveLogic buyCurve) public onlyOwner {\n        _buyCurve = buyCurve;\n        emit BuyCurveSet(address(_buyCurve));\n    }\n\n    /// @notice Set split on buy to new value\n    /// @param reservePercentage   New split on buy value\n    function setReservePercentage(uint256 reservePercentage) public onlyOwner {\n        _isValidreservePercentage(reservePercentage);\n        _reservePercentage = reservePercentage;\n        emit ReservePercentageSet(_reservePercentage);\n    }\n\n    /// @notice Set split on pay to new value\n    /// @param dividendPercentage       New split on pay value\n    function setDividendPercentage(uint256 dividendPercentage) public onlyOwner {\n        _isValiddividendPercentage(dividendPercentage);\n        _dividendPercentage = dividendPercentage;\n        emit DividendPercentageSet(_dividendPercentage);\n    }\n\n    /*\n        Getter Functions\n    */\n\n    /// @notice Get reserve token contract\n    function collateralToken() public view returns (IERC20) {\n        return _collateralToken;\n    }\n\n    /// @notice Get bonded token contract\n    function bondedToken() public view returns (BondedToken) {\n        return _bondedToken;\n    }\n\n    /// @notice Get buy curve contract\n    function buyCurve() public view returns (ICurveLogic) {\n        return _buyCurve;\n    }\n\n    /// @notice Get beneficiary\n    function beneficiary() public view returns (address) {\n        return _beneficiary;\n    }\n\n    /// @notice Get reserve balance\n    function reserveBalance() public view returns (uint256) {\n        return _reserveBalance;\n    }\n\n    /// @notice Get split on buy parameter\n    function reservePercentage() public view returns (uint256) {\n        return _reservePercentage;\n    }\n\n    /// @notice Get split on pay parameter\n    function dividendPercentage() public view returns (uint256) {\n        return _dividendPercentage;\n    }\n\n    /// @notice Get minimum value accepted for payments\n    function getPaymentThreshold() public view returns (uint256) {\n        return MICRO_PAYMENT_THRESHOLD;\n    }\n}\n","sourcePath":"contracts/BondingCurve/BondingCurve.sol","abi":[{"constant":false,"inputs":[{"name":"reservePercentage","type":"uint256"}],"name":"setReservePercentage","outputs":[],"payable":false,"stateMutability":"nonpayable","type":"function"},{"constant":false,"inputs":[{"name":"beneficiary","type":"address"}],"name":"setBeneficiary","outputs":[],"payable":false,"stateMutability":"nonpayable","type":"function"},{"constant":true,"inputs":[],"name":"beneficiary","outputs":[{"name":"","type":"address"}],"payable":false,"stateMutability":"view","type":"function"},{"constant":false,"inputs":[],"name":"unpause","outputs":[],"payable":false,"stateMutability":"nonpayable","type":"function"},{"constant":true,"inputs":[],"name":"getPaymentThreshold","outputs":[{"name":"","type":"uint256"}],"payable":false,"stateMutability":"view","type":"function"},{"constant":true,"inputs":[{"name":"account","type":"address"}],"name":"isPauser","outputs":[{"name":"","type":"bool"}],"payable":false,"stateMutability":"view","type":"function"},{"constant":false,"inputs":[{"name":"numTokens","type":"uint256"},{"name":"maxPrice","type":"uint256"},{"name":"recipient","type":"address"}],"name":"buy","outputs":[],"payable":false,"stateMutability":"nonpayable","type":"function"},{"constant":true,"inputs":[],"name":"paused","outputs":[{"name":"","type":"bool"}],"payable":false,"stateMutability":"view","type":"function"},{"constant":false,"inputs":[{"name":"buyCurve","type":"address"}],"name":"setBuyCurve","outputs":[],"payable":false,"stateMutability":"nonpayable","type":"function"},{"constant":true,"inputs":[],"name":"dividendPercentage","outputs":[{"name":"","type":"uint256"}],"payable":false,"stateMutability":"view","type":"function"},{"constant":true,"inputs":[],"name":"buyCurve","outputs":[{"name":"","type":"address"}],"payable":false,"stateMutability":"view","type":"function"},{"constant":false,"inputs":[],"name":"renouncePauser","outputs":[],"payable":false,"stateMutability":"nonpayable","type":"function"},{"constant":false,"inputs":[],"name":"renounceOwnership","outputs":[],"payable":false,"stateMutability":"nonpayable","type":"function"},{"constant":false,"inputs":[{"name":"dividendPercentage","type":"uint256"}],"name":"setDividendPercentage","outputs":[],"payable":false,"stateMutability":"nonpayable","type":"function"},{"constant":false,"inputs":[{"name":"account","type":"address"}],"name":"addPauser","outputs":[],"payable":false,"stateMutability":"nonpayable","type":"function"},{"constant":false,"inputs":[],"name":"pause","outputs":[],"payable":false,"stateMutability":"nonpayable","type":"function"},{"constant":true,"inputs":[],"name":"owner","outputs":[{"name":"","type":"address"}],"payable":false,"stateMutability":"view","type":"function"},{"constant":true,"inputs":[],"name":"isOwner","outputs":[{"name":"","type":"bool"}],"payable":false,"stateMutability":"view","type":"function"},{"constant":true,"inputs":[],"name":"reserveBalance","outputs":[{"name":"","type":"uint256"}],"payable":false,"stateMutability":"view","type":"function"},{"constant":true,"inputs":[{"name":"numTokens","type":"uint256"}],"name":"priceToBuy","outputs":[{"name":"","type":"uint256"}],"payable":false,"stateMutability":"view","type":"function"},{"constant":true,"inputs":[{"name":"numTokens","type":"uint256"}],"name":"rewardForSell","outputs":[{"name":"","type":"uint256"}],"payable":false,"stateMutability":"view","type":"function"},{"constant":true,"inputs":[],"name":"collateralToken","outputs":[{"name":"","type":"address"}],"payable":false,"stateMutability":"view","type":"function"},{"constant":false,"inputs":[{"name":"owner","type":"address"},{"name":"beneficiary","type":"address"},{"name":"collateralToken","type":"address"},{"name":"bondedToken","type":"address"},{"name":"buyCurve","type":"address"},{"name":"reservePercentage","type":"uint256"},{"name":"dividendPercentage","type":"uint256"}],"name":"initialize","outputs":[],"payable":false,"stateMutability":"nonpayable","type":"function"},{"constant":false,"inputs":[{"name":"amount","type":"uint256"}],"name":"pay","outputs":[],"payable":false,"stateMutability":"nonpayable","type":"function"},{"constant":false,"inputs":[{"name":"sender","type":"address"}],"name":"initialize","outputs":[],"payable":false,"stateMutability":"nonpayable","type":"function"},{"constant":false,"inputs":[{"name":"numTokens","type":"uint256"},{"name":"minPrice","type":"uint256"},{"name":"recipient","type":"address"}],"name":"sell","outputs":[],"payable":false,"stateMutability":"nonpayable","type":"function"},{"constant":true,"inputs":[],"name":"bondedToken","outputs":[{"name":"","type":"address"}],"payable":false,"stateMutability":"view","type":"function"},{"constant":false,"inputs":[{"name":"newOwner","type":"address"}],"name":"transferOwnership","outputs":[],"payable":false,"stateMutability":"nonpayable","type":"function"},{"constant":true,"inputs":[],"name":"reservePercentage","outputs":[{"name":"","type":"uint256"}],"payable":false,"stateMutability":"view","type":"function"},{"anonymous":false,"inputs":[{"indexed":false,"name":"beneficiary","type":"address"}],"name":"BeneficiarySet","type":"event"},{"anonymous":false,"inputs":[{"indexed":false,"name":"buyCurve","type":"address"}],"name":"BuyCurveSet","type":"event"},{"anonymous":false,"inputs":[{"indexed":false,"name":"sellCurve","type":"address"}],"name":"SellCurveSet","type":"event"},{"anonymous":false,"inputs":[{"indexed":false,"name":"dividendPercentage","type":"uint256"}],"name":"DividendPercentageSet","type":"event"},{"anonymous":false,"inputs":[{"indexed":false,"name":"reservePercentage","type":"uint256"}],"name":"ReservePercentageSet","type":"event"},{"anonymous":false,"inputs":[{"indexed":true,"name":"buyer","type":"address"},{"indexed":true,"name":"recipient","type":"address"},{"indexed":false,"name":"amount","type":"uint256"},{"indexed":false,"name":"price","type":"uint256"},{"indexed":false,"name":"reserveAmount","type":"uint256"},{"indexed":false,"name":"beneficiaryAmount","type":"uint256"}],"name":"Buy","type":"event"},{"anonymous":false,"inputs":[{"indexed":true,"name":"seller","type":"address"},{"indexed":true,"name":"recipient","type":"address"},{"indexed":false,"name":"amount","type":"uint256"},{"indexed":false,"name":"reward","type":"uint256"}],"name":"Sell","type":"event"},{"anonymous":false,"inputs":[{"indexed":true,"name":"from","type":"address"},{"indexed":true,"name":"token","type":"address"},{"indexed":false,"name":"amount","type":"uint256"},{"indexed":false,"name":"beneficiaryAmount","type":"uint256"},{"indexed":false,"name":"dividendAmount","type":"uint256"}],"name":"Pay","type":"event"},{"anonymous":false,"inputs":[{"indexed":false,"name":"account","type":"address"}],"name":"Paused","type":"event"},{"anonymous":false,"inputs":[{"indexed":false,"name":"account","type":"address"}],"name":"Unpaused","type":"event"},{"anonymous":false,"inputs":[{"indexed":true,"name":"account","type":"address"}],"name":"PauserAdded","type":"event"},{"anonymous":false,"inputs":[{"indexed":true,"name":"account","type":"address"}],"name":"PauserRemoved","type":"event"},{"anonymous":false,"inputs":[{"indexed":true,"name":"previousOwner","type":"address"},{"indexed":true,"name":"newOwner","type":"address"}],"name":"OwnershipTransferred","type":"event"}],"bytecode":"0x60806040525b5b61000b565b61358c8061001a6000396000f3fe60806040523480156100115760006000fd5b50600436106101d45760003560e01c806382dc1ec411610105578063b2016bd4116100a3578063d04c698311610072578063d04c69831461077e578063e36a4ec7146107d7578063f2fde38b14610821578063f700c82914610866576101d4565b8063b2016bd4146105e7578063b33f952714610631578063c290d6911461070a578063c4d66de814610739576101d4565b80638f32d59b116100df5780638f32d59b14610521578063a10954fe14610543578063a194c59c14610561578063a965f883146105a4576101d4565b806382dc1ec4146104885780638456cb59146104cd5780638da5cb5b146104d7576101d4565b80635c975abb116101725780636e0c08bf1161014c5780636e0c08bf146103fb5780636ef8d66d14610445578063715018a61461044f5780637e3ad88114610459576101d4565b80635c975abb146103765780635f112ede146103985780636bb80d51146103dd576101d4565b80633f4ba83a116101ae5780633f4ba83a14610298578063468fb75d146102a257806346fbf68e146102c057806359a87bc11461031d576101d4565b80631132454d146101da5780631c31f7101461020957806338af3eed1461024e576101d4565b60006000fd5b610207600480360360208110156101f15760006000fd5b8101908080359060200190929190505050610884565b005b61024c600480360360208110156102205760006000fd5b81019080803573ffffffffffffffffffffffffffffffffffffffff1690602001909291905050506108fa565b005b6102566109df565b604051808273ffffffffffffffffffffffffffffffffffffffff1673ffffffffffffffffffffffffffffffffffffffff16815260200191505060405180910390f35b6102a0610a0e565b005b6102aa610b2d565b6040518082815260200191505060405180910390f35b610303600480360360208110156102d75760006000fd5b81019080803573ffffffffffffffffffffffffffffffffffffffff169060200190929190505050610b3b565b604051808215151515815260200191505060405180910390f35b610374600480360360608110156103345760006000fd5b810190808035906020019092919080359060200190929190803573ffffffffffffffffffffffffffffffffffffffff169060200190929190505050610b60565b005b61037e6111cd565b604051808215151515815260200191505060405180910390f35b6103db600480360360208110156103af5760006000fd5b81019080803573ffffffffffffffffffffffffffffffffffffffff1690602001909291905050506111e9565b005b6103e56112ce565b6040518082815260200191505060405180910390f35b6104036112e0565b604051808273ffffffffffffffffffffffffffffffffffffffff1673ffffffffffffffffffffffffffffffffffffffff16815260200191505060405180910390f35b61044d61130f565b005b61045761132e565b005b610486600480360360208110156104705760006000fd5b810190808035906020019092919050505061140b565b005b6104cb6004803603602081101561049f5760006000fd5b81019080803573ffffffffffffffffffffffffffffffffffffffff169060200190929190505050611481565b005b6104d5611508565b005b6104df611628565b604051808273ffffffffffffffffffffffffffffffffffffffff1673ffffffffffffffffffffffffffffffffffffffff16815260200191505060405180910390f35b610529611657565b604051808215151515815260200191505060405180910390f35b61054b6116c1565b6040518082815260200191505060405180910390f35b61058e600480360360208110156105785760006000fd5b81019080803590602001909291905050506116d3565b6040518082815260200191505060405180910390f35b6105d1600480360360208110156105bb5760006000fd5b810190808035906020019092919050505061184c565b6040518082815260200191505060405180910390f35b6105ef61189a565b604051808273ffffffffffffffffffffffffffffffffffffffff1673ffffffffffffffffffffffffffffffffffffffff16815260200191505060405180910390f35b610708600480360360e08110156106485760006000fd5b81019080803573ffffffffffffffffffffffffffffffffffffffff169060200190929190803573ffffffffffffffffffffffffffffffffffffffff169060200190929190803573ffffffffffffffffffffffffffffffffffffffff169060200190929190803573ffffffffffffffffffffffffffffffffffffffff169060200190929190803573ffffffffffffffffffffffffffffffffffffffff16906020019092919080359060200190929190803590602001909291905050506118c9565b005b610737600480360360208110156107215760006000fd5b8101908080359060200190929190505050611cb7565b005b61077c600480360360208110156107505760006000fd5b81019080803573ffffffffffffffffffffffffffffffffffffffff1690602001909291905050506122e2565b005b6107d5600480360360608110156107955760006000fd5b810190808035906020019092919080359060200190929190803573ffffffffffffffffffffffffffffffffffffffff16906020019092919050505061241a565b005b6107df6129de565b604051808273ffffffffffffffffffffffffffffffffffffffff1673ffffffffffffffffffffffffffffffffffffffff16815260200191505060405180910390f35b610864600480360360208110156108385760006000fd5b81019080803573ffffffffffffffffffffffffffffffffffffffff169060200190929190505050612a0d565b005b61086e612a3b565b6040518082815260200191505060405180910390f35b61089261165763ffffffff16565b151561089e5760006000fd5b6108ad81612a4d63ffffffff16565b8060d16000508190909055507f1c9624cab905d59a0466bc9814df531d8d661e92d7e389bdda562843d362125260d1600050546040518082815260200191505060405180910390a15b5b50565b61090861165763ffffffff16565b15156109145760006000fd5b8060cf60006101000a81548173ffffffffffffffffffffffffffffffffffffffff021916908373ffffffffffffffffffffffffffffffffffffffff1602179055507f04d55a8be181fb8d75b76f2d48aa0b2ee40f47e53d6e61763eeeec46feea8a2460cf60009054906101000a900473ffffffffffffffffffffffffffffffffffffffff16604051808273ffffffffffffffffffffffffffffffffffffffff1673ffffffffffffffffffffffffffffffffffffffff16815260200191505060405180910390a15b5b50565b600060cf60009054906101000a900473ffffffffffffffffffffffffffffffffffffffff169050610a0b565b90565b610a2a610a1f612b1963ffffffff16565b610b3b63ffffffff16565b1515610a81576040517f08c379a00000000000000000000000000000000000000000000000000000000081526004018080602001828103825260308152602001806133a26030913960400191505060405180910390fd5b609960009054906101000a900460ff161515610a9d5760006000fd5b6000609960006101000a81548160ff0219169083151502179055507f5db9ee0a495bf2e6ff9c91a7834c1ba4fdd244a5e8aa4e537bd38aeae4b073aa610ae7612b1963ffffffff16565b604051808273ffffffffffffffffffffffffffffffffffffffff1673ffffffffffffffffffffffffffffffffffffffff16815260200191505060405180910390a15b5b5b565b600060649050610b38565b90565b6000610b54826066600050612b2690919063ffffffff16565b9050610b5b565b919050565b609960009054906101000a900460ff16151515610b7d5760006000fd5b600083116040518060600160405280602e815260200161352a602e9139901515610c43576040517f08c379a00000000000000000000000000000000000000000000000000000000081526004018080602001828103825283818151815260200191508051906020019080838360005b83811015610c085780820151818401525b602081019050610bec565b50505050905090810190601f168015610c355780820380516001836020036101000a031916815260200191505b509250505060405180910390fd5b506000610c55846116d363ffffffff16565b9050600083141515610d29578281111560405180606001604052806028815260200161350260289139901515610d27576040517f08c379a00000000000000000000000000000000000000000000000000000000081526004018080602001828103825283818151815260200191508051906020019080838360005b83811015610cec5780820151818401525b602081019050610cd0565b50505050905090810190601f168015610d195780820380516001836020036101000a031916815260200191505b509250505060405180910390fd5b505b6000610d3a8561184c63ffffffff16565b90506000610d518284612bc490919063ffffffff16565b9050610d6b8260d060005054612bed90919063ffffffff16565b60d060005081909090555060cd60009054906101000a900473ffffffffffffffffffffffffffffffffffffffff1673ffffffffffffffffffffffffffffffffffffffff166340c10f1985886040518363ffffffff1660e01b8152600401808373ffffffffffffffffffffffffffffffffffffffff1673ffffffffffffffffffffffffffffffffffffffff16815260200182815260200192505050602060405180830381600087803b158015610e205760006000fd5b505af1158015610e35573d600060003e3d6000fd5b505050506040513d6020811015610e4c5760006000fd5b81019080805190602001909291905050505060cc60009054906101000a900473ffffffffffffffffffffffffffffffffffffffff1673ffffffffffffffffffffffffffffffffffffffff166323b872dd3330866040518463ffffffff1660e01b8152600401808473ffffffffffffffffffffffffffffffffffffffff1673ffffffffffffffffffffffffffffffffffffffff1681526020018373ffffffffffffffffffffffffffffffffffffffff1673ffffffffffffffffffffffffffffffffffffffff1681526020018281526020019350505050602060405180830381600087803b158015610f3c5760006000fd5b505af1158015610f51573d600060003e3d6000fd5b505050506040513d6020811015610f685760006000fd5b81019080805190602001909291905050506040518060600160405280602f8152602001613479602f913990151561103b576040517f08c379a00000000000000000000000000000000000000000000000000000000081526004018080602001828103825283818151815260200191508051906020019080838360005b838110156110005780820151818401525b602081019050610fe4565b50505050905090810190601f16801561102d5780820380516001836020036101000a031916815260200191505b509250505060405180910390fd5b5060cc60009054906101000a900473ffffffffffffffffffffffffffffffffffffffff1673ffffffffffffffffffffffffffffffffffffffff1663a9059cbb60cf60009054906101000a900473ffffffffffffffffffffffffffffffffffffffff16836040518363ffffffff1660e01b8152600401808373ffffffffffffffffffffffffffffffffffffffff1673ffffffffffffffffffffffffffffffffffffffff16815260200182815260200192505050602060405180830381600087803b1580156111085760006000fd5b505af115801561111d573d600060003e3d6000fd5b505050506040513d60208110156111345760006000fd5b8101908080519060200190929190505050508373ffffffffffffffffffffffffffffffffffffffff163373ffffffffffffffffffffffffffffffffffffffff167f75a85e7be0265abefef113ee168a0d751385a985c3a37920ae97ae192d2eadb4888686866040518085815260200184815260200183815260200182815260200194505050505060405180910390a35050505b5b505050565b6000609960009054906101000a900460ff1690506111e6565b90565b6111f761165763ffffffff16565b15156112035760006000fd5b8060ce60006101000a81548173ffffffffffffffffffffffffffffffffffffffff021916908373ffffffffffffffffffffffffffffffffffffffff1602179055507f0e02a9592d79145f9fedb4a3e33b34afe1aa6cbcf0144264d775660872133dcb60ce60009054906101000a900473ffffffffffffffffffffffffffffffffffffffff16604051808273ffffffffffffffffffffffffffffffffffffffff1673ffffffffffffffffffffffffffffffffffffffff16815260200191505060405180910390a15b5b50565b600060d26000505490506112dd565b90565b600060ce60009054906101000a900473ffffffffffffffffffffffffffffffffffffffff16905061130c565b90565b61132b611320612b1963ffffffff16565b612c1663ffffffff16565b5b565b61133c61165763ffffffff16565b15156113485760006000fd5b600073ffffffffffffffffffffffffffffffffffffffff16603360009054906101000a900473ffffffffffffffffffffffffffffffffffffffff1673ffffffffffffffffffffffffffffffffffffffff167f8be0079c531659141344cd1fd0a4f28419497f9722a3daafe3b4186f6b6457e060405160405180910390a36000603360006101000a81548173ffffffffffffffffffffffffffffffffffffffff021916908373ffffffffffffffffffffffffffffffffffffffff1602179055505b5b565b61141961165763ffffffff16565b15156114255760006000fd5b61143481612c7463ffffffff16565b8060d26000508190909055507f166d8e25d41b160842e42025bfcb3d39140637edb9c61d8355a244ec04e2438660d2600050546040518082815260200191505060405180910390a15b5b50565b61149d611492612b1963ffffffff16565b610b3b63ffffffff16565b15156114f4576040517f08c379a00000000000000000000000000000000000000000000000000000000081526004018080602001828103825260308152602001806133a26030913960400191505060405180910390fd5b61150381612d4063ffffffff16565b5b5b50565b611524611519612b1963ffffffff16565b610b3b63ffffffff16565b151561157b576040517f08c379a00000000000000000000000000000000000000000000000000000000081526004018080602001828103825260308152602001806133a26030913960400191505060405180910390fd5b609960009054906101000a900460ff161515156115985760006000fd5b6001609960006101000a81548160ff0219169083151502179055507f62e78cea01bee320cd4e420270b5ea74000d11b0c9f74754ebdbfc544b05a2586115e2612b1963ffffffff16565b604051808273ffffffffffffffffffffffffffffffffffffffff1673ffffffffffffffffffffffffffffffffffffffff16815260200191505060405180910390a15b5b5b565b6000603360009054906101000a900473ffffffffffffffffffffffffffffffffffffffff169050611654565b90565b6000603360009054906101000a900473ffffffffffffffffffffffffffffffffffffffff1673ffffffffffffffffffffffffffffffffffffffff166116a0612b1963ffffffff16565b73ffffffffffffffffffffffffffffffffffffffff161490506116be565b90565b600060d06000505490506116d0565b90565b600060ce60009054906101000a900473ffffffffffffffffffffffffffffffffffffffff1673ffffffffffffffffffffffffffffffffffffffff1663bc62d5f060cd60009054906101000a900473ffffffffffffffffffffffffffffffffffffffff1673ffffffffffffffffffffffffffffffffffffffff166318160ddd6040518163ffffffff1660e01b815260040160206040518083038186803b15801561177c5760006000fd5b505afa158015611791573d600060003e3d6000fd5b505050506040513d60208110156117a85760006000fd5b810190808051906020019092919050505060d060005054856040518463ffffffff1660e01b815260040180848152602001838152602001828152602001935050505060206040518083038186803b1580156118035760006000fd5b505afa158015611818573d600060003e3d6000fd5b505050506040513d602081101561182f5760006000fd5b81019080805190602001909291905050509050611847565b919050565b6000600061185f836116d363ffffffff16565b905061188c606461187e60d16000505484612d9e90919063ffffffff16565b612de390919063ffffffff16565b91505061189556505b919050565b600060cc60009054906101000a900473ffffffffffffffffffffffffffffffffffffffff1690506118c6565b90565b600060019054906101000a900460ff16806118ee57506118ed612e1563ffffffff16565b5b806119065750600060009054906101000a900460ff16155b151561195d576040517f08c379a000000000000000000000000000000000000000000000000000000000815260040180806020018281038252602e8152602001806134d4602e913960400191505060405180910390fd5b6000600060019054906101000a900460ff1615905080156119af576001600060016101000a81548160ff0219169083151502179055506001600060006101000a81548160ff0219169083151502179055505b6119be83612c7463ffffffff16565b6119cd82612a4d63ffffffff16565b6119dc88612e2d63ffffffff16565b6119eb886122e263ffffffff16565b8660cf60006101000a81548173ffffffffffffffffffffffffffffffffffffffff021916908373ffffffffffffffffffffffffffffffffffffffff1602179055508360ce60006101000a81548173ffffffffffffffffffffffffffffffffffffffff021916908373ffffffffffffffffffffffffffffffffffffffff1602179055508460cd60006101000a81548173ffffffffffffffffffffffffffffffffffffffff021916908373ffffffffffffffffffffffffffffffffffffffff1602179055508560cc60006101000a81548173ffffffffffffffffffffffffffffffffffffffff021916908373ffffffffffffffffffffffffffffffffffffffff1602179055508260d16000508190909055508160d26000508190909055507f0e02a9592d79145f9fedb4a3e33b34afe1aa6cbcf0144264d775660872133dcb60ce60009054906101000a900473ffffffffffffffffffffffffffffffffffffffff16604051808273ffffffffffffffffffffffffffffffffffffffff1673ffffffffffffffffffffffffffffffffffffffff16815260200191505060405180910390a17f04d55a8be181fb8d75b76f2d48aa0b2ee40f47e53d6e61763eeeec46feea8a2460cf60009054906101000a900473ffffffffffffffffffffffffffffffffffffffff16604051808273ffffffffffffffffffffffffffffffffffffffff1673ffffffffffffffffffffffffffffffffffffffff16815260200191505060405180910390a17f1c9624cab905d59a0466bc9814df531d8d661e92d7e389bdda562843d362125260d1600050546040518082815260200191505060405180910390a17f166d8e25d41b160842e42025bfcb3d39140637edb9c61d8355a244ec04e2438660d2600050546040518082815260200191505060405180910390a15b8015611cac576000600060016101000a81548160ff0219169083151502179055505b505b50505050505050565b606481116040518060800160405280605281526020016133ff60529139901515611d7d576040517f08c379a00000000000000000000000000000000000000000000000000000000081526004018080602001828103825283818151815260200191508051906020019080838360005b83811015611d425780820151818401525b602081019050611d26565b50505050905090810190601f168015611d6f5780820380516001836020036101000a031916815260200191505b509250505060405180910390fd5b50600060cc60009054906101000a900473ffffffffffffffffffffffffffffffffffffffff169050600060006000611dd66064611dc860d26000505488612d9e90919063ffffffff16565b612de390919063ffffffff16565b91508150611ded8286612bc490919063ffffffff16565b925082508373ffffffffffffffffffffffffffffffffffffffff166323b872dd3330886040518463ffffffff1660e01b8152600401808473ffffffffffffffffffffffffffffffffffffffff1673ffffffffffffffffffffffffffffffffffffffff1681526020018373ffffffffffffffffffffffffffffffffffffffff1673ffffffffffffffffffffffffffffffffffffffff1681526020018281526020019350505050602060405180830381600087803b158015611ead5760006000fd5b505af1158015611ec2573d600060003e3d6000fd5b505050506040513d6020811015611ed95760006000fd5b81019080805190602001909291905050506040518060600160405280602f8152602001613479602f9139901515611fac576040517f08c379a00000000000000000000000000000000000000000000000000000000081526004018080602001828103825283818151815260200191508051906020019080838360005b83811015611f715780820151818401525b602081019050611f55565b50505050905090810190601f168015611f9e5780820380516001836020036101000a031916815260200191505b509250505060405180910390fd5b508373ffffffffffffffffffffffffffffffffffffffff1663a9059cbb60cf60009054906101000a900473ffffffffffffffffffffffffffffffffffffffff16856040518363ffffffff1660e01b8152600401808373ffffffffffffffffffffffffffffffffffffffff1673ffffffffffffffffffffffffffffffffffffffff16815260200182815260200192505050602060405180830381600087803b1580156120575760006000fd5b505af115801561206c573d600060003e3d6000fd5b505050506040513d60208110156120835760006000fd5b8101908080519060200190929190505050508373ffffffffffffffffffffffffffffffffffffffff1663095ea7b360cd60009054906101000a900473ffffffffffffffffffffffffffffffffffffffff16846040518363ffffffff1660e01b8152600401808373ffffffffffffffffffffffffffffffffffffffff1673ffffffffffffffffffffffffffffffffffffffff16815260200182815260200192505050602060405180830381600087803b15801561213f5760006000fd5b505af1158015612154573d600060003e3d6000fd5b505050506040513d602081101561216b5760006000fd5b81019080805190602001909291905050505060cd60009054906101000a900473ffffffffffffffffffffffffffffffffffffffff1673ffffffffffffffffffffffffffffffffffffffff1663fb93210830846040518363ffffffff1660e01b8152600401808373ffffffffffffffffffffffffffffffffffffffff1673ffffffffffffffffffffffffffffffffffffffff16815260200182815260200192505050602060405180830381600087803b1580156122275760006000fd5b505af115801561223c573d600060003e3d6000fd5b505050506040513d60208110156122535760006000fd5b8101908080519060200190929190505050508373ffffffffffffffffffffffffffffffffffffffff163373ffffffffffffffffffffffffffffffffffffffff167f1e4131bac8779daab09f166c157a948dba244c5c40d44558d77fb487abc31b3687868660405180848152602001838152602001828152602001935050505060405180910390a3505050505b50565b600060019054906101000a900460ff16806123075750612306612e1563ffffffff16565b5b8061231f5750600060009054906101000a900460ff16155b1515612376576040517f08c379a000000000000000000000000000000000000000000000000000000000815260040180806020018281038252602e8152602001806134d4602e913960400191505060405180910390fd5b6000600060019054906101000a900460ff1615905080156123c8576001600060016101000a81548160ff0219169083151502179055506001600060006101000a81548160ff0219169083151502179055505b6123d782612ff963ffffffff16565b6000609960006101000a81548160ff0219169083151502179055505b8015612415576000600060016101000a81548160ff0219169083151502179055505b505b50565b609960009054906101000a900460ff161515156124375760006000fd5b600083116040518060600160405280602e815260200161352a602e91399015156124fd576040517f08c379a00000000000000000000000000000000000000000000000000000000081526004018080602001828103825283818151815260200191508051906020019080838360005b838110156124c25780820151818401525b6020810190506124a6565b50505050905090810190601f1680156124ef5780820380516001836020036101000a031916815260200191505b509250505060405180910390fd5b508260cd60009054906101000a900473ffffffffffffffffffffffffffffffffffffffff1673ffffffffffffffffffffffffffffffffffffffff166370a08231336040518263ffffffff1660e01b8152600401808273ffffffffffffffffffffffffffffffffffffffff1673ffffffffffffffffffffffffffffffffffffffff16815260200191505060206040518083038186803b15801561259f5760006000fd5b505afa1580156125b4573d600060003e3d6000fd5b505050506040513d60208110156125cb5760006000fd5b810190808051906020019092919050505010156040518060400160405280601281526020017f496e737566666963656e7420746f6b656e7300000000000000000000000000008152602001509015156126c0576040517f08c379a00000000000000000000000000000000000000000000000000000000081526004018080602001828103825283818151815260200191508051906020019080838360005b838110156126855780820151818401525b602081019050612669565b50505050905090810190601f1680156126b25780820380516001836020036101000a031916815260200191505b509250505060405180910390fd5b5060006126d28461184c63ffffffff16565b9050828110156040518060600160405280602881526020016134516028913990151561279a576040517f08c379a00000000000000000000000000000000000000000000000000000000081526004018080602001828103825283818151815260200191508051906020019080838360005b8381101561275f5780820151818401525b602081019050612743565b50505050905090810190601f16801561278c5780820380516001836020036101000a031916815260200191505b509250505060405180910390fd5b506127b38160d060005054612bc490919063ffffffff16565b60d060005081909090555060cd60009054906101000a900473ffffffffffffffffffffffffffffffffffffffff1673ffffffffffffffffffffffffffffffffffffffff16639dc29fac33866040518363ffffffff1660e01b8152600401808373ffffffffffffffffffffffffffffffffffffffff1673ffffffffffffffffffffffffffffffffffffffff16815260200182815260200192505050600060405180830381600087803b1580156128685760006000fd5b505af115801561287d573d600060003e3d6000fd5b5050505060cc60009054906101000a900473ffffffffffffffffffffffffffffffffffffffff1673ffffffffffffffffffffffffffffffffffffffff1663a9059cbb83836040518363ffffffff1660e01b8152600401808373ffffffffffffffffffffffffffffffffffffffff1673ffffffffffffffffffffffffffffffffffffffff16815260200182815260200192505050602060405180830381600087803b15801561292b5760006000fd5b505af1158015612940573d600060003e3d6000fd5b505050506040513d60208110156129575760006000fd5b8101908080519060200190929190505050508173ffffffffffffffffffffffffffffffffffffffff163373ffffffffffffffffffffffffffffffffffffffff167fa082022e93cfcd9f1da5f9236718053910f7e840da080c789c7845698dc032ff8684604051808381526020018281526020019250505060405180910390a3505b5b505050565b600060cd60009054906101000a900473ffffffffffffffffffffffffffffffffffffffff169050612a0a565b90565b612a1b61165763ffffffff16565b1515612a275760006000fd5b612a368161312c63ffffffff16565b5b5b50565b600060d1600050549050612a4a565b90565b60648111156040518060600160405280602c81526020016134a8602c9139901515612b14576040517f08c379a00000000000000000000000000000000000000000000000000000000081526004018080602001828103825283818151815260200191508051906020019080838360005b83811015612ad95780820151818401525b602081019050612abd565b50505050905090810190601f168015612b065780820380516001836020036101000a031916815260200191505b509250505060405180910390fd5b505b50565b6000339050612b23565b90565b6000600073ffffffffffffffffffffffffffffffffffffffff168273ffffffffffffffffffffffffffffffffffffffff1614151515612b655760006000fd5b8260000160005060008373ffffffffffffffffffffffffffffffffffffffff1673ffffffffffffffffffffffffffffffffffffffff16815260200190815260200160002060009054906101000a900460ff169050612bbe565b92915050565b6000828211151515612bd65760006000fd5b6000828403905080915050612be756505b92915050565b600060008284019050838110151515612c065760006000fd5b80915050612c1056505b92915050565b612c2d81606660005061322a90919063ffffffff16565b8073ffffffffffffffffffffffffffffffffffffffff167fcd265ebaf09df2871cc7bd4133404a235ba12eff2041bb89d9c714a2621c7c7e60405160405180910390a25b50565b60648111156040518060600160405280602d81526020016133d2602d9139901515612d3b576040517f08c379a00000000000000000000000000000000000000000000000000000000081526004018080602001828103825283818151815260200191508051906020019080838360005b83811015612d005780820151818401525b602081019050612ce4565b50505050905090810190601f168015612d2d5780820380516001836020036101000a031916815260200191505b509250505060405180910390fd5b505b50565b612d578160666000506132e590919063ffffffff16565b8073ffffffffffffffffffffffffffffffffffffffff167f6719d08c1888103bea251a4ed56406bd0c3e69723c8a1686e017e7bbe159b6f860405160405180910390a25b50565b60006000831415612db25760009050612ddd565b60008284029050828482811515612dc557fe5b04141515612dd35760006000fd5b80915050612ddd56505b92915050565b6000600082111515612df55760006000fd5b60008284811515612e0257fe5b04905080915050612e0f56505b92915050565b60006000303b905060008114915050612e2a56505b90565b600060019054906101000a900460ff1680612e525750612e51612e1563ffffffff16565b5b80612e6a5750600060009054906101000a900460ff16155b1515612ec1576040517f08c379a000000000000000000000000000000000000000000000000000000000815260040180806020018281038252602e8152602001806134d4602e913960400191505060405180910390fd5b6000600060019054906101000a900460ff161590508015612f13576001600060016101000a81548160ff0219169083151502179055506001600060006101000a81548160ff0219169083151502179055505b81603360006101000a81548173ffffffffffffffffffffffffffffffffffffffff021916908373ffffffffffffffffffffffffffffffffffffffff160217905550603360009054906101000a900473ffffffffffffffffffffffffffffffffffffffff1673ffffffffffffffffffffffffffffffffffffffff16600073ffffffffffffffffffffffffffffffffffffffff167f8be0079c531659141344cd1fd0a4f28419497f9722a3daafe3b4186f6b6457e060405160405180910390a35b8015612ff4576000600060016101000a81548160ff0219169083151502179055505b505b50565b600060019054906101000a900460ff168061301e575061301d612e1563ffffffff16565b5b806130365750600060009054906101000a900460ff16155b151561308d576040517f08c379a000000000000000000000000000000000000000000000000000000000815260040180806020018281038252602e8152602001806134d4602e913960400191505060405180910390fd5b6000600060019054906101000a900460ff1615905080156130df576001600060016101000a81548160ff0219169083151502179055506001600060006101000a81548160ff0219169083151502179055505b6130ee82610b3b63ffffffff16565b15156131045761310382612d4063ffffffff16565b5b5b8015613127576000600060016101000a81548160ff0219169083151502179055505b505b50565b600073ffffffffffffffffffffffffffffffffffffffff168173ffffffffffffffffffffffffffffffffffffffff16141515156131695760006000fd5b8073ffffffffffffffffffffffffffffffffffffffff16603360009054906101000a900473ffffffffffffffffffffffffffffffffffffffff1673ffffffffffffffffffffffffffffffffffffffff167f8be0079c531659141344cd1fd0a4f28419497f9722a3daafe3b4186f6b6457e060405160405180910390a380603360006101000a81548173ffffffffffffffffffffffffffffffffffffffff021916908373ffffffffffffffffffffffffffffffffffffffff1602179055505b50565b600073ffffffffffffffffffffffffffffffffffffffff168173ffffffffffffffffffffffffffffffffffffffff16141515156132675760006000fd5b6132778282612b2663ffffffff16565b15156132835760006000fd5b60008260000160005060008373ffffffffffffffffffffffffffffffffffffffff1673ffffffffffffffffffffffffffffffffffffffff16815260200190815260200160002060006101000a81548160ff0219169083151502179055505b5050565b600073ffffffffffffffffffffffffffffffffffffffff168173ffffffffffffffffffffffffffffffffffffffff16141515156133225760006000fd5b6133328282612b2663ffffffff16565b15151561333f5760006000fd5b60018260000160005060008373ffffffffffffffffffffffffffffffffffffffff1673ffffffffffffffffffffffffffffffffffffffff16815260200190815260200160002060006101000a81548160ff0219169083151502179055505b505056fe506175736572526f6c653a2063616c6c657220646f6573206e6f742068617665207468652050617573657220726f6c656469766964656e6450657263656e74616765206d75737420626520612076616c69642070657263656e746167655061796d656e7420616d6f756e74206d7573742062652067726561746572207468616e203130302027756e6974732720666f722063616c63756c6174696f6e7320746f20776f726b20636f72726563746c7943757272656e742070726963652069732062656c6f77206d696e696d756d207370656369666965645472616e73666572206f6620636f6c6c61746572616c546f6b656e732066726f6d2073656e646572206661696c65647265736572766550657263656e74616765206d75737420626520612076616c69642070657263656e74616765436f6e747261637420696e7374616e63652068617320616c7265616479206265656e20696e697469616c697a656443757272656e74207072696365206578636565646573206d6178696d756d207370656369666965644d75737420737065636966792061206e6f6e2d7a65726f20616d6f756e74206f6620626f6e646564546f6b656e73a265627a7a723058203c085617f8827709d0078b48d430820102b35cda355127f4ec2b710ef149435164736f6c634300050a0032","compiler":{"name":"solc","version":"0.5.10+commit.5a6ea5b1.Emscripten.clang","optimizer":{},"evmVersion":"constantinople"}}