{
    "fileName": "BondedToken.sol",
    "contractName": "BondedToken",
    "source": "pragma solidity ^0.5.7;\n\nimport \"@openzeppelin/upgrades/contracts/Initializable.sol\";\nimport \"@openzeppelin/contracts-ethereum-package/contracts/token/ERC20/ERC20.sol\";\nimport \"contracts/BondingCurve/dividend/RewardsDistributor.sol\";\nimport \"contracts/BondingCurve/token/BondedTokenBase.sol\";\nimport \"contracts/BondingCurve/interface/IBondedToken.sol\";\n\n/**\n * @title Dividend Token\n * @dev A standard ERC20, using Detailed & Mintable featurs. Accepts a single minter, which should be the BondingCurve. The minter also has exclusive burning rights.\n */\ncontract BondedToken is Initializable, BondedTokenBase {\n    IERC20 _dividendToken;\n\n    /// @dev Initialize contract\n    /// @param name ERC20 token name\n    /// @param symbol ERC20 token symbol\n    /// @param decimals ERC20 token decimals\n    /// @param minter Address to give exclusive minting and burning rights for token\n    /// @param rewardsDistributor Instance for managing dividend accounting.\n    /// @param dividendToken Instance of ERC20 in which dividends are paid.\n    function initialize(\n        string memory name,\n        string memory symbol,\n        uint8 decimals,\n        address minter,\n        address initialHolder,\n        uint256 initialSupply,\n        RewardsDistributor rewardsDistributor,\n        IERC20 dividendToken\n    ) public initializer {\n        BondedTokenBase.initialize(\n            name,\n            symbol,\n            decimals,\n            minter,\n            initialHolder,\n            initialSupply,\n            rewardsDistributor\n        );\n        // TODO: uncomment below line once this contract is no longer used as PaymentToken in tests.\n        // require(address(dividendToken) != address(0), \"No dividend ERC20 contract provided.\");\n        _dividendToken = dividendToken;\n    }\n\n    function _validateComponentAddresses() internal returns (bool) {\n        if (address(_rewardsDistributor) == address(0)) {\n            return false;\n        }\n\n        if (address(_dividendToken) == address(0)) {\n            return false;\n        }\n\n        return true;\n    }\n\n    /**\n     * @dev Withdraw accumulated reward for the sender address.\n     */\n    function withdrawReward() public returns (uint256) {\n        if (!_validateComponentAddresses()) {\n            return 0;\n        }\n        address payable _staker = msg.sender;\n        uint256 _amount = _rewardsDistributor.withdrawReward(_staker);\n        _dividendToken.transfer(_staker, _amount);\n        return _amount;\n    }\n\n    /**\n     * Claim and allocate provided dividend tokens to all balances greater than ELIGIBLE_UNIT.\n     */\n    function distribute(address from, uint256 value) public payable returns (bool) {\n        require(msg.value == 0);\n\n        if (!_validateComponentAddresses()) {\n            return false;\n        }\n\n        if (value == 0) {\n            return false;\n        }\n\n        require(\n            _dividendToken.transferFrom(from, address(this), value),\n            \"Dividend TransferFrom Failed.\"\n        );\n\n        _rewardsDistributor.distribute(from, value);\n\n        return true;\n    }\n\n}\n",
    "sourcePath": "contracts/BondingCurve/token/BondedToken.sol",
    "abi": [
        {
            "constant": true,
            "inputs": [],
            "name": "name",
            "outputs": [
                {
                    "name": "",
                    "type": "string"
                }
            ],
            "payable": false,
            "stateMutability": "view",
            "type": "function"
        },
        {
            "constant": false,
            "inputs": [
                {
                    "name": "spender",
                    "type": "address"
                },
                {
                    "name": "value",
                    "type": "uint256"
                }
            ],
            "name": "approve",
            "outputs": [
                {
                    "name": "",
                    "type": "bool"
                }
            ],
            "payable": false,
            "stateMutability": "nonpayable",
            "type": "function"
        },
        {
            "constant": false,
            "inputs": [
                {
                    "name": "name",
                    "type": "string"
                },
                {
                    "name": "symbol",
                    "type": "string"
                },
                {
                    "name": "decimals",
                    "type": "uint8"
                }
            ],
            "name": "initialize",
            "outputs": [],
            "payable": false,
            "stateMutability": "nonpayable",
            "type": "function"
        },
        {
            "constant": true,
            "inputs": [],
            "name": "totalSupply",
            "outputs": [
                {
                    "name": "",
                    "type": "uint256"
                }
            ],
            "payable": false,
            "stateMutability": "view",
            "type": "function"
        },
        {
            "constant": false,
            "inputs": [
                {
                    "name": "from",
                    "type": "address"
                },
                {
                    "name": "to",
                    "type": "address"
                },
                {
                    "name": "value",
                    "type": "uint256"
                }
            ],
            "name": "transferFrom",
            "outputs": [
                {
                    "name": "",
                    "type": "bool"
                }
            ],
            "payable": false,
            "stateMutability": "nonpayable",
            "type": "function"
        },
        {
            "constant": true,
            "inputs": [],
            "name": "decimals",
            "outputs": [
                {
                    "name": "",
                    "type": "uint8"
                }
            ],
            "payable": false,
            "stateMutability": "view",
            "type": "function"
        },
        {
            "constant": false,
            "inputs": [
                {
                    "name": "spender",
                    "type": "address"
                },
                {
                    "name": "addedValue",
                    "type": "uint256"
                }
            ],
            "name": "increaseAllowance",
            "outputs": [
                {
                    "name": "",
                    "type": "bool"
                }
            ],
            "payable": false,
            "stateMutability": "nonpayable",
            "type": "function"
        },
        {
            "constant": false,
            "inputs": [
                {
                    "name": "to",
                    "type": "address"
                },
                {
                    "name": "value",
                    "type": "uint256"
                }
            ],
            "name": "mint",
            "outputs": [
                {
                    "name": "",
                    "type": "bool"
                }
            ],
            "payable": false,
            "stateMutability": "nonpayable",
            "type": "function"
        },
        {
            "constant": true,
            "inputs": [
                {
                    "name": "owner",
                    "type": "address"
                }
            ],
            "name": "balanceOf",
            "outputs": [
                {
                    "name": "",
                    "type": "uint256"
                }
            ],
            "payable": false,
            "stateMutability": "view",
            "type": "function"
        },
        {
            "constant": true,
            "inputs": [],
            "name": "symbol",
            "outputs": [
                {
                    "name": "",
                    "type": "string"
                }
            ],
            "payable": false,
            "stateMutability": "view",
            "type": "function"
        },
        {
            "constant": false,
            "inputs": [
                {
                    "name": "account",
                    "type": "address"
                }
            ],
            "name": "addMinter",
            "outputs": [],
            "payable": false,
            "stateMutability": "nonpayable",
            "type": "function"
        },
        {
            "constant": false,
            "inputs": [],
            "name": "renounceMinter",
            "outputs": [],
            "payable": false,
            "stateMutability": "nonpayable",
            "type": "function"
        },
        {
            "constant": false,
            "inputs": [
                {
                    "name": "from",
                    "type": "address"
                },
                {
                    "name": "value",
                    "type": "uint256"
                }
            ],
            "name": "burn",
            "outputs": [],
            "payable": false,
            "stateMutability": "nonpayable",
            "type": "function"
        },
        {
            "constant": false,
            "inputs": [
                {
                    "name": "spender",
                    "type": "address"
                },
                {
                    "name": "subtractedValue",
                    "type": "uint256"
                }
            ],
            "name": "decreaseAllowance",
            "outputs": [
                {
                    "name": "",
                    "type": "bool"
                }
            ],
            "payable": false,
            "stateMutability": "nonpayable",
            "type": "function"
        },
        {
            "constant": false,
            "inputs": [
                {
                    "name": "to",
                    "type": "address"
                },
                {
                    "name": "value",
                    "type": "uint256"
                }
            ],
            "name": "transfer",
            "outputs": [
                {
                    "name": "",
                    "type": "bool"
                }
            ],
            "payable": false,
            "stateMutability": "nonpayable",
            "type": "function"
        },
        {
            "constant": true,
            "inputs": [
                {
                    "name": "account",
                    "type": "address"
                }
            ],
            "name": "isMinter",
            "outputs": [
                {
                    "name": "",
                    "type": "bool"
                }
            ],
            "payable": false,
            "stateMutability": "view",
            "type": "function"
        },
        {
            "constant": true,
            "inputs": [
                {
                    "name": "staker",
                    "type": "address"
                }
            ],
            "name": "getReward",
            "outputs": [
                {
                    "name": "tokens",
                    "type": "uint256"
                }
            ],
            "payable": false,
            "stateMutability": "view",
            "type": "function"
        },
        {
            "constant": false,
            "inputs": [
                {
                    "name": "sender",
                    "type": "address"
                }
            ],
            "name": "initialize",
            "outputs": [],
            "payable": false,
            "stateMutability": "nonpayable",
            "type": "function"
        },
        {
            "constant": false,
            "inputs": [],
            "name": "withdrawReward",
            "outputs": [
                {
                    "name": "",
                    "type": "uint256"
                }
            ],
            "payable": false,
            "stateMutability": "nonpayable",
            "type": "function"
        },
        {
            "constant": true,
            "inputs": [
                {
                    "name": "owner",
                    "type": "address"
                },
                {
                    "name": "spender",
                    "type": "address"
                }
            ],
            "name": "allowance",
            "outputs": [
                {
                    "name": "",
                    "type": "uint256"
                }
            ],
            "payable": false,
            "stateMutability": "view",
            "type": "function"
        },
        {
            "constant": false,
            "inputs": [
                {
                    "name": "name",
                    "type": "string"
                },
                {
                    "name": "symbol",
                    "type": "string"
                },
                {
                    "name": "decimals",
                    "type": "uint8"
                },
                {
                    "name": "minter",
                    "type": "address"
                },
                {
                    "name": "initialHolder",
                    "type": "address"
                },
                {
                    "name": "initialSupply",
                    "type": "uint256"
                },
                {
                    "name": "rewardsDistributor",
                    "type": "address"
                }
            ],
            "name": "initialize",
            "outputs": [],
            "payable": false,
            "stateMutability": "nonpayable",
            "type": "function"
        },
        {
            "constant": false,
            "inputs": [
                {
                    "name": "name",
                    "type": "string"
                },
                {
                    "name": "symbol",
                    "type": "string"
                },
                {
                    "name": "decimals",
                    "type": "uint8"
                },
                {
                    "name": "minter",
                    "type": "address"
                },
                {
                    "name": "initialHolder",
                    "type": "address"
                },
                {
                    "name": "initialSupply",
                    "type": "uint256"
                },
                {
                    "name": "rewardsDistributor",
                    "type": "address"
                },
                {
                    "name": "dividendToken",
                    "type": "address"
                }
            ],
            "name": "initialize",
            "outputs": [],
            "payable": false,
            "stateMutability": "nonpayable",
            "type": "function"
        },
        {
            "constant": false,
            "inputs": [
                {
                    "name": "from",
                    "type": "address"
                },
                {
                    "name": "value",
                    "type": "uint256"
                }
            ],
            "name": "distribute",
            "outputs": [
                {
                    "name": "",
                    "type": "bool"
                }
            ],
            "payable": true,
            "stateMutability": "payable",
            "type": "function"
        },
        {
            "anonymous": false,
            "inputs": [
                {
                    "indexed": true,
                    "name": "account",
                    "type": "address"
                }
            ],
            "name": "MinterAdded",
            "type": "event"
        },
        {
            "anonymous": false,
            "inputs": [
                {
                    "indexed": true,
                    "name": "account",
                    "type": "address"
                }
            ],
            "name": "MinterRemoved",
            "type": "event"
        },
        {
            "anonymous": false,
            "inputs": [
                {
                    "indexed": true,
                    "name": "from",
                    "type": "address"
                },
                {
                    "indexed": true,
                    "name": "to",
                    "type": "address"
                },
                {
                    "indexed": false,
                    "name": "value",
                    "type": "uint256"
                }
            ],
            "name": "Transfer",
            "type": "event"
        },
        {
            "anonymous": false,
            "inputs": [
                {
                    "indexed": true,
                    "name": "owner",
                    "type": "address"
                },
                {
                    "indexed": true,
                    "name": "spender",
                    "type": "address"
                },
                {
                    "indexed": false,
                    "name": "value",
                    "type": "uint256"
                }
            ],
            "name": "Approval",
            "type": "event"
        }
    ],
    "bytecode": "0x608060405261305b806100136000396000f3fe6080604052600436106101405760003560e01c806398650275116100b6578063c4d66de81161006f578063c4d66de8146108f5578063c885bc5814610946578063dd62ed3e14610971578063f2810551146109f6578063fad1147714610bcc578063fb93210814610dc357610140565b806398650275146106cf5780639dc29fac146106e6578063a457c2d714610741578063a9059cbb146107b4578063aa271e1a14610827578063c00007b01461089057610140565b8063313ce56711610108578063313ce5671461047257806339509351146104a357806340c10f191461051657806370a082311461058957806395d89b41146105ee578063983b2d561461067e57610140565b806306fdde0314610145578063095ea7b3146101d55780631624f6c61461024857806318160ddd146103b457806323b872dd146103df575b600080fd5b34801561015157600080fd5b5061015a610e29565b6040518080602001828103825283818151815260200191508051906020019080838360005b8381101561019a57808201518184015260208101905061017f565b50505050905090810190601f1680156101c75780820380516001836020036101000a031916815260200191505b509250505060405180910390f35b3480156101e157600080fd5b5061022e600480360360408110156101f857600080fd5b81019080803573ffffffffffffffffffffffffffffffffffffffff16906020019092919080359060200190929190505050610ecb565b604051808215151515815260200191505060405180910390f35b34801561025457600080fd5b506103b26004803603606081101561026b57600080fd5b810190808035906020019064010000000081111561028857600080fd5b82018360208201111561029a57600080fd5b803590602001918460018302840111640100000000831117156102bc57600080fd5b91908080601f016020809104026020016040519081016040528093929190818152602001838380828437600081840152601f19601f8201169050808301925050505050505091929192908035906020019064010000000081111561031f57600080fd5b82018360208201111561033157600080fd5b8035906020019184600183028401116401000000008311171561035357600080fd5b91908080601f016020809104026020016040519081016040528093929190818152602001838380828437600081840152601f19601f820116905080830192505050505050509192919290803560ff169060200190929190505050610ee9565b005b3480156103c057600080fd5b506103c9611034565b6040518082815260200191505060405180910390f35b3480156103eb57600080fd5b506104586004803603606081101561040257600080fd5b81019080803573ffffffffffffffffffffffffffffffffffffffff169060200190929190803573ffffffffffffffffffffffffffffffffffffffff1690602001909291908035906020019092919050505061103e565b604051808215151515815260200191505060405180910390f35b34801561047e57600080fd5b506104876110fd565b604051808260ff1660ff16815260200191505060405180910390f35b3480156104af57600080fd5b506104fc600480360360408110156104c657600080fd5b81019080803573ffffffffffffffffffffffffffffffffffffffff16906020019092919080359060200190929190505050611114565b604051808215151515815260200191505060405180910390f35b34801561052257600080fd5b5061056f6004803603604081101561053957600080fd5b81019080803573ffffffffffffffffffffffffffffffffffffffff169060200190929190803590602001909291905050506111c7565b604051808215151515815260200191505060405180910390f35b34801561059557600080fd5b506105d8600480360360208110156105ac57600080fd5b81019080803573ffffffffffffffffffffffffffffffffffffffff169060200190929190505050611381565b6040518082815260200191505060405180910390f35b3480156105fa57600080fd5b506106036113ca565b6040518080602001828103825283818151815260200191508051906020019080838360005b83811015610643578082015181840152602081019050610628565b50505050905090810190601f1680156106705780820380516001836020036101000a031916815260200191505b509250505060405180910390f35b34801561068a57600080fd5b506106cd600480360360208110156106a157600080fd5b81019080803573ffffffffffffffffffffffffffffffffffffffff16906020019092919050505061146c565b005b3480156106db57600080fd5b506106e46114dd565b005b3480156106f257600080fd5b5061073f6004803603604081101561070957600080fd5b81019080803573ffffffffffffffffffffffffffffffffffffffff169060200190929190803590602001909291905050506114ef565b005b34801561074d57600080fd5b5061079a6004803603604081101561076457600080fd5b81019080803573ffffffffffffffffffffffffffffffffffffffff169060200190929190803590602001909291905050506116a0565b604051808215151515815260200191505060405180910390f35b3480156107c057600080fd5b5061080d600480360360408110156107d757600080fd5b81019080803573ffffffffffffffffffffffffffffffffffffffff16906020019092919080359060200190929190505050611753565b604051808215151515815260200191505060405180910390f35b34801561083357600080fd5b506108766004803603602081101561084a57600080fd5b81019080803573ffffffffffffffffffffffffffffffffffffffff169060200190929190505050611771565b604051808215151515815260200191505060405180910390f35b34801561089c57600080fd5b506108df600480360360208110156108b357600080fd5b81019080803573ffffffffffffffffffffffffffffffffffffffff16906020019092919050505061178e565b6040518082815260200191505060405180910390f35b34801561090157600080fd5b506109446004803603602081101561091857600080fd5b81019080803573ffffffffffffffffffffffffffffffffffffffff1690602001909291905050506118d3565b005b34801561095257600080fd5b5061095b6119dc565b6040518082815260200191505060405180910390f35b34801561097d57600080fd5b506109e06004803603604081101561099457600080fd5b81019080803573ffffffffffffffffffffffffffffffffffffffff169060200190929190803573ffffffffffffffffffffffffffffffffffffffff169060200190929190505050611bc8565b6040518082815260200191505060405180910390f35b348015610a0257600080fd5b50610bca600480360360e0811015610a1957600080fd5b8101908080359060200190640100000000811115610a3657600080fd5b820183602082011115610a4857600080fd5b80359060200191846001830284011164010000000083111715610a6a57600080fd5b91908080601f016020809104026020016040519081016040528093929190818152602001838380828437600081840152601f19601f82011690508083019250505050505050919291929080359060200190640100000000811115610acd57600080fd5b820183602082011115610adf57600080fd5b80359060200191846001830284011164010000000083111715610b0157600080fd5b91908080601f016020809104026020016040519081016040528093929190818152602001838380828437600081840152601f19601f820116905080830192505050505050509192919290803560ff169060200190929190803573ffffffffffffffffffffffffffffffffffffffff169060200190929190803573ffffffffffffffffffffffffffffffffffffffff16906020019092919080359060200190929190803573ffffffffffffffffffffffffffffffffffffffff169060200190929190505050611c4f565b005b348015610bd857600080fd5b50610dc16004803603610100811015610bf057600080fd5b8101908080359060200190640100000000811115610c0d57600080fd5b820183602082011115610c1f57600080fd5b80359060200191846001830284011164010000000083111715610c4157600080fd5b91908080601f016020809104026020016040519081016040528093929190818152602001838380828437600081840152601f19601f82011690508083019250505050505050919291929080359060200190640100000000811115610ca457600080fd5b820183602082011115610cb657600080fd5b80359060200191846001830284011164010000000083111715610cd857600080fd5b91908080601f016020809104026020016040519081016040528093929190818152602001838380828437600081840152601f19601f820116905080830192505050505050509192919290803560ff169060200190929190803573ffffffffffffffffffffffffffffffffffffffff169060200190929190803573ffffffffffffffffffffffffffffffffffffffff16906020019092919080359060200190929190803573ffffffffffffffffffffffffffffffffffffffff169060200190929190803573ffffffffffffffffffffffffffffffffffffffff169060200190929190505050611dbf565b005b610e0f60048036036040811015610dd957600080fd5b81019080803573ffffffffffffffffffffffffffffffffffffffff16906020019092919080359060200190929190505050611f17565b604051808215151515815260200191505060405180910390f35b606060338054600181600116156101000203166002900480601f016020809104026020016040519081016040528092919081815260200182805460018160011615610100020316600290048015610ec15780601f10610e9657610100808354040283529160200191610ec1565b820191906000526020600020905b815481529060010190602001808311610ea457829003601f168201915b5050505050905090565b6000610edf610ed86121c8565b84846121d0565b6001905092915050565b600060019054906101000a900460ff1680610f085750610f0761232f565b5b80610f1f57506000809054906101000a900460ff16155b610f74576040517f08c379a000000000000000000000000000000000000000000000000000000000815260040180806020018281038252602e815260200180612ff9602e913960400191505060405180910390fd5b60008060019054906101000a900460ff161590508015610fc4576001600060016101000a81548160ff02191690831515021790555060016000806101000a81548160ff0219169083151502179055505b8360339080519060200190610fda929190612f23565b508260349080519060200190610ff1929190612f23565b5081603560006101000a81548160ff021916908360ff160217905550801561102e5760008060016101000a81548160ff0219169083151502179055505b50505050565b6000606a54905090565b600061104b848484612340565b6110f2846110576121c8565b6110ed85606960008a73ffffffffffffffffffffffffffffffffffffffff1673ffffffffffffffffffffffffffffffffffffffff16815260200190815260200160002060006110a46121c8565b73ffffffffffffffffffffffffffffffffffffffff1673ffffffffffffffffffffffffffffffffffffffff1681526020019081526020016000205461257490919063ffffffff16565b6121d0565b600190509392505050565b6000603560009054906101000a900460ff16905090565b60006111bd6111216121c8565b846111b885606960006111326121c8565b73ffffffffffffffffffffffffffffffffffffffff1673ffffffffffffffffffffffffffffffffffffffff16815260200190815260200160002060008973ffffffffffffffffffffffffffffffffffffffff1673ffffffffffffffffffffffffffffffffffffffff1681526020019081526020016000205461259490919063ffffffff16565b6121d0565b6001905092915050565b60006111d96111d46121c8565b611771565b61122e576040517f08c379a0000000000000000000000000000000000000000000000000000000008152600401808060200182810382526030815260200180612fc96030913960400191505060405180910390fd5b61123883836125b3565b50600073ffffffffffffffffffffffffffffffffffffffff1661010260009054906101000a900473ffffffffffffffffffffffffffffffffffffffff1673ffffffffffffffffffffffffffffffffffffffff16146113775761010260009054906101000a900473ffffffffffffffffffffffffffffffffffffffff1673ffffffffffffffffffffffffffffffffffffffff166347e7ef2484846040518363ffffffff1660e01b8152600401808373ffffffffffffffffffffffffffffffffffffffff1673ffffffffffffffffffffffffffffffffffffffff16815260200182815260200192505050602060405180830381600087803b15801561133a57600080fd5b505af115801561134e573d6000803e3d6000fd5b505050506040513d602081101561136457600080fd5b8101908080519060200190929190505050505b6001905092915050565b6000606860008373ffffffffffffffffffffffffffffffffffffffff1673ffffffffffffffffffffffffffffffffffffffff168152602001908152602001600020549050919050565b606060348054600181600116156101000203166002900480601f0160208091040260200160405190810160405280929190818152602001828054600181600116156101000203166002900480156114625780601f1061143757610100808354040283529160200191611462565b820191906000526020600020905b81548152906001019060200180831161144557829003601f168201915b5050505050905090565b61147c6114776121c8565b611771565b6114d1576040517f08c379a0000000000000000000000000000000000000000000000000000000008152600401808060200182810382526030815260200180612fc96030913960400191505060405180910390fd5b6114da8161262e565b50565b6114ed6114e86121c8565b612688565b565b6114ff6114fa6121c8565b611771565b611554576040517f08c379a0000000000000000000000000000000000000000000000000000000008152600401808060200182810382526030815260200180612fc96030913960400191505060405180910390fd5b61155e82826126e2565b600073ffffffffffffffffffffffffffffffffffffffff1661010260009054906101000a900473ffffffffffffffffffffffffffffffffffffffff1673ffffffffffffffffffffffffffffffffffffffff161461169c5761010260009054906101000a900473ffffffffffffffffffffffffffffffffffffffff1673ffffffffffffffffffffffffffffffffffffffff1663c606627283836040518363ffffffff1660e01b8152600401808373ffffffffffffffffffffffffffffffffffffffff1673ffffffffffffffffffffffffffffffffffffffff16815260200182815260200192505050602060405180830381600087803b15801561165f57600080fd5b505af1158015611673573d6000803e3d6000fd5b505050506040513d602081101561168957600080fd5b8101908080519060200190929190505050505b5050565b60006117496116ad6121c8565b8461174485606960006116be6121c8565b73ffffffffffffffffffffffffffffffffffffffff1673ffffffffffffffffffffffffffffffffffffffff16815260200190815260200160002060008973ffffffffffffffffffffffffffffffffffffffff1673ffffffffffffffffffffffffffffffffffffffff1681526020019081526020016000205461257490919063ffffffff16565b6121d0565b6001905092915050565b60006117676117606121c8565b8484612340565b6001905092915050565b600061178782609d61283690919063ffffffff16565b9050919050565b60008073ffffffffffffffffffffffffffffffffffffffff1661010260009054906101000a900473ffffffffffffffffffffffffffffffffffffffff1673ffffffffffffffffffffffffffffffffffffffff1614156117f057600090506118ce565b61010260009054906101000a900473ffffffffffffffffffffffffffffffffffffffff1673ffffffffffffffffffffffffffffffffffffffff1663c00007b0836040518263ffffffff1660e01b8152600401808273ffffffffffffffffffffffffffffffffffffffff1673ffffffffffffffffffffffffffffffffffffffff16815260200191505060206040518083038186803b15801561189057600080fd5b505afa1580156118a4573d6000803e3d6000fd5b505050506040513d60208110156118ba57600080fd5b810190808051906020019092919050505090505b919050565b600060019054906101000a900460ff16806118f257506118f161232f565b5b8061190957506000809054906101000a900460ff16155b61195e576040517f08c379a000000000000000000000000000000000000000000000000000000000815260040180806020018281038252602e815260200180612ff9602e913960400191505060405180910390fd5b60008060019054906101000a900460ff1615905080156119ae576001600060016101000a81548160ff02191690831515021790555060016000806101000a81548160ff0219169083151502179055505b6119b7826128c8565b80156119d85760008060016101000a81548160ff0219169083151502179055505b5050565b60006119e66129df565b6119f35760009050611bc5565b6000339050600061010260009054906101000a900473ffffffffffffffffffffffffffffffffffffffff1673ffffffffffffffffffffffffffffffffffffffff1663b86e321c836040518263ffffffff1660e01b8152600401808273ffffffffffffffffffffffffffffffffffffffff1673ffffffffffffffffffffffffffffffffffffffff168152602001915050602060405180830381600087803b158015611a9c57600080fd5b505af1158015611ab0573d6000803e3d6000fd5b505050506040513d6020811015611ac657600080fd5b8101908080519060200190929190505050905061010360009054906101000a900473ffffffffffffffffffffffffffffffffffffffff1673ffffffffffffffffffffffffffffffffffffffff1663a9059cbb83836040518363ffffffff1660e01b8152600401808373ffffffffffffffffffffffffffffffffffffffff1673ffffffffffffffffffffffffffffffffffffffff16815260200182815260200192505050602060405180830381600087803b158015611b8357600080fd5b505af1158015611b97573d6000803e3d6000fd5b505050506040513d6020811015611bad57600080fd5b81019080805190602001909291905050505080925050505b90565b6000606960008473ffffffffffffffffffffffffffffffffffffffff1673ffffffffffffffffffffffffffffffffffffffff16815260200190815260200160002060008373ffffffffffffffffffffffffffffffffffffffff1673ffffffffffffffffffffffffffffffffffffffff16815260200190815260200160002054905092915050565b600060019054906101000a900460ff1680611c6e5750611c6d61232f565b5b80611c8557506000809054906101000a900460ff16155b611cda576040517f08c379a000000000000000000000000000000000000000000000000000000000815260040180806020018281038252602e815260200180612ff9602e913960400191505060405180910390fd5b60008060019054906101000a900460ff161590508015611d2a576001600060016101000a81548160ff02191690831515021790555060016000806101000a81548160ff0219169083151502179055505b611d35888888610ee9565b611d3e856118d3565b8161010260006101000a81548173ffffffffffffffffffffffffffffffffffffffff021916908373ffffffffffffffffffffffffffffffffffffffff1602179055506000831115611d9457611d938484612aaa565b5b8015611db55760008060016101000a81548160ff0219169083151502179055505b5050505050505050565b600060019054906101000a900460ff1680611dde5750611ddd61232f565b5b80611df557506000809054906101000a900460ff16155b611e4a576040517f08c379a000000000000000000000000000000000000000000000000000000000815260040180806020018281038252602e815260200180612ff9602e913960400191505060405180910390fd5b60008060019054906101000a900460ff161590508015611e9a576001600060016101000a81548160ff02191690831515021790555060016000806101000a81548160ff0219169083151502179055505b611ea989898989898989611c4f565b8161010360006101000a81548173ffffffffffffffffffffffffffffffffffffffff021916908373ffffffffffffffffffffffffffffffffffffffff1602179055508015611f0c5760008060016101000a81548160ff0219169083151502179055505b505050505050505050565b6000803414611f2557600080fd5b611f2d6129df565b611f3a57600090506121c2565b6000821415611f4c57600090506121c2565b61010360009054906101000a900473ffffffffffffffffffffffffffffffffffffffff1673ffffffffffffffffffffffffffffffffffffffff166323b872dd8430856040518463ffffffff1660e01b8152600401808473ffffffffffffffffffffffffffffffffffffffff1673ffffffffffffffffffffffffffffffffffffffff1681526020018373ffffffffffffffffffffffffffffffffffffffff1673ffffffffffffffffffffffffffffffffffffffff1681526020018281526020019350505050602060405180830381600087803b15801561202a57600080fd5b505af115801561203e573d6000803e3d6000fd5b505050506040513d602081101561205457600080fd5b81019080805190602001909291905050506120d7576040517f08c379a000000000000000000000000000000000000000000000000000000000815260040180806020018281038252601d8152602001807f4469766964656e64205472616e7366657246726f6d204661696c65642e00000081525060200191505060405180910390fd5b61010260009054906101000a900473ffffffffffffffffffffffffffffffffffffffff1673ffffffffffffffffffffffffffffffffffffffff1663fb93210884846040518363ffffffff1660e01b8152600401808373ffffffffffffffffffffffffffffffffffffffff1673ffffffffffffffffffffffffffffffffffffffff16815260200182815260200192505050602060405180830381600087803b15801561218157600080fd5b505af1158015612195573d6000803e3d6000fd5b505050506040513d60208110156121ab57600080fd5b810190808051906020019092919050505050600190505b92915050565b600033905090565b600073ffffffffffffffffffffffffffffffffffffffff168273ffffffffffffffffffffffffffffffffffffffff16141561220a57600080fd5b600073ffffffffffffffffffffffffffffffffffffffff168373ffffffffffffffffffffffffffffffffffffffff16141561224457600080fd5b80606960008573ffffffffffffffffffffffffffffffffffffffff1673ffffffffffffffffffffffffffffffffffffffff16815260200190815260200160002060008473ffffffffffffffffffffffffffffffffffffffff1673ffffffffffffffffffffffffffffffffffffffff168152602001908152602001600020819055508173ffffffffffffffffffffffffffffffffffffffff168373ffffffffffffffffffffffffffffffffffffffff167f8c5be1e5ebec7d5bd14f71427d1e84f3dd0314c0f7b2291e5b200ac8c7c3b925836040518082815260200191505060405180910390a3505050565b600080303b90506000811491505090565b61234b838383612bfe565b600073ffffffffffffffffffffffffffffffffffffffff1661010260009054906101000a900473ffffffffffffffffffffffffffffffffffffffff1673ffffffffffffffffffffffffffffffffffffffff161461256f5761010260009054906101000a900473ffffffffffffffffffffffffffffffffffffffff1673ffffffffffffffffffffffffffffffffffffffff1663c606627284836040518363ffffffff1660e01b8152600401808373ffffffffffffffffffffffffffffffffffffffff1673ffffffffffffffffffffffffffffffffffffffff16815260200182815260200192505050602060405180830381600087803b15801561244c57600080fd5b505af1158015612460573d6000803e3d6000fd5b505050506040513d602081101561247657600080fd5b81019080805190602001909291905050505061010260009054906101000a900473ffffffffffffffffffffffffffffffffffffffff1673ffffffffffffffffffffffffffffffffffffffff166347e7ef2483836040518363ffffffff1660e01b8152600401808373ffffffffffffffffffffffffffffffffffffffff1673ffffffffffffffffffffffffffffffffffffffff16815260200182815260200192505050602060405180830381600087803b15801561253257600080fd5b505af1158015612546573d6000803e3d6000fd5b505050506040513d602081101561255c57600080fd5b8101908080519060200190929190505050505b505050565b60008282111561258357600080fd5b600082840390508091505092915050565b6000808284019050838110156125a957600080fd5b8091505092915050565b60006125c56125c06121c8565b611771565b61261a576040517f08c379a0000000000000000000000000000000000000000000000000000000008152600401808060200182810382526030815260200180612fc96030913960400191505060405180910390fd5b6126248383612aaa565b6001905092915050565b61264281609d612dcc90919063ffffffff16565b8073ffffffffffffffffffffffffffffffffffffffff167f6ae172837ea30b801fbfcdd4108aa1d5bf8ff775444fd70256b44e6bf3dfc3f660405160405180910390a250565b61269c81609d612e7890919063ffffffff16565b8073ffffffffffffffffffffffffffffffffffffffff167fe94479a9f7e1952cc78f2d6baab678adc1b772d936c6583def489e524cb6669260405160405180910390a250565b600073ffffffffffffffffffffffffffffffffffffffff168273ffffffffffffffffffffffffffffffffffffffff16141561271c57600080fd5b61273181606a5461257490919063ffffffff16565b606a8190555061278981606860008573ffffffffffffffffffffffffffffffffffffffff1673ffffffffffffffffffffffffffffffffffffffff1681526020019081526020016000205461257490919063ffffffff16565b606860008473ffffffffffffffffffffffffffffffffffffffff1673ffffffffffffffffffffffffffffffffffffffff16815260200190815260200160002081905550600073ffffffffffffffffffffffffffffffffffffffff168273ffffffffffffffffffffffffffffffffffffffff167fddf252ad1be2c89b69c2b068fc378daa952ba7f163c4a11628f55a4df523b3ef836040518082815260200191505060405180910390a35050565b60008073ffffffffffffffffffffffffffffffffffffffff168273ffffffffffffffffffffffffffffffffffffffff16141561287157600080fd5b8260000160008373ffffffffffffffffffffffffffffffffffffffff1673ffffffffffffffffffffffffffffffffffffffff16815260200190815260200160002060009054906101000a900460ff16905092915050565b600060019054906101000a900460ff16806128e757506128e661232f565b5b806128fe57506000809054906101000a900460ff16155b612953576040517f08c379a000000000000000000000000000000000000000000000000000000000815260040180806020018281038252602e815260200180612ff9602e913960400191505060405180910390fd5b60008060019054906101000a900460ff1615905080156129a3576001600060016101000a81548160ff02191690831515021790555060016000806101000a81548160ff0219169083151502179055505b6129ac82611771565b6129ba576129b98261262e565b5b80156129db5760008060016101000a81548160ff0219169083151502179055505b5050565b60008073ffffffffffffffffffffffffffffffffffffffff1661010260009054906101000a900473ffffffffffffffffffffffffffffffffffffffff1673ffffffffffffffffffffffffffffffffffffffff161415612a415760009050612aa7565b600073ffffffffffffffffffffffffffffffffffffffff1661010360009054906101000a900473ffffffffffffffffffffffffffffffffffffffff1673ffffffffffffffffffffffffffffffffffffffff161415612aa25760009050612aa7565b600190505b90565b600073ffffffffffffffffffffffffffffffffffffffff168273ffffffffffffffffffffffffffffffffffffffff161415612ae457600080fd5b612af981606a5461259490919063ffffffff16565b606a81905550612b5181606860008573ffffffffffffffffffffffffffffffffffffffff1673ffffffffffffffffffffffffffffffffffffffff1681526020019081526020016000205461259490919063ffffffff16565b606860008473ffffffffffffffffffffffffffffffffffffffff1673ffffffffffffffffffffffffffffffffffffffff168152602001908152602001600020819055508173ffffffffffffffffffffffffffffffffffffffff16600073ffffffffffffffffffffffffffffffffffffffff167fddf252ad1be2c89b69c2b068fc378daa952ba7f163c4a11628f55a4df523b3ef836040518082815260200191505060405180910390a35050565b600073ffffffffffffffffffffffffffffffffffffffff168273ffffffffffffffffffffffffffffffffffffffff161415612c3857600080fd5b612c8a81606860008673ffffffffffffffffffffffffffffffffffffffff1673ffffffffffffffffffffffffffffffffffffffff1681526020019081526020016000205461257490919063ffffffff16565b606860008573ffffffffffffffffffffffffffffffffffffffff1673ffffffffffffffffffffffffffffffffffffffff16815260200190815260200160002081905550612d1f81606860008573ffffffffffffffffffffffffffffffffffffffff1673ffffffffffffffffffffffffffffffffffffffff1681526020019081526020016000205461259490919063ffffffff16565b606860008473ffffffffffffffffffffffffffffffffffffffff1673ffffffffffffffffffffffffffffffffffffffff168152602001908152602001600020819055508173ffffffffffffffffffffffffffffffffffffffff168373ffffffffffffffffffffffffffffffffffffffff167fddf252ad1be2c89b69c2b068fc378daa952ba7f163c4a11628f55a4df523b3ef836040518082815260200191505060405180910390a3505050565b600073ffffffffffffffffffffffffffffffffffffffff168173ffffffffffffffffffffffffffffffffffffffff161415612e0657600080fd5b612e108282612836565b15612e1a57600080fd5b60018260000160008373ffffffffffffffffffffffffffffffffffffffff1673ffffffffffffffffffffffffffffffffffffffff16815260200190815260200160002060006101000a81548160ff0219169083151502179055505050565b600073ffffffffffffffffffffffffffffffffffffffff168173ffffffffffffffffffffffffffffffffffffffff161415612eb257600080fd5b612ebc8282612836565b612ec557600080fd5b60008260000160008373ffffffffffffffffffffffffffffffffffffffff1673ffffffffffffffffffffffffffffffffffffffff16815260200190815260200160002060006101000a81548160ff0219169083151502179055505050565b828054600181600116156101000203166002900490600052602060002090601f016020900481019282601f10612f6457805160ff1916838001178555612f92565b82800160010185558215612f92579182015b82811115612f91578251825591602001919060010190612f76565b5b509050612f9f9190612fa3565b5090565b612fc591905b80821115612fc1576000816000905550600101612fa9565b5090565b9056fe4d696e746572526f6c653a2063616c6c657220646f6573206e6f74206861766520746865204d696e74657220726f6c65436f6e747261637420696e7374616e63652068617320616c7265616479206265656e20696e697469616c697a6564a265627a7a72305820489ea2a63b8f41683243155679fe7acceb544bfc8e7eba9b1a92e1432b88ec1264736f6c634300050a0032",
    "compiler": {
        "name": "solc",
        "version": "0.5.10+commit.5a6ea5b1.Emscripten.clang",
        "optimizer": {
            "enabled": false,
            "runs": 200
        },
        "evmVersion": "constantinople"
    }
}