{"fileName":"RewardsDistributor.sol","contractName":"RewardsDistributor","source":"pragma solidity ^0.5.6;\n\nimport \"@openzeppelin/upgrades/contracts/Initializable.sol\";\nimport \"@openzeppelin/contracts-ethereum-package/contracts/ownership/Ownable.sol\";\nimport \"@openzeppelin/contracts-ethereum-package/contracts/math/SafeMath.sol\";\n\n/**\n * @title RewardsDistributor - Distribute pro rata rewards (dividends)\n * @author Bogdan Batog (https://batog.info)\n * @dev Distribute pro rata rewards (dividends) to token holders in O(1) time.\n *      Based on [1] http://batog.info/papers/scalable-reward-distribution.pdf\n *      And on [2] https://solmaz.io/2019/02/24/scalable-reward-changing/\n */\ncontract RewardsDistributor is Initializable, Ownable {\n    using SafeMath for uint256;\n\n    /// @notice ELIGIBLE_UNIT is the smallest eligible unit for reward. Minimum\n    ///  possible distribution is 1 (wei for Ether) PER ELIGIBLE_UNIT.\n    ///\n    ///  Only multiple of ELIGIBLE_UNIT will be subject to reward\n    ///  distribution. Any fractional part of deposit, smaller than\n    ///  ELIGIBLE_UNIT, won't receive any reward, but it will be tracked.\n    ///\n    ///  Recommended value 10**(decimals / 2), that is 10**9 for most ERC20.\n    uint256 public constant ELIGIBLE_UNIT = 10 ** 9;\n\n    /// @notice Stake per address.\n    mapping(address => uint256) internal _stake;\n\n    /// @notice Stake remainder per address, smaller than ELIGIBLE_UNIT.\n    mapping(address => uint256) internal _stakeRemainder;\n\n    /// @notice Total staked tokens. In ELIGIBLE_UNIT units.\n    uint256 internal _stakeTotal;\n\n    /// @notice Total accumulated reward since the beginning of time, in units\n    /// per ELIGIBLE_UNIT.\n    uint256 internal _rewardTotal;\n\n    /// @notice Remainder from the last _distribute() call, this amount was not\n    /// enough to award at least 1 wei to every staked ELIGIBLE_UNIT. At the\n    /// time of last _distribute() call _rewardRemainder < _stakeTotal.\n    /// Note that later, _stakeTotal can decrease, but _rewardRemainder will\n    /// stay unchanged until the next call to _distribute().\n    uint256 internal _rewardRemainder;\n\n    /// @notice Proportional rewards awarded *before* this stake was created.\n    /// See [2] for more details.\n    mapping(address => int256) _rewardOffset;\n\n    event DepositMade(address indexed from, uint256 value);\n    event DistributionMade(address indexed from, uint256 value);\n    event RewardWithdrawalMade(address indexed to, uint256 value);\n    event StakeWithdrawalMade(address indexed to, uint256 value);\n\n    /// Initialize the contract.\n    /// @param owner Contract owner, can call functions that change state.\n    function initialize(address owner) public initializer {\n        Ownable.initialize(owner);\n\n        _stakeTotal = 0;\n        _rewardTotal = 0;\n        _rewardRemainder = 0;\n    }\n\n    /// @notice Deposit funds into contract.\n    function deposit(address staker, uint256 tokens) public onlyOwner returns (bool success) {\n        uint256 _tokensToAdd = tokens.add(_stakeRemainder[staker]);\n\n        uint256 _eligibleUnitsToAdd = _tokensToAdd.div(ELIGIBLE_UNIT);\n\n        // update the new remainder for this address\n        _stakeRemainder[staker] = _tokensToAdd.mod(ELIGIBLE_UNIT);\n\n        // set the current stake for this address\n        _stake[staker] = _stake[staker].add(_eligibleUnitsToAdd);\n\n        // update total eligible stake units\n        _stakeTotal = _stakeTotal.add(_eligibleUnitsToAdd);\n\n        // update reward offset\n        _rewardOffset[staker] += (int256)(_rewardTotal * _eligibleUnitsToAdd);\n\n        emit DepositMade(staker, tokens);\n        return true;\n    }\n\n    /// @notice Distribute tokens pro rata to all stakers.\n    function distribute(address from, uint256 tokens) public onlyOwner returns (bool success) {\n        require(tokens > 0);\n\n        // add past distribution remainder\n        uint256 _amountToDistribute = tokens.add(_rewardRemainder);\n\n        if (_stakeTotal == 0) {\n            _rewardRemainder = _amountToDistribute;\n        } else {\n            // determine rewards per eligible stake\n            uint256 _ratio = _amountToDistribute.div(_stakeTotal);\n\n            // carry on remainder\n            _rewardRemainder = _amountToDistribute.mod(_stakeTotal);\n\n            // increase total rewards per stake unit\n            _rewardTotal = _rewardTotal.add(_ratio);\n        }\n        emit DistributionMade(from, tokens);\n        return true;\n    }\n\n    /// @notice Withdraw accumulated reward for the staker address.\n    function withdrawReward(address staker) public onlyOwner returns (uint256 tokens) {\n        uint256 _reward = getReward(staker);\n\n        // refresh reward offset (so a new call to getReward returns 0)\n        _rewardOffset[staker] = (int256)(_rewardTotal.mul(_stake[staker]));\n\n        emit RewardWithdrawalMade(staker, _reward);\n        return _reward;\n    }\n\n    /// @notice Withdraw stake for the staker address\n    function withdrawStake(address staker, uint256 tokens) public onlyOwner returns (bool) {\n        uint256 _currentStake = getStake(staker);\n\n        require(tokens <= _currentStake);\n\n        // update stake and remainder for this address\n        uint256 _newStake = _currentStake.sub(tokens);\n\n        _stakeRemainder[staker] = _newStake.mod(ELIGIBLE_UNIT);\n\n        uint256 _eligibleUnitsDelta = _stake[staker].sub(_newStake.div(ELIGIBLE_UNIT));\n\n        _stake[staker] = _stake[staker].sub(_eligibleUnitsDelta);\n\n        // update total stake\n        _stakeTotal = _stakeTotal.sub(_eligibleUnitsDelta);\n\n        // update reward offset\n        _rewardOffset[staker] -= (int256)(_rewardTotal.mul(_eligibleUnitsDelta));\n\n        emit StakeWithdrawalMade(staker, tokens);\n        return true;\n    }\n\n    /// @notice Withdraw stake for the staker address\n    function withdrawAllStake(address staker) public onlyOwner returns (bool) {\n        uint256 _currentStake = getStake(staker);\n        return withdrawStake(staker, _currentStake);\n    }\n\n    ///\n    /// READ ONLY\n    ///\n\n    /// @notice Read total stake.\n    function getStakeTotal() public view returns (uint256) {\n        return _stakeTotal.mul(ELIGIBLE_UNIT);\n    }\n\n    /// @notice Read current stake for address.\n    function getStake(address staker) public view returns (uint256 tokens) {\n        tokens = (_stake[staker].mul(ELIGIBLE_UNIT)).add(_stakeRemainder[staker]);\n\n        return tokens;\n    }\n\n    /// @notice Read current accumulated reward for address.\n    function getReward(address staker) public view returns (uint256 tokens) {\n        int256 _tokens = ((int256)(_stake[staker].mul(_rewardTotal)) - _rewardOffset[staker]);\n\n        tokens = (uint256)(_tokens);\n\n        return tokens;\n    }\n\n}\n","sourcePath":"contracts/BondingCurve/dividend/RewardsDistributor.sol","abi":[{"constant":true,"inputs":[],"name":"ELIGIBLE_UNIT","outputs":[{"name":"","type":"uint256"}],"payable":false,"stateMutability":"view","type":"function"},{"constant":false,"inputs":[{"name":"staker","type":"address"},{"name":"tokens","type":"uint256"}],"name":"deposit","outputs":[{"name":"success","type":"bool"}],"payable":false,"stateMutability":"nonpayable","type":"function"},{"constant":true,"inputs":[],"name":"getStakeTotal","outputs":[{"name":"","type":"uint256"}],"payable":false,"stateMutability":"view","type":"function"},{"constant":false,"inputs":[],"name":"renounceOwnership","outputs":[],"payable":false,"stateMutability":"nonpayable","type":"function"},{"constant":true,"inputs":[{"name":"staker","type":"address"}],"name":"getStake","outputs":[{"name":"tokens","type":"uint256"}],"payable":false,"stateMutability":"view","type":"function"},{"constant":false,"inputs":[{"name":"staker","type":"address"}],"name":"withdrawAllStake","outputs":[{"name":"","type":"bool"}],"payable":false,"stateMutability":"nonpayable","type":"function"},{"constant":true,"inputs":[],"name":"owner","outputs":[{"name":"","type":"address"}],"payable":false,"stateMutability":"view","type":"function"},{"constant":true,"inputs":[],"name":"isOwner","outputs":[{"name":"","type":"bool"}],"payable":false,"stateMutability":"view","type":"function"},{"constant":false,"inputs":[{"name":"staker","type":"address"}],"name":"withdrawReward","outputs":[{"name":"tokens","type":"uint256"}],"payable":false,"stateMutability":"nonpayable","type":"function"},{"constant":true,"inputs":[{"name":"staker","type":"address"}],"name":"getReward","outputs":[{"name":"tokens","type":"uint256"}],"payable":false,"stateMutability":"view","type":"function"},{"constant":false,"inputs":[{"name":"owner","type":"address"}],"name":"initialize","outputs":[],"payable":false,"stateMutability":"nonpayable","type":"function"},{"constant":false,"inputs":[{"name":"staker","type":"address"},{"name":"tokens","type":"uint256"}],"name":"withdrawStake","outputs":[{"name":"","type":"bool"}],"payable":false,"stateMutability":"nonpayable","type":"function"},{"constant":false,"inputs":[{"name":"newOwner","type":"address"}],"name":"transferOwnership","outputs":[],"payable":false,"stateMutability":"nonpayable","type":"function"},{"constant":false,"inputs":[{"name":"from","type":"address"},{"name":"tokens","type":"uint256"}],"name":"distribute","outputs":[{"name":"success","type":"bool"}],"payable":false,"stateMutability":"nonpayable","type":"function"},{"anonymous":false,"inputs":[{"indexed":true,"name":"from","type":"address"},{"indexed":false,"name":"value","type":"uint256"}],"name":"DepositMade","type":"event"},{"anonymous":false,"inputs":[{"indexed":true,"name":"from","type":"address"},{"indexed":false,"name":"value","type":"uint256"}],"name":"DistributionMade","type":"event"},{"anonymous":false,"inputs":[{"indexed":true,"name":"to","type":"address"},{"indexed":false,"name":"value","type":"uint256"}],"name":"RewardWithdrawalMade","type":"event"},{"anonymous":false,"inputs":[{"indexed":true,"name":"to","type":"address"},{"indexed":false,"name":"value","type":"uint256"}],"name":"StakeWithdrawalMade","type":"event"},{"anonymous":false,"inputs":[{"indexed":true,"name":"previousOwner","type":"address"},{"indexed":true,"name":"newOwner","type":"address"}],"name":"OwnershipTransferred","type":"event"}],"bytecode":"0x60806040526113b6806100136000396000f3fe608060405234801561001057600080fd5b50600436106100ea5760003560e01c80638f32d59b1161008c578063c4d66de811610066578063c4d66de81461036b578063c6066272146103af578063f2fde38b14610415578063fb93210814610459576100ea565b80638f32d59b14610299578063b86e321c146102bb578063c00007b014610313576100ea565b8063715018a6116100c8578063715018a6146101915780637a7664601461019b57806384957191146101f35780638da5cb5b1461024f576100ea565b80631f5726d9146100ef57806347e7ef241461010d5780635735189e14610173575b600080fd5b6100f76104bf565b6040518082815260200191505060405180910390f35b6101596004803603604081101561012357600080fd5b81019080803573ffffffffffffffffffffffffffffffffffffffff169060200190929190803590602001909291905050506104c7565b604051808215151515815260200191505060405180910390f35b61017b610700565b6040518082815260200191505060405180910390f35b610199610720565b005b6101dd600480360360208110156101b157600080fd5b81019080803573ffffffffffffffffffffffffffffffffffffffff1690602001909291905050506107f2565b6040518082815260200191505060405180910390f35b6102356004803603602081101561020957600080fd5b81019080803573ffffffffffffffffffffffffffffffffffffffff1690602001909291905050506108a5565b604051808215151515815260200191505060405180910390f35b6102576108d7565b604051808273ffffffffffffffffffffffffffffffffffffffff1673ffffffffffffffffffffffffffffffffffffffff16815260200191505060405180910390f35b6102a1610901565b604051808215151515815260200191505060405180910390f35b6102fd600480360360208110156102d157600080fd5b81019080803573ffffffffffffffffffffffffffffffffffffffff169060200190929190505050610960565b6040518082815260200191505060405180910390f35b6103556004803603602081101561032957600080fd5b81019080803573ffffffffffffffffffffffffffffffffffffffff169060200190929190505050610a6e565b6040518082815260200191505060405180910390f35b6103ad6004803603602081101561038157600080fd5b81019080803573ffffffffffffffffffffffffffffffffffffffff169060200190929190505050610b14565b005b6103fb600480360360408110156103c557600080fd5b81019080803573ffffffffffffffffffffffffffffffffffffffff16906020019092919080359060200190929190505050610c35565b604051808215151515815260200191505060405180910390f35b6104576004803603602081101561042b57600080fd5b81019080803573ffffffffffffffffffffffffffffffffffffffff169060200190929190505050610eab565b005b6104a56004803603604081101561046f57600080fd5b81019080803573ffffffffffffffffffffffffffffffffffffffff16906020019092919080359060200190929190505050610ec8565b604051808215151515815260200191505060405180910390f35b633b9aca0081565b60006104d1610901565b6104da57600080fd5b600061052e606760008673ffffffffffffffffffffffffffffffffffffffff1673ffffffffffffffffffffffffffffffffffffffff1681526020019081526020016000205484610fc290919063ffffffff16565b90506000610549633b9aca0083610fe190919063ffffffff16565b9050610562633b9aca008361100790919063ffffffff16565b606760008773ffffffffffffffffffffffffffffffffffffffff1673ffffffffffffffffffffffffffffffffffffffff168152602001908152602001600020819055506105f781606660008873ffffffffffffffffffffffffffffffffffffffff1673ffffffffffffffffffffffffffffffffffffffff16815260200190815260200160002054610fc290919063ffffffff16565b606660008773ffffffffffffffffffffffffffffffffffffffff1673ffffffffffffffffffffffffffffffffffffffff1681526020019081526020016000208190555061064f81606854610fc290919063ffffffff16565b6068819055508060695402606b60008773ffffffffffffffffffffffffffffffffffffffff1673ffffffffffffffffffffffffffffffffffffffff168152602001908152602001600020600082825401925050819055508473ffffffffffffffffffffffffffffffffffffffff167fd15c9547ea5c06670c0010ce19bc32d54682a4b3801ece7f3ab0c3f17106b4bb856040518082815260200191505060405180910390a260019250505092915050565b600061071b633b9aca0060685461102890919063ffffffff16565b905090565b610728610901565b61073157600080fd5b600073ffffffffffffffffffffffffffffffffffffffff16603360009054906101000a900473ffffffffffffffffffffffffffffffffffffffff1673ffffffffffffffffffffffffffffffffffffffff167f8be0079c531659141344cd1fd0a4f28419497f9722a3daafe3b4186f6b6457e060405160405180910390a36000603360006101000a81548173ffffffffffffffffffffffffffffffffffffffff021916908373ffffffffffffffffffffffffffffffffffffffff160217905550565b600061089b606760008473ffffffffffffffffffffffffffffffffffffffff1673ffffffffffffffffffffffffffffffffffffffff1681526020019081526020016000205461088d633b9aca00606660008773ffffffffffffffffffffffffffffffffffffffff1673ffffffffffffffffffffffffffffffffffffffff1681526020019081526020016000205461102890919063ffffffff16565b610fc290919063ffffffff16565b9050809050919050565b60006108af610901565b6108b857600080fd5b60006108c3836107f2565b90506108cf8382610c35565b915050919050565b6000603360009054906101000a900473ffffffffffffffffffffffffffffffffffffffff16905090565b6000603360009054906101000a900473ffffffffffffffffffffffffffffffffffffffff1673ffffffffffffffffffffffffffffffffffffffff16610944611062565b73ffffffffffffffffffffffffffffffffffffffff1614905090565b600061096a610901565b61097357600080fd5b600061097e83610a6e565b90506109d4606660008573ffffffffffffffffffffffffffffffffffffffff1673ffffffffffffffffffffffffffffffffffffffff1681526020019081526020016000205460695461102890919063ffffffff16565b606b60008573ffffffffffffffffffffffffffffffffffffffff1673ffffffffffffffffffffffffffffffffffffffff168152602001908152602001600020819055508273ffffffffffffffffffffffffffffffffffffffff167fb5be10680fb08f3505068d990a1dc9d6c1282cbc5efc13a364345ab0cdbe77b9826040518082815260200191505060405180910390a280915050919050565b600080606b60008473ffffffffffffffffffffffffffffffffffffffff1673ffffffffffffffffffffffffffffffffffffffff16815260200190815260200160002054610b05606954606660008773ffffffffffffffffffffffffffffffffffffffff1673ffffffffffffffffffffffffffffffffffffffff1681526020019081526020016000205461102890919063ffffffff16565b03905080915081915050919050565b600060019054906101000a900460ff1680610b335750610b3261106a565b5b80610b4a57506000809054906101000a900460ff16155b610b9f576040517f08c379a000000000000000000000000000000000000000000000000000000000815260040180806020018281038252602e815260200180611354602e913960400191505060405180910390fd5b60008060019054906101000a900460ff161590508015610bef576001600060016101000a81548160ff02191690831515021790555060016000806101000a81548160ff0219169083151502179055505b610bf88261107b565b600060688190555060006069819055506000606a819055508015610c315760008060016101000a81548160ff0219169083151502179055505b5050565b6000610c3f610901565b610c4857600080fd5b6000610c53846107f2565b905080831115610c6257600080fd5b6000610c77848361123990919063ffffffff16565b9050610c90633b9aca008261100790919063ffffffff16565b606760008773ffffffffffffffffffffffffffffffffffffffff1673ffffffffffffffffffffffffffffffffffffffff168152602001908152602001600020819055506000610d3d610cef633b9aca0084610fe190919063ffffffff16565b606660008973ffffffffffffffffffffffffffffffffffffffff1673ffffffffffffffffffffffffffffffffffffffff1681526020019081526020016000205461123990919063ffffffff16565b9050610d9181606660008973ffffffffffffffffffffffffffffffffffffffff1673ffffffffffffffffffffffffffffffffffffffff1681526020019081526020016000205461123990919063ffffffff16565b606660008873ffffffffffffffffffffffffffffffffffffffff1673ffffffffffffffffffffffffffffffffffffffff16815260200190815260200160002081905550610de98160685461123990919063ffffffff16565b606881905550610e048160695461102890919063ffffffff16565b606b60008873ffffffffffffffffffffffffffffffffffffffff1673ffffffffffffffffffffffffffffffffffffffff168152602001908152602001600020600082825403925050819055508573ffffffffffffffffffffffffffffffffffffffff167f66ee342fdcb8e29f299ba9ee8249cf1008a1bc9bd521d3afa4c94addbd7f38ce866040518082815260200191505060405180910390a26001935050505092915050565b610eb3610901565b610ebc57600080fd5b610ec581611259565b50565b6000610ed2610901565b610edb57600080fd5b60008211610ee857600080fd5b6000610eff606a5484610fc290919063ffffffff16565b905060006068541415610f185780606a81905550610f69565b6000610f2f60685483610fe190919063ffffffff16565b9050610f466068548361100790919063ffffffff16565b606a81905550610f6181606954610fc290919063ffffffff16565b606981905550505b8373ffffffffffffffffffffffffffffffffffffffff167fd9db4ebb5d945b77518178ced65601163f89b9c641aa22a1c2512e858e535a98846040518082815260200191505060405180910390a2600191505092915050565b600080828401905083811015610fd757600080fd5b8091505092915050565b6000808211610fef57600080fd5b6000828481610ffa57fe5b0490508091505092915050565b60008082141561101657600080fd5b81838161101f57fe5b06905092915050565b60008083141561103b576000905061105c565b600082840290508284828161104c57fe5b041461105757600080fd5b809150505b92915050565b600033905090565b600080303b90506000811491505090565b600060019054906101000a900460ff168061109a575061109961106a565b5b806110b157506000809054906101000a900460ff16155b611106576040517f08c379a000000000000000000000000000000000000000000000000000000000815260040180806020018281038252602e815260200180611354602e913960400191505060405180910390fd5b60008060019054906101000a900460ff161590508015611156576001600060016101000a81548160ff02191690831515021790555060016000806101000a81548160ff0219169083151502179055505b81603360006101000a81548173ffffffffffffffffffffffffffffffffffffffff021916908373ffffffffffffffffffffffffffffffffffffffff160217905550603360009054906101000a900473ffffffffffffffffffffffffffffffffffffffff1673ffffffffffffffffffffffffffffffffffffffff16600073ffffffffffffffffffffffffffffffffffffffff167f8be0079c531659141344cd1fd0a4f28419497f9722a3daafe3b4186f6b6457e060405160405180910390a380156112355760008060016101000a81548160ff0219169083151502179055505b5050565b60008282111561124857600080fd5b600082840390508091505092915050565b600073ffffffffffffffffffffffffffffffffffffffff168173ffffffffffffffffffffffffffffffffffffffff16141561129357600080fd5b8073ffffffffffffffffffffffffffffffffffffffff16603360009054906101000a900473ffffffffffffffffffffffffffffffffffffffff1673ffffffffffffffffffffffffffffffffffffffff167f8be0079c531659141344cd1fd0a4f28419497f9722a3daafe3b4186f6b6457e060405160405180910390a380603360006101000a81548173ffffffffffffffffffffffffffffffffffffffff021916908373ffffffffffffffffffffffffffffffffffffffff1602179055505056fe436f6e747261637420696e7374616e63652068617320616c7265616479206265656e20696e697469616c697a6564a265627a7a72305820c962ab9e2fcbc404dd161e1716a86a4ac1910e088cd6974a01debf2e6cea42c864736f6c634300050a0032","compiler":{"name":"solc","version":"0.5.10+commit.5a6ea5b1.Emscripten.clang","optimizer":{"enabled":false,"runs":200},"evmVersion":"constantinople"}}