{"fileName":"RewardsDistributor.sol","contractName":"RewardsDistributor","source":"pragma solidity ^0.5.6;\n\nimport \"@openzeppelin/upgrades/contracts/Initializable.sol\";\nimport \"@openzeppelin/contracts-ethereum-package/contracts/ownership/Ownable.sol\";\nimport \"@openzeppelin/contracts-ethereum-package/contracts/math/SafeMath.sol\";\n\n/**\n * @title RewardsDistributor - Distribute pro rata rewards (dividends)\n * @author Bogdan Batog (https://batog.info)\n * @dev Distribute pro rata rewards (dividends) to token holders in O(1) time.\n *      Based on [1] http://batog.info/papers/scalable-reward-distribution.pdf\n *      And on [2] https://solmaz.io/2019/02/24/scalable-reward-changing/\n */\ncontract RewardsDistributor is Initializable, Ownable {\n    using SafeMath for uint256;\n\n    /// @notice ELIGIBLE_UNIT is the smallest eligible unit for reward. Minimum\n    ///  possible distribution is 1 (wei for Ether) PER ELIGIBLE_UNIT.\n    ///\n    ///  Only multiple of ELIGIBLE_UNIT will be subject to reward\n    ///  distribution. Any fractional part of deposit, smaller than\n    ///  ELIGIBLE_UNIT, won't receive any reward, but it will be tracked.\n    ///\n    ///  Recommended value 10**(decimals / 2), that is 10**9 for most ERC20.\n    uint256 public constant ELIGIBLE_UNIT = 10 ** 9;\n\n    /// @notice Stake per address.\n    mapping(address => uint256) internal _stake;\n\n    /// @notice Stake remainder per address, smaller than ELIGIBLE_UNIT.\n    mapping(address => uint256) internal _stakeRemainder;\n\n    /// @notice Total staked tokens. In ELIGIBLE_UNIT units.\n    uint256 internal _stakeTotal;\n\n    /// @notice Total accumulated reward since the beginning of time, in units\n    /// per ELIGIBLE_UNIT.\n    uint256 internal _rewardTotal;\n\n    /// @notice Remainder from the last _distribute() call, this amount was not\n    /// enough to award at least 1 wei to every staked ELIGIBLE_UNIT. At the\n    /// time of last _distribute() call _rewardRemainder < _stakeTotal.\n    /// Note that later, _stakeTotal can decrease, but _rewardRemainder will\n    /// stay unchanged until the next call to _distribute().\n    uint256 internal _rewardRemainder;\n\n    /// @notice Proportional rewards awarded *before* this stake was created.\n    /// See [2] for more details.\n    mapping(address => int256) _rewardOffset;\n\n    event DepositMade(address indexed from, uint256 value);\n    event DistributionMade(address indexed from, uint256 value);\n    event RewardWithdrawalMade(address indexed to, uint256 value);\n    event StakeWithdrawalMade(address indexed to, uint256 value);\n\n    /// Initialize the contract.\n    /// @param owner Contract owner, can call functions that change state.\n    function initialize(address owner) public initializer {\n        Ownable.initialize(owner);\n\n        _stakeTotal = 0;\n        _rewardTotal = 0;\n        _rewardRemainder = 0;\n    }\n\n    /// @notice Deposit funds into contract.\n    function deposit(address staker, uint256 tokens) public onlyOwner returns (bool success) {\n        uint256 _tokensToAdd = tokens.add(_stakeRemainder[staker]);\n\n        uint256 _eligibleUnitsToAdd = _tokensToAdd.div(ELIGIBLE_UNIT);\n\n        // update the new remainder for this address\n        _stakeRemainder[staker] = _tokensToAdd.mod(ELIGIBLE_UNIT);\n\n        // set the current stake for this address\n        _stake[staker] = _stake[staker].add(_eligibleUnitsToAdd);\n\n        // update total eligible stake units\n        _stakeTotal = _stakeTotal.add(_eligibleUnitsToAdd);\n\n        // update reward offset\n        _rewardOffset[staker] += (int256)(_rewardTotal * _eligibleUnitsToAdd);\n\n        emit DepositMade(staker, tokens);\n        return true;\n    }\n\n    /// @notice Distribute tokens pro rata to all stakers.\n    function distribute(address from, uint256 tokens) public onlyOwner returns (bool success) {\n        require(tokens > 0);\n\n        // add past distribution remainder\n        uint256 _amountToDistribute = tokens.add(_rewardRemainder);\n\n        if (_stakeTotal == 0) {\n            _rewardRemainder = _amountToDistribute;\n        } else {\n            // determine rewards per eligible stake\n            uint256 _ratio = _amountToDistribute.div(_stakeTotal);\n\n            // carry on remainder\n            _rewardRemainder = _amountToDistribute.mod(_stakeTotal);\n\n            // increase total rewards per stake unit\n            _rewardTotal = _rewardTotal.add(_ratio);\n        }\n        emit DistributionMade(from, tokens);\n        return true;\n    }\n\n    /// @notice Withdraw accumulated reward for the staker address.\n    function withdrawReward(address staker) public onlyOwner returns (uint256 tokens) {\n        uint256 _reward = getReward(staker);\n\n        // refresh reward offset (so a new call to getReward returns 0)\n        _rewardOffset[staker] = (int256)(_rewardTotal.mul(_stake[staker]));\n\n        emit RewardWithdrawalMade(staker, _reward);\n        return _reward;\n    }\n\n    /// @notice Withdraw stake for the staker address\n    function withdrawStake(address staker, uint256 tokens) public onlyOwner returns (bool) {\n        uint256 _currentStake = getStake(staker);\n\n        require(tokens <= _currentStake);\n\n        // update stake and remainder for this address\n        uint256 _newStake = _currentStake.sub(tokens);\n\n        _stakeRemainder[staker] = _newStake.mod(ELIGIBLE_UNIT);\n\n        uint256 _eligibleUnitsDelta = _stake[staker].sub(_newStake.div(ELIGIBLE_UNIT));\n\n        _stake[staker] = _stake[staker].sub(_eligibleUnitsDelta);\n\n        // update total stake\n        _stakeTotal = _stakeTotal.sub(_eligibleUnitsDelta);\n\n        // update reward offset\n        _rewardOffset[staker] -= (int256)(_rewardTotal.mul(_eligibleUnitsDelta));\n\n        emit StakeWithdrawalMade(staker, tokens);\n        return true;\n    }\n\n    /// @notice Withdraw stake for the staker address\n    function withdrawAllStake(address staker) public onlyOwner returns (bool) {\n        uint256 _currentStake = getStake(staker);\n        return withdrawStake(staker, _currentStake);\n    }\n\n    ///\n    /// READ ONLY\n    ///\n\n    /// @notice Read total stake.\n    function getStakeTotal() public view returns (uint256) {\n        return _stakeTotal.mul(ELIGIBLE_UNIT);\n    }\n\n    /// @notice Read current stake for address.\n    function getStake(address staker) public view returns (uint256 tokens) {\n        tokens = (_stake[staker].mul(ELIGIBLE_UNIT)).add(_stakeRemainder[staker]);\n\n        return tokens;\n    }\n\n    /// @notice Read current accumulated reward for address.\n    function getReward(address staker) public view returns (uint256 tokens) {\n        int256 _tokens = ((int256)(_stake[staker].mul(_rewardTotal)) - _rewardOffset[staker]);\n\n        tokens = (uint256)(_tokens);\n\n        return tokens;\n    }\n\n}\n","sourcePath":"contracts/BondingCurve/dividend/RewardsDistributor.sol","abi":[{"constant":true,"inputs":[],"name":"ELIGIBLE_UNIT","outputs":[{"name":"","type":"uint256"}],"payable":false,"stateMutability":"view","type":"function"},{"constant":false,"inputs":[{"name":"staker","type":"address"},{"name":"tokens","type":"uint256"}],"name":"deposit","outputs":[{"name":"success","type":"bool"}],"payable":false,"stateMutability":"nonpayable","type":"function"},{"constant":true,"inputs":[],"name":"getStakeTotal","outputs":[{"name":"","type":"uint256"}],"payable":false,"stateMutability":"view","type":"function"},{"constant":false,"inputs":[],"name":"renounceOwnership","outputs":[],"payable":false,"stateMutability":"nonpayable","type":"function"},{"constant":true,"inputs":[{"name":"staker","type":"address"}],"name":"getStake","outputs":[{"name":"tokens","type":"uint256"}],"payable":false,"stateMutability":"view","type":"function"},{"constant":false,"inputs":[{"name":"staker","type":"address"}],"name":"withdrawAllStake","outputs":[{"name":"","type":"bool"}],"payable":false,"stateMutability":"nonpayable","type":"function"},{"constant":true,"inputs":[],"name":"owner","outputs":[{"name":"","type":"address"}],"payable":false,"stateMutability":"view","type":"function"},{"constant":true,"inputs":[],"name":"isOwner","outputs":[{"name":"","type":"bool"}],"payable":false,"stateMutability":"view","type":"function"},{"constant":false,"inputs":[{"name":"staker","type":"address"}],"name":"withdrawReward","outputs":[{"name":"tokens","type":"uint256"}],"payable":false,"stateMutability":"nonpayable","type":"function"},{"constant":true,"inputs":[{"name":"staker","type":"address"}],"name":"getReward","outputs":[{"name":"tokens","type":"uint256"}],"payable":false,"stateMutability":"view","type":"function"},{"constant":false,"inputs":[{"name":"owner","type":"address"}],"name":"initialize","outputs":[],"payable":false,"stateMutability":"nonpayable","type":"function"},{"constant":false,"inputs":[{"name":"staker","type":"address"},{"name":"tokens","type":"uint256"}],"name":"withdrawStake","outputs":[{"name":"","type":"bool"}],"payable":false,"stateMutability":"nonpayable","type":"function"},{"constant":false,"inputs":[{"name":"newOwner","type":"address"}],"name":"transferOwnership","outputs":[],"payable":false,"stateMutability":"nonpayable","type":"function"},{"constant":false,"inputs":[{"name":"from","type":"address"},{"name":"tokens","type":"uint256"}],"name":"distribute","outputs":[{"name":"success","type":"bool"}],"payable":false,"stateMutability":"nonpayable","type":"function"},{"anonymous":false,"inputs":[{"indexed":true,"name":"from","type":"address"},{"indexed":false,"name":"value","type":"uint256"}],"name":"DepositMade","type":"event"},{"anonymous":false,"inputs":[{"indexed":true,"name":"from","type":"address"},{"indexed":false,"name":"value","type":"uint256"}],"name":"DistributionMade","type":"event"},{"anonymous":false,"inputs":[{"indexed":true,"name":"to","type":"address"},{"indexed":false,"name":"value","type":"uint256"}],"name":"RewardWithdrawalMade","type":"event"},{"anonymous":false,"inputs":[{"indexed":true,"name":"to","type":"address"},{"indexed":false,"name":"value","type":"uint256"}],"name":"StakeWithdrawalMade","type":"event"},{"anonymous":false,"inputs":[{"indexed":true,"name":"previousOwner","type":"address"},{"indexed":true,"name":"newOwner","type":"address"}],"name":"OwnershipTransferred","type":"event"}],"bytecode":"0x60806040525b5b61000b565b6115968061001a6000396000f3fe60806040523480156100115760006000fd5b50600436106100ef5760003560e01c80638f32d59b1161008d578063c4d66de811610067578063c4d66de814610376578063c6066272146103bb578063f2fde38b14610422578063fb93210814610467576100ef565b80638f32d59b146102a2578063b86e321c146102c4578063c00007b01461031d576100ef565b8063715018a6116100c9578063715018a6146101985780637a766460146101a257806384957191146101fb5780638da5cb5b14610258576100ef565b80631f5726d9146100f557806347e7ef24146101135780635735189e1461017a576100ef565b60006000fd5b6100fd6104ce565b6040518082815260200191505060405180910390f35b6101606004803603604081101561012a5760006000fd5b81019080803573ffffffffffffffffffffffffffffffffffffffff169060200190929190803590602001909291905050506104d6565b604051808215151515815260200191505060405180910390f35b61018261074e565b6040518082815260200191505060405180910390f35b6101a0610776565b005b6101e5600480360360208110156101b95760006000fd5b81019080803573ffffffffffffffffffffffffffffffffffffffff169060200190929190505050610853565b6040518082815260200191505060405180910390f35b61023e600480360360208110156102125760006000fd5b81019080803573ffffffffffffffffffffffffffffffffffffffff169060200190929190505050610919565b604051808215151515815260200191505060405180910390f35b610260610967565b604051808273ffffffffffffffffffffffffffffffffffffffff1673ffffffffffffffffffffffffffffffffffffffff16815260200191505060405180910390f35b6102aa610996565b604051808215151515815260200191505060405180910390f35b610307600480360360208110156102db5760006000fd5b81019080803573ffffffffffffffffffffffffffffffffffffffff169060200190929190505050610a00565b6040518082815260200191505060405180910390f35b610360600480360360208110156103345760006000fd5b81019080803573ffffffffffffffffffffffffffffffffffffffff169060200190929190505050610b35565b6040518082815260200191505060405180910390f35b6103b96004803603602081101561038d5760006000fd5b81019080803573ffffffffffffffffffffffffffffffffffffffff169060200190929190505050610bf3565b005b610408600480360360408110156103d25760006000fd5b81019080803573ffffffffffffffffffffffffffffffffffffffff16906020019092919080359060200190929190505050610d37565b604051808215151515815260200191505060405180910390f35b610465600480360360208110156104395760006000fd5b81019080803573ffffffffffffffffffffffffffffffffffffffff169060200190929190505050610ff6565b005b6104b46004803603604081101561047e5760006000fd5b81019080803573ffffffffffffffffffffffffffffffffffffffff16906020019092919080359060200190929190505050611024565b604051808215151515815260200191505060405180910390f35b633b9aca0081565b60006104e661099663ffffffff16565b15156104f25760006000fd5b600061054c606760005060008673ffffffffffffffffffffffffffffffffffffffff1673ffffffffffffffffffffffffffffffffffffffff168152602001908152602001600020600050548461114f90919063ffffffff16565b90506000610567633b9aca008361117890919063ffffffff16565b9050610580633b9aca00836111aa90919063ffffffff16565b606760005060008773ffffffffffffffffffffffffffffffffffffffff1673ffffffffffffffffffffffffffffffffffffffff16815260200190815260200160002060005081909090555061062381606660005060008873ffffffffffffffffffffffffffffffffffffffff1673ffffffffffffffffffffffffffffffffffffffff1681526020019081526020016000206000505461114f90919063ffffffff16565b606660005060008773ffffffffffffffffffffffffffffffffffffffff1673ffffffffffffffffffffffffffffffffffffffff1681526020019081526020016000206000508190909055506106868160686000505461114f90919063ffffffff16565b60686000508190909055508060696000505402606b60005060008773ffffffffffffffffffffffffffffffffffffffff1673ffffffffffffffffffffffffffffffffffffffff16815260200190815260200160002060008282825054019250508190909055508473ffffffffffffffffffffffffffffffffffffffff167fd15c9547ea5c06670c0010ce19bc32d54682a4b3801ece7f3ab0c3f17106b4bb856040518082815260200191505060405180910390a26001925050506107475650505b5b92915050565b600061076c633b9aca006068600050546111d690919063ffffffff16565b9050610773565b90565b61078461099663ffffffff16565b15156107905760006000fd5b600073ffffffffffffffffffffffffffffffffffffffff16603360009054906101000a900473ffffffffffffffffffffffffffffffffffffffff1673ffffffffffffffffffffffffffffffffffffffff167f8be0079c531659141344cd1fd0a4f28419497f9722a3daafe3b4186f6b6457e060405160405180910390a36000603360006101000a81548173ffffffffffffffffffffffffffffffffffffffff021916908373ffffffffffffffffffffffffffffffffffffffff1602179055505b5b565b6000610908606760005060008473ffffffffffffffffffffffffffffffffffffffff1673ffffffffffffffffffffffffffffffffffffffff168152602001908152602001600020600050546108fa633b9aca00606660005060008773ffffffffffffffffffffffffffffffffffffffff1673ffffffffffffffffffffffffffffffffffffffff168152602001908152602001600020600050546111d690919063ffffffff16565b61114f90919063ffffffff16565b90508050809050610914565b919050565b600061092961099663ffffffff16565b15156109355760006000fd5b60006109468361085363ffffffff16565b90506109588382610d3763ffffffff16565b91505061096156505b5b919050565b6000603360009054906101000a900473ffffffffffffffffffffffffffffffffffffffff169050610993565b90565b6000603360009054906101000a900473ffffffffffffffffffffffffffffffffffffffff1673ffffffffffffffffffffffffffffffffffffffff166109df61121b63ffffffff16565b73ffffffffffffffffffffffffffffffffffffffff161490506109fd565b90565b6000610a1061099663ffffffff16565b1515610a1c5760006000fd5b6000610a2d83610b3563ffffffff16565b9050610a8c606660005060008573ffffffffffffffffffffffffffffffffffffffff1673ffffffffffffffffffffffffffffffffffffffff168152602001908152602001600020600050546069600050546111d690919063ffffffff16565b606b60005060008573ffffffffffffffffffffffffffffffffffffffff1673ffffffffffffffffffffffffffffffffffffffff1681526020019081526020016000206000508190909055508273ffffffffffffffffffffffffffffffffffffffff167fb5be10680fb08f3505068d990a1dc9d6c1282cbc5efc13a364345ab0cdbe77b9826040518082815260200191505060405180910390a280915050610b2f56505b5b919050565b60006000606b60005060008473ffffffffffffffffffffffffffffffffffffffff1673ffffffffffffffffffffffffffffffffffffffff16815260200190815260200160002060005054610bdc606960005054606660005060008773ffffffffffffffffffffffffffffffffffffffff1673ffffffffffffffffffffffffffffffffffffffff168152602001908152602001600020600050546111d690919063ffffffff16565b039050809150815081915050610bee56505b919050565b600060019054906101000a900460ff1680610c185750610c1761122863ffffffff16565b5b80610c305750600060009054906101000a900460ff16155b1515610c87576040517f08c379a000000000000000000000000000000000000000000000000000000000815260040180806020018281038252602e815260200180611534602e913960400191505060405180910390fd5b6000600060019054906101000a900460ff161590508015610cd9576001600060016101000a81548160ff0219169083151502179055506001600060006101000a81548160ff0219169083151502179055505b610ce88261124063ffffffff16565b60006068600050819090905550600060696000508190909055506000606a6000508190909055505b8015610d32576000600060016101000a81548160ff0219169083151502179055505b505b50565b6000610d4761099663ffffffff16565b1515610d535760006000fd5b6000610d648461085363ffffffff16565b9050808311151515610d765760006000fd5b6000610d8b848361140c90919063ffffffff16565b9050610da4633b9aca00826111aa90919063ffffffff16565b606760005060008773ffffffffffffffffffffffffffffffffffffffff1673ffffffffffffffffffffffffffffffffffffffff1681526020019081526020016000206000508190909055506000610e5f610e0b633b9aca008461117890919063ffffffff16565b606660005060008973ffffffffffffffffffffffffffffffffffffffff1673ffffffffffffffffffffffffffffffffffffffff1681526020019081526020016000206000505461140c90919063ffffffff16565b9050610eb981606660005060008973ffffffffffffffffffffffffffffffffffffffff1673ffffffffffffffffffffffffffffffffffffffff1681526020019081526020016000206000505461140c90919063ffffffff16565b606660005060008873ffffffffffffffffffffffffffffffffffffffff1673ffffffffffffffffffffffffffffffffffffffff168152602001908152602001600020600050819090905550610f1c8160686000505461140c90919063ffffffff16565b6068600050819090905550610f3f816069600050546111d690919063ffffffff16565b606b60005060008873ffffffffffffffffffffffffffffffffffffffff1673ffffffffffffffffffffffffffffffffffffffff16815260200190815260200160002060008282825054039250508190909055508573ffffffffffffffffffffffffffffffffffffffff167f66ee342fdcb8e29f299ba9ee8249cf1008a1bc9bd521d3afa4c94addbd7f38ce866040518082815260200191505060405180910390a260019350505050610fef565050505b5b92915050565b61100461099663ffffffff16565b15156110105760006000fd5b61101f8161143563ffffffff16565b5b5b50565b600061103461099663ffffffff16565b15156110405760006000fd5b6000821115156110505760006000fd5b600061106a606a600050548461114f90919063ffffffff16565b90506000606860005054141561108b5780606a6000508190909055506110ef565b60006110a56068600050548361117890919063ffffffff16565b90506110bf606860005054836111aa90919063ffffffff16565b606a6000508190909055506110e28160696000505461114f90919063ffffffff16565b6069600050819090905550505b8373ffffffffffffffffffffffffffffffffffffffff167fd9db4ebb5d945b77518178ced65601163f89b9c641aa22a1c2512e858e535a98846040518082815260200191505060405180910390a2600191505061114856505b5b92915050565b6000600082840190508381101515156111685760006000fd5b8091505061117256505b92915050565b600060008211151561118a5760006000fd5b6000828481151561119757fe5b049050809150506111a456505b92915050565b6000600082141515156111bd5760006000fd5b81838115156111c857fe5b0690506111d0565b92915050565b600060008314156111ea5760009050611215565b600082840290508284828115156111fd57fe5b0414151561120b5760006000fd5b8091505061121556505b92915050565b6000339050611225565b90565b60006000303b90506000811491505061123d56505b90565b600060019054906101000a900460ff1680611265575061126461122863ffffffff16565b5b8061127d5750600060009054906101000a900460ff16155b15156112d4576040517f08c379a000000000000000000000000000000000000000000000000000000000815260040180806020018281038252602e815260200180611534602e913960400191505060405180910390fd5b6000600060019054906101000a900460ff161590508015611326576001600060016101000a81548160ff0219169083151502179055506001600060006101000a81548160ff0219169083151502179055505b81603360006101000a81548173ffffffffffffffffffffffffffffffffffffffff021916908373ffffffffffffffffffffffffffffffffffffffff160217905550603360009054906101000a900473ffffffffffffffffffffffffffffffffffffffff1673ffffffffffffffffffffffffffffffffffffffff16600073ffffffffffffffffffffffffffffffffffffffff167f8be0079c531659141344cd1fd0a4f28419497f9722a3daafe3b4186f6b6457e060405160405180910390a35b8015611407576000600060016101000a81548160ff0219169083151502179055505b505b50565b600082821115151561141e5760006000fd5b600082840390508091505061142f56505b92915050565b600073ffffffffffffffffffffffffffffffffffffffff168173ffffffffffffffffffffffffffffffffffffffff16141515156114725760006000fd5b8073ffffffffffffffffffffffffffffffffffffffff16603360009054906101000a900473ffffffffffffffffffffffffffffffffffffffff1673ffffffffffffffffffffffffffffffffffffffff167f8be0079c531659141344cd1fd0a4f28419497f9722a3daafe3b4186f6b6457e060405160405180910390a380603360006101000a81548173ffffffffffffffffffffffffffffffffffffffff021916908373ffffffffffffffffffffffffffffffffffffffff1602179055505b5056fe436f6e747261637420696e7374616e63652068617320616c7265616479206265656e20696e697469616c697a6564a265627a7a72305820b75b8f6647e7804f23f308c7ac3ff47fc93f21569c2e7eaa7305f5dcda450cf964736f6c634300050a0032","compiler":{"name":"solc","version":"0.5.10+commit.5a6ea5b1.Emscripten.clang","optimizer":{},"evmVersion":"constantinople"}}