{"fileName":"StaticCurveLogic.sol","contractName":"StaticCurveLogic","source":"pragma solidity ^0.5.7;\n\nimport \"@openzeppelin/upgrades/contracts/Initializable.sol\";\nimport \"@openzeppelin/contracts-ethereum-package/contracts/math/SafeMath.sol\";\nimport \"contracts/BondingCurve/interface/ICurveLogic.sol\";\n\n/**\n * @title Static Curve Logic\n * @dev Curve that always returns the same price per token\n * A potential use-case is zero-ing out the sell curve, which coupled with no split\n * on buy sends raised funds directly to the beneficiary\n */\ncontract StaticCurveLogic is Initializable, ICurveLogic {\n    using SafeMath for uint256;\n\n    /**\n        Ranges from 0 to 1^18. Divide by Precision to determine ratio.\n     */\n    uint256 internal _tokenRatio;\n    uint256 internal constant PRECISION = 1000000;\n\n    /// @dev Initialize contract\n    /// @param tokenRatio Ratio of reserve tokens transfered or recieved to bonded tokens minted or burned, respectively. Divided by precison value for calculations.\n    function initialize(uint256 tokenRatio) initializer public {\n        _tokenRatio = tokenRatio;\n    }\n\n    /// @dev                    Get the price to mint tokens\n    /// @param totalSupply      The existing number of curve tokens\n    /// @param amount           The number of curve tokens to mint\n    function calcMintPrice(\n        uint256 totalSupply,\n        uint256 reserveBalance,\n        uint256 amount\n    ) public view returns (uint256) {\n        return amount.mul(_tokenRatio).div(PRECISION);\n    }\n    \n    /// @dev                    Get the reward to burn tokens\n    /// @param totalSupply      The existing number of curve tokens\n    /// @param amount           The number of curve tokens to burn\n    function calcBurnReward(\n        uint256 totalSupply,\n        uint256 reserveBalance,\n        uint256 amount\n    ) public view returns (uint256) {\n        return amount.mul(_tokenRatio).div(PRECISION);\n        \n    }\n\n    /// @notice Get token ratio\n    function tokenRatio() public returns (uint256) {\n        return _tokenRatio;\n    }\n\n    /// @notice Get precision value used for token ratio, useful for off-chain calculations\n    function tokenRatioPrecision() public view returns (uint256) {\n        return PRECISION;\n    }\n}\n","sourcePath":"contracts/BondingCurve/curve/StaticCurveLogic.sol","abi":[{"constant":false,"inputs":[],"name":"tokenRatio","outputs":[{"name":"","type":"uint256"}],"payable":false,"stateMutability":"nonpayable","type":"function"},{"constant":true,"inputs":[],"name":"tokenRatioPrecision","outputs":[{"name":"","type":"uint256"}],"payable":false,"stateMutability":"view","type":"function"},{"constant":true,"inputs":[{"name":"totalSupply","type":"uint256"},{"name":"reserveBalance","type":"uint256"},{"name":"amount","type":"uint256"}],"name":"calcBurnReward","outputs":[{"name":"","type":"uint256"}],"payable":false,"stateMutability":"view","type":"function"},{"constant":true,"inputs":[{"name":"totalSupply","type":"uint256"},{"name":"reserveBalance","type":"uint256"},{"name":"amount","type":"uint256"}],"name":"calcMintPrice","outputs":[{"name":"","type":"uint256"}],"payable":false,"stateMutability":"view","type":"function"},{"constant":false,"inputs":[{"name":"tokenRatio","type":"uint256"}],"name":"initialize","outputs":[],"payable":false,"stateMutability":"nonpayable","type":"function"}],"bytecode":"0x608060405234801561001057600080fd5b506103cc806100206000396000f3fe608060405234801561001057600080fd5b50600436106100575760003560e01c806306f837d31461005c57806330fcca6d1461007a57806336b14b2114610098578063bc62d5f0146100ee578063fe4b84df14610144575b600080fd5b610064610172565b6040518082815260200191505060405180910390f35b61008261017c565b6040518082815260200191505060405180910390f35b6100d8600480360360608110156100ae57600080fd5b81019080803590602001909291908035906020019092919080359060200190929190505050610187565b6040518082815260200191505060405180910390f35b61012e6004803603606081101561010457600080fd5b810190808035906020019092919080359060200190929190803590602001909291905050506101bc565b6040518082815260200191505060405180910390f35b6101706004803603602081101561015a57600080fd5b81019080803590602001909291905050506101f1565b005b6000603354905090565b6000620f4240905090565b60006101b3620f42406101a5603354856102f890919063ffffffff16565b61033290919063ffffffff16565b90509392505050565b60006101e8620f42406101da603354856102f890919063ffffffff16565b61033290919063ffffffff16565b90509392505050565b600060019054906101000a900460ff1680610210575061020f610358565b5b8061022757506000809054906101000a900460ff16155b61027c576040517f08c379a000000000000000000000000000000000000000000000000000000000815260040180806020018281038252602e81526020018061036a602e913960400191505060405180910390fd5b60008060019054906101000a900460ff1615905080156102cc576001600060016101000a81548160ff02191690831515021790555060016000806101000a81548160ff0219169083151502179055505b8160338190555080156102f45760008060016101000a81548160ff0219169083151502179055505b5050565b60008083141561030b576000905061032c565b600082840290508284828161031c57fe5b041461032757600080fd5b809150505b92915050565b600080821161034057600080fd5b600082848161034b57fe5b0490508091505092915050565b600080303b9050600081149150509056fe436f6e747261637420696e7374616e63652068617320616c7265616479206265656e20696e697469616c697a6564a265627a7a7230582089d2dfe98595a9bc575c60df7f85003a4c227294de86a765bedb0cbd0ec5491f64736f6c634300050a0032","compiler":{"name":"solc","version":"0.5.10+commit.5a6ea5b1.Emscripten.clang","optimizer":{"enabled":false,"runs":200},"evmVersion":"constantinople"}}