{
  "contractName": "BigDivMock",
  "abi": [
    {
      "constant": true,
      "inputs": [
        {
          "internalType": "uint256",
          "name": "_numA",
          "type": "uint256"
        },
        {
          "internalType": "uint256",
          "name": "_numB",
          "type": "uint256"
        },
        {
          "internalType": "uint256",
          "name": "_den",
          "type": "uint256"
        }
      ],
      "name": "bigDiv2x1",
      "outputs": [
        {
          "internalType": "uint256",
          "name": "",
          "type": "uint256"
        }
      ],
      "payable": false,
      "stateMutability": "pure",
      "type": "function"
    },
    {
      "constant": true,
      "inputs": [
        {
          "internalType": "uint256",
          "name": "_numA",
          "type": "uint256"
        },
        {
          "internalType": "uint256",
          "name": "_numB",
          "type": "uint256"
        },
        {
          "internalType": "uint256",
          "name": "_den",
          "type": "uint256"
        }
      ],
      "name": "bigDiv2x1RoundUp",
      "outputs": [
        {
          "internalType": "uint256",
          "name": "",
          "type": "uint256"
        }
      ],
      "payable": false,
      "stateMutability": "pure",
      "type": "function"
    },
    {
      "constant": true,
      "inputs": [
        {
          "internalType": "uint256",
          "name": "_numA",
          "type": "uint256"
        },
        {
          "internalType": "uint256",
          "name": "_numB",
          "type": "uint256"
        },
        {
          "internalType": "uint256",
          "name": "_denA",
          "type": "uint256"
        },
        {
          "internalType": "uint256",
          "name": "_denB",
          "type": "uint256"
        }
      ],
      "name": "bigDiv2x2",
      "outputs": [
        {
          "internalType": "uint256",
          "name": "",
          "type": "uint256"
        }
      ],
      "payable": false,
      "stateMutability": "pure",
      "type": "function"
    }
  ],
  "bytecode": "0x608060405234801561001057600080fd5b50610614806100206000396000f3fe608060405234801561001057600080fd5b50600436106100415760003560e01c80632bab744114610046578063600caa5014610087578063a1d52ace146100b0575b600080fd5b6100756004803603608081101561005c57600080fd5b50803590602081013590604081013590606001356100d9565b60408051918252519081900360200190f35b6100756004803603606081101561009d57600080fd5b50803590602081013590604001356100f2565b610075600480360360608110156100c657600080fd5b5080359060208101359060400135610109565b60006100e785858585610116565b90505b949350505050565b60006100ff8484846102df565b90505b9392505050565b60006100ff848484610483565b600081836000198161012457fe5b041061013e5761013785858486026102df565b90506100ea565b841580610149575083155b15610156575060006100ea565b8183818111156101665750839050825b600086886000198161017457fe5b041061019f575086860281818161018757fe5b04905082818161019357fe5b0493506100ea92505050565b8688818111156101af5750889050875b60008483816101ba57fe5b049050630bebc2008111156101e1576101d48183886102df565b96505050505050506100ea565b506fffffffffffffffffffffffffffffffff600019838101829004600190810192848301040190829082908161021357fe5b041061028e57810280848161022457fe5b049450630bebc20085111561028e57610243858463ffffffff6104ce16565b945085858161024e57fe5b04945060008511801561026c575080856000198161026857fe5b0410155b1561028e579384029386858161027e57fe5b0497506100ea9650505050505050565b505070010000000000000000000000000000000085046fffffffffffffffffffffffffffffffff850481026102cf8185816102c557fe5b04846000196102df565b9c9b505050505050505050505050565b60008315806102ec575082155b156102f957506000610102565b600083856000198161030757fe5b0410610324575083830282818161031a57fe5b0491506101029050565b8385818111156103345750859050845b84828161033d57fe5b0492506305f5e1008311156103675761035c838263ffffffff6104ce16565b935061010292505050565b60001981016fffffffffffffffffffffffffffffffff8104600101905060001983016fffffffffffffffffffffffffffffffff810460010190508082600019816103ad57fe5b041061041d57908102908184816103c057fe5b049450630bebc20085111561041d576103df858463ffffffff6104ce16565b94505060001986018181816103f057fe5b04905061040481600163ffffffff61054a16565b905080858161040f57fe5b049550610102945050505050565b60016fffffffffffffffffffffffffffffffff60001985010401915081838161044257fe5b04945050600019860181818161045457fe5b04600101905080848161046357fe5b049050610476858263ffffffff6104ce16565b9998505050505050505050565b6000806104918585856102df565b9050806104a2576001915050610102565b60016305f5e1006000198301040181198111156104c55760001992505050610102565b01949350505050565b6000826104dd57506000610544565b828202828482816104ea57fe5b0414610541576040517f08c379a00000000000000000000000000000000000000000000000000000000081526004018080602001828103825260218152602001806105bf6021913960400191505060405180910390fd5b90505b92915050565b60008282018381101561054157604080517f08c379a000000000000000000000000000000000000000000000000000000000815260206004820152601b60248201527f536166654d6174683a206164646974696f6e206f766572666c6f770000000000604482015290519081900360640190fdfe536166654d6174683a206d756c7469706c69636174696f6e206f766572666c6f77a265627a7a7231582063439bc08f5c0324280934c2b3ad9249e729b44064ff5ffbd1e918a9eb37349164736f6c63430005100032",
  "source": "pragma solidity ^0.5.0;\n\n\nimport \"../math/BigDiv.sol\";\n\n/**\n * @title Used for testing only.\n */\ncontract BigDivMock\n{\n  function bigDiv2x1(\n    uint256 _numA,\n    uint256 _numB,\n    uint256 _den\n  ) public pure\n    returns(uint256)\n  {\n    return BigDiv.bigDiv2x1(_numA, _numB, _den);\n  }\n\n  function bigDiv2x1RoundUp(\n    uint256 _numA,\n    uint256 _numB,\n    uint256 _den\n  ) public pure\n    returns(uint256)\n  {\n    return BigDiv.bigDiv2x1RoundUp(_numA, _numB, _den);\n  }\n\n  function bigDiv2x2(\n    uint256 _numA,\n    uint256 _numB,\n    uint256 _denA,\n    uint256 _denB\n  ) public pure\n    returns (uint256)\n  {\n    return BigDiv.bigDiv2x2(_numA, _numB, _denA, _denB);\n  }\n}\n",
  "sourcePath": "/home/blackjak/Projects/BC-DAPP/contracts/test-artifacts/BigDivMock.sol",
  "compiler": {
    "name": "solc",
    "version": "0.5.16+commit.9c3226ce.Emscripten.clang"
  },
  "schemaVersion": "3.0.23",
  "updatedAt": "2020-04-06T18:13:44.494Z",
  "devdoc": {
    "methods": {},
    "title": "Used for testing only."
  },
  "userdoc": {
    "methods": {}
  }
}