{
  "contractName": "DecentralizedAutonomousTrust",
  "abi": [
    {
      "anonymous": false,
      "inputs": [
        {
          "indexed": true,
          "internalType": "address",
          "name": "owner",
          "type": "address"
        },
        {
          "indexed": true,
          "internalType": "address",
          "name": "spender",
          "type": "address"
        },
        {
          "indexed": false,
          "internalType": "uint256",
          "name": "value",
          "type": "uint256"
        }
      ],
      "name": "Approval",
      "type": "event"
    },
    {
      "anonymous": false,
      "inputs": [
        {
          "indexed": true,
          "internalType": "address",
          "name": "_from",
          "type": "address"
        },
        {
          "indexed": false,
          "internalType": "uint256",
          "name": "_fairValue",
          "type": "uint256"
        }
      ],
      "name": "Burn",
      "type": "event"
    },
    {
      "anonymous": false,
      "inputs": [
        {
          "indexed": true,
          "internalType": "address",
          "name": "_from",
          "type": "address"
        },
        {
          "indexed": true,
          "internalType": "address",
          "name": "_to",
          "type": "address"
        },
        {
          "indexed": false,
          "internalType": "uint256",
          "name": "_currencyValue",
          "type": "uint256"
        },
        {
          "indexed": false,
          "internalType": "uint256",
          "name": "_fairValue",
          "type": "uint256"
        }
      ],
      "name": "Buy",
      "type": "event"
    },
    {
      "anonymous": false,
      "inputs": [
        {
          "indexed": false,
          "internalType": "uint256",
          "name": "_exitFee",
          "type": "uint256"
        }
      ],
      "name": "Close",
      "type": "event"
    },
    {
      "anonymous": false,
      "inputs": [
        {
          "indexed": true,
          "internalType": "address",
          "name": "_from",
          "type": "address"
        },
        {
          "indexed": true,
          "internalType": "address",
          "name": "_to",
          "type": "address"
        },
        {
          "indexed": false,
          "internalType": "uint256",
          "name": "_currencyValue",
          "type": "uint256"
        },
        {
          "indexed": false,
          "internalType": "uint256",
          "name": "_fairValue",
          "type": "uint256"
        }
      ],
      "name": "Pay",
      "type": "event"
    },
    {
      "anonymous": false,
      "inputs": [
        {
          "indexed": true,
          "internalType": "address",
          "name": "_from",
          "type": "address"
        },
        {
          "indexed": true,
          "internalType": "address",
          "name": "_to",
          "type": "address"
        },
        {
          "indexed": false,
          "internalType": "uint256",
          "name": "_currencyValue",
          "type": "uint256"
        },
        {
          "indexed": false,
          "internalType": "uint256",
          "name": "_fairValue",
          "type": "uint256"
        }
      ],
      "name": "Sell",
      "type": "event"
    },
    {
      "anonymous": false,
      "inputs": [
        {
          "indexed": false,
          "internalType": "uint256",
          "name": "_previousState",
          "type": "uint256"
        },
        {
          "indexed": false,
          "internalType": "uint256",
          "name": "_newState",
          "type": "uint256"
        }
      ],
      "name": "StateChange",
      "type": "event"
    },
    {
      "anonymous": false,
      "inputs": [
        {
          "indexed": true,
          "internalType": "address",
          "name": "from",
          "type": "address"
        },
        {
          "indexed": true,
          "internalType": "address",
          "name": "to",
          "type": "address"
        },
        {
          "indexed": false,
          "internalType": "uint256",
          "name": "value",
          "type": "uint256"
        }
      ],
      "name": "Transfer",
      "type": "event"
    },
    {
      "anonymous": false,
      "inputs": [
        {
          "indexed": false,
          "internalType": "address",
          "name": "_whitelistAddress",
          "type": "address"
        },
        {
          "indexed": true,
          "internalType": "address",
          "name": "_beneficiary",
          "type": "address"
        },
        {
          "indexed": true,
          "internalType": "address",
          "name": "_control",
          "type": "address"
        },
        {
          "indexed": true,
          "internalType": "address",
          "name": "_feeCollector",
          "type": "address"
        },
        {
          "indexed": false,
          "internalType": "bool",
          "name": "_autoBurn",
          "type": "bool"
        },
        {
          "indexed": false,
          "internalType": "uint256",
          "name": "_revenueCommitmentBasisPoints",
          "type": "uint256"
        },
        {
          "indexed": false,
          "internalType": "uint256",
          "name": "_feeBasisPoints",
          "type": "uint256"
        },
        {
          "indexed": false,
          "internalType": "uint256",
          "name": "_minInvestment",
          "type": "uint256"
        },
        {
          "indexed": false,
          "internalType": "uint256",
          "name": "_openUntilAtLeast",
          "type": "uint256"
        }
      ],
      "name": "UpdateConfig",
      "type": "event"
    },
    {
      "constant": true,
      "inputs": [],
      "name": "DOMAIN_SEPARATOR",
      "outputs": [
        {
          "internalType": "bytes32",
          "name": "",
          "type": "bytes32"
        }
      ],
      "payable": false,
      "stateMutability": "view",
      "type": "function"
    },
    {
      "constant": true,
      "inputs": [],
      "name": "PERMIT_TYPEHASH",
      "outputs": [
        {
          "internalType": "bytes32",
          "name": "",
          "type": "bytes32"
        }
      ],
      "payable": false,
      "stateMutability": "view",
      "type": "function"
    },
    {
      "constant": true,
      "inputs": [
        {
          "internalType": "address",
          "name": "owner",
          "type": "address"
        },
        {
          "internalType": "address",
          "name": "spender",
          "type": "address"
        }
      ],
      "name": "allowance",
      "outputs": [
        {
          "internalType": "uint256",
          "name": "",
          "type": "uint256"
        }
      ],
      "payable": false,
      "stateMutability": "view",
      "type": "function"
    },
    {
      "constant": false,
      "inputs": [
        {
          "internalType": "address",
          "name": "spender",
          "type": "address"
        },
        {
          "internalType": "uint256",
          "name": "amount",
          "type": "uint256"
        }
      ],
      "name": "approve",
      "outputs": [
        {
          "internalType": "bool",
          "name": "",
          "type": "bool"
        }
      ],
      "payable": false,
      "stateMutability": "nonpayable",
      "type": "function"
    },
    {
      "constant": true,
      "inputs": [],
      "name": "autoBurn",
      "outputs": [
        {
          "internalType": "bool",
          "name": "",
          "type": "bool"
        }
      ],
      "payable": false,
      "stateMutability": "view",
      "type": "function"
    },
    {
      "constant": true,
      "inputs": [
        {
          "internalType": "address",
          "name": "account",
          "type": "address"
        }
      ],
      "name": "balanceOf",
      "outputs": [
        {
          "internalType": "uint256",
          "name": "",
          "type": "uint256"
        }
      ],
      "payable": false,
      "stateMutability": "view",
      "type": "function"
    },
    {
      "constant": true,
      "inputs": [],
      "name": "beneficiary",
      "outputs": [
        {
          "internalType": "address payable",
          "name": "",
          "type": "address"
        }
      ],
      "payable": false,
      "stateMutability": "view",
      "type": "function"
    },
    {
      "constant": true,
      "inputs": [],
      "name": "burnedSupply",
      "outputs": [
        {
          "internalType": "uint256",
          "name": "",
          "type": "uint256"
        }
      ],
      "payable": false,
      "stateMutability": "view",
      "type": "function"
    },
    {
      "constant": true,
      "inputs": [],
      "name": "buySlopeDen",
      "outputs": [
        {
          "internalType": "uint256",
          "name": "",
          "type": "uint256"
        }
      ],
      "payable": false,
      "stateMutability": "view",
      "type": "function"
    },
    {
      "constant": true,
      "inputs": [],
      "name": "buySlopeNum",
      "outputs": [
        {
          "internalType": "uint256",
          "name": "",
          "type": "uint256"
        }
      ],
      "payable": false,
      "stateMutability": "view",
      "type": "function"
    },
    {
      "constant": true,
      "inputs": [],
      "name": "control",
      "outputs": [
        {
          "internalType": "address",
          "name": "",
          "type": "address"
        }
      ],
      "payable": false,
      "stateMutability": "view",
      "type": "function"
    },
    {
      "constant": true,
      "inputs": [],
      "name": "currency",
      "outputs": [
        {
          "internalType": "contract IERC20",
          "name": "",
          "type": "address"
        }
      ],
      "payable": false,
      "stateMutability": "view",
      "type": "function"
    },
    {
      "constant": true,
      "inputs": [],
      "name": "decimals",
      "outputs": [
        {
          "internalType": "uint8",
          "name": "",
          "type": "uint8"
        }
      ],
      "payable": false,
      "stateMutability": "view",
      "type": "function"
    },
    {
      "constant": false,
      "inputs": [
        {
          "internalType": "address",
          "name": "spender",
          "type": "address"
        },
        {
          "internalType": "uint256",
          "name": "subtractedValue",
          "type": "uint256"
        }
      ],
      "name": "decreaseAllowance",
      "outputs": [
        {
          "internalType": "bool",
          "name": "",
          "type": "bool"
        }
      ],
      "payable": false,
      "stateMutability": "nonpayable",
      "type": "function"
    },
    {
      "constant": true,
      "inputs": [],
      "name": "feeBasisPoints",
      "outputs": [
        {
          "internalType": "uint256",
          "name": "",
          "type": "uint256"
        }
      ],
      "payable": false,
      "stateMutability": "view",
      "type": "function"
    },
    {
      "constant": true,
      "inputs": [],
      "name": "feeCollector",
      "outputs": [
        {
          "internalType": "address payable",
          "name": "",
          "type": "address"
        }
      ],
      "payable": false,
      "stateMutability": "view",
      "type": "function"
    },
    {
      "constant": false,
      "inputs": [
        {
          "internalType": "address",
          "name": "spender",
          "type": "address"
        },
        {
          "internalType": "uint256",
          "name": "addedValue",
          "type": "uint256"
        }
      ],
      "name": "increaseAllowance",
      "outputs": [
        {
          "internalType": "bool",
          "name": "",
          "type": "bool"
        }
      ],
      "payable": false,
      "stateMutability": "nonpayable",
      "type": "function"
    },
    {
      "constant": true,
      "inputs": [],
      "name": "initGoal",
      "outputs": [
        {
          "internalType": "uint256",
          "name": "",
          "type": "uint256"
        }
      ],
      "payable": false,
      "stateMutability": "view",
      "type": "function"
    },
    {
      "constant": true,
      "inputs": [
        {
          "internalType": "address",
          "name": "",
          "type": "address"
        }
      ],
      "name": "initInvestors",
      "outputs": [
        {
          "internalType": "uint256",
          "name": "",
          "type": "uint256"
        }
      ],
      "payable": false,
      "stateMutability": "view",
      "type": "function"
    },
    {
      "constant": true,
      "inputs": [],
      "name": "initReserve",
      "outputs": [
        {
          "internalType": "uint256",
          "name": "",
          "type": "uint256"
        }
      ],
      "payable": false,
      "stateMutability": "view",
      "type": "function"
    },
    {
      "constant": true,
      "inputs": [],
      "name": "investmentReserveBasisPoints",
      "outputs": [
        {
          "internalType": "uint256",
          "name": "",
          "type": "uint256"
        }
      ],
      "payable": false,
      "stateMutability": "view",
      "type": "function"
    },
    {
      "constant": true,
      "inputs": [],
      "name": "minInvestment",
      "outputs": [
        {
          "internalType": "uint256",
          "name": "",
          "type": "uint256"
        }
      ],
      "payable": false,
      "stateMutability": "view",
      "type": "function"
    },
    {
      "constant": true,
      "inputs": [],
      "name": "name",
      "outputs": [
        {
          "internalType": "string",
          "name": "",
          "type": "string"
        }
      ],
      "payable": false,
      "stateMutability": "view",
      "type": "function"
    },
    {
      "constant": true,
      "inputs": [
        {
          "internalType": "address",
          "name": "",
          "type": "address"
        }
      ],
      "name": "nonces",
      "outputs": [
        {
          "internalType": "uint256",
          "name": "",
          "type": "uint256"
        }
      ],
      "payable": false,
      "stateMutability": "view",
      "type": "function"
    },
    {
      "constant": true,
      "inputs": [],
      "name": "openUntilAtLeast",
      "outputs": [
        {
          "internalType": "uint256",
          "name": "",
          "type": "uint256"
        }
      ],
      "payable": false,
      "stateMutability": "view",
      "type": "function"
    },
    {
      "constant": true,
      "inputs": [],
      "name": "revenueCommitmentBasisPoints",
      "outputs": [
        {
          "internalType": "uint256",
          "name": "",
          "type": "uint256"
        }
      ],
      "payable": false,
      "stateMutability": "view",
      "type": "function"
    },
    {
      "constant": true,
      "inputs": [],
      "name": "state",
      "outputs": [
        {
          "internalType": "uint256",
          "name": "",
          "type": "uint256"
        }
      ],
      "payable": false,
      "stateMutability": "view",
      "type": "function"
    },
    {
      "constant": true,
      "inputs": [],
      "name": "symbol",
      "outputs": [
        {
          "internalType": "string",
          "name": "",
          "type": "string"
        }
      ],
      "payable": false,
      "stateMutability": "view",
      "type": "function"
    },
    {
      "constant": true,
      "inputs": [],
      "name": "totalSupply",
      "outputs": [
        {
          "internalType": "uint256",
          "name": "",
          "type": "uint256"
        }
      ],
      "payable": false,
      "stateMutability": "view",
      "type": "function"
    },
    {
      "constant": false,
      "inputs": [
        {
          "internalType": "address",
          "name": "recipient",
          "type": "address"
        },
        {
          "internalType": "uint256",
          "name": "amount",
          "type": "uint256"
        }
      ],
      "name": "transfer",
      "outputs": [
        {
          "internalType": "bool",
          "name": "",
          "type": "bool"
        }
      ],
      "payable": false,
      "stateMutability": "nonpayable",
      "type": "function"
    },
    {
      "constant": false,
      "inputs": [
        {
          "internalType": "address",
          "name": "sender",
          "type": "address"
        },
        {
          "internalType": "address",
          "name": "recipient",
          "type": "address"
        },
        {
          "internalType": "uint256",
          "name": "amount",
          "type": "uint256"
        }
      ],
      "name": "transferFrom",
      "outputs": [
        {
          "internalType": "bool",
          "name": "",
          "type": "bool"
        }
      ],
      "payable": false,
      "stateMutability": "nonpayable",
      "type": "function"
    },
    {
      "constant": true,
      "inputs": [],
      "name": "version",
      "outputs": [
        {
          "internalType": "string",
          "name": "",
          "type": "string"
        }
      ],
      "payable": false,
      "stateMutability": "view",
      "type": "function"
    },
    {
      "constant": true,
      "inputs": [],
      "name": "whitelist",
      "outputs": [
        {
          "internalType": "contract IWhitelist",
          "name": "",
          "type": "address"
        }
      ],
      "payable": false,
      "stateMutability": "view",
      "type": "function"
    },
    {
      "constant": true,
      "inputs": [],
      "name": "buybackReserve",
      "outputs": [
        {
          "internalType": "uint256",
          "name": "",
          "type": "uint256"
        }
      ],
      "payable": false,
      "stateMutability": "view",
      "type": "function"
    },
    {
      "constant": false,
      "inputs": [
        {
          "internalType": "uint256",
          "name": "_initReserve",
          "type": "uint256"
        },
        {
          "internalType": "address",
          "name": "_currencyAddress",
          "type": "address"
        },
        {
          "internalType": "uint256",
          "name": "_initGoal",
          "type": "uint256"
        },
        {
          "internalType": "uint256",
          "name": "_buySlopeNum",
          "type": "uint256"
        },
        {
          "internalType": "uint256",
          "name": "_buySlopeDen",
          "type": "uint256"
        },
        {
          "internalType": "uint256",
          "name": "_investmentReserveBasisPoints",
          "type": "uint256"
        },
        {
          "internalType": "string",
          "name": "_name",
          "type": "string"
        },
        {
          "internalType": "string",
          "name": "_symbol",
          "type": "string"
        }
      ],
      "name": "initialize",
      "outputs": [],
      "payable": false,
      "stateMutability": "nonpayable",
      "type": "function"
    },
    {
      "constant": false,
      "inputs": [
        {
          "internalType": "string",
          "name": "name",
          "type": "string"
        },
        {
          "internalType": "string",
          "name": "symbol",
          "type": "string"
        },
        {
          "internalType": "uint8",
          "name": "decimals",
          "type": "uint8"
        }
      ],
      "name": "initialize",
      "outputs": [],
      "payable": false,
      "stateMutability": "nonpayable",
      "type": "function"
    },
    {
      "constant": false,
      "inputs": [],
      "name": "initializePermit",
      "outputs": [],
      "payable": false,
      "stateMutability": "nonpayable",
      "type": "function"
    },
    {
      "constant": false,
      "inputs": [
        {
          "internalType": "address",
          "name": "_whitelistAddress",
          "type": "address"
        },
        {
          "internalType": "address payable",
          "name": "_beneficiary",
          "type": "address"
        },
        {
          "internalType": "address",
          "name": "_control",
          "type": "address"
        },
        {
          "internalType": "address payable",
          "name": "_feeCollector",
          "type": "address"
        },
        {
          "internalType": "uint256",
          "name": "_feeBasisPoints",
          "type": "uint256"
        },
        {
          "internalType": "bool",
          "name": "_autoBurn",
          "type": "bool"
        },
        {
          "internalType": "uint256",
          "name": "_revenueCommitmentBasisPoints",
          "type": "uint256"
        },
        {
          "internalType": "uint256",
          "name": "_minInvestment",
          "type": "uint256"
        },
        {
          "internalType": "uint256",
          "name": "_openUntilAtLeast",
          "type": "uint256"
        }
      ],
      "name": "updateConfig",
      "outputs": [],
      "payable": false,
      "stateMutability": "nonpayable",
      "type": "function"
    },
    {
      "constant": false,
      "inputs": [
        {
          "internalType": "uint256",
          "name": "_amount",
          "type": "uint256"
        }
      ],
      "name": "burn",
      "outputs": [],
      "payable": false,
      "stateMutability": "nonpayable",
      "type": "function"
    },
    {
      "constant": true,
      "inputs": [
        {
          "internalType": "uint256",
          "name": "_currencyValue",
          "type": "uint256"
        }
      ],
      "name": "estimateBuyValue",
      "outputs": [
        {
          "internalType": "uint256",
          "name": "",
          "type": "uint256"
        }
      ],
      "payable": false,
      "stateMutability": "view",
      "type": "function"
    },
    {
      "constant": false,
      "inputs": [
        {
          "internalType": "address",
          "name": "_to",
          "type": "address"
        },
        {
          "internalType": "uint256",
          "name": "_currencyValue",
          "type": "uint256"
        },
        {
          "internalType": "uint256",
          "name": "_minTokensBought",
          "type": "uint256"
        }
      ],
      "name": "buy",
      "outputs": [],
      "payable": true,
      "stateMutability": "payable",
      "type": "function"
    },
    {
      "constant": true,
      "inputs": [
        {
          "internalType": "uint256",
          "name": "_quantityToSell",
          "type": "uint256"
        }
      ],
      "name": "estimateSellValue",
      "outputs": [
        {
          "internalType": "uint256",
          "name": "",
          "type": "uint256"
        }
      ],
      "payable": false,
      "stateMutability": "view",
      "type": "function"
    },
    {
      "constant": false,
      "inputs": [
        {
          "internalType": "address payable",
          "name": "_to",
          "type": "address"
        },
        {
          "internalType": "uint256",
          "name": "_quantityToSell",
          "type": "uint256"
        },
        {
          "internalType": "uint256",
          "name": "_minCurrencyReturned",
          "type": "uint256"
        }
      ],
      "name": "sell",
      "outputs": [],
      "payable": false,
      "stateMutability": "nonpayable",
      "type": "function"
    },
    {
      "constant": true,
      "inputs": [
        {
          "internalType": "uint256",
          "name": "_currencyValue",
          "type": "uint256"
        }
      ],
      "name": "estimatePayValue",
      "outputs": [
        {
          "internalType": "uint256",
          "name": "",
          "type": "uint256"
        }
      ],
      "payable": false,
      "stateMutability": "view",
      "type": "function"
    },
    {
      "constant": false,
      "inputs": [
        {
          "internalType": "address",
          "name": "_to",
          "type": "address"
        },
        {
          "internalType": "uint256",
          "name": "_currencyValue",
          "type": "uint256"
        }
      ],
      "name": "pay",
      "outputs": [],
      "payable": true,
      "stateMutability": "payable",
      "type": "function"
    },
    {
      "constant": true,
      "inputs": [
        {
          "internalType": "uint256",
          "name": "_msgValue",
          "type": "uint256"
        }
      ],
      "name": "estimateExitFee",
      "outputs": [
        {
          "internalType": "uint256",
          "name": "",
          "type": "uint256"
        }
      ],
      "payable": false,
      "stateMutability": "view",
      "type": "function"
    },
    {
      "constant": false,
      "inputs": [],
      "name": "close",
      "outputs": [],
      "payable": true,
      "stateMutability": "payable",
      "type": "function"
    },
    {
      "constant": false,
      "inputs": [
        {
          "internalType": "address",
          "name": "holder",
          "type": "address"
        },
        {
          "internalType": "address",
          "name": "spender",
          "type": "address"
        },
        {
          "internalType": "uint256",
          "name": "nonce",
          "type": "uint256"
        },
        {
          "internalType": "uint256",
          "name": "expiry",
          "type": "uint256"
        },
        {
          "internalType": "bool",
          "name": "allowed",
          "type": "bool"
        },
        {
          "internalType": "uint8",
          "name": "v",
          "type": "uint8"
        },
        {
          "internalType": "bytes32",
          "name": "r",
          "type": "bytes32"
        },
        {
          "internalType": "bytes32",
          "name": "s",
          "type": "bytes32"
        }
      ],
      "name": "permit",
      "outputs": [],
      "payable": false,
      "stateMutability": "nonpayable",
      "type": "function"
    }
  ],
  "bytecode": "0x60806040526143f2806100136000396000f3fe6080604052600436106103135760003560e01c8063736dcb1f1161019a578063a9059cbb116100e1578063c415b95c1161008a578063dd62ed3e11610064578063dd62ed3e14610c93578063e5a6b10f14610cce578063ff90956014610ce357610313565b8063c415b95c14610c54578063d8de658714610c69578063dcf81d1714610c7e57610313565b8063b8606eef116100bb578063b8606eef14610bfe578063c19d93fb14610c13578063c407687614610c2857610313565b8063a9059cbb14610b86578063b12f415314610bbf578063b35d2c1814610be957610313565b806395d89b4111610143578063a59ac6dd1161011d578063a59ac6dd14610b2a578063a63b91f414610b5c578063a71ddd2514610b7157610313565b806395d89b4114610ac75780639df3f4f614610adc578063a457c2d714610af157610313565b80638ac2c680116101745780638ac2c68014610a365780638fcbaf0c14610a4b57806393e59dc114610ab257610313565b8063736dcb1f146109a65780637ecebe00146109d9578063896d170814610a0c57610313565b806338af3eed1161025e57806354fd4d50116102075780636177e37c116101e15780636177e37c1461091f5780636a2724621461093457806370a082311461097357610313565b806354fd4d50146108e057806355d0a1d0146108f557806358439fa51461090a57610313565b8063438f45a311610238578063438f45a31461083f57806343d726d6146108ae5780634f3424df146108b657610313565b806338af3eed146107ab57806339509351146107dc57806342966c681461081557610313565b806326315438116102c0578063313ce5671161029a578063313ce5671461075657806335e5cc31146107815780633644e5151461079657610313565b806326315438146107025780632e872bb31461071757806330adf81f1461074157610313565b806318160ddd116102f157806318160ddd1461053057806321dfb6331461055757806323b872dd146106bf57610313565b806306fdde0314610318578063095ea7b3146103a25780631624f6c6146103ef575b600080fd5b34801561032457600080fd5b5061032d610cf8565b6040805160208082528351818301528351919283929083019185019080838360005b8381101561036757818101518382015260200161034f565b50505050905090810190601f1680156103945780820380516001836020036101000a031916815260200191505b509250505060405180910390f35b3480156103ae57600080fd5b506103db600480360360408110156103c557600080fd5b506001600160a01b038135169060200135610d8f565b604080519115158252519081900360200190f35b3480156103fb57600080fd5b5061052e6004803603606081101561041257600080fd5b81019060208101813564010000000081111561042d57600080fd5b82018360208201111561043f57600080fd5b8035906020019184600183028401116401000000008311171561046157600080fd5b91908080601f01602080910402602001604051908101604052809392919081815260200183838082843760009201919091525092959493602081019350359150506401000000008111156104b457600080fd5b8201836020820111156104c657600080fd5b803590602001918460018302840111640100000000831117156104e857600080fd5b91908080601f0160208091040260200160405190810160405280939291908181526020018383808284376000920191909152509295505050903560ff169150610dad9050565b005b34801561053c57600080fd5b50610545610eff565b60408051918252519081900360200190f35b34801561056357600080fd5b5061052e600480360361010081101561057b57600080fd5b8135916001600160a01b036020820135169160408201359160608101359160808201359160a08101359181019060e0810160c08201356401000000008111156105c357600080fd5b8201836020820111156105d557600080fd5b803590602001918460018302840111640100000000831117156105f757600080fd5b91908080601f016020809104026020016040519081016040528093929190818152602001838380828437600092019190915250929594936020810193503591505064010000000081111561064a57600080fd5b82018360208201111561065c57600080fd5b8035906020019184600183028401116401000000008311171561067e57600080fd5b91908080601f016020809104026020016040519081016040528093929190818152602001838380828437600092019190915250929550610f05945050505050565b3480156106cb57600080fd5b506103db600480360360608110156106e257600080fd5b506001600160a01b038135811691602081013590911690604001356112ba565b34801561070e57600080fd5b50610545611348565b34801561072357600080fd5b506105456004803603602081101561073a57600080fd5b503561134e565b34801561074d57600080fd5b506105456114cb565b34801561076257600080fd5b5061076b6114ef565b6040805160ff9092168252519081900360200190f35b34801561078d57600080fd5b506105456114f8565b3480156107a257600080fd5b506105456114fe565b3480156107b757600080fd5b506107c0611504565b604080516001600160a01b039092168252519081900360200190f35b3480156107e857600080fd5b506103db600480360360408110156107ff57600080fd5b506001600160a01b038135169060200135611518565b34801561082157600080fd5b5061052e6004803603602081101561083857600080fd5b503561156c565b34801561084b57600080fd5b5061052e600480360361012081101561086357600080fd5b506001600160a01b0381358116916020810135821691604082013581169160608101359091169060808101359060a081013515159060c08101359060e081013590610100013561157b565b61052e611ae2565b3480156108c257600080fd5b50610545600480360360208110156108d957600080fd5b5035611cda565b3480156108ec57600080fd5b5061032d611d52565b34801561090157600080fd5b50610545611d8b565b34801561091657600080fd5b50610545611d91565b34801561092b57600080fd5b50610545611d97565b34801561094057600080fd5b5061052e6004803603606081101561095757600080fd5b506001600160a01b038135169060208101359060400135611d9d565b34801561097f57600080fd5b506105456004803603602081101561099657600080fd5b50356001600160a01b0316611f7d565b3480156109b257600080fd5b50610545600480360360208110156109c957600080fd5b50356001600160a01b0316611f98565b3480156109e557600080fd5b50610545600480360360208110156109fc57600080fd5b50356001600160a01b0316611faa565b348015610a1857600080fd5b5061054560048036036020811015610a2f57600080fd5b5035611fbc565b348015610a4257600080fd5b5061054561203d565b348015610a5757600080fd5b5061052e6004803603610100811015610a6f57600080fd5b506001600160a01b038135811691602081013590911690604081013590606081013590608081013515159060ff60a0820135169060c08101359060e00135612043565b348015610abe57600080fd5b506107c0612347565b348015610ad357600080fd5b5061032d612356565b348015610ae857600080fd5b506105456123b7565b348015610afd57600080fd5b506103db60048036036040811015610b1457600080fd5b506001600160a01b0381351690602001356123bd565b61052e60048036036060811015610b4057600080fd5b506001600160a01b03813516906020810135906040013561242b565b348015610b6857600080fd5b506103db61270e565b348015610b7d57600080fd5b50610545612717565b348015610b9257600080fd5b506103db60048036036040811015610ba957600080fd5b506001600160a01b03813516906020013561271d565b348015610bcb57600080fd5b5061054560048036036020811015610be257600080fd5b5035612731565b348015610bf557600080fd5b5061052e612837565b348015610c0a57600080fd5b50610545612903565b348015610c1f57600080fd5b50610545612909565b61052e60048036036040811015610c3e57600080fd5b506001600160a01b03813516906020013561290f565b348015610c6057600080fd5b506107c0612929565b348015610c7557600080fd5b506107c0612938565b348015610c8a57600080fd5b50610545612947565b348015610c9f57600080fd5b5061054560048036036040811015610cb657600080fd5b506001600160a01b038135811691602001351661294d565b348015610cda57600080fd5b506107c0612978565b348015610cef57600080fd5b50610545612987565b60688054604080516020601f6002600019610100600188161502019095169490940493840181900481028201810190925282815260609390929091830182828015610d845780601f10610d5957610100808354040283529160200191610d84565b820191906000526020600020905b815481529060010190602001808311610d6757829003601f168201915b505050505090505b90565b6000610da3610d9c612a66565b8484612a6a565b5060015b92915050565b600054610100900460ff1680610dc65750610dc6612b56565b80610dd4575060005460ff16155b610e0f5760405162461bcd60e51b815260040180806020018281038252602e8152602001806142af602e913960400191505060405180910390fd5b600054610100900460ff16158015610e7557600080547fffffffffffffffffffffffffffffffffffffffffffffffffffffffffffffff007fffffffffffffffffffffffffffffffffffffffffffffffffffffffffffff00ff909116610100171660011790555b8351610e889060689060208701906140b4565b508251610e9c9060699060208601906140b4565b50606a80547fffffffffffffffffffffffffffffffffffffffffffffffffffffffffffffff001660ff84161790558015610ef957600080547fffffffffffffffffffffffffffffffffffffffffffffffffffffffffffff00ff1690555b50505050565b60355490565b60a2546001600160a01b031615610f63576040805162461bcd60e51b815260206004820152601360248201527f414c52454144595f494e495449414c495a454400000000000000000000000000604482015290519081900360640190fd5b610f6f82826012610dad565b85610fbb5760ad54604080519182526001602083015280517f107dddb4541735557564238389eccfc9979bfdde5e57e24e9777b6fe79b4d22f9281900390910190a1600160ad55611025565b6f4b3b4ca85a86c47a098a224000000000861061101f576040805162461bcd60e51b815260206004820152600e60248201527f4558434553534956455f474f414c000000000000000000000000000000000000604482015290519081900360640190fd5b60a68690555b6000851161107a576040805162461bcd60e51b815260206004820152601160248201527f494e56414c49445f534c4f50455f4e554d000000000000000000000000000000604482015290519081900360640190fd5b600084116110cf576040805162461bcd60e51b815260206004820152601160248201527f494e56414c49445f534c4f50455f44454e000000000000000000000000000000604482015290519081900360640190fd5b6fffffffffffffffffffffffffffffffff8510611133576040805162461bcd60e51b815260206004820152601360248201527f4558434553534956455f534c4f50455f4e554d00000000000000000000000000604482015290519081900360640190fd5b6fffffffffffffffffffffffffffffffff8410611197576040805162461bcd60e51b815260206004820152601360248201527f4558434553534956455f534c4f50455f44454e00000000000000000000000000604482015290519081900360640190fd5b60a085905560a18490556127108311156111f8576040805162461bcd60e51b815260206004820152600f60248201527f494e56414c49445f524553455256450000000000000000000000000000000000604482015290519081900360640190fd5b60a983905568056bc75e2d6310000060ab55609f80547fffffffffffffffffffffff0000000000000000000000000000000000000000ff163361010081029190911790915560a280547fffffffffffffffffffffffff0000000000000000000000000000000000000000908116831790915560a48054821690921790915560a380549091166001600160a01b03891617905587156112b05760a8889055609f546112b09061010090046001600160a01b031689612b5c565b5050505050505050565b60006112c7848484612c9d565b61133d846112d3612a66565b61133885604051806060016040528060288152602001614287602891396001600160a01b038a16600090815260346020526040812090611311612a66565b6001600160a01b03168152602081019190915260400160002054919063ffffffff612dd516565b612a6a565b5060015b9392505050565b60a65481565b600060ab54821015611362575060006114c6565b60008060ad54141561144f57826000611379610eff565b9050600061139b60a05460a654028360a85460a654010360a154600202612e6c565b9050808311156113a9578092505b6113bf8360a15460020260a05460a65402612e6c565b93508583146114475760a15481870393506002026113e3818563ffffffff61301016565b60a65460a0549195508002915061140190829063ffffffff61301016565b9050611413848263ffffffff61306916565b905060a054818161142057fe5b04905061142c816130c3565b60a65490039050611443858263ffffffff61306916565b9450505b5050506114c3565b600160ad5414156114b957600060a854609e5461146a610eff565b010390506114808460a15460020260a054612e6c565b91506114948282800263ffffffff61306916565b915061149f826130c3565b91506114b1828263ffffffff61313b16565b9150506114c3565b60009150506114c6565b90505b919050565b7fea2aa0a1be11a07ed86d755c93467f4f82362b452371d1ba94d1715123511acb81565b606a5460ff1690565b60a05481565b60af5481565b609f5461010090046001600160a01b031681565b6000610da3611525612a66565b846113388560346000611536612a66565b6001600160a01b03908116825260208083019390935260409182016000908120918c16815292529020549063ffffffff61306916565b6115783382600061317d565b50565b60a2546001600160a01b031633146115da576040805162461bcd60e51b815260206004820152600c60248201527f434f4e54524f4c5f4f4e4c590000000000000000000000000000000000000000604482015290519081900360640190fd5b609d80547fffffffffffffffffffffffff0000000000000000000000000000000000000000166001600160a01b038b8116919091179091558716611665576040805162461bcd60e51b815260206004820152600f60248201527f494e56414c49445f414444524553530000000000000000000000000000000000604482015290519081900360640190fd5b60a280547fffffffffffffffffffffffff0000000000000000000000000000000000000000166001600160a01b038981169190911790915586166116f0576040805162461bcd60e51b815260206004820152600f60248201527f494e56414c49445f414444524553530000000000000000000000000000000000604482015290519081900360640190fd5b60a480547fffffffffffffffffffffffff0000000000000000000000000000000000000000166001600160a01b038816179055609f80547fffffffffffffffffffffffffffffffffffffffffffffffffffffffffffffff00168515151790556127108311156117a6576040805162461bcd60e51b815260206004820152601260248201527f494e56414c49445f434f4d4d49544d454e540000000000000000000000000000604482015290519081900360640190fd5b60ac548310156117fd576040805162461bcd60e51b815260206004820152601d60248201527f434f4d4d49544d454e545f4d41595f4e4f545f42455f52454455434544000000604482015290519081900360640190fd5b60ac839055612710851115611859576040805162461bcd60e51b815260206004820152600b60248201527f494e56414c49445f464545000000000000000000000000000000000000000000604482015290519081900360640190fd5b60a5859055816118b0576040805162461bcd60e51b815260206004820152601660248201527f494e56414c49445f4d494e5f494e564553544d454e5400000000000000000000604482015290519081900360640190fd5b60ab82905560aa5481101561190c576040805162461bcd60e51b815260206004820152601d60248201527f4f50454e5f554e54494c5f4d41595f4e4f545f42455f52454455434544000000604482015290519081900360640190fd5b60aa819055609f546001600160a01b038981166101009092041614611a6b576001600160a01b038816611986576040805162461bcd60e51b815260206004820152600f60248201527f494e56414c49445f414444524553530000000000000000000000000000000000604482015290519081900360640190fd5b609f546000906119a39061010090046001600160a01b0316611f7d565b609f546001600160a01b036101009091048116600090815260a7602052604080822054928d1682529020549192506119e1919063ffffffff61306916565b6001600160a01b03808b16600090815260a7602052604080822093909355609f5461010090049091168152908120558015611a3257609f54611a329061010090046001600160a01b03168a83612c9d565b50609f80547fffffffffffffffffffffff0000000000000000000000000000000000000000ff166101006001600160a01b038b16021790555b604080516001600160a01b038b811682528615156020830152818301869052606082018890526080820185905260a082018490529151828916928a811692908c16917f64c539ad5ca31b3ba33150837a33d9e038c90023b19e46e187dcf033bbdae5b39181900360c00190a4505050505050505050565b609f5461010090046001600160a01b03163314611b46576040805162461bcd60e51b815260206004820152601060248201527f42454e45464943494152595f4f4e4c5900000000000000000000000000000000604482015290519081900360640190fd5b60ad54600090611b975760ad54604080519182526003602083015280517f107dddb4541735557564238389eccfc9979bfdde5e57e24e9777b6fe79b4d22f9281900390910190a1600360ad55611ca4565b600160ad541415611c57574260aa541115611bf9576040805162461bcd60e51b815260206004820152600960248201527f544f4f5f4541524c590000000000000000000000000000000000000000000000604482015290519081900360640190fd5b611c0234611fbc565b60ad54604080519182526002602083015280519293507f107dddb4541735557564238389eccfc9979bfdde5e57e24e9777b6fe79b4d22f92918290030190a1600260ad55611c52813460016132e4565b611ca4565b6040805162461bcd60e51b815260206004820152600d60248201527f494e56414c49445f535441544500000000000000000000000000000000000000604482015290519081900360640190fd5b6040805182815290517fbf67515a38ee520223d32c1266d52101c30d936ed1f3e436c8caeb0a43cb06bf9181900360200190a150565b600080609e54611ce8610eff565b0190506000611d17611d0860ac546002028661301090919063ffffffff16565b60a15460a05461271002612e6c565b9050611d2b8183800263ffffffff61306916565b9050611d36816130c3565b905081811115611d4857819003611341565b5060009392505050565b6040518060400160405280600181526020017f320000000000000000000000000000000000000000000000000000000000000081525081565b609e5481565b60a15481565b60ac5481565b609f5461010090046001600160a01b031633141580611dbf5750600260ad5410155b611dfa5760405162461bcd60e51b81526004018080602001828103825260288152602001806142dd6028913960400191505060405180910390fd5b60008111611e4f576040805162461bcd60e51b815260206004820152601460248201527f4d5553545f53454c4c5f41545f4c454153545f31000000000000000000000000604482015290519081900360640190fd5b6000611e5a83612731565b905081811015611eb1576040805162461bcd60e51b815260206004820152600e60248201527f50524943455f534c495050414745000000000000000000000000000000000000604482015290519081900360640190fd5b60ad541580611ec25750600360ad54145b15611ef85733600090815260a76020526040902054611ee7908463ffffffff61313b16565b33600090815260a760205260409020555b611f043384600161317d565b6000609e54611f11610eff565b01905060a854811015611f245760a88190555b611f2e85836133f3565b604080518381526020810186905281516001600160a01b0388169233927fa082022e93cfcd9f1da5f9236718053910f7e840da080c789c7845698dc032ff929081900390910190a35050505050565b6001600160a01b031660009081526033602052604090205490565b60a76020526000908152604090205481565b60ae6020526000908152604090205481565b600080600160ad5414156114c3576000611fd4612987565b9050611fe6818563ffffffff61313b16565b90506000611ff2610eff565b90506120078160a054609e540260a154612e6c565b925061201a818260a0540260a154612e6c565b8301925081831161202e5760009250612034565b81830392505b50509050919050565b60ab5481565b60af54604080517fea2aa0a1be11a07ed86d755c93467f4f82362b452371d1ba94d1715123511acb6020808301919091526001600160a01b03808d16838501819052908c166060840152608083018b905260a083018a905288151560c0808501919091528451808503909101815260e0840185528051908301207f190100000000000000000000000000000000000000000000000000000000000061010085015261010284019590955261012280840195909552835180840390950185526101429092019092528251929091019190912090612166576040805162461bcd60e51b815260206004820152601560248201527f4441542f696e76616c69642d616464726573732d300000000000000000000000604482015290519081900360640190fd5b6040805160008152602080820180845284905260ff8716828401526060820186905260808201859052915160019260a08084019391927fffffffffffffffffffffffffffffffffffffffffffffffffffffffffffffffe081019281900390910190855afa1580156121db573d6000803e3d6000fd5b505050602060405103516001600160a01b0316896001600160a01b03161461224a576040805162461bcd60e51b815260206004820152601260248201527f4441542f696e76616c69642d7065726d69740000000000000000000000000000604482015290519081900360640190fd5b8515806122575750854211155b6122a8576040805162461bcd60e51b815260206004820152601260248201527f4441542f7065726d69742d657870697265640000000000000000000000000000604482015290519081900360640190fd5b6001600160a01b038916600090815260ae60205260409020805460018101909155871461231c576040805162461bcd60e51b815260206004820152601160248201527f4441542f696e76616c69642d6e6f6e6365000000000000000000000000000000604482015290519081900360640190fd5b60008561232a57600061232e565b6000195b905061233b8a8a83612a6a565b50505050505050505050565b609d546001600160a01b031681565b60698054604080516020601f6002600019610100600188161502019095169490940493840181900481028201810190925282815260609390929091830182828015610d845780601f10610d5957610100808354040283529160200191610d84565b60a95481565b6000610da36123ca612a66565b846113388560405180606001604052806025815260200161439960259139603460006123f4612a66565b6001600160a01b03908116825260208083019390935260409182016000908120918d1681529252902054919063ffffffff612dd516565b6001600160a01b038316612486576040805162461bcd60e51b815260206004820152600f60248201527f494e56414c49445f414444524553530000000000000000000000000000000000604482015290519081900360640190fd5b600081116124db576040805162461bcd60e51b815260206004820152601360248201527f4d5553545f4255595f41545f4c454153545f3100000000000000000000000000604482015290519081900360640190fd5b60006124e68361134e565b90508181101561253d576040805162461bcd60e51b815260206004820152600e60248201527f50524943455f534c495050414745000000000000000000000000000000000000604482015290519081900360640190fd5b604080518481526020810183905281516001600160a01b0387169233927f89f5adc174562e07c9c9b1cae7109bbecb21cf9d1b2847e550042b8653c54a0e929081900390910190a3612591833460006132e4565b60ad54612672576001600160a01b038416600090815260a76020526040902080548201905560a65460a854826125c5610eff565b01031061266d5760ad54604080519182526001602083015280517f107dddb4541735557564238389eccfc9979bfdde5e57e24e9777b6fe79b4d22f9281900390910190a1600160ad55609f5461010090046001600160a01b0316600090815260a7602052604081205460a65460a05460a15461264993929190910290600202612e6c565b905061266b6126668261265a612987565b9063ffffffff61313b16565b613435565b505b612695565b609f546001600160a01b0385811661010090920416146126955761269583613435565b61269f8482612b5c565b600160ad541480156126c05750609f5461010090046001600160a01b031633145b80156126de5750609f546001600160a01b0385811661010090920416145b80156126ec5750609f5460ff165b15610ef957609f54610ef99061010090046001600160a01b031682600061317d565b609f5460ff1681565b60a85481565b6000610da361272a612a66565b8484612c9d565b60008061273c612987565b90506000600160ad5414156127d3576000609e54612758610eff565b01905061278361276e868563ffffffff61301016565b609e54800261277b610eff565b8485026134b0565b9150600061279a866002860263ffffffff61301016565b90508181816127a557fe5b049283019290506127c86127bf878063ffffffff61301016565b8584850261367b565b830392505050611341565b600260ad541415612808576127ee848363ffffffff61301016565b90506127f8610eff565b818161280057fe5b049050611341565b612818848363ffffffff61301016565b905060a854612825610eff565b03818161282e57fe5b04949350505050565b604051806052614214823960520190506040518091039020612857610cf8565b805160209182012060408051808201909152600181527f32000000000000000000000000000000000000000000000000000000000000009201919091527fad7c5bef027816a800da1736444fb58a807ef4c9603b7848673f7e3a68eb14a56128bd6136c6565b6040805160208082019690965280820194909452606084019290925260808301523060a0808401919091528151808403909101815260c09092019052805191012060af55565b60a55481565b60ad5481565b61291b813460006132e4565b61292582826136ca565b5050565b60a4546001600160a01b031681565b60a2546001600160a01b031681565b60aa5481565b6001600160a01b03918216600090815260346020908152604080832093909416825291909152205490565b60a3546001600160a01b031681565b60a35460009047906001600160a01b031615612a305760a354604080517f70a0823100000000000000000000000000000000000000000000000000000000815230600482015290516001600160a01b03909216916370a0823191602480820192602092909190829003018186803b158015612a0157600080fd5b505afa158015612a15573d6000803e3d6000fd5b505050506040513d6020811015612a2b57600080fd5b505190505b6fffffffffffffffffffffffffffffffff811115612a61576fffffffffffffffffffffffffffffffff915050610d8c565b905090565b3390565b6001600160a01b038316612aaf5760405162461bcd60e51b815260040180806020018281038252602481526020018061434b6024913960400191505060405180910390fd5b6001600160a01b038216612af45760405162461bcd60e51b81526004018080602001828103825260228152602001806141926022913960400191505060405180910390fd5b6001600160a01b03808416600081815260346020908152604080832094871680845294825291829020859055815185815291517f8c5be1e5ebec7d5bd14f71427d1e84f3dd0314c0f7b2291e5b200ac8c7c3b9259281900390910190a3505050565b303b1590565b609d546000908390839083906001600160a01b031615612c0d57609d54604080517f36dffedf0000000000000000000000000000000000000000000000000000000081526001600160a01b0387811660048301528681166024830152604482018690528415156064830152915191909216916336dffedf91608480830192600092919082900301818387803b158015612bf457600080fd5b505af1158015612c08573d6000803e3d6000fd5b505050505b612c1786866138ad565b6f4b3b4ca85a86c47a098a224000000000612c42609e54612c36610eff565b9063ffffffff61306916565b1115612c95576040805162461bcd60e51b815260206004820152601060248201527f4558434553534956455f535550504c5900000000000000000000000000000000604482015290519081900360640190fd5b505050505050565b609d548390839083906000906001600160a01b031615612d4e57609d54604080517f36dffedf0000000000000000000000000000000000000000000000000000000081526001600160a01b0387811660048301528681166024830152604482018690528415156064830152915191909216916336dffedf91608480830192600092919082900301818387803b158015612d3557600080fd5b505af1158015612d49573d6000803e3d6000fd5b505050505b60ad54151580612d705750609f546001600160a01b0388811661010090920416145b612dc1576040805162461bcd60e51b815260206004820152601c60248201527f4f4e4c595f42454e45464943494152595f445552494e475f494e495400000000604482015290519081900360640190fd5b612dcc87878761399f565b50505050505050565b60008184841115612e645760405162461bcd60e51b81526004018080602001828103825283818151815260200191508051906020019080838360005b83811015612e29578181015183820152602001612e11565b50505050905090810190601f168015612e565780820380516001836020036101000a031916815260200191505b509250505060405180910390fd5b505050900390565b6000831580612e79575082155b15612e8657506000611341565b6000838560001981612e9457fe5b0410612eb15750838302828181612ea757fe5b0491506113419050565b838581811115612ec15750859050845b848281612eca57fe5b0492506305f5e100831115612ef457612ee9838263ffffffff61301016565b935061134192505050565b60001981016fffffffffffffffffffffffffffffffff8104600101905060001983016fffffffffffffffffffffffffffffffff81046001019050808260001981612f3a57fe5b0410612faa5790810290818481612f4d57fe5b049450630bebc200851115612faa57612f6c858463ffffffff61301016565b9450506000198601818181612f7d57fe5b049050612f9181600163ffffffff61306916565b9050808581612f9c57fe5b049550611341945050505050565b60016fffffffffffffffffffffffffffffffff600019850104019150818381612fcf57fe5b049450506000198601818181612fe157fe5b046001019050808481612ff057fe5b049050613003858263ffffffff61301016565b9998505050505050505050565b60008261301f57506000610da7565b8282028284828161302c57fe5b04146113415760405162461bcd60e51b81526004018080602001828103825260218152602001806142666021913960400191505060405180910390fd5b600082820183811015611341576040805162461bcd60e51b815260206004820152601b60248201527f536166654d6174683a206164646974696f6e206f766572666c6f770000000000604482015290519081900360640190fd5b6000816130d2575060006114c6565b600382116130e2575060016114c6565b60001982141561310357506fffffffffffffffffffffffffffffffff6114c6565b5080600260018201045b818110156131355780915060028182858161312457fe5b04018161312d57fe5b04905061310d565b50919050565b600061134183836040518060400160405280601e81526020017f536166654d6174683a207375627472616374696f6e206f766572666c6f770000815250612dd5565b609d548390600090849084906001600160a01b03161561322e57609d54604080517f36dffedf0000000000000000000000000000000000000000000000000000000081526001600160a01b0387811660048301528681166024830152604482018690528415156064830152915191909216916336dffedf91608480830192600092919082900301818387803b15801561321557600080fd5b505af1158015613229573d6000803e3d6000fd5b505050505b6132388787613afd565b84612dcc57600160ad5414613294576040805162461bcd60e51b815260206004820152600f60248201527f4f4e4c595f445552494e475f52554e0000000000000000000000000000000000604482015290519081900360640190fd5b609e8054870190556040805187815290516001600160a01b038916917fcc16f5dbb4873280815c1ee09dbd06736cffcc184412cf7a71a0fdb75d397ca5919081900360200190a250505050505050565b60a3546001600160a01b031661337d57801561332457600061330c838563ffffffff61313b16565b9050801561331e5761331e3382613bf9565b50613378565b818314613378576040805162461bcd60e51b815260206004820152601360248201527f494e434f52524543545f4d53475f56414c554500000000000000000000000000604482015290519081900360640190fd5b6133ee565b81156133d0576040805162461bcd60e51b815260206004820152600f60248201527f444f5f4e4f545f53454e445f4554480000000000000000000000000000000000604482015290519081900360640190fd5b60a3546133ee906001600160a01b031633308663ffffffff613cde16565b505050565b80156129255760a3546001600160a01b0316613418576134138282613bf9565b612925565b60a354612925906001600160a01b0316838363ffffffff613d6616565b60a95460009061344b908363ffffffff61301016565b6127109004905061345c828261313b565b9050600061347560a5548361301090919063ffffffff16565b609f54612710909104915061349a9061010090046001600160a01b03168284036133f3565b60a4546133ee906001600160a01b0316826133f3565b60008183600019816134be57fe5b04106134d8576134d18585848602612e6c565b9050613673565b8415806134e3575083155b156134f057506000613673565b8183818111156135005750839050825b600086886000198161350e57fe5b0410613539575086860281818161352157fe5b04905082818161352d57fe5b04935061367392505050565b8688818111156135495750889050875b600084838161355457fe5b049050630bebc20081111561357b5761356e818388612e6c565b9650505050505050613673565b506fffffffffffffffffffffffffffffffff60001983810182900460019081019284830104019082908290816135ad57fe5b04106136285781028084816135be57fe5b049450630bebc200851115613628576135dd858463ffffffff61301016565b94508585816135e857fe5b049450600085118015613606575080856000198161360257fe5b0410155b15613628579384029386858161361857fe5b0497506136739650505050505050565b505070010000000000000000000000000000000085046fffffffffffffffffffffffffffffffff8504810261366981858161365f57fe5b0484600019612e6c565b9750505050505050505b949350505050565b600080613689858585612e6c565b90508061369a576001915050611341565b60016305f5e1006000198301040181198111156136bd5760001992505050611341565b01949350505050565b4690565b6000811161371f576040805162461bcd60e51b815260206004820152601060248201527f4d495353494e475f43555252454e435900000000000000000000000000000000604482015290519081900360640190fd5b600160ad5414613776576040805162461bcd60e51b815260206004820152600d60248201527f494e56414c49445f535441544500000000000000000000000000000000000000604482015290519081900360640190fd5b600061378d60a9548361301090919063ffffffff16565b61271090049050600061379f83611cda565b9050836001600160a01b0381166137c75750609f5461010090046001600160a01b03166137eb565b6137d360008684613de6565b156137eb5750609f5461010090046001600160a01b03165b609f546138089061010090046001600160a01b03168486036133f3565b811561385e576138188183612b5c565b609f546001600160a01b038281166101009092041614801561383c5750609f5460ff165b1561385e57609f5461385e9061010090046001600160a01b031683600061317d565b604080518581526020810184905281516001600160a01b0388169233927f0849372be021f4dce74a8a4cc15fcfaa23fdcfa92ae99fa045f6cdf0c0836436929081900390910190a35050505050565b6001600160a01b038216613908576040805162461bcd60e51b815260206004820152601f60248201527f45524332303a206d696e7420746f20746865207a65726f206164647265737300604482015290519081900360640190fd5b60355461391b908263ffffffff61306916565b6035556001600160a01b038216600090815260336020526040902054613947908263ffffffff61306916565b6001600160a01b03831660008181526033602090815260408083209490945583518581529351929391927fddf252ad1be2c89b69c2b068fc378daa952ba7f163c4a11628f55a4df523b3ef9281900390910190a35050565b6001600160a01b0383166139e45760405162461bcd60e51b81526004018080602001828103825260258152602001806143266025913960400191505060405180910390fd5b6001600160a01b038216613a295760405162461bcd60e51b815260040180806020018281038252602381526020018061414d6023913960400191505060405180910390fd5b613a6c816040518060600160405280602681526020016141b4602691396001600160a01b038616600090815260336020526040902054919063ffffffff612dd516565b6001600160a01b038085166000908152603360205260408082209390935590841681522054613aa1908263ffffffff61306916565b6001600160a01b0380841660008181526033602090815260409182902094909455805185815290519193928716927fddf252ad1be2c89b69c2b068fc378daa952ba7f163c4a11628f55a4df523b3ef92918290030190a3505050565b6001600160a01b038216613b425760405162461bcd60e51b81526004018080602001828103825260218152602001806143056021913960400191505060405180910390fd5b613b8581604051806060016040528060228152602001614170602291396001600160a01b038516600090815260336020526040902054919063ffffffff612dd516565b6001600160a01b038316600090815260336020526040902055603554613bb1908263ffffffff61313b16565b6035556040805182815290516000916001600160a01b038516917fddf252ad1be2c89b69c2b068fc378daa952ba7f163c4a11628f55a4df523b3ef9181900360200190a35050565b80471015613c4e576040805162461bcd60e51b815260206004820152601d60248201527f416464726573733a20696e73756666696369656e742062616c616e6365000000604482015290519081900360640190fd5b6040516000906001600160a01b0384169083908381818185875af1925050503d8060008114613c99576040519150601f19603f3d011682016040523d82523d6000602084013e613c9e565b606091505b50509050806133ee5760405162461bcd60e51b815260040180806020018281038252603a8152602001806141da603a913960400191505060405180910390fd5b604080516001600160a01b0385811660248301528416604482015260648082018490528251808303909101815260849091019091526020810180517bffffffffffffffffffffffffffffffffffffffffffffffffffffffff167f23b872dd00000000000000000000000000000000000000000000000000000000179052610ef9908590613ea5565b604080516001600160a01b038416602482015260448082018490528251808303909101815260649091019091526020810180517bffffffffffffffffffffffffffffffffffffffffffffffffffffffff167fa9059cbb000000000000000000000000000000000000000000000000000000001790526133ee908490613ea5565b609d546000906001600160a01b031615611d4857609d54604080517fd4ce14150000000000000000000000000000000000000000000000000000000081526001600160a01b0387811660048301528681166024830152604482018690529151919092169163d4ce1415916064808301926020929190829003018186803b158015613e6f57600080fd5b505afa158015613e83573d6000803e3d6000fd5b505050506040513d6020811015613e9957600080fd5b505160ff169050611341565b613eb7826001600160a01b031661407b565b613f08576040805162461bcd60e51b815260206004820152601f60248201527f5361666545524332303a2063616c6c20746f206e6f6e2d636f6e747261637400604482015290519081900360640190fd5b60006060836001600160a01b0316836040518082805190602001908083835b60208310613f6457805182527fffffffffffffffffffffffffffffffffffffffffffffffffffffffffffffffe09092019160209182019101613f27565b6001836020036101000a0380198251168184511680821785525050505050509050019150506000604051808303816000865af19150503d8060008114613fc6576040519150601f19603f3d011682016040523d82523d6000602084013e613fcb565b606091505b509150915081614022576040805162461bcd60e51b815260206004820181905260248201527f5361666545524332303a206c6f772d6c6576656c2063616c6c206661696c6564604482015290519081900360640190fd5b805115610ef95780806020019051602081101561403e57600080fd5b5051610ef95760405162461bcd60e51b815260040180806020018281038252602a81526020018061436f602a913960400191505060405180910390fd5b6000813f7fc5d2460186f7233c927e7db2dcc703c0e500b653ca82273b7bfad8045d85a470818114801590613673575050151592915050565b828054600181600116156101000203166002900490600052602060002090601f016020900481019282601f106140f557805160ff1916838001178555614122565b82800160010185558215614122579182015b82811115614122578251825591602001919060010190614107565b5061412e929150614132565b5090565b610d8c91905b8082111561412e576000815560010161413856fe45524332303a207472616e7366657220746f20746865207a65726f206164647265737345524332303a206275726e20616d6f756e7420657863656564732062616c616e636545524332303a20617070726f766520746f20746865207a65726f206164647265737345524332303a207472616e7366657220616d6f756e7420657863656564732062616c616e6365416464726573733a20756e61626c6520746f2073656e642076616c75652c20726563697069656e74206d61792068617665207265766572746564454950373132446f6d61696e28737472696e67206e616d652c737472696e672076657273696f6e2c75696e7432353620636861696e49642c6164647265737320766572696679696e67436f6e747261637429536166654d6174683a206d756c7469706c69636174696f6e206f766572666c6f7745524332303a207472616e7366657220616d6f756e74206578636565647320616c6c6f77616e6365436f6e747261637420696e7374616e63652068617320616c7265616479206265656e20696e697469616c697a656442454e45464943494152595f4f4e4c595f53454c4c5f494e5f434c4f53455f4f525f43414e43454c45524332303a206275726e2066726f6d20746865207a65726f206164647265737345524332303a207472616e736665722066726f6d20746865207a65726f206164647265737345524332303a20617070726f76652066726f6d20746865207a65726f20616464726573735361666545524332303a204552433230206f7065726174696f6e20646964206e6f74207375636365656445524332303a2064656372656173656420616c6c6f77616e63652062656c6f77207a65726fa265627a7a7231582070ebedba821326803b9243b904a13e03e182c8ccf2f29c2a30632ad4fde4339f64736f6c63430005100032",
  "source": "pragma solidity 0.5.16;\n\nimport \"./interfaces/IWhitelist.sol\";\nimport \"./math/BigDiv.sol\";\nimport \"./math/Sqrt.sol\";\nimport \"@openzeppelin/contracts-ethereum-package/contracts/token/ERC20/IERC20.sol\";\nimport \"@openzeppelin/contracts-ethereum-package/contracts/token/ERC20/SafeERC20.sol\";\nimport \"@openzeppelin/contracts-ethereum-package/contracts/token/ERC20/ERC20.sol\";\nimport \"@openzeppelin/contracts-ethereum-package/contracts/token/ERC20/ERC20Detailed.sol\";\nimport \"@openzeppelin/contracts-ethereum-package/contracts/math/SafeMath.sol\";\nimport \"@openzeppelin/contracts-ethereum-package/contracts/utils/Address.sol\";\n\n\n/**\n * @title Decentralized Autonomous Trust\n * This contract is the reference implementation provided by Fairmint for a\n * Decentralized Autonomous Trust as described in the continuous\n * organization whitepaper (https://github.com/c-org/whitepaper) and\n * specified here: https://github.com/fairmint/c-org/wiki. Use at your own\n * risk. If you have question or if you're looking for a ready-to-use\n * solution using this contract, you might be interested in Fairmint's\n * offering. Do not hesitate to get in touch with us: https://fairmint.co\n */\ncontract DecentralizedAutonomousTrust\n  is ERC20, ERC20Detailed\n{\n  using SafeMath for uint;\n  using Sqrt for uint;\n  using SafeERC20 for IERC20;\n\n  /**\n   * Events\n   */\n\n  event Buy(\n    address indexed _from,\n    address indexed _to,\n    uint _currencyValue,\n    uint _fairValue\n  );\n  event Sell(\n    address indexed _from,\n    address indexed _to,\n    uint _currencyValue,\n    uint _fairValue\n  );\n  event Burn(\n    address indexed _from,\n    uint _fairValue\n  );\n  event Pay(\n    address indexed _from,\n    address indexed _to,\n    uint _currencyValue,\n    uint _fairValue\n  );\n  event Close(\n    uint _exitFee\n  );\n  event StateChange(\n    uint _previousState,\n    uint _newState\n  );\n  event UpdateConfig(\n    address _whitelistAddress,\n    address indexed _beneficiary,\n    address indexed _control,\n    address indexed _feeCollector,\n    bool _autoBurn,\n    uint _revenueCommitmentBasisPoints,\n    uint _feeBasisPoints,\n    uint _minInvestment,\n    uint _openUntilAtLeast\n  );\n\n  /**\n   * Constants\n   */\n\n  /// @notice The default state\n  uint private constant STATE_INIT = 0;\n\n  /// @notice The state after initGoal has been reached\n  uint private constant STATE_RUN = 1;\n\n  /// @notice The state after closed by the `beneficiary` account from STATE_RUN\n  uint private constant STATE_CLOSE = 2;\n\n  /// @notice The state after closed by the `beneficiary` account from STATE_INIT\n  uint private constant STATE_CANCEL = 3;\n\n  /// @notice When multiplying 2 terms, the max value is 2^128-1\n  uint private constant MAX_BEFORE_SQUARE = 2**128 - 1;\n\n  /// @notice The denominator component for values specified in basis points.\n  uint private constant BASIS_POINTS_DEN = 10000;\n\n  /// @notice The max `totalSupply() + burnedSupply`\n  /// @dev This limit ensures that the DAT's formulas do not overflow (<MAX_BEFORE_SQUARE/2)\n  uint private constant MAX_SUPPLY = 10 ** 38;\n\n  /**\n   * Data specific to our token business logic\n   */\n\n  /// @notice The contract for transfer authorizations, if any.\n  IWhitelist public whitelist;\n\n  /// @notice The total number of burned FAIR tokens, excluding tokens burned from a `Sell` action in the DAT.\n  uint public burnedSupply;\n\n  /**\n   * Data for DAT business logic\n   */\n\n  /// @notice Set if the FAIRs minted by the organization when it commits its revenues are\n  /// automatically burnt (`true`) or not (`false`). Defaults to `false` meaning that there\n  /// is no automatic burn.\n  bool public autoBurn;\n\n  /// @notice The address of the beneficiary organization which receives the investments.\n  /// Points to the wallet of the organization.\n  address payable public beneficiary;\n\n  /// @notice The buy slope of the bonding curve.\n  /// Does not affect the financial model, only the granularity of FAIR.\n  /// @dev This is the numerator component of the fractional value.\n  uint public buySlopeNum;\n\n  /// @notice The buy slope of the bonding curve.\n  /// Does not affect the financial model, only the granularity of FAIR.\n  /// @dev This is the denominator component of the fractional value.\n  uint public buySlopeDen;\n\n  /// @notice The address from which the updatable variables can be updated\n  address public control;\n\n  /// @notice The address of the token used as reserve in the bonding curve\n  /// (e.g. the DAI contract). Use ETH if 0.\n  IERC20 public currency;\n\n  /// @notice The address where fees are sent.\n  address payable public feeCollector;\n\n  /// @notice The percent fee collected each time new FAIR are issued expressed in basis points.\n  uint public feeBasisPoints;\n\n  /// @notice The initial fundraising goal (expressed in FAIR) to start the c-org.\n  /// `0` means that there is no initial fundraising and the c-org immediately moves to run state.\n  uint public initGoal;\n\n  /// @notice A map with all investors in init state using address as a key and amount as value.\n  /// @dev This structure's purpose is to make sure that only investors can withdraw their money if init_goal is not reached.\n  mapping(address => uint) public initInvestors;\n\n  /// @notice The initial number of FAIR created at initialization for the beneficiary.\n  /// Technically however, this variable is not a constant as we must always have\n  ///`init_reserve>=total_supply+burnt_supply` which means that `init_reserve` will be automatically\n  /// decreased to equal `total_supply+burnt_supply` in case `init_reserve>total_supply+burnt_supply`\n  /// after an investor sells his FAIRs.\n  /// @dev Organizations may move these tokens into vesting contract(s)\n  uint public initReserve;\n\n  /// @notice The investment reserve of the c-org. Defines the percentage of the value invested that is\n  /// automatically funneled and held into the buyback_reserve expressed in basis points.\n  uint public investmentReserveBasisPoints;\n\n  /// @notice The earliest date/time (in seconds) that the DAT may enter the `CLOSE` state, ensuring\n  /// that if the DAT reaches the `RUN` state it will remain running for at least this period of time.\n  /// @dev This value may be increased anytime by the control account\n  uint public openUntilAtLeast;\n\n  /// @notice The minimum amount of `currency` investment accepted.\n  uint public minInvestment;\n\n  /// @notice The revenue commitment of the organization. Defines the percentage of the value paid through the contract\n  /// that is automatically funneled and held into the buyback_reserve expressed in basis points.\n  uint public revenueCommitmentBasisPoints;\n\n  /// @notice The current state of the contract.\n  /// @dev See the constants above for possible state values.\n  uint public state;\n\n  string public constant version = \"2\";\n  // --- EIP712 niceties ---\n  // Original source: https://etherscan.io/address/0x6b175474e89094c44da98b954eedeac495271d0f#code\n  mapping (address => uint) public nonces;\n  bytes32 public DOMAIN_SEPARATOR;\n  // bytes32 public constant PERMIT_TYPEHASH = keccak256(\"Permit(address holder,address spender,uint256 nonce,uint256 expiry,bool allowed)\");\n  bytes32 public constant PERMIT_TYPEHASH = 0xea2aa0a1be11a07ed86d755c93467f4f82362b452371d1ba94d1715123511acb;\n\n  modifier authorizeTransfer(\n    address _from,\n    address _to,\n    uint _value,\n    bool _isSell\n  )\n  {\n    if(address(whitelist) != address(0))\n    {\n      // This is not set for the minting of initialReserve\n      whitelist.authorizeTransfer(_from, _to, _value, _isSell);\n    }\n    _;\n  }\n\n  /**\n   * Buyback reserve\n   */\n\n  /// @notice The total amount of currency value currently locked in the contract and available to sellers.\n  function buybackReserve() public view returns (uint)\n  {\n    uint reserve = address(this).balance;\n    if(address(currency) != address(0))\n    {\n      reserve = currency.balanceOf(address(this));\n    }\n\n    if(reserve > MAX_BEFORE_SQUARE)\n    {\n      /// Math: If the reserve becomes excessive, cap the value to prevent overflowing in other formulas\n      return MAX_BEFORE_SQUARE;\n    }\n\n    return reserve;\n  }\n\n  /**\n   * Functions required for the whitelist\n   */\n\n  function _detectTransferRestriction(\n    address _from,\n    address _to,\n    uint _value\n  ) private view\n    returns (uint)\n  {\n    if(address(whitelist) != address(0))\n    {\n      // This is not set for the minting of initialReserve\n      return whitelist.detectTransferRestriction(_from, _to, _value);\n    }\n\n    return 0;\n  }\n\n  /**\n   * Functions required by the ERC-20 token standard\n   */\n\n  /// @dev Moves tokens from one account to another if authorized.\n  function _transfer(\n    address _from,\n    address _to,\n    uint _amount\n  ) internal\n    authorizeTransfer(_from, _to, _amount, false)\n  {\n    require(state != STATE_INIT || _from == beneficiary, \"ONLY_BENEFICIARY_DURING_INIT\");\n    super._transfer(_from, _to, _amount);\n  }\n\n  /// @dev Removes tokens from the circulating supply.\n  function _burn(\n    address _from,\n    uint _amount,\n    bool _isSell\n  ) internal\n    authorizeTransfer(_from, address(0), _amount, _isSell)\n  {\n    super._burn(_from, _amount);\n\n    if(!_isSell)\n    {\n      // This is a burn\n      require(state == STATE_RUN, \"ONLY_DURING_RUN\");\n      // SafeMath not required as we cap how high this value may get during mint\n      burnedSupply += _amount;\n      emit Burn(_from, _amount);\n    }\n  }\n\n  /// @notice Called to mint tokens on `buy`.\n  function _mint(\n    address _to,\n    uint _quantity\n  ) internal\n    authorizeTransfer(address(0), _to, _quantity, false)\n  {\n    super._mint(_to, _quantity);\n\n    // Math: If this value got too large, the DAT may overflow on sell\n    require(totalSupply().add(burnedSupply) <= MAX_SUPPLY, \"EXCESSIVE_SUPPLY\");\n  }\n\n  /**\n   * Transaction Helpers\n   */\n\n  /// @notice Confirms the transfer of `_quantityToInvest` currency to the contract.\n  function _collectInvestment(\n    uint _quantityToInvest,\n    uint _msgValue,\n    bool _refundRemainder\n  ) private\n  {\n    if(address(currency) == address(0))\n    {\n      // currency is ETH\n      if(_refundRemainder)\n      {\n        // Math: if _msgValue was not sufficient then revert\n        uint refund = _msgValue.sub(_quantityToInvest);\n        if(refund > 0)\n        {\n          Address.sendValue(msg.sender, refund);\n        }\n      }\n      else\n      {\n        require(_quantityToInvest == _msgValue, \"INCORRECT_MSG_VALUE\");\n      }\n    }\n    else\n    {\n      // currency is ERC20\n      require(_msgValue == 0, \"DO_NOT_SEND_ETH\");\n\n      currency.safeTransferFrom(msg.sender, address(this), _quantityToInvest);\n    }\n  }\n\n  /// @dev Send `_amount` currency from the contract to the `_to` account.\n  function _transferCurrency(\n    address payable _to,\n    uint _amount\n  ) private\n  {\n    if(_amount > 0)\n    {\n      if(address(currency) == address(0))\n      {\n        Address.sendValue(_to, _amount);\n      }\n      else\n      {\n        currency.safeTransfer(_to, _amount);\n      }\n    }\n  }\n\n  /**\n   * Config / Control\n   */\n\n  /// @notice Called once after deploy to set the initial configuration.\n  /// None of the values provided here may change once initially set.\n  /// @dev using the init pattern in order to support zos upgrades\n  function initialize(\n    uint _initReserve,\n    address _currencyAddress,\n    uint _initGoal,\n    uint _buySlopeNum,\n    uint _buySlopeDen,\n    uint _investmentReserveBasisPoints,\n    string memory _name,\n    string memory _symbol\n  ) public\n  {\n    require(control == address(0), \"ALREADY_INITIALIZED\");\n\n    ERC20Detailed.initialize(_name, _symbol, 18);\n\n    // Set initGoal, which in turn defines the initial state\n    if(_initGoal == 0)\n    {\n      emit StateChange(state, STATE_RUN);\n      state = STATE_RUN;\n    }\n    else\n    {\n      // Math: If this value got too large, the DAT would overflow on sell\n      require(_initGoal < MAX_SUPPLY, \"EXCESSIVE_GOAL\");\n      initGoal = _initGoal;\n    }\n\n    require(_buySlopeNum > 0, \"INVALID_SLOPE_NUM\");\n    require(_buySlopeDen > 0, \"INVALID_SLOPE_DEN\");\n    require(_buySlopeNum < MAX_BEFORE_SQUARE, \"EXCESSIVE_SLOPE_NUM\");\n    require(_buySlopeDen < MAX_BEFORE_SQUARE, \"EXCESSIVE_SLOPE_DEN\");\n    buySlopeNum = _buySlopeNum;\n    buySlopeDen = _buySlopeDen;\n    // 100% or less\n    require(_investmentReserveBasisPoints <= BASIS_POINTS_DEN, \"INVALID_RESERVE\");\n    investmentReserveBasisPoints = _investmentReserveBasisPoints;\n\n    // Set default values (which may be updated using `updateConfig`)\n    minInvestment = 100 ether;\n    beneficiary = msg.sender;\n    control = msg.sender;\n    feeCollector = msg.sender;\n\n    // Save currency\n    currency = IERC20(_currencyAddress);\n\n    // Mint the initial reserve\n    if(_initReserve > 0)\n    {\n      initReserve = _initReserve;\n      _mint(beneficiary, initReserve);\n    }\n  }\n  function getChainId(\n  ) private pure\n    returns (uint id)\n  {\n    // solium-disable-next-line\n    assembly\n    {\n      id := chainid()\n    }\n  }\n\n  function initializePermit(\n  ) public\n  {\n    DOMAIN_SEPARATOR = keccak256(\n      abi.encode(\n        keccak256(\"EIP712Domain(string name,string version,uint256 chainId,address verifyingContract)\"),\n        keccak256(bytes(name())),\n        keccak256(bytes(version)),\n        getChainId(),\n        address(this)\n      )\n    );\n  }\n\n  function updateConfig(\n    address _whitelistAddress,\n    address payable _beneficiary,\n    address _control,\n    address payable _feeCollector,\n    uint _feeBasisPoints,\n    bool _autoBurn,\n    uint _revenueCommitmentBasisPoints,\n    uint _minInvestment,\n    uint _openUntilAtLeast\n  ) public\n  {\n    // This require(also confirms that initialize has been called.\n    require(msg.sender == control, \"CONTROL_ONLY\");\n\n    // address(0) is okay\n    whitelist = IWhitelist(_whitelistAddress);\n\n    require(_control != address(0), \"INVALID_ADDRESS\");\n    control = _control;\n\n    require(_feeCollector != address(0), \"INVALID_ADDRESS\");\n    feeCollector = _feeCollector;\n\n    autoBurn = _autoBurn;\n\n    require(_revenueCommitmentBasisPoints <= BASIS_POINTS_DEN, \"INVALID_COMMITMENT\");\n    require(_revenueCommitmentBasisPoints >= revenueCommitmentBasisPoints, \"COMMITMENT_MAY_NOT_BE_REDUCED\");\n    revenueCommitmentBasisPoints = _revenueCommitmentBasisPoints;\n\n    require(_feeBasisPoints <= BASIS_POINTS_DEN, \"INVALID_FEE\");\n    feeBasisPoints = _feeBasisPoints;\n\n    require(_minInvestment > 0, \"INVALID_MIN_INVESTMENT\");\n    minInvestment = _minInvestment;\n\n    require(_openUntilAtLeast >= openUntilAtLeast, \"OPEN_UNTIL_MAY_NOT_BE_REDUCED\");\n    openUntilAtLeast = _openUntilAtLeast;\n\n    if(beneficiary != _beneficiary)\n    {\n      require(_beneficiary != address(0), \"INVALID_ADDRESS\");\n      uint tokens = balanceOf(beneficiary);\n      initInvestors[_beneficiary] = initInvestors[_beneficiary].add(initInvestors[beneficiary]);\n      initInvestors[beneficiary] = 0;\n      if(tokens > 0)\n      {\n        _transfer(beneficiary, _beneficiary, tokens);\n      }\n      beneficiary = _beneficiary;\n    }\n\n    emit UpdateConfig(\n      _whitelistAddress,\n      _beneficiary,\n      _control,\n      _feeCollector,\n      _autoBurn,\n      _revenueCommitmentBasisPoints,\n      _feeBasisPoints,\n      _minInvestment,\n      _openUntilAtLeast\n    );\n  }\n\n  /**\n   * Functions for our business logic\n   */\n\n  /// @notice Burn the amount of tokens from the address msg.sender if authorized.\n  /// @dev Note that this is not the same as a `sell` via the DAT.\n  function burn(\n    uint _amount\n  ) public\n  {\n    _burn(msg.sender, _amount, false);\n  }\n\n  // Buy\n\n  /// @dev Distributes _value currency between the buybackReserve, beneficiary, and feeCollector.\n  function _distributeInvestment(\n    uint _value\n  ) private\n  {\n    // Rounding favors buybackReserve, then beneficiary, and feeCollector is last priority.\n\n    // Math: if investment value is < (2^256 - 1) / 10000 this will never overflow.\n    // Except maybe with a huge single investment, but they can try again with multiple smaller investments.\n    uint reserve = investmentReserveBasisPoints.mul(_value);\n    reserve /= BASIS_POINTS_DEN;\n    reserve = _value.sub(reserve);\n    uint fee = reserve.mul(feeBasisPoints);\n    fee /= BASIS_POINTS_DEN;\n\n    // Math: since feeBasisPoints is <= BASIS_POINTS_DEN, this will never underflow.\n    _transferCurrency(beneficiary, reserve - fee);\n    _transferCurrency(feeCollector, fee);\n  }\n\n  /// @notice Calculate how many FAIR tokens you would buy with the given amount of currency if `buy` was called now.\n  /// @param _currencyValue How much currency to spend in order to buy FAIR.\n  function estimateBuyValue(\n    uint _currencyValue\n  ) public view\n    returns (uint)\n  {\n    if(_currencyValue < minInvestment)\n    {\n      return 0;\n    }\n\n    /// Calculate the tokenValue for this investment\n    uint tokenValue;\n    if(state == STATE_INIT)\n    {\n      uint currencyValue = _currencyValue;\n      uint _totalSupply = totalSupply();\n      // (buy_slope*init_goal)*(init_goal+init_reserve-total_supply)/2\n      // n/d: buy_slope (MAX_BEFORE_SQUARE / MAX_BEFORE_SQUARE)\n      // g: init_goal (MAX_BEFORE_SQUARE/2)\n      // t: total_supply (MAX_BEFORE_SQUARE/2)\n      // r: init_reserve (MAX_BEFORE_SQUARE/2)\n      // source: ((n/d)*g)*(g+r-t)/2\n      // impl: (g n (g + r - t))/(2 d)\n      uint max = BigDiv.bigDiv2x1(\n        initGoal * buySlopeNum,\n        initGoal + initReserve - _totalSupply,\n        2 * buySlopeDen\n      );\n      if(currencyValue > max)\n      {\n        currencyValue = max;\n      }\n      // Math: worst case\n      // MAX * 2 * MAX_BEFORE_SQUARE\n      // / MAX_BEFORE_SQUARE * MAX_BEFORE_SQUARE\n      tokenValue = BigDiv.bigDiv2x1(\n        currencyValue,\n        2 * buySlopeDen,\n        initGoal * buySlopeNum\n      );\n\n      if(currencyValue != _currencyValue)\n      {\n        currencyValue = _currencyValue - max;\n        // ((2*next_amount/buy_slope)+init_goal^2)^(1/2)-init_goal\n        // a: next_amount | currencyValue\n        // n/d: buy_slope (MAX_BEFORE_SQUARE / MAX_BEFORE_SQUARE)\n        // g: init_goal (MAX_BEFORE_SQUARE/2)\n        // r: init_reserve (MAX_BEFORE_SQUARE/2)\n        // sqrt(((2*a/(n/d))+g^2)-g\n        // sqrt((2 d a + n g^2)/n) - g\n\n        // currencyValue == 2 d a\n        uint temp = 2 * buySlopeDen;\n        currencyValue = temp.mul(currencyValue);\n\n        // temp == g^2\n        temp = initGoal;\n        temp *= temp;\n\n        // temp == n g^2\n        temp = temp.mul(buySlopeNum);\n\n        // temp == (2 d a) + n g^2\n        temp = currencyValue.add(temp);\n\n        // temp == (2 d a + n g^2)/n\n        temp /= buySlopeNum;\n\n        // temp == sqrt((2 d a + n g^2)/n)\n        temp = temp.sqrt();\n\n        // temp == sqrt((2 d a + n g^2)/n) - g\n        temp -= initGoal;\n\n        tokenValue = tokenValue.add(temp);\n      }\n    }\n    else if(state == STATE_RUN)\n    {\n      // initReserve is reduced on sell as necessary to ensure that this line will not overflow\n      uint supply = totalSupply() + burnedSupply - initReserve;\n      // Math: worst case\n      // MAX * 2 * MAX_BEFORE_SQUARE\n      // / MAX_BEFORE_SQUARE\n      tokenValue = BigDiv.bigDiv2x1(\n        _currencyValue,\n        2 * buySlopeDen,\n        buySlopeNum\n      );\n\n      // Math: worst case MAX + (MAX_BEFORE_SQUARE * MAX_BEFORE_SQUARE)\n      tokenValue = tokenValue.add(supply * supply);\n      tokenValue = tokenValue.sqrt();\n\n      // Math: small chance of underflow due to possible rounding in sqrt\n      tokenValue = tokenValue.sub(supply);\n    }\n    else\n    {\n      // invalid state\n      return 0;\n    }\n\n    return tokenValue;\n  }\n\n  /// @notice Purchase FAIR tokens with the given amount of currency.\n  /// @param _to The account to receive the FAIR tokens from this purchase.\n  /// @param _currencyValue How much currency to spend in order to buy FAIR.\n  /// @param _minTokensBought Buy at least this many FAIR tokens or the transaction reverts.\n  /// @dev _minTokensBought is necessary as the price will change if some elses transaction mines after\n  /// yours was submitted.\n  function buy(\n    address _to,\n    uint _currencyValue,\n    uint _minTokensBought\n  ) public payable\n  {\n    require(_to != address(0), \"INVALID_ADDRESS\");\n    require(_minTokensBought > 0, \"MUST_BUY_AT_LEAST_1\");\n\n    // Calculate the tokenValue for this investment\n    uint tokenValue = estimateBuyValue(_currencyValue);\n    require(tokenValue >= _minTokensBought, \"PRICE_SLIPPAGE\");\n\n    emit Buy(msg.sender, _to, _currencyValue, tokenValue);\n\n    _collectInvestment(_currencyValue, msg.value, false);\n\n    // Update state, initInvestors, and distribute the investment when appropriate\n    if(state == STATE_INIT)\n    {\n      // Math worst case: MAX_BEFORE_SQUARE\n      initInvestors[_to] += tokenValue;\n      // Math worst case:\n      // MAX_BEFORE_SQUARE + MAX_BEFORE_SQUARE\n      if(totalSupply() + tokenValue - initReserve >= initGoal)\n      {\n        emit StateChange(state, STATE_RUN);\n        state = STATE_RUN;\n        // Math worst case:\n        // MAX_BEFORE_SQUARE * MAX_BEFORE_SQUARE * MAX_BEFORE_SQUARE/2\n        // / MAX_BEFORE_SQUARE * 2\n        uint beneficiaryContribution = BigDiv.bigDiv2x1(\n          initInvestors[beneficiary],\n          buySlopeNum * initGoal,\n          buySlopeDen * 2\n        );\n        _distributeInvestment(buybackReserve().sub(beneficiaryContribution));\n      }\n    }\n    else // implied: if(state == STATE_RUN)\n    {\n      if(_to != beneficiary)\n      {\n        _distributeInvestment(_currencyValue);\n      }\n    }\n\n    _mint(_to, tokenValue);\n\n    if(state == STATE_RUN && msg.sender == beneficiary && _to == beneficiary && autoBurn)\n    {\n      // must mint before this call\n      _burn(beneficiary, tokenValue, false);\n    }\n  }\n\n  /// Sell\n\n  function estimateSellValue(\n    uint _quantityToSell\n  ) public view\n    returns(uint)\n  {\n    uint reserve = buybackReserve();\n\n    // Calculate currencyValue for this sale\n    uint currencyValue;\n    if(state == STATE_RUN)\n    {\n      uint supply = totalSupply() + burnedSupply;\n\n      // buyback_reserve = r\n      // total_supply = t\n      // burnt_supply = b\n      // amount = a\n      // source: (t+b)*a*(2*r)/((t+b)^2)-(((2*r)/((t+b)^2)*a^2)/2)+((2*r)/((t+b)^2)*a*b^2)/(2*(t))\n      // imp: (a b^2 r)/(t (b + t)^2) + (2 a r)/(b + t) - (a^2 r)/(b + t)^2\n\n      // Math: burnedSupply is capped in FAIR such that the square will never overflow\n      // Math worst case:\n      // MAX * MAX_BEFORE_SQUARE * MAX_BEFORE_SQUARE/2 * MAX_BEFORE_SQUARE/2\n      // / MAX_BEFORE_SQUARE/2 * MAX_BEFORE_SQUARE/2 * MAX_BEFORE_SQUARE/2\n      currencyValue = BigDiv.bigDiv2x2(\n        _quantityToSell.mul(reserve),\n        burnedSupply * burnedSupply,\n        totalSupply(), supply * supply\n      );\n      // Math: worst case currencyValue is MAX_BEFORE_SQUARE (max reserve, 1 supply)\n\n      // Math worst case:\n      // MAX * 2 * MAX_BEFORE_SQUARE\n      uint temp = _quantityToSell.mul(2 * reserve);\n      temp /= supply;\n      // Math: worst-case temp is MAX_BEFORE_SQUARE (max reserve, 1 supply)\n\n      // Math: considering the worst-case for currencyValue and temp, this can never overflow\n      currencyValue += temp;\n\n      // Math: worst case\n      // MAX * MAX * MAX_BEFORE_SQUARE\n      // / MAX_BEFORE_SQUARE/2 * MAX_BEFORE_SQUARE/2\n      currencyValue -= BigDiv.bigDiv2x1RoundUp(\n        _quantityToSell.mul(_quantityToSell),\n        reserve,\n        supply * supply\n      );\n    }\n    else if(state == STATE_CLOSE)\n    {\n      // Math worst case\n      // MAX * MAX_BEFORE_SQUARE\n      currencyValue = _quantityToSell.mul(reserve);\n      currencyValue /= totalSupply();\n    }\n    else\n    {\n      // STATE_INIT or STATE_CANCEL\n      // Math worst case:\n      // MAX * MAX_BEFORE_SQUARE\n      currencyValue = _quantityToSell.mul(reserve);\n      // Math: FAIR blocks initReserve from being burned unless we reach the RUN state which prevents an underflow\n      currencyValue /= totalSupply() - initReserve;\n    }\n\n    return currencyValue;\n  }\n\n  /// @notice Sell FAIR tokens for at least the given amount of currency.\n  /// @param _to The account to receive the currency from this sale.\n  /// @param _quantityToSell How many FAIR tokens to sell for currency value.\n  /// @param _minCurrencyReturned Get at least this many currency tokens or the transaction reverts.\n  /// @dev _minCurrencyReturned is necessary as the price will change if some elses transaction mines after\n  /// yours was submitted.\n  function sell(\n    address payable _to,\n    uint _quantityToSell,\n    uint _minCurrencyReturned\n  ) public\n  {\n    require(msg.sender != beneficiary || state >= STATE_CLOSE, \"BENEFICIARY_ONLY_SELL_IN_CLOSE_OR_CANCEL\");\n    require(_minCurrencyReturned > 0, \"MUST_SELL_AT_LEAST_1\");\n\n    uint currencyValue = estimateSellValue(_quantityToSell);\n    require(currencyValue >= _minCurrencyReturned, \"PRICE_SLIPPAGE\");\n\n    if(state == STATE_INIT || state == STATE_CANCEL)\n    {\n      initInvestors[msg.sender] = initInvestors[msg.sender].sub(_quantityToSell);\n    }\n\n    _burn(msg.sender, _quantityToSell, true);\n    uint supply = totalSupply() + burnedSupply;\n    if(supply < initReserve)\n    {\n      initReserve = supply;\n    }\n\n    _transferCurrency(_to, currencyValue);\n    emit Sell(msg.sender, _to, currencyValue, _quantityToSell);\n  }\n\n  /// Pay\n\n  function estimatePayValue(\n    uint _currencyValue\n  ) public view\n    returns (uint)\n  {\n    // buy_slope = n/d\n    // revenue_commitment = c/g\n    // sqrt(\n    //  (2 a c d)\n    //  /\n    //  (g n)\n    //  + s^2\n    // ) - s\n\n    uint supply = totalSupply() + burnedSupply;\n\n    // Math: worst case\n    // MAX * 2 * 10000 * MAX_BEFORE_SQUARE\n    // / 10000 * MAX_BEFORE_SQUARE\n    uint tokenValue = BigDiv.bigDiv2x1(\n      _currencyValue.mul(2 * revenueCommitmentBasisPoints),\n      buySlopeDen,\n      BASIS_POINTS_DEN * buySlopeNum\n    );\n\n    tokenValue = tokenValue.add(supply * supply);\n    tokenValue = tokenValue.sqrt();\n\n    if(tokenValue > supply)\n    {\n      tokenValue -= supply;\n    }\n    else\n    {\n      tokenValue = 0;\n    }\n\n    return tokenValue;\n  }\n\n  /// @dev Pay the organization on-chain.\n  /// @param _to The account which receives tokens for the contribution.\n  /// @param _currencyValue How much currency which was paid.\n  function _pay(\n    address _to,\n    uint _currencyValue\n  ) private\n  {\n    require(_currencyValue > 0, \"MISSING_CURRENCY\");\n    require(state == STATE_RUN, \"INVALID_STATE\");\n\n    // Send a portion of the funds to the beneficiary, the rest is added to the buybackReserve\n    // Math: if _currencyValue is < (2^256 - 1) / 10000 this will not overflow\n    uint reserve = _currencyValue.mul(investmentReserveBasisPoints);\n    reserve /= BASIS_POINTS_DEN;\n\n    uint tokenValue = estimatePayValue(_currencyValue);\n\n    // Update the to address to the beneficiary if the currency value would fail\n    address to = _to;\n    if(to == address(0))\n    {\n      to = beneficiary;\n    }\n    else if(_detectTransferRestriction(address(0), _to, tokenValue) != 0)\n    {\n      to = beneficiary;\n    }\n\n    // Math: this will never underflow since investmentReserveBasisPoints is capped to BASIS_POINTS_DEN\n    _transferCurrency(beneficiary, _currencyValue - reserve);\n\n    // Distribute tokens\n    if(tokenValue > 0)\n    {\n      _mint(to, tokenValue);\n      if(to == beneficiary && autoBurn)\n      {\n        // must mint before this call\n        _burn(beneficiary, tokenValue, false);\n      }\n    }\n\n    emit Pay(msg.sender, _to, _currencyValue, tokenValue);\n  }\n\n  /// @dev Pay the organization on-chain.\n  /// @param _to The account which receives tokens for the contribution. If this address\n  /// is not authorized to receive tokens then they will be sent to the beneficiary account instead.\n  /// @param _currencyValue How much currency which was paid.\n  function pay(\n    address _to,\n    uint _currencyValue\n  ) public payable\n  {\n    _collectInvestment(_currencyValue, msg.value, false);\n    _pay(_to, _currencyValue);\n  }\n\n  /// Close\n\n  function estimateExitFee(\n    uint _msgValue\n  ) public view\n    returns(uint)\n  {\n    uint exitFee;\n\n    if(state == STATE_RUN)\n    {\n      uint reserve = buybackReserve();\n      reserve = reserve.sub(_msgValue);\n\n      // Source: t*(t+b)*(n/d)-r\n      // Implementation: (b n t)/d + (n t^2)/d - r\n\n      uint _totalSupply = totalSupply();\n\n      // Math worst case:\n      // MAX_BEFORE_SQUARE * MAX_BEFORE_SQUARE/2 * MAX_BEFORE_SQUARE\n      exitFee = BigDiv.bigDiv2x1(\n        _totalSupply,\n        burnedSupply * buySlopeNum,\n        buySlopeDen\n      );\n      // Math worst case:\n      // MAX_BEFORE_SQUARE * MAX_BEFORE_SQUARE * MAX_BEFORE_SQUARE\n      exitFee += BigDiv.bigDiv2x1(\n        _totalSupply,\n        buySlopeNum * _totalSupply,\n        buySlopeDen\n      );\n      // Math: this if condition avoids a potential overflow\n      if(exitFee <= reserve)\n      {\n        exitFee = 0;\n      }\n      else\n      {\n        exitFee -= reserve;\n      }\n    }\n\n    return exitFee;\n  }\n\n  /// @notice Called by the beneficiary account to STATE_CLOSE or STATE_CANCEL the c-org,\n  /// preventing any more tokens from being minted.\n  /// @dev Requires an `exitFee` to be paid.  If the currency is ETH, include a little more than\n  /// what appears to be required and any remainder will be returned to your account.  This is\n  /// because another user may have a transaction mined which changes the exitFee required.\n  /// For other `currency` types, the beneficiary account will be billed the exact amount required.\n  function close() public payable\n  {\n    require(msg.sender == beneficiary, \"BENEFICIARY_ONLY\");\n\n    uint exitFee = 0;\n\n    if(state == STATE_INIT)\n    {\n      // Allow the org to cancel anytime if the initGoal was not reached.\n      emit StateChange(state, STATE_CANCEL);\n      state = STATE_CANCEL;\n    }\n    else if(state == STATE_RUN)\n    {\n      // Collect the exitFee and close the c-org.\n      require(openUntilAtLeast <= block.timestamp, \"TOO_EARLY\");\n\n      exitFee = estimateExitFee(msg.value);\n\n      emit StateChange(state, STATE_CLOSE);\n      state = STATE_CLOSE;\n\n      _collectInvestment(exitFee, msg.value, true);\n    }\n    else\n    {\n      revert(\"INVALID_STATE\");\n    }\n\n    emit Close(exitFee);\n  }\n\n  // --- Approve by signature ---\n  // Original source: https://etherscan.io/address/0x6b175474e89094c44da98b954eedeac495271d0f#code\n  function permit(\n    address holder,\n    address spender,\n    uint256 nonce,\n    uint256 expiry,\n    bool allowed,\n    uint8 v,\n    bytes32 r,\n    bytes32 s\n  ) external\n  {\n    bytes32 digest = keccak256(\n      abi.encodePacked(\n        \"\\x19\\x01\",\n        DOMAIN_SEPARATOR,\n        keccak256(\n          abi.encode(PERMIT_TYPEHASH,\n                    holder,\n                    spender,\n                    nonce,\n                    expiry,\n                    allowed\n          )\n        )\n      )\n    );\n\n    require(holder != address(0), \"DAT/invalid-address-0\");\n    require(holder == ecrecover(digest, v, r, s), \"DAT/invalid-permit\");\n    require(expiry == 0 || now <= expiry, \"DAT/permit-expired\");\n    require(nonce == nonces[holder]++, \"DAT/invalid-nonce\");\n    uint wad = allowed ? uint(-1) : 0;\n    _approve(holder, spender, wad);\n  }\n}\n",
  "sourcePath": "/home/blackjak/Projects/BC-DAPP/contracts/DecentralizedAutonomousTrust.sol",
  "compiler": {
    "name": "solc",
    "version": "0.5.16+commit.9c3226ce.Emscripten.clang"
  },
  "schemaVersion": "3.0.23",
  "updatedAt": "2020-04-06T18:13:44.427Z",
  "devdoc": {
    "methods": {
      "allowance(address,address)": {
        "details": "See {IERC20-allowance}."
      },
      "approve(address,uint256)": {
        "details": "See {IERC20-approve}.     * Requirements:     * - `spender` cannot be the zero address."
      },
      "balanceOf(address)": {
        "details": "See {IERC20-balanceOf}."
      },
      "burn(uint256)": {
        "details": "Note that this is not the same as a `sell` via the DAT."
      },
      "buy(address,uint256,uint256)": {
        "details": "_minTokensBought is necessary as the price will change if some elses transaction mines after yours was submitted.",
        "params": {
          "_currencyValue": "How much currency to spend in order to buy FAIR.",
          "_minTokensBought": "Buy at least this many FAIR tokens or the transaction reverts.",
          "_to": "The account to receive the FAIR tokens from this purchase."
        }
      },
      "close()": {
        "details": "Requires an `exitFee` to be paid.  If the currency is ETH, include a little more than what appears to be required and any remainder will be returned to your account.  This is because another user may have a transaction mined which changes the exitFee required. For other `currency` types, the beneficiary account will be billed the exact amount required."
      },
      "decimals()": {
        "details": "Returns the number of decimals used to get its user representation. For example, if `decimals` equals `2`, a balance of `505` tokens should be displayed to a user as `5,05` (`505 / 10 ** 2`).     * Tokens usually opt for a value of 18, imitating the relationship between Ether and Wei.     * NOTE: This information is only used for _display_ purposes: it in no way affects any of the arithmetic of the contract, including {IERC20-balanceOf} and {IERC20-transfer}."
      },
      "decreaseAllowance(address,uint256)": {
        "details": "Atomically decreases the allowance granted to `spender` by the caller.     * This is an alternative to {approve} that can be used as a mitigation for problems described in {IERC20-approve}.     * Emits an {Approval} event indicating the updated allowance.     * Requirements:     * - `spender` cannot be the zero address. - `spender` must have allowance for the caller of at least `subtractedValue`."
      },
      "estimateBuyValue(uint256)": {
        "params": {
          "_currencyValue": "How much currency to spend in order to buy FAIR."
        }
      },
      "increaseAllowance(address,uint256)": {
        "details": "Atomically increases the allowance granted to `spender` by the caller.     * This is an alternative to {approve} that can be used as a mitigation for problems described in {IERC20-approve}.     * Emits an {Approval} event indicating the updated allowance.     * Requirements:     * - `spender` cannot be the zero address."
      },
      "initialize(string,string,uint8)": {
        "details": "Sets the values for `name`, `symbol`, and `decimals`. All three of these values are immutable: they can only be set once during construction."
      },
      "initialize(uint256,address,uint256,uint256,uint256,uint256,string,string)": {
        "details": "using the init pattern in order to support zos upgrades"
      },
      "name()": {
        "details": "Returns the name of the token."
      },
      "pay(address,uint256)": {
        "details": "Pay the organization on-chain.",
        "params": {
          "_currencyValue": "How much currency which was paid.",
          "_to": "The account which receives tokens for the contribution. If this address is not authorized to receive tokens then they will be sent to the beneficiary account instead."
        }
      },
      "sell(address,uint256,uint256)": {
        "details": "_minCurrencyReturned is necessary as the price will change if some elses transaction mines after yours was submitted.",
        "params": {
          "_minCurrencyReturned": "Get at least this many currency tokens or the transaction reverts.",
          "_quantityToSell": "How many FAIR tokens to sell for currency value.",
          "_to": "The account to receive the currency from this sale."
        }
      },
      "symbol()": {
        "details": "Returns the symbol of the token, usually a shorter version of the name."
      },
      "totalSupply()": {
        "details": "See {IERC20-totalSupply}."
      },
      "transfer(address,uint256)": {
        "details": "See {IERC20-transfer}.     * Requirements:     * - `recipient` cannot be the zero address. - the caller must have a balance of at least `amount`."
      },
      "transferFrom(address,address,uint256)": {
        "details": "See {IERC20-transferFrom}.     * Emits an {Approval} event indicating the updated allowance. This is not required by the EIP. See the note at the beginning of {ERC20};     * Requirements: - `sender` and `recipient` cannot be the zero address. - `sender` must have a balance of at least `amount`. - the caller must have allowance for `sender`'s tokens of at least `amount`."
      }
    },
    "title": "Decentralized Autonomous Trust This contract is the reference implementation provided by Fairmint for a Decentralized Autonomous Trust as described in the continuous organization whitepaper (https://github.com/c-org/whitepaper) and specified here: https://github.com/fairmint/c-org/wiki. Use at your own risk. If you have question or if you're looking for a ready-to-use solution using this contract, you might be interested in Fairmint's offering. Do not hesitate to get in touch with us: https://fairmint.co"
  },
  "userdoc": {
    "methods": {
      "burn(uint256)": {
        "notice": "Burn the amount of tokens from the address msg.sender if authorized."
      },
      "buy(address,uint256,uint256)": {
        "notice": "Purchase FAIR tokens with the given amount of currency."
      },
      "buybackReserve()": {
        "notice": "The total amount of currency value currently locked in the contract and available to sellers."
      },
      "close()": {
        "notice": "Called by the beneficiary account to STATE_CLOSE or STATE_CANCEL the c-org, preventing any more tokens from being minted."
      },
      "estimateBuyValue(uint256)": {
        "notice": "Calculate how many FAIR tokens you would buy with the given amount of currency if `buy` was called now."
      },
      "estimateExitFee(uint256)": {
        "notice": "Close"
      },
      "estimatePayValue(uint256)": {
        "notice": "Pay"
      },
      "estimateSellValue(uint256)": {
        "notice": "Sell"
      },
      "initialize(uint256,address,uint256,uint256,uint256,uint256,string,string)": {
        "notice": "Called once after deploy to set the initial configuration. None of the values provided here may change once initially set."
      },
      "sell(address,uint256,uint256)": {
        "notice": "Sell FAIR tokens for at least the given amount of currency."
      }
    }
  }
}