{
  "contractName": "NoFallbackProxy",
  "abi": [
    {
      "payable": true,
      "stateMutability": "payable",
      "type": "fallback"
    },
    {
      "constant": false,
      "inputs": [
        {
          "internalType": "address",
          "name": "_contract",
          "type": "address"
        },
        {
          "internalType": "bytes",
          "name": "_callData",
          "type": "bytes"
        }
      ],
      "name": "proxyCall",
      "outputs": [],
      "payable": true,
      "stateMutability": "payable",
      "type": "function"
    }
  ],
  "bytecode": "0x608060405234801561001057600080fd5b5061022d806100206000396000f3fe60806040526004361061001e5760003560e01c80632a31f6b414610085575b604080517f08c379a000000000000000000000000000000000000000000000000000000000815260206004820152600b60248201527f4e4f5f46414c4c4241434b000000000000000000000000000000000000000000604482015290519081900360640190fd5b6101486004803603604081101561009b57600080fd5b73ffffffffffffffffffffffffffffffffffffffff82351691908101906040810160208201356401000000008111156100d357600080fd5b8201836020820111156100e557600080fd5b8035906020019184600183028401116401000000008311171561010757600080fd5b91908080601f01602080910402602001604051908101604052809392919081815260200183838082843760009201919091525092955061014a945050505050565b005b61017173ffffffffffffffffffffffffffffffffffffffff8316823463ffffffff61017516565b5050565b600080600084516020860185885af19050806101f257604080517f08c379a000000000000000000000000000000000000000000000000000000000815260206004820152601d60248201527f494e5445524e414c5f434f4e54524143545f43414c4c5f4641494c4544000000604482015290519081900360640190fd5b5050505056fea265627a7a72315820e5c8ad8061cb0723281f2f6787ca342ac40c208c1cbae35debd31a62c9ad187764736f6c63430005100032",
  "source": "pragma solidity ^0.5.0;\n\nimport \"hardlydifficult-ethereum-contracts/contracts/proxies/CallContract.sol\";\n\n\ncontract NoFallbackProxy\n{\n  using CallContract for address;\n\n  function() external payable\n  {\n    revert(\"NO_FALLBACK\");\n  }\n\n  function proxyCall(\n    address _contract,\n    bytes memory _callData\n  ) public payable\n  {\n    _contract._call(_callData, msg.value);\n  }\n}\n",
  "sourcePath": "/home/blackjak/Projects/BC-DAPP/contracts/test-artifacts/NoFallbackProxy.sol",
  "compiler": {
    "name": "solc",
    "version": "0.5.16+commit.9c3226ce.Emscripten.clang"
  },
  "schemaVersion": "3.0.23",
  "updatedAt": "2020-04-06T18:13:44.497Z",
  "devdoc": {
    "methods": {}
  },
  "userdoc": {
    "methods": {}
  }
}