{
  "contractName": "OperatorRole",
  "abi": [
    {
      "anonymous": false,
      "inputs": [
        {
          "indexed": true,
          "internalType": "address",
          "name": "account",
          "type": "address"
        }
      ],
      "name": "OperatorAdded",
      "type": "event"
    },
    {
      "anonymous": false,
      "inputs": [
        {
          "indexed": true,
          "internalType": "address",
          "name": "account",
          "type": "address"
        }
      ],
      "name": "OperatorRemoved",
      "type": "event"
    },
    {
      "anonymous": false,
      "inputs": [
        {
          "indexed": true,
          "internalType": "address",
          "name": "previousOwner",
          "type": "address"
        },
        {
          "indexed": true,
          "internalType": "address",
          "name": "newOwner",
          "type": "address"
        }
      ],
      "name": "OwnershipTransferred",
      "type": "event"
    },
    {
      "constant": false,
      "inputs": [
        {
          "internalType": "address",
          "name": "sender",
          "type": "address"
        }
      ],
      "name": "initialize",
      "outputs": [],
      "payable": false,
      "stateMutability": "nonpayable",
      "type": "function"
    },
    {
      "constant": true,
      "inputs": [],
      "name": "isOwner",
      "outputs": [
        {
          "internalType": "bool",
          "name": "",
          "type": "bool"
        }
      ],
      "payable": false,
      "stateMutability": "view",
      "type": "function"
    },
    {
      "constant": true,
      "inputs": [],
      "name": "owner",
      "outputs": [
        {
          "internalType": "address",
          "name": "",
          "type": "address"
        }
      ],
      "payable": false,
      "stateMutability": "view",
      "type": "function"
    },
    {
      "constant": false,
      "inputs": [],
      "name": "renounceOwnership",
      "outputs": [],
      "payable": false,
      "stateMutability": "nonpayable",
      "type": "function"
    },
    {
      "constant": false,
      "inputs": [
        {
          "internalType": "address",
          "name": "newOwner",
          "type": "address"
        }
      ],
      "name": "transferOwnership",
      "outputs": [],
      "payable": false,
      "stateMutability": "nonpayable",
      "type": "function"
    },
    {
      "constant": true,
      "inputs": [
        {
          "internalType": "address",
          "name": "account",
          "type": "address"
        }
      ],
      "name": "isOperator",
      "outputs": [
        {
          "internalType": "bool",
          "name": "",
          "type": "bool"
        }
      ],
      "payable": false,
      "stateMutability": "view",
      "type": "function"
    },
    {
      "constant": false,
      "inputs": [
        {
          "internalType": "address",
          "name": "account",
          "type": "address"
        }
      ],
      "name": "addOperator",
      "outputs": [],
      "payable": false,
      "stateMutability": "nonpayable",
      "type": "function"
    },
    {
      "constant": false,
      "inputs": [
        {
          "internalType": "address",
          "name": "account",
          "type": "address"
        }
      ],
      "name": "removeOperator",
      "outputs": [],
      "payable": false,
      "stateMutability": "nonpayable",
      "type": "function"
    },
    {
      "constant": false,
      "inputs": [],
      "name": "renounceOperator",
      "outputs": [],
      "payable": false,
      "stateMutability": "nonpayable",
      "type": "function"
    }
  ],
  "bytecode": "0x6080604052610aef806100136000396000f3fe608060405234801561001057600080fd5b50600436106100a35760003560e01c80638f32d59b11610076578063ac8a584a1161005b578063ac8a584a1461016d578063c4d66de8146101a0578063f2fde38b146101d3576100a3565b80638f32d59b146101325780639870d7fe1461013a576100a3565b80632ab6f8db146100a85780636d70f7ae146100b2578063715018a6146100f95780638da5cb5b14610101575b600080fd5b6100b0610206565b005b6100e5600480360360208110156100c857600080fd5b503573ffffffffffffffffffffffffffffffffffffffff16610211565b604080519115158252519081900360200190f35b6100b061022a565b61010961030c565b6040805173ffffffffffffffffffffffffffffffffffffffff9092168252519081900360200190f35b6100e5610328565b6100b06004803603602081101561015057600080fd5b503573ffffffffffffffffffffffffffffffffffffffff16610368565b6100b06004803603602081101561018357600080fd5b503573ffffffffffffffffffffffffffffffffffffffff166103e7565b6100b0600480360360208110156101b657600080fd5b503573ffffffffffffffffffffffffffffffffffffffff16610463565b6100b0600480360360208110156101e957600080fd5b503573ffffffffffffffffffffffffffffffffffffffff166105ec565b61020f33610668565b565b600061022460668363ffffffff6106bd16565b92915050565b610232610328565b61029d57604080517f08c379a000000000000000000000000000000000000000000000000000000000815260206004820181905260248201527f4f776e61626c653a2063616c6c6572206973206e6f7420746865206f776e6572604482015290519081900360640190fd5b60335460405160009173ffffffffffffffffffffffffffffffffffffffff16907f8be0079c531659141344cd1fd0a4f28419497f9722a3daafe3b4186f6b6457e0908390a3603380547fffffffffffffffffffffffff0000000000000000000000000000000000000000169055565b60335473ffffffffffffffffffffffffffffffffffffffff1690565b60335460009073ffffffffffffffffffffffffffffffffffffffff1661034c610758565b73ffffffffffffffffffffffffffffffffffffffff1614905090565b610370610328565b6103db57604080517f08c379a000000000000000000000000000000000000000000000000000000000815260206004820181905260248201527f4f776e61626c653a2063616c6c6572206973206e6f7420746865206f776e6572604482015290519081900360640190fd5b6103e48161075c565b50565b6103ef610328565b61045a57604080517f08c379a000000000000000000000000000000000000000000000000000000000815260206004820181905260248201527f4f776e61626c653a2063616c6c6572206973206e6f7420746865206f776e6572604482015290519081900360640190fd5b6103e481610668565b600054610100900460ff168061047c575061047c6107b1565b8061048a575060005460ff16155b6104df576040517f08c379a000000000000000000000000000000000000000000000000000000000815260040180806020018281038252602e815260200180610a8d602e913960400191505060405180910390fd5b600054610100900460ff1615801561054557600080547fffffffffffffffffffffffffffffffffffffffffffffffffffffffffffffff007fffffffffffffffffffffffffffffffffffffffffffffffffffffffffffff00ff909116610100171660011790555b603380547fffffffffffffffffffffffff00000000000000000000000000000000000000001673ffffffffffffffffffffffffffffffffffffffff84811691909117918290556040519116906000907f8be0079c531659141344cd1fd0a4f28419497f9722a3daafe3b4186f6b6457e0908290a380156105e857600080547fffffffffffffffffffffffffffffffffffffffffffffffffffffffffffff00ff1690555b5050565b6105f4610328565b61065f57604080517f08c379a000000000000000000000000000000000000000000000000000000000815260206004820181905260248201527f4f776e61626c653a2063616c6c6572206973206e6f7420746865206f776e6572604482015290519081900360640190fd5b6103e4816107b7565b61067960668263ffffffff6108b116565b60405173ffffffffffffffffffffffffffffffffffffffff8216907f80c0b871b97b595b16a7741c1b06fed0c6f6f558639f18ccbce50724325dc40d90600090a250565b600073ffffffffffffffffffffffffffffffffffffffff821661072b576040517f08c379a0000000000000000000000000000000000000000000000000000000008152600401808060200182810382526022815260200180610a6b6022913960400191505060405180910390fd5b5073ffffffffffffffffffffffffffffffffffffffff166000908152602091909152604090205460ff1690565b3390565b61076d60668263ffffffff61095d16565b60405173ffffffffffffffffffffffffffffffffffffffff8216907fac6fa858e9350a46cec16539926e0fde25b7629f84b5a72bffaae4df888ae86d90600090a250565b303b1590565b73ffffffffffffffffffffffffffffffffffffffff8116610823576040517f08c379a0000000000000000000000000000000000000000000000000000000008152600401808060200182810382526026815260200180610a246026913960400191505060405180910390fd5b60335460405173ffffffffffffffffffffffffffffffffffffffff8084169216907f8be0079c531659141344cd1fd0a4f28419497f9722a3daafe3b4186f6b6457e090600090a3603380547fffffffffffffffffffffffff00000000000000000000000000000000000000001673ffffffffffffffffffffffffffffffffffffffff92909216919091179055565b6108bb82826106bd565b610910576040517f08c379a0000000000000000000000000000000000000000000000000000000008152600401808060200182810382526021815260200180610a4a6021913960400191505060405180910390fd5b73ffffffffffffffffffffffffffffffffffffffff1660009081526020919091526040902080547fffffffffffffffffffffffffffffffffffffffffffffffffffffffffffffff00169055565b61096782826106bd565b156109d357604080517f08c379a000000000000000000000000000000000000000000000000000000000815260206004820152601f60248201527f526f6c65733a206163636f756e7420616c72656164792068617320726f6c6500604482015290519081900360640190fd5b73ffffffffffffffffffffffffffffffffffffffff1660009081526020919091526040902080547fffffffffffffffffffffffffffffffffffffffffffffffffffffffffffffff0016600117905556fe4f776e61626c653a206e6577206f776e657220697320746865207a65726f2061646472657373526f6c65733a206163636f756e7420646f6573206e6f74206861766520726f6c65526f6c65733a206163636f756e7420697320746865207a65726f2061646472657373436f6e747261637420696e7374616e63652068617320616c7265616479206265656e20696e697469616c697a6564a265627a7a72315820c1f22f754f7cc7c3deaafacaf4c60b6ef09ee92175e960e8b7af536bae8dc99a64736f6c63430005100032",
  "source": "pragma solidity ^0.5.0;\n\n// Original source: openzeppelin's SignerRole\n\nimport \"@openzeppelin/upgrades/contracts/Initializable.sol\";\nimport \"@openzeppelin/contracts-ethereum-package/contracts/GSN/Context.sol\";\nimport \"@openzeppelin/contracts-ethereum-package/contracts/access/Roles.sol\";\nimport \"@openzeppelin/contracts-ethereum-package/contracts/ownership/Ownable.sol\";\n\n\n/**\n * @notice allows a single owner to manage a group of operators which may\n * have some special permissions in the contract.\n */\ncontract OperatorRole is Initializable, Context, Ownable\n{\n  using Roles for Roles.Role;\n\n  event OperatorAdded(address indexed account);\n  event OperatorRemoved(address indexed account);\n\n  Roles.Role private _operators;\n\n  function _initializeOperatorRole() internal\n  {\n    _addOperator(msg.sender);\n  }\n\n  modifier onlyOperator()\n  {\n    require(isOperator(msg.sender), \"OperatorRole: caller does not have the Operator role\");\n    _;\n  }\n\n  function isOperator(address account) public view returns (bool)\n  {\n    return _operators.has(account);\n  }\n\n  function addOperator(address account) public onlyOwner\n  {\n    _addOperator(account);\n  }\n\n  function removeOperator(address account) public onlyOwner\n  {\n    _removeOperator(account);\n  }\n\n  function renounceOperator() public\n  {\n    _removeOperator(msg.sender);\n  }\n\n  function _addOperator(address account) internal\n  {\n    _operators.add(account);\n    emit OperatorAdded(account);\n  }\n\n  function _removeOperator(address account) internal\n  {\n    _operators.remove(account);\n    emit OperatorRemoved(account);\n  }\n\n  uint256[50] private ______gap;\n}\n",
  "sourcePath": "/home/blackjak/Projects/BC-DAPP/contracts/mixins/OperatorRole.sol",
  "compiler": {
    "name": "solc",
    "version": "0.5.16+commit.9c3226ce.Emscripten.clang"
  },
  "schemaVersion": "3.0.23",
  "updatedAt": "2020-04-06T18:13:44.493Z",
  "devdoc": {
    "methods": {
      "initialize(address)": {
        "details": "Initializes the contract setting the deployer as the initial owner."
      },
      "isOwner()": {
        "details": "Returns true if the caller is the current owner."
      },
      "owner()": {
        "details": "Returns the address of the current owner."
      },
      "renounceOwnership()": {
        "details": "Leaves the contract without owner. It will not be possible to call `onlyOwner` functions anymore. Can only be called by the current owner.     * > Note: Renouncing ownership will leave the contract without an owner, thereby removing any functionality that is only available to the owner."
      },
      "transferOwnership(address)": {
        "details": "Transfers ownership of the contract to a new account (`newOwner`). Can only be called by the current owner."
      }
    }
  },
  "userdoc": {
    "methods": {},
    "notice": "allows a single owner to manage a group of operators which may have some special permissions in the contract."
  }
}