{
  "contractName": "ProxyAdmin",
  "abi": [
    {
      "anonymous": false,
      "inputs": [
        {
          "indexed": true,
          "internalType": "address",
          "name": "previousOwner",
          "type": "address"
        },
        {
          "indexed": true,
          "internalType": "address",
          "name": "newOwner",
          "type": "address"
        }
      ],
      "name": "OwnershipTransferred",
      "type": "event"
    },
    {
      "constant": true,
      "inputs": [],
      "name": "isOwner",
      "outputs": [
        {
          "internalType": "bool",
          "name": "",
          "type": "bool"
        }
      ],
      "payable": false,
      "stateMutability": "view",
      "type": "function"
    },
    {
      "constant": true,
      "inputs": [],
      "name": "owner",
      "outputs": [
        {
          "internalType": "address",
          "name": "",
          "type": "address"
        }
      ],
      "payable": false,
      "stateMutability": "view",
      "type": "function"
    },
    {
      "constant": false,
      "inputs": [],
      "name": "renounceOwnership",
      "outputs": [],
      "payable": false,
      "stateMutability": "nonpayable",
      "type": "function"
    },
    {
      "constant": false,
      "inputs": [
        {
          "internalType": "address",
          "name": "newOwner",
          "type": "address"
        }
      ],
      "name": "transferOwnership",
      "outputs": [],
      "payable": false,
      "stateMutability": "nonpayable",
      "type": "function"
    },
    {
      "constant": true,
      "inputs": [
        {
          "internalType": "contract AdminUpgradeabilityProxy",
          "name": "proxy",
          "type": "address"
        }
      ],
      "name": "getProxyImplementation",
      "outputs": [
        {
          "internalType": "address",
          "name": "",
          "type": "address"
        }
      ],
      "payable": false,
      "stateMutability": "view",
      "type": "function"
    },
    {
      "constant": true,
      "inputs": [
        {
          "internalType": "contract AdminUpgradeabilityProxy",
          "name": "proxy",
          "type": "address"
        }
      ],
      "name": "getProxyAdmin",
      "outputs": [
        {
          "internalType": "address",
          "name": "",
          "type": "address"
        }
      ],
      "payable": false,
      "stateMutability": "view",
      "type": "function"
    },
    {
      "constant": false,
      "inputs": [
        {
          "internalType": "contract AdminUpgradeabilityProxy",
          "name": "proxy",
          "type": "address"
        },
        {
          "internalType": "address",
          "name": "newAdmin",
          "type": "address"
        }
      ],
      "name": "changeProxyAdmin",
      "outputs": [],
      "payable": false,
      "stateMutability": "nonpayable",
      "type": "function"
    },
    {
      "constant": false,
      "inputs": [
        {
          "internalType": "contract AdminUpgradeabilityProxy",
          "name": "proxy",
          "type": "address"
        },
        {
          "internalType": "address",
          "name": "implementation",
          "type": "address"
        }
      ],
      "name": "upgrade",
      "outputs": [],
      "payable": false,
      "stateMutability": "nonpayable",
      "type": "function"
    },
    {
      "constant": false,
      "inputs": [
        {
          "internalType": "contract AdminUpgradeabilityProxy",
          "name": "proxy",
          "type": "address"
        },
        {
          "internalType": "address",
          "name": "implementation",
          "type": "address"
        },
        {
          "internalType": "bytes",
          "name": "data",
          "type": "bytes"
        }
      ],
      "name": "upgradeAndCall",
      "outputs": [],
      "payable": true,
      "stateMutability": "payable",
      "type": "function"
    }
  ],
  "bytecode": "0x60806040819052600080546001600160a01b03191633178082556001600160a01b0316917f8be0079c531659141344cd1fd0a4f28419497f9722a3daafe3b4186f6b6457e0908290a361087f806100576000396000f3fe6080604052600436106100965760003560e01c80638f32d59b1161006957806399a88ec41161004e57806399a88ec41461026d578063f2fde38b146102b5578063f3b7dead146102f557610096565b80638f32d59b146101785780639623609d146101a157610096565b8063204e1c7a1461009b578063715018a6146101045780637eff275e1461011b5780638da5cb5b14610163575b600080fd5b3480156100a757600080fd5b506100db600480360360208110156100be57600080fd5b503573ffffffffffffffffffffffffffffffffffffffff16610335565b6040805173ffffffffffffffffffffffffffffffffffffffff9092168252519081900360200190f35b34801561011057600080fd5b506101196103ed565b005b34801561012757600080fd5b506101196004803603604081101561013e57600080fd5b5073ffffffffffffffffffffffffffffffffffffffff8135811691602001351661046d565b34801561016f57600080fd5b506100db610519565b34801561018457600080fd5b5061018d610535565b604080519115158252519081900360200190f35b610119600480360360608110156101b757600080fd5b73ffffffffffffffffffffffffffffffffffffffff82358116926020810135909116918101906060810160408201356401000000008111156101f857600080fd5b82018360208201111561020a57600080fd5b8035906020019184600183028401116401000000008311171561022c57600080fd5b91908080601f016020809104026020016040519081016040528093929190818152602001838380828437600092019190915250929550610553945050505050565b34801561027957600080fd5b506101196004803603604081101561029057600080fd5b5073ffffffffffffffffffffffffffffffffffffffff8135811691602001351661066b565b3480156102c157600080fd5b50610119600480360360208110156102d857600080fd5b503573ffffffffffffffffffffffffffffffffffffffff166106fb565b34801561030157600080fd5b506100db6004803603602081101561031857600080fd5b503573ffffffffffffffffffffffffffffffffffffffff16610718565b60008060608373ffffffffffffffffffffffffffffffffffffffff1660405180807f5c60da1b000000000000000000000000000000000000000000000000000000008152506004019050600060405180830381855afa9150503d80600081146103ba576040519150601f19603f3d011682016040523d82523d6000602084013e6103bf565b606091505b5091509150816103ce57600080fd5b8080602001905160208110156103e357600080fd5b5051949350505050565b6103f5610535565b6103fe57600080fd5b6000805460405173ffffffffffffffffffffffffffffffffffffffff909116907f8be0079c531659141344cd1fd0a4f28419497f9722a3daafe3b4186f6b6457e0908390a3600080547fffffffffffffffffffffffff0000000000000000000000000000000000000000169055565b610475610535565b61047e57600080fd5b8173ffffffffffffffffffffffffffffffffffffffff16638f283970826040518263ffffffff1660e01b8152600401808273ffffffffffffffffffffffffffffffffffffffff1673ffffffffffffffffffffffffffffffffffffffff168152602001915050600060405180830381600087803b1580156104fd57600080fd5b505af1158015610511573d6000803e3d6000fd5b505050505050565b60005473ffffffffffffffffffffffffffffffffffffffff1690565b60005473ffffffffffffffffffffffffffffffffffffffff16331490565b61055b610535565b61056457600080fd5b8273ffffffffffffffffffffffffffffffffffffffff16634f1ef2863484846040518463ffffffff1660e01b8152600401808373ffffffffffffffffffffffffffffffffffffffff1673ffffffffffffffffffffffffffffffffffffffff16815260200180602001828103825283818151815260200191508051906020019080838360005b838110156106015781810151838201526020016105e9565b50505050905090810190601f16801561062e5780820380516001836020036101000a031916815260200191505b5093505050506000604051808303818588803b15801561064d57600080fd5b505af1158015610661573d6000803e3d6000fd5b5050505050505050565b610673610535565b61067c57600080fd5b8173ffffffffffffffffffffffffffffffffffffffff16633659cfe6826040518263ffffffff1660e01b8152600401808273ffffffffffffffffffffffffffffffffffffffff1673ffffffffffffffffffffffffffffffffffffffff168152602001915050600060405180830381600087803b1580156104fd57600080fd5b610703610535565b61070c57600080fd5b6107158161079d565b50565b60008060608373ffffffffffffffffffffffffffffffffffffffff1660405180807ff851a440000000000000000000000000000000000000000000000000000000008152506004019050600060405180830381855afa9150503d80600081146103ba576040519150601f19603f3d011682016040523d82523d6000602084013e6103bf565b73ffffffffffffffffffffffffffffffffffffffff81166107bd57600080fd5b6000805460405173ffffffffffffffffffffffffffffffffffffffff808516939216917f8be0079c531659141344cd1fd0a4f28419497f9722a3daafe3b4186f6b6457e091a3600080547fffffffffffffffffffffffff00000000000000000000000000000000000000001673ffffffffffffffffffffffffffffffffffffffff9290921691909117905556fea265627a7a72315820da90f46ca2784198f998048a9e77ea23a9abc3373275b6500a02cf76a27ee7f464736f6c63430005100032",
  "source": "pragma solidity ^0.5.0;\n\nimport \"../ownership/Ownable.sol\";\nimport \"./AdminUpgradeabilityProxy.sol\";\n\n/**\n * @title ProxyAdmin\n * @dev This contract is the admin of a proxy, and is in charge\n * of upgrading it as well as transferring it to another admin.\n */\ncontract ProxyAdmin is OpenZeppelinUpgradesOwnable {\n  \n  /**\n   * @dev Returns the current implementation of a proxy.\n   * This is needed because only the proxy admin can query it.\n   * @return The address of the current implementation of the proxy.\n   */\n  function getProxyImplementation(AdminUpgradeabilityProxy proxy) public view returns (address) {\n    // We need to manually run the static call since the getter cannot be flagged as view\n    // bytes4(keccak256(\"implementation()\")) == 0x5c60da1b\n    (bool success, bytes memory returndata) = address(proxy).staticcall(hex\"5c60da1b\");\n    require(success);\n    return abi.decode(returndata, (address));\n  }\n\n  /**\n   * @dev Returns the admin of a proxy. Only the admin can query it.\n   * @return The address of the current admin of the proxy.\n   */\n  function getProxyAdmin(AdminUpgradeabilityProxy proxy) public view returns (address) {\n    // We need to manually run the static call since the getter cannot be flagged as view\n    // bytes4(keccak256(\"admin()\")) == 0xf851a440\n    (bool success, bytes memory returndata) = address(proxy).staticcall(hex\"f851a440\");\n    require(success);\n    return abi.decode(returndata, (address));\n  }\n\n  /**\n   * @dev Changes the admin of a proxy.\n   * @param proxy Proxy to change admin.\n   * @param newAdmin Address to transfer proxy administration to.\n   */\n  function changeProxyAdmin(AdminUpgradeabilityProxy proxy, address newAdmin) public onlyOwner {\n    proxy.changeAdmin(newAdmin);\n  }\n\n  /**\n   * @dev Upgrades a proxy to the newest implementation of a contract.\n   * @param proxy Proxy to be upgraded.\n   * @param implementation the address of the Implementation.\n   */\n  function upgrade(AdminUpgradeabilityProxy proxy, address implementation) public onlyOwner {\n    proxy.upgradeTo(implementation);\n  }\n\n  /**\n   * @dev Upgrades a proxy to the newest implementation of a contract and forwards a function call to it.\n   * This is useful to initialize the proxied contract.\n   * @param proxy Proxy to be upgraded.\n   * @param implementation Address of the Implementation.\n   * @param data Data to send as msg.data in the low level call.\n   * It should include the signature and the parameters of the function to be called, as described in\n   * https://solidity.readthedocs.io/en/v0.4.24/abi-spec.html#function-selector-and-argument-encoding.\n   */\n  function upgradeAndCall(AdminUpgradeabilityProxy proxy, address implementation, bytes memory data) payable public onlyOwner {\n    proxy.upgradeToAndCall.value(msg.value)(implementation, data);\n  }\n}\n",
  "sourcePath": "@openzeppelin/upgrades/contracts/upgradeability/ProxyAdmin.sol",
  "compiler": {
    "name": "solc",
    "version": "0.5.16+commit.9c3226ce.Emscripten.clang"
  },
  "schemaVersion": "3.0.23",
  "updatedAt": "2020-04-06T18:13:44.523Z",
  "devdoc": {
    "details": "This contract is the admin of a proxy, and is in charge of upgrading it as well as transferring it to another admin.",
    "methods": {
      "changeProxyAdmin(address,address)": {
        "details": "Changes the admin of a proxy.",
        "params": {
          "newAdmin": "Address to transfer proxy administration to.",
          "proxy": "Proxy to change admin."
        }
      },
      "getProxyAdmin(address)": {
        "details": "Returns the admin of a proxy. Only the admin can query it.",
        "return": "The address of the current admin of the proxy."
      },
      "getProxyImplementation(address)": {
        "details": "Returns the current implementation of a proxy. This is needed because only the proxy admin can query it.",
        "return": "The address of the current implementation of the proxy."
      },
      "isOwner()": {
        "return": "true if `msg.sender` is the owner of the contract."
      },
      "owner()": {
        "return": "the address of the owner."
      },
      "renounceOwnership()": {
        "details": "Allows the current owner to relinquish control of the contract."
      },
      "transferOwnership(address)": {
        "details": "Allows the current owner to transfer control of the contract to a newOwner.",
        "params": {
          "newOwner": "The address to transfer ownership to."
        }
      },
      "upgrade(address,address)": {
        "details": "Upgrades a proxy to the newest implementation of a contract.",
        "params": {
          "implementation": "the address of the Implementation.",
          "proxy": "Proxy to be upgraded."
        }
      },
      "upgradeAndCall(address,address,bytes)": {
        "details": "Upgrades a proxy to the newest implementation of a contract and forwards a function call to it. This is useful to initialize the proxied contract.",
        "params": {
          "data": "Data to send as msg.data in the low level call. It should include the signature and the parameters of the function to be called, as described in https://solidity.readthedocs.io/en/v0.4.24/abi-spec.html#function-selector-and-argument-encoding.",
          "implementation": "Address of the Implementation.",
          "proxy": "Proxy to be upgraded."
        }
      }
    },
    "title": "ProxyAdmin"
  },
  "userdoc": {
    "methods": {
      "renounceOwnership()": {
        "notice": "Renouncing to ownership will leave the contract without an owner. It will not be possible to call the functions with the `onlyOwner` modifier anymore."
      }
    }
  }
}