{
  "contractName": "SqrtMock",
  "abi": [
    {
      "constant": true,
      "inputs": [
        {
          "internalType": "uint256",
          "name": "x",
          "type": "uint256"
        }
      ],
      "name": "sqrt",
      "outputs": [
        {
          "internalType": "uint256",
          "name": "y",
          "type": "uint256"
        }
      ],
      "payable": false,
      "stateMutability": "pure",
      "type": "function"
    }
  ],
  "bytecode": "0x608060405234801561001057600080fd5b5061012b806100206000396000f3fe6080604052348015600f57600080fd5b506004361060285760003560e01c8063677342ce14602d575b600080fd5b604760048036036020811015604157600080fd5b50356059565b60408051918252519081900360200190f35b6000606282606a565b90505b919050565b6000816077575060006065565b600382116085575060016065565b7fffffffffffffffffffffffffffffffffffffffffffffffffffffffffffffffff82141560c257506fffffffffffffffffffffffffffffffff6065565b5080600260018201045b8181101560f05780915060028182858160e157fe5b04018160e957fe5b04905060cc565b5091905056fea265627a7a723158201667ca4ad2820c5d1971bbde7c46f3e4558d0e00b01b6dcef9873f3acac18e7964736f6c63430005100032",
  "source": "pragma solidity ^0.5.0;\n\n\nimport \"../math/Sqrt.sol\";\n\n/**\n * @title Used for testing only.\n */\ncontract SqrtMock\n{\n  function sqrt(\n    uint x\n  ) public pure\n    returns (uint y)\n  {\n    return Sqrt.sqrt(x);\n  }\n}\n",
  "sourcePath": "/home/blackjak/Projects/BC-DAPP/contracts/test-artifacts/SqrtMock.sol",
  "compiler": {
    "name": "solc",
    "version": "0.5.16+commit.9c3226ce.Emscripten.clang"
  },
  "schemaVersion": "3.0.23",
  "updatedAt": "2020-04-06T18:13:44.497Z",
  "devdoc": {
    "methods": {},
    "title": "Used for testing only."
  },
  "userdoc": {
    "methods": {}
  }
}