{
  "contractName": "Whitelist",
  "abi": [
    {
      "anonymous": false,
      "inputs": [
        {
          "indexed": true,
          "internalType": "address",
          "name": "_userId",
          "type": "address"
        },
        {
          "indexed": true,
          "internalType": "address",
          "name": "_newWallet",
          "type": "address"
        },
        {
          "indexed": true,
          "internalType": "address",
          "name": "_operator",
          "type": "address"
        }
      ],
      "name": "AddApprovedUserWallet",
      "type": "event"
    },
    {
      "anonymous": false,
      "inputs": [
        {
          "indexed": true,
          "internalType": "address",
          "name": "_userId",
          "type": "address"
        },
        {
          "indexed": false,
          "internalType": "uint256",
          "name": "_lockupExpirationDate",
          "type": "uint256"
        },
        {
          "indexed": false,
          "internalType": "uint256",
          "name": "_numberOfTokensLocked",
          "type": "uint256"
        },
        {
          "indexed": true,
          "internalType": "address",
          "name": "_operator",
          "type": "address"
        }
      ],
      "name": "AddLockup",
      "type": "event"
    },
    {
      "anonymous": false,
      "inputs": [
        {
          "indexed": true,
          "internalType": "address",
          "name": "_trader",
          "type": "address"
        },
        {
          "indexed": true,
          "internalType": "uint256",
          "name": "_jurisdictionId",
          "type": "uint256"
        },
        {
          "indexed": true,
          "internalType": "address",
          "name": "_operator",
          "type": "address"
        }
      ],
      "name": "ApproveNewUser",
      "type": "event"
    },
    {
      "anonymous": false,
      "inputs": [
        {
          "indexed": false,
          "internalType": "uint256",
          "name": "_startDate",
          "type": "uint256"
        },
        {
          "indexed": false,
          "internalType": "uint256",
          "name": "_lockupGranularity",
          "type": "uint256"
        },
        {
          "indexed": true,
          "internalType": "address",
          "name": "_operator",
          "type": "address"
        }
      ],
      "name": "ConfigWhitelist",
      "type": "event"
    },
    {
      "anonymous": false,
      "inputs": [
        {
          "indexed": true,
          "internalType": "address",
          "name": "account",
          "type": "address"
        }
      ],
      "name": "OperatorAdded",
      "type": "event"
    },
    {
      "anonymous": false,
      "inputs": [
        {
          "indexed": true,
          "internalType": "address",
          "name": "account",
          "type": "address"
        }
      ],
      "name": "OperatorRemoved",
      "type": "event"
    },
    {
      "anonymous": false,
      "inputs": [
        {
          "indexed": true,
          "internalType": "address",
          "name": "previousOwner",
          "type": "address"
        },
        {
          "indexed": true,
          "internalType": "address",
          "name": "newOwner",
          "type": "address"
        }
      ],
      "name": "OwnershipTransferred",
      "type": "event"
    },
    {
      "anonymous": false,
      "inputs": [
        {
          "indexed": true,
          "internalType": "address",
          "name": "_wallet",
          "type": "address"
        },
        {
          "indexed": true,
          "internalType": "address",
          "name": "_operator",
          "type": "address"
        }
      ],
      "name": "RevokeUserWallet",
      "type": "event"
    },
    {
      "anonymous": false,
      "inputs": [
        {
          "indexed": true,
          "internalType": "address",
          "name": "_userId",
          "type": "address"
        },
        {
          "indexed": false,
          "internalType": "uint256",
          "name": "_tokensUnlocked",
          "type": "uint256"
        },
        {
          "indexed": true,
          "internalType": "address",
          "name": "_operator",
          "type": "address"
        }
      ],
      "name": "UnlockTokens",
      "type": "event"
    },
    {
      "anonymous": false,
      "inputs": [
        {
          "indexed": true,
          "internalType": "uint256",
          "name": "_fromJurisdictionId",
          "type": "uint256"
        },
        {
          "indexed": true,
          "internalType": "uint256",
          "name": "_toJurisdictionId",
          "type": "uint256"
        },
        {
          "indexed": false,
          "internalType": "uint256",
          "name": "_lockupLength",
          "type": "uint256"
        },
        {
          "indexed": true,
          "internalType": "address",
          "name": "_operator",
          "type": "address"
        }
      ],
      "name": "UpdateJurisdictionFlow",
      "type": "event"
    },
    {
      "anonymous": false,
      "inputs": [
        {
          "indexed": true,
          "internalType": "address",
          "name": "_userId",
          "type": "address"
        },
        {
          "indexed": true,
          "internalType": "uint256",
          "name": "_jurisdictionId",
          "type": "uint256"
        },
        {
          "indexed": true,
          "internalType": "address",
          "name": "_operator",
          "type": "address"
        }
      ],
      "name": "UpdateJurisdictionForUserId",
      "type": "event"
    },
    {
      "constant": false,
      "inputs": [
        {
          "internalType": "address",
          "name": "account",
          "type": "address"
        }
      ],
      "name": "addOperator",
      "outputs": [],
      "payable": false,
      "stateMutability": "nonpayable",
      "type": "function"
    },
    {
      "constant": true,
      "inputs": [
        {
          "internalType": "address",
          "name": "",
          "type": "address"
        }
      ],
      "name": "authorizedWalletToUserId",
      "outputs": [
        {
          "internalType": "address",
          "name": "",
          "type": "address"
        }
      ],
      "payable": false,
      "stateMutability": "view",
      "type": "function"
    },
    {
      "constant": true,
      "inputs": [],
      "name": "callingContract",
      "outputs": [
        {
          "internalType": "contract IERC20",
          "name": "",
          "type": "address"
        }
      ],
      "payable": false,
      "stateMutability": "view",
      "type": "function"
    },
    {
      "constant": true,
      "inputs": [
        {
          "internalType": "address",
          "name": "account",
          "type": "address"
        }
      ],
      "name": "isOperator",
      "outputs": [
        {
          "internalType": "bool",
          "name": "",
          "type": "bool"
        }
      ],
      "payable": false,
      "stateMutability": "view",
      "type": "function"
    },
    {
      "constant": true,
      "inputs": [],
      "name": "isOwner",
      "outputs": [
        {
          "internalType": "bool",
          "name": "",
          "type": "bool"
        }
      ],
      "payable": false,
      "stateMutability": "view",
      "type": "function"
    },
    {
      "constant": true,
      "inputs": [],
      "name": "lockupGranularity",
      "outputs": [
        {
          "internalType": "uint256",
          "name": "",
          "type": "uint256"
        }
      ],
      "payable": false,
      "stateMutability": "view",
      "type": "function"
    },
    {
      "constant": true,
      "inputs": [],
      "name": "owner",
      "outputs": [
        {
          "internalType": "address",
          "name": "",
          "type": "address"
        }
      ],
      "payable": false,
      "stateMutability": "view",
      "type": "function"
    },
    {
      "constant": false,
      "inputs": [
        {
          "internalType": "address",
          "name": "account",
          "type": "address"
        }
      ],
      "name": "removeOperator",
      "outputs": [],
      "payable": false,
      "stateMutability": "nonpayable",
      "type": "function"
    },
    {
      "constant": false,
      "inputs": [],
      "name": "renounceOperator",
      "outputs": [],
      "payable": false,
      "stateMutability": "nonpayable",
      "type": "function"
    },
    {
      "constant": false,
      "inputs": [],
      "name": "renounceOwnership",
      "outputs": [],
      "payable": false,
      "stateMutability": "nonpayable",
      "type": "function"
    },
    {
      "constant": true,
      "inputs": [],
      "name": "startDate",
      "outputs": [
        {
          "internalType": "uint256",
          "name": "",
          "type": "uint256"
        }
      ],
      "payable": false,
      "stateMutability": "view",
      "type": "function"
    },
    {
      "constant": false,
      "inputs": [
        {
          "internalType": "address",
          "name": "newOwner",
          "type": "address"
        }
      ],
      "name": "transferOwnership",
      "outputs": [],
      "payable": false,
      "stateMutability": "nonpayable",
      "type": "function"
    },
    {
      "constant": true,
      "inputs": [
        {
          "internalType": "uint256",
          "name": "_fromJurisdictionId",
          "type": "uint256"
        },
        {
          "internalType": "uint256",
          "name": "_toJurisdictionId",
          "type": "uint256"
        }
      ],
      "name": "getJurisdictionFlow",
      "outputs": [
        {
          "internalType": "uint256",
          "name": "lockupLength",
          "type": "uint256"
        }
      ],
      "payable": false,
      "stateMutability": "view",
      "type": "function"
    },
    {
      "constant": true,
      "inputs": [
        {
          "internalType": "address",
          "name": "_userId",
          "type": "address"
        }
      ],
      "name": "getAuthorizedUserIdInfo",
      "outputs": [
        {
          "internalType": "uint256",
          "name": "jurisdictionId",
          "type": "uint256"
        },
        {
          "internalType": "uint256",
          "name": "totalTokensLocked",
          "type": "uint256"
        },
        {
          "internalType": "uint256",
          "name": "startIndex",
          "type": "uint256"
        },
        {
          "internalType": "uint256",
          "name": "endIndex",
          "type": "uint256"
        }
      ],
      "payable": false,
      "stateMutability": "view",
      "type": "function"
    },
    {
      "constant": true,
      "inputs": [
        {
          "internalType": "address",
          "name": "_userId",
          "type": "address"
        },
        {
          "internalType": "uint256",
          "name": "_lockupIndex",
          "type": "uint256"
        }
      ],
      "name": "getUserIdLockup",
      "outputs": [
        {
          "internalType": "uint256",
          "name": "lockupExpirationDate",
          "type": "uint256"
        },
        {
          "internalType": "uint256",
          "name": "numberOfTokensLocked",
          "type": "uint256"
        }
      ],
      "payable": false,
      "stateMutability": "view",
      "type": "function"
    },
    {
      "constant": true,
      "inputs": [
        {
          "internalType": "address",
          "name": "_userId",
          "type": "address"
        }
      ],
      "name": "getLockedTokenCount",
      "outputs": [
        {
          "internalType": "uint256",
          "name": "lockedTokens",
          "type": "uint256"
        }
      ],
      "payable": false,
      "stateMutability": "view",
      "type": "function"
    },
    {
      "constant": true,
      "inputs": [
        {
          "internalType": "address",
          "name": "_from",
          "type": "address"
        },
        {
          "internalType": "address",
          "name": "_to",
          "type": "address"
        },
        {
          "internalType": "uint256",
          "name": "",
          "type": "uint256"
        }
      ],
      "name": "detectTransferRestriction",
      "outputs": [
        {
          "internalType": "uint8",
          "name": "status",
          "type": "uint8"
        }
      ],
      "payable": false,
      "stateMutability": "view",
      "type": "function"
    },
    {
      "constant": true,
      "inputs": [
        {
          "internalType": "uint8",
          "name": "_restrictionCode",
          "type": "uint8"
        }
      ],
      "name": "messageForTransferRestriction",
      "outputs": [
        {
          "internalType": "string",
          "name": "",
          "type": "string"
        }
      ],
      "payable": false,
      "stateMutability": "pure",
      "type": "function"
    },
    {
      "constant": false,
      "inputs": [
        {
          "internalType": "address",
          "name": "_callingContract",
          "type": "address"
        }
      ],
      "name": "initialize",
      "outputs": [],
      "payable": false,
      "stateMutability": "nonpayable",
      "type": "function"
    },
    {
      "constant": false,
      "inputs": [
        {
          "internalType": "uint256",
          "name": "_startDate",
          "type": "uint256"
        },
        {
          "internalType": "uint256",
          "name": "_lockupGranularity",
          "type": "uint256"
        }
      ],
      "name": "configWhitelist",
      "outputs": [],
      "payable": false,
      "stateMutability": "nonpayable",
      "type": "function"
    },
    {
      "constant": false,
      "inputs": [
        {
          "internalType": "uint256[]",
          "name": "_fromJurisdictionIds",
          "type": "uint256[]"
        },
        {
          "internalType": "uint256[]",
          "name": "_toJurisdictionIds",
          "type": "uint256[]"
        },
        {
          "internalType": "uint256[]",
          "name": "_lockupLengths",
          "type": "uint256[]"
        }
      ],
      "name": "updateJurisdictionFlows",
      "outputs": [],
      "payable": false,
      "stateMutability": "nonpayable",
      "type": "function"
    },
    {
      "constant": false,
      "inputs": [
        {
          "internalType": "address[]",
          "name": "_traders",
          "type": "address[]"
        },
        {
          "internalType": "uint256[]",
          "name": "_jurisdictionIds",
          "type": "uint256[]"
        }
      ],
      "name": "approveNewUsers",
      "outputs": [],
      "payable": false,
      "stateMutability": "nonpayable",
      "type": "function"
    },
    {
      "constant": false,
      "inputs": [
        {
          "internalType": "address[]",
          "name": "_userIds",
          "type": "address[]"
        },
        {
          "internalType": "address[]",
          "name": "_newWallets",
          "type": "address[]"
        }
      ],
      "name": "addApprovedUserWallets",
      "outputs": [],
      "payable": false,
      "stateMutability": "nonpayable",
      "type": "function"
    },
    {
      "constant": false,
      "inputs": [
        {
          "internalType": "address[]",
          "name": "_wallets",
          "type": "address[]"
        }
      ],
      "name": "revokeUserWallets",
      "outputs": [],
      "payable": false,
      "stateMutability": "nonpayable",
      "type": "function"
    },
    {
      "constant": false,
      "inputs": [
        {
          "internalType": "address[]",
          "name": "_userIds",
          "type": "address[]"
        },
        {
          "internalType": "uint256[]",
          "name": "_jurisdictionIds",
          "type": "uint256[]"
        }
      ],
      "name": "updateJurisdictionsForUserIds",
      "outputs": [],
      "payable": false,
      "stateMutability": "nonpayable",
      "type": "function"
    },
    {
      "constant": false,
      "inputs": [
        {
          "internalType": "address[]",
          "name": "_userIds",
          "type": "address[]"
        },
        {
          "internalType": "uint256[]",
          "name": "_lockupExpirationDates",
          "type": "uint256[]"
        },
        {
          "internalType": "uint256[]",
          "name": "_numberOfTokensLocked",
          "type": "uint256[]"
        }
      ],
      "name": "addLockups",
      "outputs": [],
      "payable": false,
      "stateMutability": "nonpayable",
      "type": "function"
    },
    {
      "constant": false,
      "inputs": [
        {
          "internalType": "address",
          "name": "_userId",
          "type": "address"
        },
        {
          "internalType": "uint256",
          "name": "_maxCount",
          "type": "uint256"
        }
      ],
      "name": "processLockups",
      "outputs": [],
      "payable": false,
      "stateMutability": "nonpayable",
      "type": "function"
    },
    {
      "constant": false,
      "inputs": [
        {
          "internalType": "address",
          "name": "_userId",
          "type": "address"
        },
        {
          "internalType": "uint256",
          "name": "_maxCount",
          "type": "uint256"
        }
      ],
      "name": "forceUnlock",
      "outputs": [],
      "payable": false,
      "stateMutability": "nonpayable",
      "type": "function"
    },
    {
      "constant": false,
      "inputs": [
        {
          "internalType": "address",
          "name": "_from",
          "type": "address"
        },
        {
          "internalType": "address",
          "name": "_to",
          "type": "address"
        },
        {
          "internalType": "uint256",
          "name": "_value",
          "type": "uint256"
        },
        {
          "internalType": "bool",
          "name": "_isSell",
          "type": "bool"
        }
      ],
      "name": "authorizeTransfer",
      "outputs": [],
      "payable": false,
      "stateMutability": "nonpayable",
      "type": "function"
    }
  ],
  "bytecode": "0x6080604052612910806100136000396000f3fe608060405234801561001057600080fd5b50600436106101cf5760003560e01c806378084d7111610104578063c4d66de8116100a2578063e91e7fc511610071578063e91e7fc51461097e578063f20b7e7b146109a4578063f2fde38b146109f0578063ff93b73914610a16576101cf565b8063c4d66de8146108e1578063d4ce141514610907578063dabf9a2314610953578063ddbe65a214610976576101cf565b80638f32d59b116100de5780638f32d59b1461086a5780639870d7fe14610872578063ac8a584a14610898578063b14abf42146108be576101cf565b806378084d71146107a15780637f4ab1dd146107cd5780638da5cb5b14610862576101cf565b806336dffedf1161017157806365dc74541161014b57806365dc7454146106585780636b1278e81461071a5780636d70f7ae1461075f578063715018a614610799576101cf565b806336dffedf1461052c57806339e18c1d1461056a5780635c7700df1461062c576101cf565b8063273c14e5116101ad578063273c14e5146102d65780632ab6f8db146103ea5780632bfc388e146103f2578063355003ae14610506576101cf565b80630b97bc86146101d457806316f3b322146101ee578063224206e2146102b2575b600080fd5b6101dc610a86565b60408051918252519081900360200190f35b6102b06004803603604081101561020457600080fd5b81019060208101813564010000000081111561021f57600080fd5b82018360208201111561023157600080fd5b8035906020019184602083028401116401000000008311171561025357600080fd5b91939092909160208101903564010000000081111561027157600080fd5b82018360208201111561028357600080fd5b803590602001918460208302840111640100000000831117156102a557600080fd5b509092509050610a8c565b005b6102ba610ccb565b604080516001600160a01b039092168252519081900360200190f35b6102b0600480360360608110156102ec57600080fd5b81019060208101813564010000000081111561030757600080fd5b82018360208201111561031957600080fd5b8035906020019184602083028401116401000000008311171561033b57600080fd5b91939092909160208101903564010000000081111561035957600080fd5b82018360208201111561036b57600080fd5b8035906020019184602083028401116401000000008311171561038d57600080fd5b9193909290916020810190356401000000008111156103ab57600080fd5b8201836020820111156103bd57600080fd5b803590602001918460208302840111640100000000831117156103df57600080fd5b509092509050610cda565b6102b0610e5e565b6102b06004803603606081101561040857600080fd5b81019060208101813564010000000081111561042357600080fd5b82018360208201111561043557600080fd5b8035906020019184602083028401116401000000008311171561045757600080fd5b91939092909160208101903564010000000081111561047557600080fd5b82018360208201111561048757600080fd5b803590602001918460208302840111640100000000831117156104a957600080fd5b9193909290916020810190356401000000008111156104c757600080fd5b8201836020820111156104d957600080fd5b803590602001918460208302840111640100000000831117156104fb57600080fd5b509092509050610e69565b6102ba6004803603602081101561051c57600080fd5b50356001600160a01b0316610f0b565b6102b06004803603608081101561054257600080fd5b506001600160a01b038135811691602081013590911690604081013590606001351515610f26565b6102b06004803603604081101561058057600080fd5b81019060208101813564010000000081111561059b57600080fd5b8201836020820111156105ad57600080fd5b803590602001918460208302840111640100000000831117156105cf57600080fd5b9193909290916020810190356401000000008111156105ed57600080fd5b8201836020820111156105ff57600080fd5b8035906020019184602083028401116401000000008311171561062157600080fd5b509092509050611365565b6102b06004803603604081101561064257600080fd5b506001600160a01b03813516906020013561153f565b6102b06004803603604081101561066e57600080fd5b81019060208101813564010000000081111561068957600080fd5b82018360208201111561069b57600080fd5b803590602001918460208302840111640100000000831117156106bd57600080fd5b9193909290916020810190356401000000008111156106db57600080fd5b8201836020820111156106ed57600080fd5b8035906020019184602083028401116401000000008311171561070f57600080fd5b509092509050611617565b6107466004803603604081101561073057600080fd5b506001600160a01b0381351690602001356117ac565b6040805192835260208301919091528051918290030190f35b6107856004803603602081101561077557600080fd5b50356001600160a01b03166117fe565b604080519115158252519081900360200190f35b6102b0611819565b6102b0600480360360408110156107b757600080fd5b506001600160a01b0381351690602001356118d4565b6107ed600480360360208110156107e357600080fd5b503560ff16611968565b6040805160208082528351818301528351919283929083019185019080838360005b8381101561082757818101518382015260200161080f565b50505050905090810190601f1680156108545780820380516001836020036101000a031916815260200191505b509250505060405180910390f35b6102ba611ab7565b610785611ac6565b6102b06004803603602081101561088857600080fd5b50356001600160a01b0316611aec565b6102b0600480360360208110156108ae57600080fd5b50356001600160a01b0316611b51565b6102b0600480360360408110156108d457600080fd5b5080359060200135611bb3565b6102b0600480360360208110156108f757600080fd5b50356001600160a01b0316611c54565b61093d6004803603606081101561091d57600080fd5b506001600160a01b03813581169160208101359091169060400135611c9f565b6040805160ff9092168252519081900360200190f35b6101dc6004803603604081101561096957600080fd5b5080359060200135611d8a565b6101dc611da7565b6101dc6004803603602081101561099457600080fd5b50356001600160a01b0316611dad565b6109ca600480360360208110156109ba57600080fd5b50356001600160a01b0316611e7e565b604080519485526020850193909352838301919091526060830152519081900360800190f35b6102b060048036036020811015610a0657600080fd5b50356001600160a01b0316611ee7565b6102b060048036036020811015610a2c57600080fd5b810190602081018135640100000000811115610a4757600080fd5b820183602082011115610a5957600080fd5b80359060200191846020830284011164010000000083111715610a7b57600080fd5b509092509050611f49565b609a5481565b610a95336117fe565b610ad05760405162461bcd60e51b81526004018080602001828103825260348152602001806128166034913960400191505060405180910390fd5b8260005b81811015610cc3576000868683818110610aea57fe5b6001600160a01b036020918202939093013583166000818152609d909252604090912054909350909116159050610b68576040805162461bcd60e51b815260206004820152601960248201527f555345525f57414c4c45545f414c52454144595f414444454400000000000000604482015290519081900360640190fd5b6001600160a01b0381166000908152609e602052604090205415610bd3576040805162461bcd60e51b815260206004820152601560248201527f555345525f49445f414c52454144595f41444445440000000000000000000000604482015290519081900360640190fd5b6000858584818110610be157fe5b9050602002013590508060001415610c40576040805162461bcd60e51b815260206004820152601760248201527f494e56414c49445f4a5552495344494354494f4e5f4944000000000000000000604482015290519081900360640190fd5b6001600160a01b0382166000818152609d6020908152604080832080547fffffffffffffffffffffffff00000000000000000000000000000000000000001685179055609e909152808220849055513392849290917fd063c5c14c27af07d5cd2f3e746975a6e2b806d4df0046f3734004ea82746bed9190a45050600101610ad4565b505050505050565b6099546001600160a01b031681565b610ce2611ac6565b610d33576040805162461bcd60e51b815260206004820181905260248201527f4f776e61626c653a2063616c6c6572206973206e6f7420746865206f776e6572604482015290519081900360640190fd5b8460005b81811015610e54576000888883818110610d4d57fe5b9050602002013590506000878784818110610d6457fe5b905060200201359050600082118015610d7d5750600081115b610dce576040805162461bcd60e51b815260206004820152601760248201527f494e56414c49445f4a5552495344494354494f4e5f4944000000000000000000604482015290519081900360640190fd5b858584818110610dda57fe5b6000858152609c60209081526040808320878452825290912091029290920135909155503381837f6b826749e25c3a52bd30d3153eca908526472a2941794c2255277b75e54ee232898988818110610e2e57fe5b905060200201356040518082815260200191505060405180910390a45050600101610d37565b5050505050505050565b610e6733612095565b565b610e72336117fe565b610ead5760405162461bcd60e51b81526004018080602001828103825260348152602001806128166034913960400191505060405180910390fd5b8460005b81811015610e5457610f03888883818110610ec857fe5b905060200201356001600160a01b0316878784818110610ee457fe5b90506020020135868685818110610ef757fe5b905060200201356120dd565b600101610eb1565b609d602052600090815260409020546001600160a01b031681565b6099546001600160a01b03163314610f85576040805162461bcd60e51b815260206004820152601660248201527f43414c4c5f5649415f434f4e54524143545f4f4e4c5900000000000000000000604482015290519081900360640190fd5b6001600160a01b038316158015610f9a575080155b15610fa45761135f565b6001600160a01b038085166000908152609d60205260409020541680151580610fd457506001600160a01b038516155b611025576040805162461bcd60e51b815260206004820152601160248201527f46524f4d5f555345525f554e4b4e4f574e000000000000000000000000000000604482015290519081900360640190fd5b6001600160a01b038085166000908152609d6020526040902054168015158061105557506001600160a01b038516155b6110a6576040805162461bcd60e51b815260206004820152600f60248201527f544f5f555345525f554e4b4e4f574e0000000000000000000000000000000000604482015290519081900360640190fd5b806001600160a01b0316826001600160a01b031614610cc3576001600160a01b038083166000908152609e6020908152604080832054938516835280832054848452609c8352818420818552909252909120548061114b576040805162461bcd60e51b815260206004820152601960248201527f44454e4945443a204a5552495344494354494f4e5f464c4f5700000000000000604482015290519081900360640190fd5b60018111801561116357506001600160a01b03881615155b156111785742810161117685828a6120dd565b505b6001600160a01b0389166111e257609a544210156111dd576040805162461bcd60e51b815260206004820152601360248201527f574149545f464f525f53544152545f4441544500000000000000000000000000604482015290519081900360640190fd5b611359565b6001600160a01b0385166000908152609e602052604090205b61120781876000612282565b1561121157611216565b6111fb565b609954604080517f70a082310000000000000000000000000000000000000000000000000000000081526001600160a01b038d81166004830152915160009392909216916370a0823191602480820192602092909190829003018186803b15801561128057600080fd5b505afa158015611294573d6000803e3d6000fd5b505050506040513d60208110156112aa57600080fd5b5051905088811015611303576040805162461bcd60e51b815260206004820152601460248201527f494e53554646494349454e545f42414c414e4345000000000000000000000000604482015290519081900360640190fd5b6001820154611318908a63ffffffff61235216565b8110156113565760405162461bcd60e51b815260040180806020018281038252602181526020018061284a6021913960400191505060405180910390fd5b50505b50505050505b50505050565b61136e336117fe565b6113a95760405162461bcd60e51b81526004018080602001828103825260348152602001806128166034913960400191505060405180910390fd5b8260005b81811015610cc35760008686838181106113c357fe5b602090810292909201356001600160a01b03166000818152609e90935260409092205491925061143c9050576040805162461bcd60e51b815260206004820152600f60248201527f555345525f49445f554e4b4e4f574e0000000000000000000000000000000000604482015290519081900360640190fd5b600085858481811061144a57fe5b6001600160a01b036020918202939093013583166000818152609d9092526040909120549093509091161590506114c8576040805162461bcd60e51b815260206004820152601460248201527f57414c4c45545f414c52454144595f4144444544000000000000000000000000604482015290519081900360640190fd5b6001600160a01b038181166000818152609d602052604080822080547fffffffffffffffffffffffff0000000000000000000000000000000000000000169487169485179055513393917f53e962e61fe9ce77833285621e927b34612795a901a9d0814afec8c1732aa86291a450506001016113ad565b611548336117fe565b6115835760405162461bcd60e51b81526004018080602001828103825260348152602001806128166034913960400191505060405180910390fd5b6001600160a01b0382166000908152609e6020526040902080546115ee576040805162461bcd60e51b815260206004820152600f60248201527f555345525f49445f554e4b4e4f574e0000000000000000000000000000000000604482015290519081900360640190fd5b60005b8281101561135f5761160582856001612282565b1561160f5761135f565b6001016115f1565b611620336117fe565b61165b5760405162461bcd60e51b81526004018080602001828103825260348152602001806128166034913960400191505060405180910390fd5b8260005b81811015610cc357600086868381811061167557fe5b602090810292909201356001600160a01b03166000818152609e9093526040909220549192506116ee9050576040805162461bcd60e51b815260206004820152600f60248201527f555345525f49445f554e4b4e4f574e0000000000000000000000000000000000604482015290519081900360640190fd5b60008585848181106116fc57fe5b905060200201359050806000141561175b576040805162461bcd60e51b815260206004820152601760248201527f494e56414c49445f4a5552495344494354494f4e5f4944000000000000000000604482015290519081900360640190fd5b6001600160a01b0382166000818152609e6020526040808220849055513392849290917f5d97ebcd5ff20c95c3c5deb68791a187b6b51625d256e95baa0a881b1c3548d99190a4505060010161165f565b6000806117b76127ad565b5050506001600160a01b03919091166000908152609f6020908152604080832093835292815290829020825180840190935280548084526001909101549290910182905291565b600061181160668363ffffffff6123ac16565b90505b919050565b611821611ac6565b611872576040805162461bcd60e51b815260206004820181905260248201527f4f776e61626c653a2063616c6c6572206973206e6f7420746865206f776e6572604482015290519081900360640190fd5b6033546040516000916001600160a01b0316907f8be0079c531659141344cd1fd0a4f28419497f9722a3daafe3b4186f6b6457e0908390a3603380547fffffffffffffffffffffffff0000000000000000000000000000000000000000169055565b6001600160a01b0382166000908152609e60205260409020805461193f576040805162461bcd60e51b815260206004820152600f60248201527f555345525f49445f554e4b4e4f574e0000000000000000000000000000000000604482015290519081900360640190fd5b60005b8281101561135f5761195682856000612282565b156119605761135f565b600101611942565b606060ff82166119ac575060408051808201909152600781527f53554343455353000000000000000000000000000000000000000000000000006020820152611814565b60ff8216600114156119f2575060408051808201909152601981527f44454e4945443a204a5552495344494354494f4e5f464c4f57000000000000006020820152611814565b60ff821660021415611a38575060408051808201909152600e81527f44454e4945443a204c4f434b55500000000000000000000000000000000000006020820152611814565b60ff821660031415611a7e575060408051808201909152601481527f44454e4945443a20555345525f554e4b4e4f574e0000000000000000000000006020820152611814565b505060408051808201909152601581527f44454e4945443a20554e4b4e4f574e5f4552524f520000000000000000000000602082015290565b6033546001600160a01b031690565b6033546000906001600160a01b0316611add612413565b6001600160a01b031614905090565b611af4611ac6565b611b45576040805162461bcd60e51b815260206004820181905260248201527f4f776e61626c653a2063616c6c6572206973206e6f7420746865206f776e6572604482015290519081900360640190fd5b611b4e81612417565b50565b611b59611ac6565b611baa576040805162461bcd60e51b815260206004820181905260248201527f4f776e61626c653a2063616c6c6572206973206e6f7420746865206f776e6572604482015290519081900360640190fd5b611b4e81612095565b611bbb611ac6565b611c0c576040805162461bcd60e51b815260206004820181905260248201527f4f776e61626c653a2063616c6c6572206973206e6f7420746865206f776e6572604482015290519081900360640190fd5b609a829055609b8190556040805183815260208101839052815133927f351bf262cacaf0ec30f703f14f08fe31647e71580fb5b0d950ba3c274144b5ae928290030190a25050565b611c5d3361245f565b611c656125c1565b609980547fffffffffffffffffffffffff0000000000000000000000000000000000000000166001600160a01b0392909216919091179055565b6001600160a01b038084166000908152609d6020526040808220548584168352908220549192908116911681158015611ce057506001600160a01b03861615155b80611d0557506001600160a01b038116158015611d0557506001600160a01b03851615155b15611d1557600392505050611d83565b806001600160a01b0316826001600160a01b031614611d7c576001600160a01b038083166000908152609e6020908152604080832054938516835280832054848452609c835281842081855290925290912054611d79576001945050505050611d83565b50505b6000925050505b9392505050565b6000918252609c6020908152604080842092845291905290205490565b609b5481565b6000611db76127c7565b50506001600160a01b0381166000908152609e6020908152604091829020825160808101845281548152600182015492810183905260028201549381018490526003909101546060820181905291929091905b81811015611e7657611e1a6127ad565b506001600160a01b0385166000908152609f602090815260408083208484528252918290208251808401909352805480845260019091015491830191909152421015611e665750611e76565b6020015190930392600101611e0a565b505050919050565b600080600080611e8c6127c7565b505050506001600160a01b03919091166000908152609e602090815260409182902082516080810184528154808252600183015493820184905260028301549482018590526003909201546060909101819052909491935090565b611eef611ac6565b611f40576040805162461bcd60e51b815260206004820181905260248201527f4f776e61626c653a2063616c6c6572206973206e6f7420746865206f776e6572604482015290519081900360640190fd5b611b4e816125ca565b611f52336117fe565b611f8d5760405162461bcd60e51b81526004018080602001828103825260348152602001806128166034913960400191505060405180910390fd5b8060005b8181101561135f576000848483818110611fa757fe5b6001600160a01b036020918202939093013583166000818152609d90925260409091205490935090911615159050612026576040805162461bcd60e51b815260206004820152601060248201527f57414c4c45545f4e4f545f464f554e4400000000000000000000000000000000604482015290519081900360640190fd5b6001600160a01b0381166000818152609d602052604080822080547fffffffffffffffffffffffff0000000000000000000000000000000000000000169055513392917f2007443167b0169b3aa7607d3d8b1c34e46c921c9ced575762b2f22d737a3d0991a350600101611f91565b6120a660668263ffffffff61268316565b6040516001600160a01b038216907f80c0b871b97b595b16a7741c1b06fed0c6f6f558639f18ccbce50724325dc40d90600090a250565b8015806120ea5750428211155b156120f45761227d565b6040805183815260208101839052815133926001600160a01b038716927f0c2a6928dd0ff2711056b955763131ec1585c1913f3b5f543edbee23b95c2bf6929081900390910190a36001600160a01b0383166000908152609e6020526040902080546121a7576040805162461bcd60e51b815260206004820152600f60248201527f555345525f49445f554e4b4e4f574e0000000000000000000000000000000000604482015290519081900360640190fd5b60018101546121bc908363ffffffff61235216565b6001820155600381015415612231576001600160a01b0384166000908152609f6020908152604080832060038501547fffffffffffffffffffffffffffffffffffffffffffffffffffffffffffffffff0184529091529020609b54815401841161222f576001018054830190555061227d565b505b60408051808201825284815260208082018581526001600160a01b0388166000908152609f83528481206003909601805482529590925292902090518155905160019182015581540190555b505050565b6000836003015484600201541061229b57506001611d83565b6001600160a01b0383166000908152609f602090815260408083206002880154845290915290208054421080156122d0575082155b156122df576001915050611d83565b6001810154604080519182525133916001600160a01b038716917f899c46f518cbddf4064d807f68b89d253cbd3a60590c1cfda1ebc7be1bd4f85a9181900360200190a3600181810180548783018054919091039055600290960180549091019055600094859055849055509192915050565b600082820183811015611d83576040805162461bcd60e51b815260206004820152601b60248201527f536166654d6174683a206164646974696f6e206f766572666c6f770000000000604482015290519081900360640190fd5b60006001600160a01b0382166123f35760405162461bcd60e51b815260040180806020018281038252602281526020018061288c6022913960400191505060405180910390fd5b506001600160a01b03166000908152602091909152604090205460ff1690565b3390565b61242860668263ffffffff61270816565b6040516001600160a01b038216907fac6fa858e9350a46cec16539926e0fde25b7629f84b5a72bffaae4df888ae86d90600090a250565b600054610100900460ff168061247857506124786127a7565b80612486575060005460ff16155b6124c15760405162461bcd60e51b815260040180806020018281038252602e8152602001806128ae602e913960400191505060405180910390fd5b600054610100900460ff1615801561252757600080547fffffffffffffffffffffffffffffffffffffffffffffffffffffffffffffff007fffffffffffffffffffffffffffffffffffffffffffffffffffffffffffff00ff909116610100171660011790555b603380547fffffffffffffffffffffffff0000000000000000000000000000000000000000166001600160a01b0384811691909117918290556040519116906000907f8be0079c531659141344cd1fd0a4f28419497f9722a3daafe3b4186f6b6457e0908290a380156125bd57600080547fffffffffffffffffffffffffffffffffffffffffffffffffffffffffffff00ff1690555b5050565b610e6733612417565b6001600160a01b03811661260f5760405162461bcd60e51b81526004018080602001828103825260268152602001806127f06026913960400191505060405180910390fd5b6033546040516001600160a01b038084169216907f8be0079c531659141344cd1fd0a4f28419497f9722a3daafe3b4186f6b6457e090600090a3603380547fffffffffffffffffffffffff0000000000000000000000000000000000000000166001600160a01b0392909216919091179055565b61268d82826123ac565b6126c85760405162461bcd60e51b815260040180806020018281038252602181526020018061286b6021913960400191505060405180910390fd5b6001600160a01b031660009081526020919091526040902080547fffffffffffffffffffffffffffffffffffffffffffffffffffffffffffffff00169055565b61271282826123ac565b15612764576040805162461bcd60e51b815260206004820152601f60248201527f526f6c65733a206163636f756e7420616c72656164792068617320726f6c6500604482015290519081900360640190fd5b6001600160a01b031660009081526020919091526040902080547fffffffffffffffffffffffffffffffffffffffffffffffffffffffffffffff00166001179055565b303b1590565b604051806040016040528060008152602001600081525090565b604051806080016040528060008152602001600081526020016000815260200160008152509056fe4f776e61626c653a206e6577206f776e657220697320746865207a65726f20616464726573734f70657261746f72526f6c653a2063616c6c657220646f6573206e6f74206861766520746865204f70657261746f7220726f6c65494e53554646494349454e545f5452414e5346455241424c455f42414c414e4345526f6c65733a206163636f756e7420646f6573206e6f74206861766520726f6c65526f6c65733a206163636f756e7420697320746865207a65726f2061646472657373436f6e747261637420696e7374616e63652068617320616c7265616479206265656e20696e697469616c697a6564a265627a7a72315820322296c755a41e8605b219e3a18b521659dbeb01a1321dbc77cf5c9064e9480b64736f6c63430005100032",
  "source": "pragma solidity 0.5.16;\n\n\nimport \"./interfaces/IWhitelist.sol\";\nimport \"@openzeppelin/contracts-ethereum-package/contracts/math/SafeMath.sol\";\nimport \"@openzeppelin/contracts-ethereum-package/contracts/ownership/Ownable.sol\";\nimport \"@openzeppelin/contracts-ethereum-package/contracts/token/ERC20/IERC20.sol\";\nimport \"./mixins/OperatorRole.sol\";\n\n/**\n * @notice whitelist which manages KYC approvals, token lockup, and transfer\n * restrictions for a DAT token.\n */\ncontract Whitelist is IWhitelist, Ownable, OperatorRole\n{\n  using SafeMath for uint;\n\n  // uint8 status codes as suggested by the ERC-1404 spec\n  uint8 constant private STATUS_SUCCESS = 0;\n  uint8 constant private STATUS_ERROR_JURISDICTION_FLOW = 1;\n  uint8 constant private STATUS_ERROR_LOCKUP = 2;\n  uint8 constant private STATUS_ERROR_USER_UNKNOWN = 3;\n\n  event ConfigWhitelist(\n    uint _startDate,\n    uint _lockupGranularity,\n    address indexed _operator\n  );\n  event UpdateJurisdictionFlow(\n    uint indexed _fromJurisdictionId,\n    uint indexed _toJurisdictionId,\n    uint _lockupLength,\n    address indexed _operator\n  );\n  event ApproveNewUser(\n    address indexed _trader,\n    uint indexed _jurisdictionId,\n    address indexed _operator\n  );\n  event AddApprovedUserWallet(\n    address indexed _userId,\n    address indexed _newWallet,\n    address indexed _operator\n  );\n  event RevokeUserWallet(\n    address indexed _wallet,\n    address indexed _operator\n  );\n  event UpdateJurisdictionForUserId(\n    address indexed _userId,\n    uint indexed _jurisdictionId,\n    address indexed _operator\n  );\n  event AddLockup(\n    address indexed _userId,\n    uint _lockupExpirationDate,\n    uint _numberOfTokensLocked,\n    address indexed _operator\n  );\n  event UnlockTokens(\n    address indexed _userId,\n    uint _tokensUnlocked,\n    address indexed _operator\n  );\n\n  /**\n   * @notice the address of the contract this whitelist manages.\n   * @dev this cannot change after initialization\n   */\n  IERC20 public callingContract;\n\n  /**\n   * @notice blocks all new purchases until now >= startDate.\n   * @dev this can be changed by the owner at any time\n   */\n  uint public startDate;\n\n  /**\n   * @notice Merges lockup entries when the time delta between\n   * them is less than this value.\n   * @dev this can be changed by the owner at any time\n   */\n  uint public lockupGranularity;\n\n  /**\n   * @notice Maps the `from` jurisdiction to the `to` jurisdiction to determine if\n   * transfers between these entities are allowed and if a token lockup should apply:\n   * - 0 means transfers between these jurisdictions is blocked (the default)\n   * - 1 is supported with no token lockup required\n   * - >1 is supported and this value defines the lockup length in seconds\n   * @dev You can read data externally with `getJurisdictionFlow`.\n   * This configuration can be modified by the owner at any time\n   */\n  mapping(uint => mapping(uint => uint)) internal jurisdictionFlows;\n\n  /**\n   * @notice Maps a KYC'd user addresses to their userId.\n   * @dev The first entry for each user should set userId = user address.\n   * Future entries can use the same userId for shared accounts\n   * (e.g. a single user with multiple wallets).\n   *\n   * All wallets with the same userId share the same token lockup.\n   */\n  mapping(address => address) public authorizedWalletToUserId;\n\n  /**\n   * @notice info stored for each userId.\n   */\n  struct UserInfo\n  {\n    // The user's current jurisdictionId or 0 for unknown (the default)\n    uint jurisdictionId;\n    // The number of tokens locked, with details tracked in userIdLockups\n    uint totalTokensLocked;\n    // The first applicable entry in userIdLockups\n    uint startIndex;\n    // The last applicable entry in userIdLockups + 1\n    uint endIndex;\n  }\n\n  /**\n   * @notice Maps the userId to UserInfo.\n   * @dev You can read data externally with `getAuthorizedUserIdInfo`.\n   */\n  mapping(address => UserInfo) internal authorizedUserIdInfo;\n\n  /**\n   * @notice info stored for each token lockup.\n   */\n  struct Lockup\n  {\n    // The date/time that this lockup entry has expired and the tokens may be transferred\n    uint lockupExpirationDate;\n    // How many tokens locked until the given expiration date.\n    uint numberOfTokensLocked;\n  }\n\n  /**\n   * @notice Maps the userId -> lockup entry index -> a Lockup entry\n   * @dev Indexes are tracked by the UserInfo entries.\n   * You can read data externally with `getUserIdLockup`.\n   * We assume lockups are always added in order of expiration date -\n   * if that assumption does not hold, some tokens may remain locked\n   * until older lockup entries from that user have expired.\n   */\n  mapping(address => mapping(uint => Lockup)) internal userIdLockups;\n\n  /**\n   * @notice checks for transfer restrictions between jurisdictions.\n   * @return if transfers between these jurisdictions are allowed and if a\n   * token lockup should apply:\n   * - 0 means transfers between these jurisdictions is blocked (the default)\n   * - 1 is supported with no token lockup required\n   * - >1 is supported and this value defines the lockup length in seconds\n   */\n  function getJurisdictionFlow(\n    uint _fromJurisdictionId,\n    uint _toJurisdictionId\n  ) external view\n    returns (uint lockupLength)\n  {\n    return jurisdictionFlows[_fromJurisdictionId][_toJurisdictionId];\n  }\n\n  /**\n   * @notice checks details for a given userId.\n   */\n  function getAuthorizedUserIdInfo(\n    address _userId\n  ) external view\n    returns (\n      uint jurisdictionId,\n      uint totalTokensLocked,\n      uint startIndex,\n      uint endIndex\n    )\n  {\n    UserInfo memory info = authorizedUserIdInfo[_userId];\n    return (info.jurisdictionId, info.totalTokensLocked, info.startIndex, info.endIndex);\n  }\n\n  /**\n   * @notice gets a specific lockup entry for a userId.\n   * @dev use `getAuthorizedUserIdInfo` to determine the range of applicable lockupIndex.\n   */\n  function getUserIdLockup(\n    address _userId,\n    uint _lockupIndex\n  ) external view\n    returns (uint lockupExpirationDate, uint numberOfTokensLocked)\n  {\n    Lockup memory lockup = userIdLockups[_userId][_lockupIndex];\n    return (lockup.lockupExpirationDate, lockup.numberOfTokensLocked);\n  }\n\n  /**\n   * @notice Returns the number of unlocked tokens a given userId has available.\n   * @dev this is a `view`-only way to determine how many tokens are still locked\n   * (info.totalTokensLocked is only accurate after processing lockups which changes state)\n   */\n  function getLockedTokenCount(\n    address _userId\n  ) external view\n    returns (uint lockedTokens)\n  {\n    UserInfo memory info = authorizedUserIdInfo[_userId];\n    lockedTokens = info.totalTokensLocked;\n    uint endIndex = info.endIndex;\n    for(uint i = info.startIndex; i < endIndex; i++)\n    {\n      Lockup memory lockup = userIdLockups[_userId][i];\n      if(lockup.lockupExpirationDate > now)\n      {\n        // no more eligible entries\n        break;\n      }\n      // this lockup entry has expired and would be processed on the next tx\n      lockedTokens -= lockup.numberOfTokensLocked;\n    }\n  }\n\n  /**\n   * @notice Checks if there is a transfer restriction for the given addresses.\n   * Does not consider tokenLockup. Use `getLockedTokenCount` for that.\n   * @dev this function is from the erc-1404 standard and currently in use by the DAT\n   * for the `pay` feature.\n   */\n  function detectTransferRestriction(\n    address _from,\n    address _to,\n    uint /* _value */\n  ) external view\n    returns(uint8 status)\n  {\n    address fromUserId = authorizedWalletToUserId[_from];\n    address toUserId = authorizedWalletToUserId[_to];\n    if(\n      (fromUserId == address(0) && _from != address(0)) ||\n      (toUserId == address(0) && _to != address(0))\n    )\n    {\n      return STATUS_ERROR_USER_UNKNOWN;\n    }\n    if(fromUserId != toUserId)\n    {\n      uint fromJurisdictionId = authorizedUserIdInfo[fromUserId].jurisdictionId;\n      uint toJurisdictionId = authorizedUserIdInfo[toUserId].jurisdictionId;\n      if(jurisdictionFlows[fromJurisdictionId][toJurisdictionId] == 0)\n      {\n        return STATUS_ERROR_JURISDICTION_FLOW;\n      }\n    }\n\n    return STATUS_SUCCESS;\n  }\n\n  function messageForTransferRestriction(\n    uint8 _restrictionCode\n  ) external pure\n    returns (string memory)\n  {\n    if(_restrictionCode == STATUS_SUCCESS)\n    {\n      return \"SUCCESS\";\n    }\n    if(_restrictionCode == STATUS_ERROR_JURISDICTION_FLOW)\n    {\n      return \"DENIED: JURISDICTION_FLOW\";\n    }\n    if(_restrictionCode == STATUS_ERROR_LOCKUP)\n    {\n      return \"DENIED: LOCKUP\";\n    }\n    if(_restrictionCode == STATUS_ERROR_USER_UNKNOWN)\n    {\n      return \"DENIED: USER_UNKNOWN\";\n    }\n    return \"DENIED: UNKNOWN_ERROR\";\n  }\n\n  /**\n   * @notice Called once to complete configuration for this contract.\n   * @dev Done with `initialize` instead of a constructor in order to support\n   * using this contract via an Upgradable Proxy.\n   */\n  function initialize(\n    address _callingContract\n  ) public\n  {\n    Ownable.initialize(msg.sender);\n    _initializeOperatorRole();\n    callingContract = IERC20(_callingContract);\n  }\n\n  /**\n   * @notice Called by the owner to update the startDate or lockupGranularity.\n   */\n  function configWhitelist(\n    uint _startDate,\n    uint _lockupGranularity\n  ) external\n    onlyOwner()\n  {\n    startDate = _startDate;\n    lockupGranularity = _lockupGranularity;\n    emit ConfigWhitelist(_startDate, _lockupGranularity, msg.sender);\n  }\n\n  /**\n   * @notice Called by the owner to define or update jurisdiction flows.\n   * @param _lockupLengths defines transfer restrictions where:\n   * - 0 is not supported (the default)\n   * - 1 is supported with no token lockup required\n   * - >1 is supported and this value defines the lockup length in seconds.\n   * @dev note that this can be called with a partial list, only including entries\n   * to be added or which have changed.\n   */\n  function updateJurisdictionFlows(\n    uint[] calldata _fromJurisdictionIds,\n    uint[] calldata _toJurisdictionIds,\n    uint[] calldata _lockupLengths\n  ) external\n    onlyOwner()\n  {\n    uint count = _fromJurisdictionIds.length;\n    for(uint i = 0; i < count; i++)\n    {\n      uint fromJurisdictionId = _fromJurisdictionIds[i];\n      uint toJurisdictionId = _toJurisdictionIds[i];\n      require(fromJurisdictionId > 0 && toJurisdictionId > 0, \"INVALID_JURISDICTION_ID\");\n      jurisdictionFlows[fromJurisdictionId][toJurisdictionId] = _lockupLengths[i];\n      emit UpdateJurisdictionFlow(\n        fromJurisdictionId,\n        toJurisdictionId,\n        _lockupLengths[i],\n        msg.sender\n      );\n    }\n  }\n\n  /**\n   * @notice Called by an operator to add new traders.\n   * @dev The trader will be assigned a userId equal to their wallet address.\n   */\n  function approveNewUsers(\n    address[] calldata _traders,\n    uint[] calldata _jurisdictionIds\n  ) external\n    onlyOperator()\n  {\n    uint length = _traders.length;\n    for(uint i = 0; i < length; i++)\n    {\n      address trader = _traders[i];\n      require(authorizedWalletToUserId[trader] == address(0), \"USER_WALLET_ALREADY_ADDED\");\n      require(authorizedUserIdInfo[trader].jurisdictionId == 0, \"USER_ID_ALREADY_ADDED\");\n      uint jurisdictionId = _jurisdictionIds[i];\n      require(jurisdictionId != 0, \"INVALID_JURISDICTION_ID\");\n\n      authorizedWalletToUserId[trader] = trader;\n      authorizedUserIdInfo[trader].jurisdictionId = jurisdictionId;\n      emit ApproveNewUser(trader, jurisdictionId, msg.sender);\n    }\n  }\n\n  /**\n   * @notice Called by an operator to add wallets to known userIds.\n   */\n  function addApprovedUserWallets(\n    address[] calldata _userIds,\n    address[] calldata _newWallets\n  ) external\n    onlyOperator()\n  {\n    uint length = _userIds.length;\n    for(uint i = 0; i < length; i++)\n    {\n      address userId = _userIds[i];\n      require(authorizedUserIdInfo[userId].jurisdictionId != 0, \"USER_ID_UNKNOWN\");\n      address newWallet = _newWallets[i];\n      require(authorizedWalletToUserId[newWallet] == address(0), \"WALLET_ALREADY_ADDED\");\n\n      authorizedWalletToUserId[newWallet] = userId;\n      emit AddApprovedUserWallet(userId, newWallet, msg.sender);\n    }\n  }\n\n  /**\n   * @notice Called by an operator to revoke approval for the given wallets.\n   * @dev If this is called in error, you can restore access with `addApprovedUserWallets`.\n   */\n  function revokeUserWallets(\n    address[] calldata _wallets\n  ) external\n    onlyOperator()\n  {\n    uint length = _wallets.length;\n    for(uint i = 0; i < length; i++)\n    {\n      address wallet = _wallets[i];\n      require(authorizedWalletToUserId[wallet] != address(0), \"WALLET_NOT_FOUND\");\n\n      authorizedWalletToUserId[wallet] = address(0);\n      emit RevokeUserWallet(wallet, msg.sender);\n    }\n  }\n\n  /**\n   * @notice Called by an operator to change the jurisdiction\n   * for the given userIds.\n   */\n  function updateJurisdictionsForUserIds(\n    address[] calldata _userIds,\n    uint[] calldata _jurisdictionIds\n  ) external\n    onlyOperator()\n  {\n    uint length = _userIds.length;\n    for(uint i = 0; i < length; i++)\n    {\n      address userId = _userIds[i];\n      require(authorizedUserIdInfo[userId].jurisdictionId != 0, \"USER_ID_UNKNOWN\");\n      uint jurisdictionId = _jurisdictionIds[i];\n      require(jurisdictionId != 0, \"INVALID_JURISDICTION_ID\");\n\n      authorizedUserIdInfo[userId].jurisdictionId = jurisdictionId;\n      emit UpdateJurisdictionForUserId(userId, jurisdictionId, msg.sender);\n    }\n  }\n\n  /**\n   * @notice Adds a tokenLockup for the userId.\n   * @dev A no-op if lockup is not required for this transfer.\n   * The lockup entry is merged with the most recent lockup for that user\n   * if the expiration date is <= `lockupGranularity` from the previous entry.\n   */\n  function _addLockup(\n    address _userId,\n    uint _lockupExpirationDate,\n    uint _numberOfTokensLocked\n  ) internal\n  {\n    if(_numberOfTokensLocked == 0 || _lockupExpirationDate <= now)\n    {\n      // This is a no-op\n      return;\n    }\n    emit AddLockup(_userId, _lockupExpirationDate, _numberOfTokensLocked, msg.sender);\n    UserInfo storage info = authorizedUserIdInfo[_userId];\n    require(info.jurisdictionId != 0, \"USER_ID_UNKNOWN\");\n    info.totalTokensLocked = info.totalTokensLocked.add(_numberOfTokensLocked);\n    if(info.endIndex > 0)\n    {\n      Lockup storage lockup = userIdLockups[_userId][info.endIndex - 1];\n      if(lockup.lockupExpirationDate + lockupGranularity >= _lockupExpirationDate)\n      {\n        // Merge with the previous entry\n        // if totalTokensLocked can't overflow then this value will not either\n        lockup.numberOfTokensLocked += _numberOfTokensLocked;\n        return;\n      }\n    }\n    // Add a new lockup entry\n    userIdLockups[_userId][info.endIndex] = Lockup(_lockupExpirationDate, _numberOfTokensLocked);\n    info.endIndex++;\n  }\n\n  /**\n   * @notice Operators can manually add lockups for userIds.\n   * This may be used by the organization before transfering tokens\n   * from the initial supply.\n   */\n  function addLockups(\n    address[] calldata _userIds,\n    uint[] calldata _lockupExpirationDates,\n    uint[] calldata _numberOfTokensLocked\n  ) external\n    onlyOperator()\n  {\n    uint length = _userIds.length;\n    for(uint i = 0; i < length; i++)\n    {\n      _addLockup(\n        _userIds[i],\n        _lockupExpirationDates[i],\n        _numberOfTokensLocked[i]\n      );\n    }\n  }\n\n  /**\n   * @notice Checks the next lockup entry for a given user and unlocks\n   * those tokens if applicable.\n   * @param _ignoreExpiration bypasses the recorded expiration date and\n   * removes the lockup entry if there are any remaining for this user.\n   */\n  function _processLockup(\n    UserInfo storage info,\n    address _userId,\n    bool _ignoreExpiration\n  ) internal\n    returns (bool isDone)\n  {\n    if(info.startIndex >= info.endIndex)\n    {\n      // no lockups for this user\n      return true;\n    }\n    Lockup storage lockup = userIdLockups[_userId][info.startIndex];\n    if(lockup.lockupExpirationDate > now && !_ignoreExpiration)\n    {\n      // no more eligable entries\n      return true;\n    }\n    emit UnlockTokens(_userId, lockup.numberOfTokensLocked, msg.sender);\n    info.totalTokensLocked -= lockup.numberOfTokensLocked;\n    info.startIndex++;\n    // Free up space we don't need anymore\n    lockup.numberOfTokensLocked = 0;\n    lockup.lockupExpirationDate = 0;\n    // There may be another entry\n    return false;\n  }\n\n  /**\n   * @notice Anyone can process lockups for a userId.\n   * This is generally unused but may be required if a given userId\n   * has a lot of individual lockup entries which are expired.\n   */\n  function processLockups(\n    address _userId,\n    uint _maxCount\n  ) external\n  {\n    UserInfo storage info = authorizedUserIdInfo[_userId];\n    require(info.jurisdictionId > 0, \"USER_ID_UNKNOWN\");\n    for(uint i = 0; i < _maxCount; i++)\n    {\n      if(_processLockup(info, _userId, false))\n      {\n        break;\n      }\n    }\n  }\n\n  /**\n   * @notice Allows operators to remove lockup entries, bypassing the\n   * recorded expiration date.\n   * @dev This should generally remain unused. It could be used in combination with\n   * `addLockups` to fix an incorrect lockup expiration date or quantity.\n   */\n  function forceUnlock(\n    address _userId,\n    uint _maxCount\n  ) external\n    onlyOperator()\n  {\n    UserInfo storage info = authorizedUserIdInfo[_userId];\n    require(info.jurisdictionId > 0, \"USER_ID_UNKNOWN\");\n    for(uint i = 0; i < _maxCount; i++)\n    {\n      if(_processLockup(info, _userId, true))\n      {\n        break;\n      }\n    }\n  }\n\n  /**\n   * @notice Called by the callingContract before a transfer occurs.\n   * @dev This call will revert when the transfer is not authorized.\n   * This is a mutable call to allow additional data to be recorded,\n   * such as when the user aquired their tokens.\n   */\n  function authorizeTransfer(\n    address _from,\n    address _to,\n    uint _value,\n    bool _isSell\n  ) external\n  {\n    require(address(callingContract) == msg.sender, \"CALL_VIA_CONTRACT_ONLY\");\n\n    if(_to == address(0) && !_isSell)\n    {\n      // This is a burn, no authorization required\n      // You can burn locked tokens. Burning will effectively burn unlocked tokens,\n      // and then burn locked tokens starting with those that will be unlocked first.\n      return;\n    }\n\n    address fromUserId = authorizedWalletToUserId[_from];\n    require(fromUserId != address(0) || _from == address(0), \"FROM_USER_UNKNOWN\");\n    address toUserId = authorizedWalletToUserId[_to];\n    require(toUserId != address(0) || _to == address(0), \"TO_USER_UNKNOWN\");\n\n    // A single user can move funds between wallets they control without restriction\n    if(fromUserId != toUserId)\n    {\n      uint fromJurisdictionId = authorizedUserIdInfo[fromUserId].jurisdictionId;\n      uint toJurisdictionId = authorizedUserIdInfo[toUserId].jurisdictionId;\n      uint lockupLength = jurisdictionFlows[fromJurisdictionId][toJurisdictionId];\n      require(lockupLength > 0, \"DENIED: JURISDICTION_FLOW\");\n\n      // If the lockupLength is 1 then we interpret this as approved without any lockup\n      // This means any token lockup period must be at least 2 seconds long in order to apply.\n      if(lockupLength > 1 && _to != address(0))\n      {\n        // Lockup may apply for any action other than burn/sell (e.g. buy/pay/transfer)\n        uint lockupExpirationDate = now + lockupLength;\n        _addLockup(toUserId, lockupExpirationDate, _value);\n      }\n\n      if(_from == address(0))\n      {\n        // This is minting (buy or pay)\n        require(now >= startDate, \"WAIT_FOR_START_DATE\");\n      }\n      else\n      {\n        // This is a transfer (or sell)\n        UserInfo storage info = authorizedUserIdInfo[fromUserId];\n        while(true)\n        {\n          if(_processLockup(info, fromUserId, false))\n          {\n            break;\n          }\n        }\n        uint balance = callingContract.balanceOf(_from);\n        // This first require is redundant, but allows us to provide\n        // a more clear error message.\n        require(\n          balance >= _value,\n          \"INSUFFICIENT_BALANCE\"\n        );\n        require(\n          balance >= info.totalTokensLocked.add(_value),\n          \"INSUFFICIENT_TRANSFERABLE_BALANCE\"\n        );\n      }\n    }\n  }\n}\n",
  "sourcePath": "/home/blackjak/Projects/BC-DAPP/contracts/Whitelist.sol",
  "compiler": {
    "name": "solc",
    "version": "0.5.16+commit.9c3226ce.Emscripten.clang"
  },
  "schemaVersion": "3.0.23",
  "updatedAt": "2020-04-06T18:13:44.460Z",
  "devdoc": {
    "methods": {
      "approveNewUsers(address[],uint256[])": {
        "details": "The trader will be assigned a userId equal to their wallet address."
      },
      "authorizeTransfer(address,address,uint256,bool)": {
        "details": "This call will revert when the transfer is not authorized. This is a mutable call to allow additional data to be recorded, such as when the user aquired their tokens."
      },
      "detectTransferRestriction(address,address,uint256)": {
        "details": "this function is from the erc-1404 standard and currently in use by the DAT for the `pay` feature."
      },
      "forceUnlock(address,uint256)": {
        "details": "This should generally remain unused. It could be used in combination with `addLockups` to fix an incorrect lockup expiration date or quantity."
      },
      "getJurisdictionFlow(uint256,uint256)": {
        "return": "if transfers between these jurisdictions are allowed and if a token lockup should apply: - 0 means transfers between these jurisdictions is blocked (the default) - 1 is supported with no token lockup required - >1 is supported and this value defines the lockup length in seconds"
      },
      "getLockedTokenCount(address)": {
        "details": "this is a `view`-only way to determine how many tokens are still locked (info.totalTokensLocked is only accurate after processing lockups which changes state)"
      },
      "getUserIdLockup(address,uint256)": {
        "details": "use `getAuthorizedUserIdInfo` to determine the range of applicable lockupIndex."
      },
      "initialize(address)": {
        "details": "Done with `initialize` instead of a constructor in order to support using this contract via an Upgradable Proxy."
      },
      "isOwner()": {
        "details": "Returns true if the caller is the current owner."
      },
      "owner()": {
        "details": "Returns the address of the current owner."
      },
      "renounceOwnership()": {
        "details": "Leaves the contract without owner. It will not be possible to call `onlyOwner` functions anymore. Can only be called by the current owner.     * > Note: Renouncing ownership will leave the contract without an owner, thereby removing any functionality that is only available to the owner."
      },
      "revokeUserWallets(address[])": {
        "details": "If this is called in error, you can restore access with `addApprovedUserWallets`."
      },
      "transferOwnership(address)": {
        "details": "Transfers ownership of the contract to a new account (`newOwner`). Can only be called by the current owner."
      },
      "updateJurisdictionFlows(uint256[],uint256[],uint256[])": {
        "details": "note that this can be called with a partial list, only including entries to be added or which have changed.",
        "params": {
          "_lockupLengths": "defines transfer restrictions where: - 0 is not supported (the default) - 1 is supported with no token lockup required - >1 is supported and this value defines the lockup length in seconds."
        }
      }
    }
  },
  "userdoc": {
    "methods": {
      "addApprovedUserWallets(address[],address[])": {
        "notice": "Called by an operator to add wallets to known userIds."
      },
      "addLockups(address[],uint256[],uint256[])": {
        "notice": "Operators can manually add lockups for userIds. This may be used by the organization before transfering tokens from the initial supply."
      },
      "approveNewUsers(address[],uint256[])": {
        "notice": "Called by an operator to add new traders."
      },
      "authorizeTransfer(address,address,uint256,bool)": {
        "notice": "Called by the callingContract before a transfer occurs."
      },
      "configWhitelist(uint256,uint256)": {
        "notice": "Called by the owner to update the startDate or lockupGranularity."
      },
      "detectTransferRestriction(address,address,uint256)": {
        "notice": "Checks if there is a transfer restriction for the given addresses. Does not consider tokenLockup. Use `getLockedTokenCount` for that."
      },
      "forceUnlock(address,uint256)": {
        "notice": "Allows operators to remove lockup entries, bypassing the recorded expiration date."
      },
      "getAuthorizedUserIdInfo(address)": {
        "notice": "checks details for a given userId."
      },
      "getJurisdictionFlow(uint256,uint256)": {
        "notice": "checks for transfer restrictions between jurisdictions."
      },
      "getLockedTokenCount(address)": {
        "notice": "Returns the number of unlocked tokens a given userId has available."
      },
      "getUserIdLockup(address,uint256)": {
        "notice": "gets a specific lockup entry for a userId."
      },
      "initialize(address)": {
        "notice": "Called once to complete configuration for this contract."
      },
      "processLockups(address,uint256)": {
        "notice": "Anyone can process lockups for a userId. This is generally unused but may be required if a given userId has a lot of individual lockup entries which are expired."
      },
      "revokeUserWallets(address[])": {
        "notice": "Called by an operator to revoke approval for the given wallets."
      },
      "updateJurisdictionFlows(uint256[],uint256[],uint256[])": {
        "notice": "Called by the owner to define or update jurisdiction flows."
      },
      "updateJurisdictionsForUserIds(address[],uint256[])": {
        "notice": "Called by an operator to change the jurisdiction for the given userIds."
      }
    },
    "notice": "whitelist which manages KYC approvals, token lockup, and transfer restrictions for a DAT token."
  }
}